:100000006F000059000000001406000014060000F4
:10001000A9BDF9F314060000000000000000000074
:10002000140600001406000000000000000000009C
:10003000281400000000000014060000000000006A
:100040001406000014060000140600007E140000D0
:1000500014060000E4140000140600000000000074
:100060001406000014060000140600001406000028
:100070001406000014060000140600001406000018
:100080001406000014060000140600001406000008
:10009000011126CA4AC84EC606CE22CCAE84AA8911
:1000A000B2850149BDC663D49600B6840549338440
:1000B00096406353040001443A852286812F2A87A3
:1000C000B306850081473386F4406346C00463D39A
:1000D00004008144338696003305E6406304090238
:1000E0006372C7029307A002A30FF6FE9306F6FF02
:1000F000637AD700230FF6FE9306E6FF6374D700FA
:10010000A30EF6FEF2406244D2444249B249056170
:100110008280A68669BF3386F90083450600338650
:10012000F60085072300B60079BF814863560500B5
:1001300081E63305A04085489307100619C293074E
:1001400010043A88254E138667FFB377B5022A83D9
:1001500093F6F70F6364FE049386060393F6F60F97
:100160002300D800930718003355B5026376B30215
:10017000638808009306D0022380D70093072800E5
:100180003385E74009462380070081463346C50290
:10019000FD1763C7C60082803E8845BFB2967DBF0B
:1001A000B305D70083C8070003C805008506238070
:1001B000150123800701E9BF37C7004083270710D7
:1001C00093F7F7E715C193E707102320F71037D708
:1001D00000401C47B7063300D58F1CC7B7C7004087
:1001E00093870720A8CB828093E707082320F71086
:1001F000B7D600409C463707CEFF7D17F98F9CC6C7
:1002000013050008E1BF37D700405C43856693863D
:10021000C662F99BAA965CC383C70600B166105FED
:10022000938606F0A207B69781769386F60F758EB1
:10023000D18F1CDF5C4337060002B706000493E74A
:1002400017005CC3B7C700400967130707F493871B
:100250000720F8D3B7C5004037D7004083270709E8
:10026000F18F89C783270709F58F89E793870520D1
:10027000FC53EDF7B7D7004003A5070983A747094B
:100280001375F503A98393F7F707E2075D8D828065
:10029000797126D24ECE83A901C99387C1C822D4D1
:1002A00080434AD052CC2A8906D61385410E130AC0
:1002B00084009384C1C81386410E63470406856693
:1002C00013060606138701C613884114938841C795
:1002D000154E994E9386C660228A6309C504634110
:1002E0003407098E81451D2363020904639C89003C
:1002F000374700408347270093F7770F2301F70024
:1003000023A401C8130A140015A02310050023110B
:10031000050023120500231305002314050005041E
:100320003105231F05FE51BFE31144FFB250225493
:1003300023A0440102599254F249624A45618280E5
:10034000938781C98C431C4B032F4700B387F5402B
:100350006373FF040CCBC28F014F8345D70083C268
:100360004800910FB387E50193F7F70FB3D7C703A1
:10037000050FB3E7570283A208008A0796979C43AC
:1003800023AEFFFE3EC63EC4E319DFFD8347870070
:10039000BE95A306B70093172400C2979C4331056E
:1003A000050493D5B700F989B69583D50500231ABE
:1003B000B5FE93D57700F989B69583D50500231B43
:1003C000B5FE93D53700F989B69583D50500231C72
:1003D000B5FE93F5F7008605B69583D50500231D78
:1003E000B5FE93D53701BD83F989F98BB695B697DC
:1003F00083D5050083D70700231EB5FE231FF5FE16
:10040000E1BDB7F700E09447D847B7C7030093872B
:10041000C76CB69733B6D7003A9637F800E0032595
:1004200088008325C8003307F540B336E5003387DD
:10043000C540158FE34507FE8280411122C426C2C4
:100440004AC006C61304F5FFB71400407D5983A7C0
:10045000C40A93E7071023A6F40A653783A7840A22
:1004600093E7071023A4F40A11C0613F7D14E31041
:1004700024FFB24022449244024941018280B707DE
:1004800000E083A707388280370700E0832707381A
:10049000397106DE22DC26DA4AD84ED652D456D23C
:1004A0005AD05ECE62CC66CA93F7070C9306000C56
:1004B000638AD70A02C62E84C5E98327073889C70D
:1004C00093F7070891E3653FF25022856254D254B6
:1004D0004259B259225A925A025BF24B624CD24CA8
:1004E00021618280B30C9440668963D39A011D49CF
:1004F00093071B0003270A3893060A381376070868
:1005000021EE11C3AD3F014663D49B011306D9FF11
:1005100093853400CE9568001926B2473387990039
:100520002322FA3881470346070085077400BE96E8
:100530002380C6006305F9000507E39687FF93074C
:10054000490093E707F82306F100B247CA94232035
:10055000FA38E3C984F88DBFFD17C9FF9C4293E7C1
:10056000070C9CC201448DB7AA8981449D4A370B70
:100570001000370A00E0894B0D4CE1BF411122C445
:1005800006C62E841137B240228522444101828062
:10059000970100209381C1E617810020130181A6F5
:1005A000138581C89385C1156377B50023200500A5
:1005B0001105E36DB5FE171500001305E5099385D8
:1005C00041C0138681C8638AC5008322050023A029
:1005D000550011059105E3EAC5FE93070000FD42B1
:1005E000739002BC89629382828873A00230970262
:1005F0000000938222A193E2320073905230B7F749
:1006000000E0054798C385679387C79873901734B0
:100610007300203001A0AA8703C7070001E73385D4
:10062000A74082808507CDBF5971A2D4A6D2CAD077
:10063000CECED2CCD6CADEC686D6DAC8E2C4E6C2F0
:10064000EAC0AA842E893284B68B8149130A5002EB
:10065000A94A83470400130C1400A307F10085E3A3
:10066000B650265496540659664AD64A464BB64B5F
:10067000264C964C064D4E85F64965618280638C0A
:1006800047014A8685451305F10082945E8B62849A
:10069000AA99DA8B7DBF83471400930600031307E2
:1006A0002400A307F100130C0003639FD7063A84CC
:1006B000014D0147254601A8330D5D038347040022
:1006C00005040547369D938607FD93F5F60FE37500
:1006D000B6FE19C3A307F1006147EA8C6353A70173
:1006E000E14C9306C00601476398D7008347040096
:1006F00005470504A307F1008346F1009307400670
:100700006381F60663E5D70293078005638CF608DC
:10071000930730066389F60AA1D64A8685451305F4
:10072000F10082945E8BADB7130C000249B79307BA
:1007300050076388F602930780076385F6069307E0
:100740003007E39CF6FC138B4B0083AB0B005E85FC
:10075000D935AA8563060D083810E68662865E855F
:100760001DA0138B4B0015C79386B6F8180893B6D7
:10077000160003A50B000146A945453A3810E68648
:100780006286AA8508082932AA854A86281082949A
:1007900001B79307500718086394F6008546D1BF48
:1007A0008146C1BF03A50B00138686FA180885464B
:1007B00013361600C145953A138B4B00AA853810A5
:1007C000E6866286C1B783A70B00138B4B003810F7
:1007D000A307F100E686628685451305F10065B73B
:1007E0004A865E856DB7397132D42A862ED236D6C6
:1007F000814554101305C05706CE3AD83EDA42DC84
:1008000046DE36C61535F240216182802A96AA87D7
:100810006393C70082802380B7008507D5BF8147D7
:100820006313F60082803387F500834607003307A1
:10083000F50085072300D700E5B701476300E6020E
:10084000B307E5000507B386E50083C7070083C645
:10085000F6FFE385D7FE3385D7408280014582804D
:10086000411106C622C426C2AA8475332A84AA85E9
:1008700026851939056585451305455A3131B2403C
:10088000130514002244924441018280B70700E01E
:1008900083A707381307000C93F7070C638CE70452
:1008A0004111B707100022C406C62A848507B7067F
:1008B00000E003A70638138606389375070885E11C
:1008C00011C3753E41657D1593178400E98F93E749
:1008D0005708370700E02320F738054501A8FD1722
:1008E000E9FB1C42014593E7070C1CC2B2402244BD
:1008F0004101828001458280B71700409306700550
:100900002380D704130780FA2380E7040100010045
:1009100003C6B7041376F60DA385C7042380070426
:10092000010001002380D7042380E70401000100B7
:10093000370614001306860490C7238007040100BD
:10094000010001000100010001003726004093056D
:100950002005A303B6802380D7042380E704010089
:10096000010003C7B704136707F81377F70FA385D0
:10097000E7042380070401000100B70700E023A279
:1009800007381307000823A0E7388280157186CF47
:10099000A2CDA6CB8011CAC9CEC7D2C5D6C3DAC1F3
:1009A0005EDF62DD66DB6AD96ED7B937B7F700E084
:1009B0003D6623A007001306F6A590CB8146D4CB55
:1009C000814694C70147D8C7138781C923200700F0
:1009D000984337E600E0856C1367770098C3B71734
:1009E00000402320961193870708D85B9306C00820
:1009F000930560071377F7EFD8DB985337D900409A
:100A00001367071098D3D85B370300907D131377D3
:100A1000F7BFD8DB985B370E0020370800801367DC
:100A2000074098DB9853B70E0002C5781377F7BFDD
:100A300098D3B7C700401387072054CB4CCF54D36B
:100A400054DB74C36CC79306C00354D754DFBD6630
:100A5000BD0654C7938641CA74DBFD5614C71307FD
:100A600000482324E90203278904B70600F9FD168C
:100A7000337767003367C7012324E9040327890418
:100A8000B70500041165758F4D8F2324E9040327F2
:100A90008904B705F9FFFD15419B136797002324CF
:100AA000E90403278904FD79FD196D8F2324E904E6
:100AB00003278904B70500FFFD15336707012324C9
:100AC000E9040327C9047D1EB70A0200619B13676E
:100AD00037002326E9040327C90493870710514CE4
:100AE0001377F7F8136707032326E9040327C904DC
:100AF000138A81C9938441CA1377F78F136707302C
:100B00002326E9040327C904C11C6D8F2326E904A9
:100B10000327C9049385F8FF3367D7012326E90427
:100B2000032709056D8F498F2328E9040327490509
:100B3000419B1367C700232AE9040327490513676C
:100B40000708232AE9040327490533773701232AB5
:100B5000E9048328C9032167B3F8B800B3E8E800C3
:100B6000232E19030325C90337070040758D33650C
:100B7000D501232EA9028325C90337057000B3F5DB
:100B8000C501D98D232EB9020327C902B705FDFF80
:100B9000FD15498F2326E9020327C902F98E232672
:100BA000D9028326C90275777D17F98E0967D98E18
:100BB0002326D9028326C902ED8EB3E656012326E9
:100BC000D90283260903C19A2328D902832609035F
:100BD00093F6F6F02328D9028326090393F6F68FBD
:100BE0002328D90203270903B7060050498F232879
:100BF000E902032709031305D00D33776700558FEA
:100C00002328E90203278903B70608FFFD16758F1D
:100C1000B7068800558F232CE90203278903B706FE
:100C2000800033680701232C09039843558F98C32C
:100C30009843B7060010558F98C31307001DD8DBE3
:100C4000371701A4130787E7D8D7D857B70600820C
:100C5000FD16758FB7060024558FD8D737070900C2
:100C60001307370898D3A3098605EFF0EFD483273D
:100C700049001305500293F7F7EF2322F900832769
:100C80008902B3F93701232439038327C902BD9BA5
:100C90002326F90283278900B3E757012324F900AB
:100CA0008327490093E707012322F900EFF0AFD52E
:100CB0002A89935B850113057002EFF0CFD4935618
:100CC0008501AA89494513FDF607EFF0CFD3937D3F
:100CD000F503135B85018145AA8A1379F90313068D
:100CE0004002130504F53309B941232604F4393EC3
:100CF0003307890393F9F90393FBFB07137BFB0786
:100D0000B3893D418147D1459306C4F43388F60049
:100D100085073355B702330727411316450033764D
:100D20009601498E2300C800E390B7FE8565014611
:100D30005143C11513088002335566021307C4F4EA
:100D4000B308F70085074E96131745006D8F498F3E
:100D50002380E800E39207FF1306C4F4014737D865
:100D60000040A9450842930787028A07C29788C3B3
:100D700005071106E318B7FEB38B6B4115473387A0
:100D8000EB020566330BAB41232004F4232204F469
:100D9000232404F4854799454116930604F43355FA
:100DA000B7023388F600850733077741931645006D
:100DB000F18EC98E2300D800E391B7FE0566014786
:100DC0001943930806FF2D45B3556702930604F4B3
:100DD0003388F60085075A9793964500B3F61601B7
:100DE000CD8E2300D800E391A7FE832604F4B7D765
:100DF00000401387070834C7832644F474C783264A
:100E000084F434CBD843C176FD163D9BD8C3D84378
:100E1000799BD8C39857518F98D7D8571367070134
:100E2000D8D7985F137707FC3367B70198DF885FDF
:100E3000370700817D17698F3705007F33F5AA00DA
:100E4000598D88DFD84313670710D8C3B84B758F07
:100E5000B8CB9847B7062000558F98C7D847B7C674
:100E6000004013670701D8C7D843518FD8C3B7C70D
:100E700000401307400693870720F8D337D7004078
:100E800093870620FC5391C78327C70993F7071060
:100E9000E5FBB7D7004013870708544F1387C1C934
:100EA000FD8A14C3B44B4166D18EB4CBB44B10430E
:100EB000819AD18EB4CB94473706E0FF7D16F18E30
:100EC00094C714437946FD4789066364D6001C43E2
:100ED000890723A0F1CAB7D70040B84FC176FD16E5
:100EE000758FB8CF9847C1660145558F98C7D847C9
:100EF000B706EFFFFD1613670710D8C7D84337E9C9
:100F000000E0758FB7061000558FD8C3EFF0CFAA59
:100F10008347594105651305855A93E707F893F709
:100F2000F70FA30AF940B70720002320F9100D3A64
:100F30001545EFF08FD0B717004093870708D85BAF
:100F4000F176FD16758FD8DB985391669389410E23
:100F5000558F98D3B74700405147A381E700C20996
:100F600009472380E70093D9090113074004238030
:100F7000E7001387090642074183239EE70003C762
:100F8000170015461377F70F13670702A380E700D2
:100F9000B70708002320F910138501C19547A30660
:100FA000F5009385C1C73905EFF07F87232424F32B
:100FB000C57A938741C8814BFD1A056B138901C619
:100FC0002322F4F2B717004003AC470A137C0C400D
:100FD00063180C2885472305F90083270A00232E70
:100FE000F4F23387774185679387873863F5E71E87
:100FF000B7273344938717212326F4F499679387FF
:1010000057652318F4F4930720102319F4F4994733
:10101000230AF4F48565D547A30AF4F42146A547CD
:1010200093850559130574F5230BF4F4EFF02FFFA6
:10103000314681451305F4F5EFF04FFD9307100598
:10104000A305F4F6F5779387F77F2316F4F69D470B
:101050002307F4F6832784F21306E0041305F4F65D
:10106000938501C1EFF0AFFB930B10079307C4F416
:10107000E29783C507001305CB5B050CEFF0AFF6D5
:10108000E3167CFF2945EFF07F802945EFF01F80B4
:1010900037C7898E930767ED37575500232AF4F237
:1010A0009D6B930757552328F4F2017C93872B10EF
:1010B000B96C014DB7CD00402326F4F27D1C938C12
:1010C0000C2013860D105456832744F2232C24F24F
:1010D000F19A3387A70193E616008345070054D69B
:1010E000B7D60040D85619711305A00D759BD8D6F8
:1010F00003A70D1093F6F5078A8B137707F8558F22
:1011000023A0ED10EFF04F8B832744F337C7004047
:10111000130607101CC6832704F39305C4F4138534
:101120002B005CC28327C4F2130610072390FB0038
:10113000EFF0EFEE13870D202328770705671307DD
:10114000A7BB37D60040B70500013456ED8E99E2B3
:101150007D1765FF03A70D10856613860D10337785
:101160005701558F23A0ED1013870D20144BB3F6B4
:10117000860114CB896614C72322970703A70D1095
:10118000B7068000558F23A0ED105856719B58D696
:10119000094723A0ED2013870D207453EDFE014570
:1011A000EFF08F81B7C700401387072014438D8A63
:1011B00081CA344BE19A34CB144393E6860014C3BE
:1011C000050D0D47032184F3E31DEDEE0545EFF01A
:1011D000CFA6832BC4F3938781C89843E31407DE1B
:1011E0000347A900E30007DE73270030137777F782
:1011F00073100730054798C3374C004083472C00D5
:1012000093F7770F2301FC0083471C0093F7E70F48
:10121000A300FC0023160C00F327003093E7870897
:1012200073900730194723A8E1C80145795723A6D1
:10123000E1C8EFF0EF85930700062316FC00231C9E
:101240003C01A5472303FC00A1472301FC00834781
:101250001C0093F7F70F93E71700A300FC009DB362
:101260000145EFE07FF5B7C7004003A7072093864D
:1012700007200D8B11CBB84A619BB8CA03A7072082
:101280001367870023A0E720B7CC004093870C208A
:1012900023A2070637D700405C571305900DF59B36
:1012A0005CD783A70C1093F707F893E7570223A0A6
:1012B000FC10EFE07FF083A70C100567B3F7570130
:1012C000D98F23A0FC10B72737009387072D23A8B9
:1012D000FC10B72710089387179023AAFC10B717A4
:1012E00003009387476223ACFC10B707090093877C
:1012F000370823A0FC12B76700019387073123A2A8
:10130000FC128D679387E78B23A4FC12B7C7898EE5
:10131000938767ED23A4FC10B75755009387575563
:1013200023A2FC10854723A0FC20138741C923205A
:101330000700938741C998437DDF138741CA9946C7
:10134000814783457700130604F43E962300B600D8
:1013500085077D17E397D7FEB757443393876756C2
:101360002326F4F485679387271219469305C4F45E
:10137000130504F42318F4F4EFF02FCCE31D05E477
:1013800005651305455CEFF0AFCD03C6140083C5BA
:10139000040005651305C55EEFF0EFC4014C994CE0
:1013A000930704F4E29783C507001305CB5B050C94
:1013B000EFF06FC3E3169CFF2945EFF02FCD0565D5
:1013C00013050560EFF02FC2014C83C7140063635F
:1013D000FC042945EFF08FCB014C930C1007B38729
:1013E000840183C507001305CB5B050CEFF0AFBF8D
:1013F000E3179CFF2945EFF06FC985472305F900E6
:1014000083270A000545A30609002328F900EFF009
:10141000CF82D1B3B387840183C507001305CB5BAB
:10142000050CEFF04FBC55B701113AC637F700E095
:1014300042C2032807013EC4BD6746C0938707A682
:1014400083284701C2972ACE36C82ECC32CA33B57C
:1014500007011CCBB306150154CB23220700938749
:1014600081C998437245E245050798C35246C24672
:101470003247A247124882480561730020305D71EF
:1014800022DE86C696C49AC29EC02ADC2EDA32D8E4
:1014900036D63AD43ED242D046CE72CC76CA7AC83C
:1014A0007EC63744004083476400A18B81CB05454D
:1014B000EFE01FDE930700062316F4007254B640D7
:1014C000A642164386436255D2554256B25622571B
:1014D00092570258F248624ED24E424FB24F61616B
:1014E0007300203039713ECCB7C700409387072086
:1014F00036D094473ACE116706DE16DC1ADA1ED8CB
:101500002AD62ED432D242CA46C872C676C47AC20D
:101510007EC0F98EA9CED447F98EB1CAFD56B4D794
:1015200098C70145EFE05FC9B7C700409386072021
:10153000B84AF250E252619BB8CA03A7072052533F
:10154000C2531367870023A0E720054723AAE1C8F9
:101550003255A255125682567247E2475248C24847
:10156000324EA24E124F824F216173002030B7C716
:101570000040138707205047144793870710F18EC8
:1015800014C7D857719B13671700D8D759BF0000ED
:101590006265652D36363600000000000000000050
:1015A000000000000A0000002E7E206368333266CF
:1015B000756E2069534C4552207E2E0025303258DE
:1015C000200000000A2D2D2D2D2D2D2D2D2D2D2D02
:1015D0002D2D2D2D2D2D2D2D2D2D2D2D2D2D2D2D3B
:1015E0002D2D2D2D2D2D2D2D000000005253534952
:1015F0003A2564206C656E3A2564204D41433A00DB
:1016000052617720446174613A2000001111117118
:101610001117117771117171711771771711177196
:101620001717177777117771771777770102030408
:1016300005060708090A0C0D0E0F101112131415D8
:10164000161718191A1B1C1D1E1F202122232425C2
:0416500026000B273E
:10165400330000000033000000003300A2A1B2B147
:10166400C2C1D1D2D3D4D5D65500000000000000A9
:101674000000000000000000000000000000000066
:101684000000000000000000000000000000000056
:101694000000000000000000000000000000000046
:1016A4000000000000000000000000000000000036
:1016B40064000000010000000000000000000000C1
:1016C4000000002003000000BB4B3B2B1B0000006C
:0416D40025262700A0
:00000001FF
