:100000006F00F00F0000000082090000820900006C
:10001000A9BDF9F382090000000000000000000003
:1000200082090000820900000000000000000000BA
:100030006A180000000000008209000000000000B3
:10004000820900008209000082090000C018000037
:10005000820900002619000082090000000000004B
:100060008209000082090000820900008209000064
:100070008209000082090000820900008209000054
:100080008209000082090000820900008209000044
:10009000011126CA4AC84EC606CE22CCAE84AA8911
:1000A000B2850149A5CA63D49600B6840549338454
:1000B00096406353040001443A852286EF00702C79
:1000C0002A87B306850081473386F4406346C0041F
:1000D00063D304008144338696003305E64063040D
:1000E00009026372C7029307A002A30FF6FE9306EC
:1000F000F6FF637AD700230FF6FE9306E6FF6374DC
:10010000D700A30EF6FEF2406244D2444249B249FF
:1001100005618280A68661BF3386F90083450600AB
:100120003386F60085072300B60079BF8148635601
:10013000050081E63305A04085489307100619C2E3
:10014000930710043A88254E138667FFB377B502EC
:100150002A8393F6F70F6364FE049386060393F6EF
:10016000F60F2300D800930718003355B5026376C5
:10017000B302638808009306D0022380D700930758
:1001800028003385E740094623800700814633462F
:10019000C502FD1763C7C60082803E8845BFB29680
:1001A0007DBFB305D70083C8070003C805008506D7
:1001B0002380150123800701E9BF37C7004083274B
:1001C000071093F7F7E715C193E707102320F710FF
:1001D00037D700401C47B7063300D58F1CC7B7C7B9
:1001E000004093870720A8CB828093E7070823204D
:1001F000F710B7D600409C463707CEFF7D17F98F22
:100200009CC613050008E1BF37D700405C438966F0
:10021000938646BAF99BAA965CC383C70600B1666B
:10022000105F938606F0A207B69781769386F60F45
:10023000758ED18F1CDF5C4337060002B7060004C1
:1002400093E717005CC3B7C700400967130707F4BB
:1002500093870720F8D3B7C5004037D700408327DE
:100260000709F18F89C783270709F58F89E79387E6
:100270000520FC53EDF7B7D7004003A5070983A776
:1002800047091375F503A98393F7F707E2075D8D17
:10029000828003A601CE938601CA984ACC423307D6
:1002A000E640138EC11863F7E50C938701CA938863
:1002B00081CB03C7970083C5580090CB03A60800E5
:1002C00005071377F70F139325001A96A384E70009
:1002D00083280600834F0600034F1600834E260036
:1002E0001306F00F3306C702411146C646C09308F5
:1002F00040069386C11893028E01138881CB334642
:1003000016038968938848A81376F60F4696034625
:1003100006003383CF02B308CF02135383403386E2
:10032000CE0293D8884021862300F101A300E10189
:100330002301D10182431EC223026100A3021101E5
:100340002303C100924323A076009106E39ED2FCD2
:100350009306300663FBE600A3840700834748004A
:100360008505B3E5F502A302B8000A0572950841B8
:10037000410182800A057295084182805971CAD074
:10038000DEC683AB01CD9387C1CC9C43CECEA6D233
:10039000EAC09384C11286D6A2D4D2CCD6CADAC817
:1003A000E2C4E6C26EDE2AC6138D87001389C1CC73
:1003B0009389C11263CF07069386C118139727004C
:1003C000896A096B338AE6003E8D938DC1181384C8
:1003D00001CA938A4A9E938C81CB130B4BA8138638
:1003E0000906638AC40463497D07058E8145268515
:1003F000EF002079B247A1C3639CAB0137470040AF
:100400008347270093F7770F2301F70023A401CC3C
:10041000050D15A0239004002391040023920400ED
:1004200023930400239404008507B104239F04FE52
:1004300051B7E391A7FFB65026542320A901965443
:100440000659F649664AD64A464BB64B264C964C58
:10045000064DF25D65618280930760045CC083C7CE
:1004600041CB1147130C1D00FD1793F7F70F636E77
:10047000F72E8A07D6979C43828703A701CE1C4894
:1004800013066004B307F7406374F60418C8EE85DA
:100490000146954819480347E40003C54C00B307DB
:1004A000C70093F7F70FB3D717030506B3E7A70203
:1004B00003A50C008A07AA979C439CC13ECC3ED260
:1004C0009105E31A06FD834784003E972307E40065
:1004D00003250A0009679357B500130747B8F98B3E
:1004E000BA9783D70700B104110A239AF4FE9357F1
:1004F0007500F98BBA9783D70700628D239BF4FEB2
:1005000093573500F98BBA9783D70700239CF4FEE5
:100510009377F5008607BA9783D70700239DF4FEEB
:1005200093573501F98BBA9783D70700239EF4FEC2
:100530009357F500F98BBA9783D70700239FF4FEF2
:1005400079BD03A701CE1C4813066004B307F7402A
:10055000E370F6F88347D40018C803C75C0003A60D
:100560000C008A07EE9723A0070093152700834706
:10057000E4002E960C42139627006E960CC203469A
:100580008400A306F4002ECEB29793F7F70F194616
:1005900033F6C7022ED22307C4001546E37AF6F2DB
:1005A00083C74C0005073367F702A382EC000DB741
:1005B00003A701CE1C4813066004B307F740E37994
:1005C000F6F018C86E850147930810031303C0F9AD
:1005D000130E4006994F83C55C0083A70C000346A9
:1005E000E40013982500C29783C2070083C3170055
:1005F00003C82700B307E64093F7F70FB38EF20264
:10060000014FB38E1E0333CD6E02169D63480D005D
:1006100033CFCE03338FE241137FFF0FB3827702D4
:10062000814EB382120333CD62021E9D63480D00DA
:10063000B3CEC203B38ED34193FEFE0FB38707033D
:100640008143B3871703B3C26702C29263C8020033
:10065000B3C7C703B307F84093F3F70F931227000C
:10066000EE9223A002002300E501A300D50123019F
:10067000750005071105E310F7F783478400B2976B
:1006800093F7F70F33F7E7022307E4001547E37109
:10069000F7E483C74C008505B3E5F502A382BC00EF
:1006A00005BD03A701CE1C48294650C0B307F7403B
:1006B000E370F6E218C80347940003C65C0083A702
:1006C0000C000D071377F70F93152600AE97A304C0
:1006D000E40083A8070003C5070083C5170003C80B
:1006E00027009307F00FB307F70246D246D646D04D
:1006F00093084006B3C7170393F7F70FDA9783C73A
:1007000007003305F502B385F50221852302A10216
:10071000B307F802A185A302B102A1872303F10266
:100720008347E400125593952700EE9588C12AD49B
:1007300093053006E3FEE5D803478400A3040400D4
:10074000BA9793F7F70F194733F7E7022307E40047
:100750001547E37FF7D683C74C0005063366F602DC
:10076000A382CC00B5B3A9475CC06A851D369DB392
:10077000B7F700E09447D847B7C703009387C76C23
:10078000B69733B6D7003A9637F800E003258800CD
:100790008325C8003307F540B336E5003387C540ED
:1007A000158FE34507FE8280411122C426C24AC04C
:1007B00006C61304F5FFB71400407D5983A7C40A89
:1007C00093E7071023A6F40A653783A7840A93E703
:1007D000071023A4F40A11C0613F7D14E31024FF25
:1007E000B24022449244024941018280B70700E0AE
:1007F00083A707388280370700E0832707383971DD
:1008000006DE22DC26DA4AD84ED652D456D25AD048
:100810005ECE62CC66CA93F7070C9306000C638A1F
:10082000D70A02C62E84C5E98327073889C793F7FC
:10083000070891E3653FF25022856254D254425931
:10084000B259225A925A025BF24B624CD24C21614D
:100850008280B30C9440668963D39A011D49930743
:100860001B0003270A3893060A381376070821EE7F
:1008700011C3AD3F014663D49B011306D9FF938595
:100880003400CE9568003926B24733879900232279
:10089000FA3881470346070085077400BE96238017
:1008A000C6006305F9000507E39687FF9307490033
:1008B00093E707F82306F100B247CA942320FA38D9
:1008C000E3C984F88DBFFD17C9FF9C4293E7070C6D
:1008D0009CC201448DB7AA8981449D4A370B100000
:1008E000370A00E0894B0D4CE1BF411122C406C616
:1008F0002E841137B2402285224441018280970123
:1009000000209381E1AF177100201301A16F1385BF
:1009100081CC9385011B6377B50023200500110569
:10092000E36DB5FE171500001305852A938541C0B8
:10093000138681CC638AC5008322050023A055005D
:1009400011059105E3EAC5FE93070000FD4273908F
:1009500002BC89629382828873A0023097F2FFFF03
:100960009382426A93E2320073905230B7F700E00C
:10097000054798C38567938767E7739017347300BB
:10098000203001A0AA8703C7070001E73385A740ED
:1009900082808507CDBF5971A2D4A6D2CAD0CECE4F
:1009A000D2CCD6CADEC686D6DAC8E2C4E6C2EAC06F
:1009B000AA842E893284B68B8149130A5002A94A2F
:1009C00083470400130C1400A307F10085E3B6501D
:1009D000265496540659664AD64A464BB64B264C80
:1009E000964C064D4E85F64965618280638C4701C1
:1009F0004A8685451305F10082945E8B6284AA992C
:100A0000DA8B7DBF8347140093060003130724008D
:100A1000A307F100130C0003639FD7063A84014D2E
:100A20000147254601A8330D5D03834704000504F3
:100A30000547369D938607FD93F5F60FE375B6FEE1
:100A400019C3A307F1006147EA8C6353A701E14C86
:100A50009306C00601476398D70083470400054703
:100A60000504A307F1008346F10093074006638164
:100A7000F60663E5D70293078005638EF6089307B1
:100A80003006638CF60AA1D64A8685451305F10027
:100A900082945E8BADB7130C000249B793075007E1
:100AA0006388F602930780076387F606930730078B
:100AB000E39CF6FC138B4B0083AB0B005E85D935B2
:100AC000AA8563090D083810E68662865E8525A032
:100AD000138B4B0005CB9386B6F8180893B6160017
:100AE00003A50B000146A945EFF04FE43810E68658
:100AF0006286AA850808EFF0AFD9AA854A86281031
:100B00008294F5BD9307500718086394F600854654
:100B1000C1BF8146F1B703A50B00138686FA1808FA
:100B2000854613361600C145EFF04FE0138B4B009E
:100B3000AA853810E686628675BF83A70B00138BE3
:100B40004B003810A307F100E68662868545130541
:100B5000F10055B74A865E8565B7397132D42A8669
:100B600005652ED236D6814554101305A58E06CEC6
:100B70003AD83EDA42DC46DE36C6313DF2402161EB
:100B800082802A96AA876393C70082802380B70059
:100B90008507D5BF81476313F60082803387F50050
:100BA000834607003307F50085072300D700E5B724
:100BB0006D71232611102324811023229110000A25
:100BC000CEDFD2DDD6DBDAD9DED7E2D5E6D3EECF83
:100BD00023202111EAD1B7273344938717212326F5
:100BE000F4F09967938757652318F4F089659307A4
:100BF00020102319F4F0214699479385059D13058C
:100C000074F1230AF4F07937314681451305F4F184
:100C10008D3FF5779387F77F2316F4F21306E008EC
:100C20009D47938501C11305F4F237CA898EB75ADF
:100C300055006D7BC57B017CD96C2307F4F2814D97
:100C4000913F938941CCB7C40040130A6AED938A5F
:100C50005A55130B2B10FD1B7D1C938C0C2003A7E6
:100C6000C412232E24EEB387B901719B13671700BA
:100C700003C6070023A6E41237D700405C57317142
:100C80001305A00DF59B5CD783A704101377F60717
:100C90000A8D93F707F8D98F23A0F410EFF0EFD166
:100CA00023A4441123A25411D547A30AF4F0A54765
:100CB000230BF4F01306100B930710F923106D01AA
:100CC0009305C4F013052D00A305F4F2E1359387D5
:100CD000042023A8A70785679387A7BBB7D6004042
:100CE00037060001B856718F19E3FD17E5FF83A79A
:100CF0000410056793860410B3F77701D98F23A0FA
:100D0000F41093870420984B3377870198CB0967B9
:100D100098C723A2970783A7041037078000D98FAD
:100D200023A0F410DC56F19BDCD6894723A0F420E5
:100D300083A74426F5FF0145EFF02FC883A70420C1
:100D40008D8B81CF83A70425E19B23A8F42483A75F
:100D5000042093E7870023A0F420850D8D4703210D
:100D6000C4EFE39EFDEE130104EF8320C1100324C2
:100D700081108324411003290110FE596E5ADE5A56
:100D80004E5BBE5B2E5C9E5C0E5DFE4D51618280B3
:100D900001476300E602B307E5000507B386E500F7
:100DA00083C7070083C6F6FFE385D7FE3385D740A8
:100DB000828001458280411106C622C426C2AA84CF
:100DC000D1362A84AA8526853D34096585451305D3
:100DD000859F1534B240130514002244924441010A
:100DE0008280B7170040930670052380D70413074D
:100DF00080FA2380E7040100010003C6B7041376DC
:100E0000F60DA385C7042380070401000100238099
:100E1000D7042380E70401000100370614001306FD
:100E2000860490C72380070401000100010001002F
:100E3000010001003726004093052005A303B6807A
:100E40002380D7042380E7040100010003C7B7040F
:100E5000136707F81377F70FA385E70423800704C8
:100E600001000100B70700E023A2073813070008BC
:100E700023A0E7388280757106C722C526C34AC100
:100E8000CEDED2DCD6DADAD8DED6E2D4E6D2EAD0CA
:100E9000EECE813FB7F700E03D6623A007001306C2
:100EA000F6A590CB8146D4CB814694C70147D8C7DD
:100EB000138701CE232007009843B7E500E0056DB6
:100EC0001367770098C3B717004023A0A511938735
:100ED0000708D85B9306C008130660071377F7EF7F
:100EE000D8DB9853B7D400401367071098D3D85B6A
:100EF000370E00907D1E1377F7BFD8DB985BB70ED7
:100F00000020B70800801367074098DB9853370F1D
:100F1000000245781377F7BF98D3B7C7004013870F
:100F2000072054CB50CF54D354DB74C370C79306FF
:100F3000C00354D754DFBD66BD0654C79386C1CEE7
:100F400074DBFD5614C71307004898D4B844B7069D
:100F500000F9FD163377C7013367D701B8C4B84429
:100F6000370600041165758F518FB8C4B844370631
:100F7000F9FF7D16419B13679700B8C4B8447D798B
:100F80007D19718FB8C4B844370600FF7D163367EA
:100F90001701B8C4F844FD1E370A0200619B1367AD
:100FA0003700F8C4F84493870710D14B1377F7F84C
:100FB00013670703F8C4F844138401CE9389C1CEA4
:100FC0001377F78F13670730F8C4F844411D718F0A
:100FD000F8C4F8441306F8FF3367E701F8C4B848CB
:100FE000718F498FB8C803A34405137303FF1363BC
:100FF000C30023AA6404F84813670708F8C8F84830
:1010000033772701F8C803A8C40321673378C800E1
:101010003368E80023AE0403C85C37070040758DD1
:101020003365E501C8DCD05C370570003376D60146
:10103000598ED0DCD85475767D16498FD8D4D854C3
:10104000F98ED4D4D4540967F18ED98ED4D4D45423
:101050003706FDFF7D16F18EB3E64601D4D49458D1
:10106000C19A94D8945893F6F6F094D8945893F67D
:10107000F68F94D89858B7060050498F98D898584A
:101080001305D00D3377C701558F98D8985CB706F4
:1010900008FFFD16758FB7068800558F98DC985CA1
:1010A000B7068000B368170123AC14039843558F2B
:1010B00098C39843B7060010558F98C31307001DB7
:1010C000D8DB371701A4130787E7D8D7D857B70657
:1010D0000082FD16758FB7060024558FD8D73707C5
:1010E00009001307370898D3A3897505EFF0EF8C33
:1010F000DC401305500293F7F7EFDCC09C5433F942
:10110000270123A42403D8543D9BD8D49C44B3E79F
:1011100047019CC4DC4093E70701DCC0EFF0CF8EB1
:10112000AA84135B850113057002EFF0EF8D2A8905
:10113000935C85014945EFF02F8D137CF503935A9D
:101140008501130640022A8A93F4F403814568104E
:10115000B384844102D43534B38774031379F9031B
:10116000137BFB0793FCFC0793FAFA0733092C4126
:101170000147514634103385E600B3D5C702050751
:10118000858F93964500B3F6A601CD8E2300D5003A
:10119000E312C7FE05668146D14841161305800259
:1011A000B3D516033C103388E7000507CA9693971A
:1011B0004500F18FCD8F2300F800E313A7FE341014
:1011C000014737D5004029468C42930787028A079A
:1011D000AA978CC305079106E318C7FE330B5B4142
:1011E0009546B306DB020567B38A9A4102CE02D068
:1011F00002D2854799454117700833D5B6023308A6
:10120000F6008507B386664113164500798E498E30
:101210002300C800E392B7FE05660147194393080F
:1012200006FF2D45B355670274083388F60085071D
:10123000569793964500B3F61601CD8E2300D8003D
:10124000E392A7FEF246B7D700401387070834C7DA
:10125000825674C7925634CBD843C176FD163D9B57
:10126000D8C3D843799BD8C39857518F98D7D857AC
:1012700013670701D8D7985F137707FC3367870197
:1012800098DF885F370700817D17698F3705007FFA
:101290003375AA00598D88DFD84313670710D8C368
:1012A000B84B758FB8CB9847B7062000558F98C7B5
:1012B000D847B7C6004013670701D8C7D843518F36
:1012C000D8C3B7C700401307400693870720F8D359
:1012D00037D7004093870620FC5391C78327C7095F
:1012E00093F70710E5FBB7D7004013870708544F63
:1012F000138741CEFD8A14C3B44B4166D18EB4CB63
:10130000B44B1043819AD18EB4CB94473706E0FF9B
:101310007D16F18E94C714437946FD4789066364B0
:10132000D6001C43890723A4F1CEB7D70040B84F9D
:10133000C176FD16758FB8CF9847C1660145558FA8
:1013400098C7D847B706EFFFFD1613670710D8C731
:10135000D843B7E400E0758FB7061000558FD8C3A7
:10136000EFE0BFE583C7544109651305C59F93E7C7
:1013700007F893F7F70FA38AF440B707200023A0DC
:10138000F410153C1545EFF02FC2B71700409387B6
:101390000708D85BF176FD16758FD8DB98539166F8
:1013A000938AC112558F98D3D14637470040A30185
:1013B000D700C20A89462300D70093DA0A019306B0
:1013C00040042300D70093860A06C206C182231E6A
:1013D000D700834617000D4993F6F60F93E60602F1
:1013E000A300D7003707080023A0E410D85B93843C
:1013F00001C13D9BD8DB985B938BE4001367070129
:1014000098DB9853138B01CA3D9B98D3032C04009F
:10141000032A040002C202C4938C411A83C60C0042
:101420001307200F639BE60683A681CD1840158F16
:101430009306800C63F3E6060545EFF0EFB603A7CD
:101440004C0083C68C0083A50C0013568700E2066F
:101450006207A1810965558ED98D130505A1EFF0AD
:10146000CFEF25472546E6855E85A386E400EFF0AD
:101470006FF2EFF0EFF323800C00A3800C002381C8
:101480000C00A3810C0023820C00A3820C00238398
:101490000C00A3830C0023840C00371700400327A3
:1014A000470A137707403DEB032D0400A247054789
:1014B000A305EB0005673306FD40130787BB637F79
:1014C000C7040545EFF04FAE138641CD1842A389FE
:1014D000A401930517000CC22546A386C4004556F7
:1014E0002387C40013568700A387E4002388C40021
:1014F0001356070161832389E40013578D00238A63
:10150000E40013570D01A38AE40013578D01A3884B
:10151000C400238BE400EFF0AFE96AC41C4001452E
:101520003E8DEFE09FC937C7004083260720130692
:1015300007208D8A91CA344AE19A34CA832607204B
:1015400093E686002320D720B7C6004013870620E5
:101550002322070637D6004058561305900D759B79
:1015600058D603A60610137606F81366560223A073
:10157000C610EFE09FC4B7C6004003A60610C575AD
:10158000FD156D8E85654D8E23A0C610B7C7004032
:1015900037263700138707101306062D10CB372682
:1015A00010081306169050CB371603001306466238
:1015B00010CF370609001306360810D3376600012E
:1015C0001306063150D30D661306E68B10D737C6C7
:1015D000898E130666ED10C737565500130656550B
:1015E00050C3054723A0E6209386C1CD23A0060063
:1015F0001387C1CD1443FDDE37273344130717216A
:101600003AD419671307576519462C10138529001A
:101610002316E102EFF0CFF76315050E0545EFF055
:10162000AF9883C639031306100F3717004063863F
:10163000C6101306200F638CC6141306B00B6392FA
:10164000C60C0327470A1377074045CF03A7490372
:101650000965130505A39375F70F3AC6EFF0EFCFB1
:101660003247238AE1CA1840854661462328EB00A9
:1016700081451385C118A305DB0023070B00A38E4A
:1016800001CAEFF00FD073270030137777F773108C
:101690000730854623A4D1CC374700408346270036
:1016A00093F6760F2301D7008346170093F6E60FD3
:1016B000A300D70023160700F326003093E6860820
:1016C00073900630194623A8C1CC0145795623A64C
:1016D000C1CCEFE0BFCA374700409306000623168F
:1016E000D700231C5701A5462303D700A146230199
:1016F000D7008346170093F6F60F93E61600A30073
:10170000D7001840B716004083A6460AB3058741A4
:101710004D466371B6020946C18A630AC9120D4675
:101720006306C908631C090AD1CA18400549032A7F
:10173000040011A062873A8CD5B10327470A1377BA
:10174000074061D349572380EC0003A74903935610
:101750008700A380EC002381DC009356070161839E
:101760002382EC0003A78903A381DC009356870042
:10177000A382EC002383DC0093560701618323845A
:10178000EC001840A383DC0023ACE1CC9DBF032711
:10179000470A1377074035F783A5890309651305C1
:1017A00085A4B305BD40EFF04FBBA1BFC9F61440FF
:1017B0003AC2032A040036870149B5BF92478566BD
:1017C000938606FA3306F740E3F7C6F60965130574
:1017D00085A53AC6EFF02FDE3247B1BF3306474149
:1017E00091EA9306F00963E7C60018400949032A05
:1017F000040091B79306000A0549E3FEC6F20965A5
:10180000A306010223070102A30701022308010224
:10181000130545A6EFF02FDA2547A386E4002546F9
:101820001307A0FA2C105E852304E102A304210310
:1018300023050102A305010223060102EFF08FB583
:10184000EFF00FB718400D49032A0400EDB5E3840B
:1018500006EE0965A306010223070102A3070102A0
:1018600023080102130545A775B701113AC637F7DA
:1018700000E042C2032807013EC4BD6746C093870B
:1018800007A683284701C2972ACE36C82ECC32CA73
:1018900033B507011CCBB306150154CB2322070037
:1018A000938701CE98437245E245050798C3524697
:1018B000C2463247A2471248824805617300203071
:1018C0005D7122DE86C696C49AC29EC02ADC2EDADC
:1018D00032D836D63AD43ED242D046CE72CC76CA30
:1018E0007AC87EC63744004083476400A18B81CB11
:1018F0000545EFE0BFA8930700062316F4007254D5
:10190000B640A642164386436255D2554256B25659
:10191000225792570258F248624ED24E424FB24F6F
:1019200061617300203039713ECCB7C700409387A6
:10193000072036D094473ACE116706DE16DC1ADA55
:101940001ED82AD62ED432D242CA46C872C676C40F
:101950007AC27EC0F98EA9CED447F98EB1CAFD569F
:10196000B4D798C70145EFE05F85B7C700409386BD
:101970000720B84AF250E252619BB8CA03A7072079
:101980005253C2531367870023A0E720054723AEB5
:10199000E1CC3255A255125682567247E247524860
:1019A000C248324EA24E124F824F21617300203046
:1019B000B7C7004013870720504714479387071085
:1019C000F18E14C7D857719B13671700D8D759BF2A
:1019D0006265652D3535350000000000000000000F
:1019E000000000007A04000042050000B00500007D
:1019F000A2060000660700000A0000002E7E206399
:101A000068333266756E2069534C4552207E2E0035
:101A100053656E64696E672076616C7565313A2036
:101A200025752C2076616C7565323A2025750A0083
:101A30004E656F5F6C6F6164436F6D6D616E643A8C
:101A400020253032580A000074696D655F6469664C
:101A5000663A2025640A00004C6F6E67205072655C
:101A60007373000053696E676C6520436C69636B28
:101A700000000000446F75626C6520436C69636B05
:101A8000000000000001010101010202030404053D
:101A9000060708090A0B0D0E1011131416181A1B4D
:101AA0001D1F212426282A2D2F313436393C3E4152
:101AB0004447494C4F5255585B5E6164676A6D708C
:101AC0007376797D808386898C8F9295999C9FA26D
:101AD000A5A8ABADB0B3B6B9BCBEC1C4C6C9CBCE68
:101AE000D0D3D5D7DADCDEE0E2E4E6E8E9EBEDEEF0
:101AF000F0F1F3F4F5F6F7F8F9FAFBFCFCFDFEFE65
:101B0000FEFFFFFFFFFFFFFFFEFEFEFDFCFCFBFAFA
:101B1000F9F8F7F6F5F4F3F1F0EEEDEBE9E8E6E4C9
:101B2000E2E0DEDCDAD7D5D3D0CECBC9C6C4C1BEA5
:101B3000BCB9B6B3B0ADABA8A5A29F9C9995928F46
:101B40008C898683807D797673706D6A6764615E47
:101B50005B5855524F4C494744413E3C393634312D
:101B60002F2D2A282624211F1D1B1A181614131185
:101B7000100E0D0B0A0908070605040403020201F2
:101B80000101010111111171111711777111717199
:101B900071177177171117711717177777117771F9
:101BA000771777770102030405060708090A0C0D69
:101BB0000E0F101112131415161718191A1B1C1DCD
:0C1BC0001E1F20212223242526000B27B5
:101BCC00330000000033000000003300A2A1B2B1CA
:101BDC00C2C1D1D2D3D4D5D655000000000000002C
:101BEC0000000000000000000000000000000000E9
:101BFC0000000000000000000000000000000000D9
:101C0C0000000000000000000000000000000000C8
:101C1C0000000000000000000000000000000000B8
:101C2C0000000000000000000000000000000000A8
:101C3C000000000000000000000000000000000098
:101C4C000000000000000000000000000000000088
:101C5C000000000000000000000000000000000078
:101C6C004600000001000000000000000000000021
:101C7C0061000000000000200300000000000000D4
:041C8C0025262700E2
:00000001FF
