:100000006F00D00E000000007009000070090000B1
:10001000A9BDF9F370090000000000000000000015
:1000200070090000700900000000000000000000DE
:1000300078180000000000007009000000000000B7
:10004000700900007009000070090000CE1800005F
:100050007009000034190000700900000000000061
:1000600070090000700900007009000070090000AC
:10007000700900007009000070090000700900009C
:10008000700900007009000070090000700900008C
:10009000011126CA4AC84EC606CE22CCAE84AA8911
:1000A000B2850149A5CA63D49600B6840549338454
:1000B00096406353040001443A852286EF00502B9A
:1000C0002A87B306850081473386F4406346C0041F
:1000D00063D304008144338696003305E64063040D
:1000E00009026372C7029307A002A30FF6FE9306EC
:1000F000F6FF637AD700230FF6FE9306E6FF6374DC
:10010000D700A30EF6FEF2406244D2444249B249FF
:1001100005618280A68661BF3386F90083450600AB
:100120003386F60085072300B60079BF8148635601
:10013000050081E63305A04085489307100619C2E3
:10014000930710043A88254E138667FFB377B502EC
:100150002A8393F6F70F6364FE049386060393F6EF
:10016000F60F2300D800930718003355B5026376C5
:10017000B302638808009306D0022380D700930758
:1001800028003385E740094623800700814633462F
:10019000C502FD1763C7C60082803E8845BFB29680
:1001A0007DBFB305D70083C8070003C805008506D7
:1001B0002380150123800701E9BF37C7004083274B
:1001C000071093F7F7E715C193E707102320F710FF
:1001D00037D700401C47B7063300D58F1CC7B7C7B9
:1001E000004093870720A8CB828093E7070823204D
:1001F000F710B7D600409C463707CEFF7D17F98F22
:100200009CC613050008E1BF37D700405C438966F0
:100210009386C6C2F99BAA965CC383C70600B166E3
:10022000105F938606F0A207B69781769386F60F45
:10023000758ED18F1CDF5C4337060002B7060004C1
:1002400093E717005CC3B7C700400967130707F4BB
:1002500093870720F8D3B7C5004037D700408327DE
:100260000709F18F89C783270709F58F89E79387E6
:100270000520FC53EDF7B7D7004003A5070983A776
:1002800047091375F503A98393F7F707E2075D8D17
:10029000828003A601CF938641CB984ACC42330794
:1002A000E640138EC11963F7E50C938741CB938821
:1002B00001CD03C7970083C5580090CB03A6080063
:1002C00005071377F70F139325001A96A384E70009
:1002D00083280600834F0600034F1600834E260036
:1002E0001306F00F3306C702411146C646C09308F5
:1002F00040069386C11993028E01138801CD3346BF
:10030000160389689388C8B01376F60F469603469D
:1003100006003383CF02B308CF02135383403386E2
:10032000CE0293D8884021862300F101A300E10189
:100330002301D10182431EC223026100A3021101E5
:100340002303C100924323A076009106E39ED2FCD2
:100350009306300663FBE600A3840700834748004A
:100360008505B3E5F502A302B8000A0572950841B8
:10037000410182800A057295084182805971CAD074
:10038000DEC683AB81CE938741CE9C43CECEA6D230
:10039000EAC09384C11386D6A2D4D2CCD6CADAC816
:1003A000E2C4E6C26EDE2AC6138D8700138941CEF1
:1003B0009389C11363CF07069386C119139727004A
:1003C000896A096B338AE6003E8D938DC119938A41
:1003D0004A9F138441CB938C01CD130BCBB0138672
:1003E0000906638AC40463497D07058E8145268515
:1003F000EF000078B247A1C3639CAB0137470040D0
:100400008347270093F7770F2301F70023A001CE3E
:10041000050D15A0239004002391040023920400ED
:1004200023930400239404008507B104239F04FE52
:1004300051B7E391A7FFB65026542320A901965443
:100440000659F649664AD64A464BB64B264C964C58
:10045000064DF25D6561828083C7C1CC1147130CE4
:100460001D00FD1793F7F70F6368F72E8A07D697DD
:100470009C43828703A701CF1C485040B307F74035
:100480006374F60418C8EE85014695481948034779
:10049000D40003C54C00B307C70093F7F70FB3D7D9
:1004A00017030506B3E7A70203A50C008A07AA975E
:1004B0009C439CC13ECC3ED29105E31A06FD834786
:1004C00084003E97A306E40003250A0009679357BA
:1004D000B5001307C7C0F98BBA9783D70700B104DB
:1004E000110A239AF4FE93577500F98BBA9783D7B4
:1004F0000700628D239BF4FE93573500F98BBA9762
:1005000083D70700239CF4FE9377F5008607BA97FC
:1005100083D70700239DF4FE93573501F98BBA97D3
:1005200083D70700239EF4FE9357F500F98BBA9703
:1005300083D70700239FF4FE5DB503A701CF1C48B6
:100540005040B307F740E371F6F88347C40018C87A
:1005500003C75C0003A60C008A07EE9723A00700E0
:10056000931527008347D4002E960C42139627003C
:100570006E960CC2034684002306F4002ECEB2977A
:1005800093F7F70F194633F6C7022ED2A306C4001D
:100590001546E37BF6F283C74C0005073367F70285
:1005A000A382EC0015B703A701CF1C485040B30746
:1005B000F740E37BF6F018C86E85014793081003F7
:1005C0001303C0F9130E4006994F83C55C0083A73F
:1005D0000C000346D40013982500C29783C207007D
:1005E00083C3170003C82700B307E64093F7F70F4C
:1005F000B38EF202014FB38E1E0333CD6E02169DF1
:1006000063480D0033CFCE03338FE241137FFF0FDA
:10061000B3827702814EB382120333CD62021E9DF4
:1006200063480D00B3CEC203B38ED34193FEFE0FD9
:10063000B38707038143B3871703B3C26702C2922C
:1006400063C80200B3C7C703B307F84093F3F70FBB
:1006500093122700EE9223A002002300E501A300DD
:10066000D5012301750005071105E310F7F783474E
:100670008400B29793F7F70F33F7E702A306E4007D
:100680001547E373F7E483C74C008505B3E5F5022E
:10069000A382BC0015BD03A701CF1C485040B3077F
:1006A000F740E373F6E218C80347940003C65C0002
:1006B00083A70C000D071377F70F93152600AE974D
:1006C000A304E40083A8070003C5070083C517003F
:1006D00003C827009307F00FB307F70246D246D6A8
:1006E00046D093084006B3C7170393F7F70FDA977E
:1006F00083C707003305F502B385F5022185230280
:10070000A102B307F802A185A302B102A1872303C6
:10071000F1028347D400125593952700EE9588C1C6
:100720002AD493053006E3F1E5DA03478400A304F5
:100730000400BA9793F7F70F194733F7E702A306B8
:10074000E4001547E372F7D883C74C00050633660B
:10075000F602A382CC008DBB6A85253E85BBB7F728
:1007600000E09447D847B7C703009387C76CB69794
:1007700033B6D7003A9637F800E003258800832582
:10078000C8003307F540B336E5003387C540158F01
:10079000E34507FE8280411122C426C24AC006C634
:1007A0001304F5FFB71400407D5983A7C40A93E7EB
:1007B000071023A6F40A653783A7840A93E7071076
:1007C00023A4F40A11C0613F7D14E31024FFB2405A
:1007D00022449244024941018280B70700E083A786
:1007E00007388280370700E083270738397106DE33
:1007F00022DC26DA4AD84ED652D456D25AD05ECE11
:1008000062CC66CA93F7070C9306000C638AD70A7A
:1008100002C62E84C5E98327073889C793F70708DE
:1008200091E3653FF25022856254D2544259B25945
:10083000225A925A025BF24B624CD24C2161828066
:10084000B30C9440668963D39A011D4993071B003A
:1008500003270A3893060A381376070821EE11C3D6
:10086000AD3F014663D49B011306D9FF9385340045
:10087000CE9568003926B247338799002322FA388B
:1008800081470346070085077400BE962380C60093
:100890006305F9000507E39687FF9307490093E78F
:1008A00007F82306F100B247CA942320FA38E3C9B7
:1008B00084F88DBFFD17C9FF9C4293E7070C9CC2CB
:1008C00001448DB7AA8981449D4A370B1000370A2D
:1008D00000E0894B0D4CE1BF411122C406C62E84B5
:1008E0001137B240228522444101828097010020C5
:1008F000938101B1177100201301C170138501CEDE
:100900009385411B6377B500232005001105E36D36
:10091000B5FE1715000013052534938541C01386D5
:1009200001CE638AC5008322050023A0550011056E
:100930009105E3EAC5FE93070000FD42739002BCF7
:1009400089629382828873A0023097F2FFFF9382BC
:10095000626B93E2320073905230B7F700E00547C4
:1009600098C38567938767EF7390173473002030BF
:1009700001A0AA8703C7070001E73385A74082804B
:100980008507CDBF5971A2D4A6D2CAD0CECED2CCC3
:10099000D6CADEC686D6DAC8E2C4E6C2EAC0AA84EF
:1009A0002E893284B68B8149130A5002A94A8347A3
:1009B0000400130C1400A307F10085E3B65026547D
:1009C00096540659664AD64A464BB64B264C964C28
:1009D000064D4E85F64965618280638C47014A86E3
:1009E00085451305F10082945E8B6284AA99DA8BA7
:1009F0007DBF834714009306000313072400A30759
:100A0000F100130C0003639FD7063A84014D0147A0
:100A1000254601A8330D5D038347040005040547FF
:100A2000369D938607FD93F5F60FE375B6FE19C361
:100A3000A307F1006147EA8C6353A701E14C9306D9
:100A4000C00601476398D7008347040005470504A3
:100A5000A307F1008346F100930740066381F60681
:100A600063E5D70293078005638EF6089307300687
:100A7000638CF60AA1D64A8685451305F100829457
:100A80005E8BADB7130C000249B79307500763881C
:100A9000F602930780076387F60693073007E39C07
:100AA000F6FC138B4B0083AB0B005E85D935AA8512
:100AB00063090D083810E68662865E8525A0138BD3
:100AC0004B0005CB9386B6F8180893B6160003A51D
:100AD0000B000146A945EFF06FE53810E686628607
:100AE000AA850808EFF0CFDAAA854A8628108294F2
:100AF000F5BD9307500718086394F6008546C1BFFB
:100B00008146F1B703A50B00138686FA18088546BF
:100B100013361600C145EFF06FE1138B4B00AA8529
:100B20003810E686628675BF83A70B00138B4B00D7
:100B30003810A307F100E686628685451305F100AB
:100B400055B74A865E8565B7397132D42A86056500
:100B50002ED236D6814554101305858D06CE3AD84F
:100B60003EDA42DC46DE36C6313DF240216182800B
:100B70002A96AA876393C70082802380B7008507DF
:100B8000D5BF81476313F60082803387F500834623
:100B900007003307F50085072300D700E5B70147B5
:100BA0006300E602B307E5000507B386E50083C7E7
:100BB000070083C6F6FFE385D7FE3385D7408280E2
:100BC00001458280411106C622C426C2AA8455333B
:100BD0002A84AA852685393109658545130585A0AE
:100BE0001131B24013051400224492444101828025
:100BF000B70700E083A707381307000C93F7070C2B
:100C0000638CE7044111B707100022C406C62A848A
:100C10008507B70600E003A70638138606389375E4
:100C2000070885E111C3553E41657D159317840082
:100C3000E98F93E75708370700E02320F738054589
:100C400001A8FD17E9FB1C42014593E7070C1CC2F4
:100C5000B240224441018280014582806D71232689
:100C600011102324811023229110000A2320211126
:100C7000CEDFD2DDD6DBDAD9DED7E2D5E6D3EAD1D4
:100C8000EECFB7273344938717212326F4F09967D3
:100C9000938757652318F4F0930720102319F4F075
:100CA0009947230AF4F08965D547A30AF4F0214651
:100CB000A5479385059E130574F1230BF4F0D135F8
:100CC000314681451305F4F16535930710F9A30505
:100CD000F4F2F5779387F77F2316F4F21306E00812
:100CE0009D47938541C21305F4F22307F4F2814432
:100CF000493D89691309100B9307C4F0A69783C572
:100D000007001385C9A085048135E39724FF294591
:100D1000C535294537CA898EB75A55006D7BC57BC5
:100D2000017CD96CF135814D9389C1CDB7C40040A8
:100D3000130A6AED938A5A55130B2B10FD1B7D1C69
:100D4000938C0C2003A7C412232E24EEB387B90181
:100D5000719B1367170003C6070023A6E41237D759
:100D600000405C5731711305A00DF59B5CD783A73C
:100D700004101377F6070A8D93F707F8D98F23A08D
:100D8000F410EFF08FC323A4441123A254111306CF
:100D9000100B23106D019305C4F013052D00D533FE
:100DA0009387042023A8A70785679387A7BBB7D697
:100DB000004037060001B856718F19E3FD17E5FFB3
:100DC00083A70410056793860410B3F77701D98FC2
:100DD00023A0F41093870420984B3377870198CB96
:100DE000096798C723A2970783A7041037078000D5
:100DF000D98F23A0F410DC56F19BDCD6894723A0C1
:100E0000F42083A74426F5FF0145EFF00FBB83A72D
:100E100004208D8B81CF83A70425E19B23A8F42494
:100E200083A7042093E7870023A0F420850D8D4736
:100E30000321C4EFE398FDF0130104EF8320C110F8
:100E4000032481108324411003290110FE596E5A96
:100E5000DE5A4E5BBE5B2E5C9E5C0E5DFE4D5161AC
:100E60008280B7170040930670052380D7041307CC
:100E700080FA2380E7040100010003C6B70413765B
:100E8000F60DA385C7042380070401000100238019
:100E9000D7042380E704010001003706140013067D
:100EA000860490C7238007040100010001000100AF
:100EB000010001003726004093052005A303B680FA
:100EC0002380D7042380E7040100010003C7B7048F
:100ED000136707F81377F70FA385E7042380070448
:100EE00001000100B70700E023A20738130700083C
:100EF00023A0E7388280757106C722C526C34AC180
:100F0000CEDED2DCD6DADAD8DED6E2D4E6D2EAD049
:100F1000EECE813FB7F700E03D6623A00700130641
:100F2000F6A590CB8146D4CB814694C70147D8C75C
:100F3000138701CF23200700984337E600E0056DB3
:100F40001367770098C3B71700402320A611938733
:100F50000708D85B9306C008930560071377F7EF7F
:100F6000D8DB9853938BC1CF1367071098D3D85B06
:100F7000B7D40040370E00901377F7BFD8DB985BEB
:100F80007D1EB70E00201367074098DB9853370883
:100F90000080370F00021377F7BF98D3B7C7004020
:100FA0001387072054CB4CCF54D354DB74C36CC786
:100FB0009306C00354D754DFBD66BD0654C7232A29
:100FC0007707FD5614C71307004898D4B844B706EE
:100FD00000F9FD163377C7013367D701B8C4B844A9
:100FE000B7050004C578758F4D8FB8C4B844B705F0
:100FF000F9FFFD15419B13679700B8C4B84411650C
:10100000FD796D8FB8C4B844B70500FFFD1533678F
:101010000701B8C4F844FD19FD1E619B1367370032
:10102000F8C4F844370A0200938707101377F7F8DB
:1010300013670703F8C4F844514C138401CF1377A6
:10104000F78F13670730F8C4F8441389C1CF411DE7
:101050006D8FF8C4F8449385F8FF3367E701F8C44F
:10106000B8486D8F498FB8C803A34405137303FFB5
:101070001363C30023AA6404F84813670708F8C879
:10108000F84833773701F8C883A8C4032167B3F859
:10109000B800B3E8E80023AE1403C85C370700408B
:1010A000758D3365E501C8DCCC5C37057000B3F5A0
:1010B000D501D98DCCDCD854B705FDFFFD15498F7E
:1010C000D8D4D854F98ED4D4D45475777D17F98EEA
:1010D0000967D98ED4D4D454ED8EB3E64601D4D466
:1010E0009458C19A94D8945893F6F6F094D894589A
:1010F00093F6F68F94D89858B7060050498F98D831
:1011000098581305D00D3377C701558F98D8985C40
:10111000B70608FFFD16758FB7068800558F98DC57
:10112000985CB70680003368070123AC040398433A
:10113000558F98C39843B7060010558F98C313076F
:10114000001DD8DB371701A4130787E7D8D7D85776
:10115000B7060082FD16758FB7060024558FD8D7C5
:10116000370709001307370898D3A3098605EFF05E
:10117000CF84DC401305500293F7F7EFDCC09C549A
:10118000B3F9370123A43403D8543D9BD8D49C44ED
:10119000B3E747019CC4DC4093E70701DCC0EFF0F4
:1011A000AF86AA84135B850113057002EFF0CF852B
:1011B000AA89935D85014945EFF00F85937CF5037E
:1011C000935A8501130640022A8A93F4F403814559
:1011D0006810B384944102D4613A3387840393F94D
:1011E000F903137BFB0793FDFD0793FAFA07B38915
:1011F0003C418147514634103385F600B355C70250
:101200008507058F93964500B3F6A601CD8E230082
:10121000D500E392C7FE05668146D1484116130505
:101220008002B3D5160338103308F7008507CE9631
:1012300013974500718F4D8F2300E800E393A7FEBD
:101240003410014737D5004029468C429307870266
:101250008A07AA978CC305079106E318C7FE330BCC
:101260005B419546B306DB020566B38ABA4102CEFE
:1012700002D002D2854799454116780833D5B60287
:101280003308F7008507B386664113174500718F51
:10129000498F2300E800E392B7FE05660147194332
:1012A000930806FF2D45B355670274083388F6008E
:1012B0008507569793964500B3F61601CD8E230009
:1012C000D800E392A7FEF246B7D70040138707087D
:1012D00034C7825674C7925634CBD843C176FD16B4
:1012E0003D9BD8C3D843799BD8C39857518F98D783
:1012F000D85713670701D8D7985F137707FC336770
:10130000970198DF885F370700817D17698F370560
:10131000007F3375AA00598D88DFD8431367071003
:10132000D8C3B84B758FB8CB9847B7062000558FF8
:1013300098C7D847B7C6004013670701D8C7D84336
:10134000518FD8C3B7C700401307400693870720C3
:10135000F8D337D7004093870620FC5391C78327E3
:10136000C70993F70710E5FBB7D7004013870708B5
:10137000544F138741CFFD8A14C3B44B4166D18EBD
:10138000B4CBB44B1043819AD18EB4CB944737067B
:10139000E0FF7D16F18E94C714437946FD47890618
:1013A0006364D6001C43890723ACF1CEB7D7004055
:1013B000B84FC176FD16758FB8CF9847C166014505
:1013C000558F98C7D847B706EFFFFD16136707106C
:1013D000D8C7D843B7E400E0758FB7061000558F23
:1013E000D8C3EFE09FDD83C754410965130545A1CC
:1013F00093E707F893F7F70FA38AF440B7072000A5
:1014000023A0F410EFF00FFC1545EFF0CFB8B7179D
:10141000004093870708D85BF176FD16758FD8DBFF
:1014200098539166014B558F98D3D146374700406A
:10143000A301D70089462300D70093064004230068
:10144000D7009386C113C206C18236C293860606B0
:10145000C206C182231ED70083461700814C8D49E6
:1014600093F6F60F93E60602A300D70037070800AD
:1014700023A0E410D85B014D3D9BD8DB985B138A19
:1014800041CB1367070198DB9853938441C23D9B7E
:1014900098D3032C0400832A0400938701CD3EC413
:1014A000B717004083A7470A93F7074063960714CE
:1014B000184085472305FA008567B306A74193873F
:1014C000077763F9D70693162B00938741C0B69729
:1014D00003AD070009659547EA85050B130585A24D
:1014E0003AC6336BFB02EFF02FE6A547A386F40064
:1014F0009307B0FB2387F40093578D002388F400F3
:1015000093570D01A387A401A388F400135D8D01F7
:10151000FD572389A401A389F400238AF400A38A38
:10152000F400238BF400EFF06FF30545EFF0AFA666
:1015300032473A8D938701CE984351E30347AA007F
:101540003DCF73270030137777F7731007300547C7
:1015500098C3B747004003C727001377770F23814D
:10156000E70003C717001377E70FA380E700239670
:1015700007007327003013678708731007309946F8
:1015800023A4D1CE0145F95623A2D1CEEFE01FDF2F
:10159000B7470040130700062396E7001247239C35
:1015A000E70025472383E70021472381E70003C79E
:1015B00017001377F70F13671700A380E7001C408D
:1015C000371700400327470A33868741CD4663F229
:1015D000C6028946418B6383D9288D46638ED91C08
:1015E000639409206303071E1C408549832A040075
:1015F00011A0E2873E8C6DB50145EFE01FBCB7C777
:10160000004003A70720938607200D8B11CBB84A13
:10161000619BB8CA03A707201367870023A0E720B0
:1016200037C700409307072023A20706B7D600401C
:10163000DC561305900DF59BDCD68326071093F638
:1016400006F893E656022320D710EFE01FB737C7FE
:1016500000408326071045767D16F18E0566D18EF3
:101660002320D710B7C70040B7263700938707104D
:101670009386062D94CBB726100893861690D4CB6C
:10168000B71603009386466294CFB7060900938687
:10169000360894D3B766000193860631D4D38D669D
:1016A0009386E68B94D7B7C6898E938666ED94C7EA
:1016B000B756550093865655D4C385472320F72047
:1016C0009387C1CE23A007001387C1CE1C43FDDF43
:1016D000B7273344938717213ED49967938757657B
:1016E00019462C10130529002316F102EFF02FCB19
:1016F000E31205E40965130505A4EFF0AFCC03463A
:101700001900834509000965130585A6EFF0CFC3CD
:10171000DE87896683C527001385C6A03EC6EFF025
:10172000AFC2B247138721D085078966E314F7FE5D
:101730002945EFF0EFCB8325890209651305C5A77D
:10174000A181C205C181EFF02FC08345190309654E
:101750001305C5A8EFF04FBF8345390383268903DE
:101760000326490309651305C5A9EFF0EFBD8325DD
:10177000490393F7F50F3EC6E38E07DA0965BE8588
:10178000130585ACEFF04FBCB2472386F1CC8547FB
:101790002305FA001C40614681452328FA00A24730
:1017A0001385C119A3060A00A3820700EFF04FBCFE
:1017B0000545EFE05FFEBDBBE31E07E21840BE8CAF
:1017C000832A0400BA87814935B50567B3869741F6
:1017D000130707FAE370D7E20965130505AE3EC6A5
:1017E000EFF04FBEB24739B5B386574111EB13073F
:1017F000F0096367D7001C408949832A0400DDBBD8
:101800001307000A8549E377D7DE0965A3060102BD
:1018100023070102A3070102230801021305C5AE35
:10182000EFF04FBAA547A386F4009307A0FA23046C
:10183000F102138521C325462C10A304310323058F
:101840000102A305010223060102EFF08FB3EFF0BE
:10185000EFC01C408D49832A040069BBE30C07D804
:101860000965A306010223070102A3070102230859
:1018700001021305C5AF6DB701113AC637F700E095
:1018800042C2032807013EC4BD6746C0938707A62E
:1018900083284701C2972ACE36C82ECC32CA33B528
:1018A00007011CCBB306150154CB232207009387F5
:1018B00001CF98437245E245050798C35246C24698
:1018C0003247A247124882480561730020305D719B
:1018D00022DE86C696C49AC29EC02ADC2EDA32D890
:1018E00036D63AD43ED242D046CE72CC76CA7AC8E8
:1018F0007EC63744004083476400A18B81CB0545F9
:10190000EFE0DFA7930700062316F4007254B640F9
:10191000A642164386436255D2554256B2562257C6
:1019200092570258F248624ED24E424FB24F616116
:101930007300203039713ECCB7C700409387072031
:1019400036D094473ACE116706DE16DC1ADA1ED876
:101950002AD62ED432D242CA46C872C676C47AC2B9
:101960007EC0F98EA9CED447F98EB1CAFD56B4D740
:1019700098C70145EFE07F84B7C7004093860720F2
:10198000B84AF250E252619BB8CA03A707205253EB
:10199000C2531367870023A0E720054723A6E1CEA3
:1019A0003255A255125682567247E2475248C248F3
:1019B000324EA24E124F824F216173002030B7C7C2
:1019C0000040138707205047144793870710F18E74
:1019D00014C7D857719B13671700D8D759BF000099
:1019E0006265652D353535000000000000000000FF
:1019F00000000000740400003A050000A605000085
:101A000096060000580700000A00000025303258F2
:101A1000200000002E7E206368333266756E2069D8
:101A2000534C4552207E2E0053656E64696E6720CC
:101A300076616C75653A20253038580A0000000040
:101A40000A2D2D2D2D2D2D2D2D2D2D2D2D2D2D2DE9
:101A50002D2D2D2D2D2D2D2D2D2D2D2D2D2D2D2DB6
:101A60002D2D2D2D00000000525353493A2564209E
:101A70006C656E3A2564204D41433A006D736743AF
:101A80006F64653A2025303458200A0067726F75FC
:101A90007049643A2025303258200A00436F6D6D3A
:101AA000616E643A20253032582056616C7565317C
:101AB0003A20253038582056616C7565323A202519
:101AC0003038580A000000004E656F5F6C6F61642B
:101AD000436F6D6D616E643A20253032580A000004
:101AE0004C6F6E67205072657373000053696E67A8
:101AF0006C6520436C69636B00000000446F756285
:101B00006C6520436C69636B0000000000010101FB
:101B10000101020203040405060708090A0B0D0E61
:101B20001011131416181A1B1D1F212426282A2DE4
:101B30002F313436393C3E414447494C4F52555879
:101B40005B5E6164676A6D707376797D8083868978
:101B50008C8F9295999C9FA2A5A8ABADB0B3B6B956
:101B6000BCBEC1C4C6C9CBCED0D3D5D7DADCDEE08B
:101B7000E2E4E6E8E9EBEDEEF0F1F3F4F5F6F7F880
:101B8000F9FAFBFCFCFDFEFEFEFFFFFFFFFFFFFF7F
:101B9000FEFEFEFDFCFCFBFAF9F8F7F6F5F4F3F1B6
:101BA000F0EEEDEBE9E8E6E4E2E0DEDCDAD7D5D30F
:101BB000D0CECBC9C6C4C1BEBCB9B6B3B0ADABA85C
:101BC000A5A29F9C9995928F8C898683807D79763A
:101BD00073706D6A6764615E5B5855524F4C49473C
:101BE00044413E3C393634312F2D2A282624211FEA
:101BF0001D1B1A1816141311100E0D0B0A090807D5
:101C00000605040403020201010101011111117111
:101C10001117117771117171711771771711177190
:101C20001717177777117771771777770102030402
:101C300005060708090A0C0D0E0F101112131415D2
:101C4000161718191A1B1C1D1E1F202122232425BC
:041C500026000B2738
:101C54000100000002000000030000000400000076
:101C640005000000330000000033000000003300D2
:101C7400A2A1B2B1C2C1D1D2D3D4D5D655000000ED
:101C84000000000000000000000000000000000050
:101C94000000000000000000000000000000000040
:101CA4000000000000000000000000000000000030
:101CB4000000000000000000000000000000000020
:101CC4000000000000000000000000000000000010
:101CD4000000000000000000000000000000000000
:101CE40000000000000000000000000000000000F0
:101CF40000000000000000000000000000000000E0
:101D04000000000046000000010000000000000088
:101D1400000000000000000061000000140000202A
:0C1D24000300000000000000252627003E
:00000001FF
