:100000006F002051000000009605000096050000DA
:10001000A9BDF9F3960500000000000000000000F3
:10002000960500009605000000000000000000009A
:1000300032100000000000009605000000000000E3
:100040009605000096050000960500008810000047
:10005000960500009C0F00009605000000000000BF
:100060009605000096050000960500009605000024
:100070009605000096050000960500009605000014
:100080009605000096050000960500009605000004
:10009000011126CA4AC84EC606CE22CCAE84AA8911
:1000A000B2850149BDC663D49600B6840549338440
:1000B00096406353040001443A852286C92D2A875D
:1000C000B306850081473386F4406346C00463D39A
:1000D00004008144338696003305E6406304090238
:1000E0006372C7029307A002A30FF6FE9306F6FF02
:1000F000637AD700230FF6FE9306E6FF6374D700FA
:10010000A30EF6FEF2406244D2444249B249056170
:100110008280A68669BF3386F90083450600338650
:10012000F60085072300B60079BF814863560500B5
:1001300081E63305A04085489307100619C293074E
:1001400010043A88254E138667FFB377B5022A83D9
:1001500093F6F70F6364FE049386060393F6F60F97
:100160002300D800930718003355B5026376B30215
:10017000638808009306D0022380D70093072800E5
:100180003385E74009462380070081463346C50290
:10019000FD1763C7C60082803E8845BFB2967DBF0B
:1001A000B305D70083C8070003C805008506238070
:1001B000150123800701E9BF37D700405C438566FE
:1001C0009386C612F99BAA965CC383C70600B166E4
:1001D000105F938606F0A207B69781769386F60F96
:1001E000758ED18F1CDF5C4337060002B706000412
:1001F00093E717005CC3B7C700400967130707F40C
:1002000093870720F8D3B7C5004037D7004083272E
:100210000709F18F89C783270709F58F89E7938736
:100220000520FC53EDF7B7D7004003A5070983A7C6
:1002300047091375F503A98393F7F707E2075D8D67
:100240008280797126D24ECE83A9C1C4938781C49E
:1002500022D480434AD052CC2A8906D61385010A7B
:10026000130A8400938481C41386010A6347040639
:10027000856613060606138781C293880118938545
:10028000C1C3194E954E9386C610228A6309C504D0
:1002900063413407098E8145DD2963020904639CAB
:1002A0008900374700408347270093F7770F2301E2
:1002B000F70023A201C4130A140015A0231005009F
:1002C0002311050023120500231305002314050044
:1002D00005043105231F05FE51BFE31144FFB25051
:1002E000225423A0440102599254F249624A4561C2
:1002F0008280938741C503A807001C4B032F47004A
:10030000B307F8406378FF042328070103C85500AA
:1003100003AF05008347C700931F28007E9F832FEC
:100320000F00139F2700469F2320FF01034F8700E4
:100330007EC67EC4FA9793F7F70F33FFC7032306F1
:10034000E70163F9FE0083C7450005083368F8023A
:10035000A382050193172400C6979C433105050429
:1003600013D8B7001378E801369803580800231A09
:1003700005FF13D877001378E80136980358080072
:10038000231B05FF13D837001378E801369803586C
:100390000800231C05FF13F8F700060836980358D9
:1003A0000800231D05FF13D83701BD831378E8012A
:1003B000F98B3698B6970358080083D70700231E99
:1003C00005FF231FF5FED1B5B7F700E09447D847E6
:1003D000B7C703009387C76CB69733B6D7003A9672
:1003E00037F800E0032588008325C8003307F5406F
:1003F000B336E5003387C540158FE34507FE82809D
:10040000B70700E083A707388280370700E083271B
:100410000738397106DE22DC26DA4AD84ED652D4A5
:1004200056D25AD05ECE62CC66CA93F7070C9306BA
:10043000000C638AD70A02C62E84C5E983270738D1
:1004400089C793F7070891E3653FF250228562540C
:10045000D2544259B259225A925A025BF24B624C20
:10046000D24C21618280B30C9440668963D39A0197
:100470001D4993071B0003270A3893060A38137691
:10048000070821EE11C3AD3F014663D49B0113065B
:10049000D9FF93853400CE9568001926B24733877B
:1004A00099002322FA388147034607008507740024
:1004B000BE962380C6006305F9000507E39687FF13
:1004C0009307490093E707F82306F100B247CA945F
:1004D0002320FA38E3C984F88DBFFD17C9FF9C4279
:1004E00093E7070C9CC201448DB7AA8981449D4AB9
:1004F000370B1000370A00E0894B0D4CE1BF41116A
:1005000022C406C62E841137B240228522444101FE
:100510008280970100209381A1EE178100201301B2
:1005200061AE138541C4938581196377B50023209B
:1005300005001105E36DB5FE171500001305C5C1D3
:10054000938541C0138641C4638AC5008322050098
:1005500023A0550011059105E3EAC5FE93070000AD
:10056000FD42739002BC89629382828873A002303C
:1005700097020000938202A993E2320073905230F6
:10058000B7F700E0054798C385679387878E739018
:1005900017347300203001A0AA8703C7070001E7C2
:1005A0003385A74082808507CDBF5971A2D4A6D2DA
:1005B000CAD0CECED2CCD6CADEC686D6DAC8E2C47F
:1005C000E6C2EAC0AA842E893284B68B8149130A16
:1005D0005002A94A83470400130C1400A307F1003A
:1005E00085E3B650265496540659664AD64A464B79
:1005F000B64B264C964C064D4E85F6496561828079
:10060000638C47014A8685451305F10082945E8B11
:100610006284AA99DA8B7DBF834714009306000396
:1006200013072400A307F100130C0003639FD706F0
:100630003A84014D0147254601A8330D5D038347E8
:10064000040005040547369D938607FD93F5F60FD4
:10065000E375B6FE19C3A307F1006147EA8C635343
:10066000A701E14C9306C00601476398D700834772
:10067000040005470504A307F1008346F100930732
:1006800040066381F60663E5D70293078005638C15
:10069000F608930730066389F60AA1D64A8685458F
:1006A0001305F10082945E8BADB7130C000249B7BD
:1006B000930750076388F602930780076385F60661
:1006C00093073007E39CF6FC138B4B0083AB0B00C6
:1006D0005E85D935AA8563060D083810E6866286E0
:1006E0005E851DA0138B4B0015C79386B6F81808BE
:1006F00093B6160003A50B000146A9453D343810FA
:10070000E6866286AA8508086132AA854A8628108C
:10071000829401B79307500718086394F600854642
:10072000D1BF8146C1BF03A50B00138686FA180806
:10073000854613361600C145CD3A138B4B00AA856A
:100740003810E6866286C1B783A70B00138B4B0077
:100750003810A307F100E686628685451305F1008F
:1007600065B74A865E856DB7397132D42A862ED236
:1007700036D6814554101305E04F06CE3AD83EDAFE
:1007800042DC46DE36C61535F240216182802A966B
:10079000AA876393C70082802380B7008507D5BFEF
:1007A00081476313F60082803387F5008346070094
:1007B0003307F50085072300D700E5B7411106C6CA
:1007C00022C426C2AA84C93B2A84AA852685353933
:1007D000056585451305050F0D39B2401305140055
:1007E0002244924441018280B70700E083A7073882
:1007F0001307000C93F7070C638CE7044111B7074C
:10080000100022C406C62A848507B70600E003A7A5
:100810000638138606389375070885E111C3CD366F
:1008200041657D1593178400E98F93E757083707D3
:1008300000E02320F738054501A8FD17E9FB1C421D
:10084000014593E7070C1CC2B2402244410182805B
:1008500001458280B7170040930670052380D704B6
:10086000130780FA2380E7040100010003C6B704E0
:100870001376F60DA385C704238007040100010049
:100880002380D7042380E704010001003706140009
:100890001306860490C723800704010001000100AD
:1008A0000100010001003726004093052005A30345
:1008B000B6802380D7042380E7040100010003C72A
:1008C000B704136707F81377F70FA385E7042380AE
:1008D000070401000100B70700E023A2073813074F
:1008E000000823A0E7388280597186D6A2D4A6D208
:1008F000CAD0CECED2CCD6CADAC8DEC6E2C4E6C2F0
:10090000913FB7F700E03D6623A007001306F6A568
:1009100090CB8146D4CB814694C70147D8C7138773
:1009200041C5232007009843B7E800E0856C1367B2
:10093000770098C3B717004023A098119387070842
:10094000D85B13066007370F00901377F7EFD8DBFB
:1009500098537D1FB70F00201367071098D337C730
:100960000040930607209307C008DCCAD0CEDCD233
:10097000DCDAFCC2F0C69307C003DCD6DCDEBD6760
:10098000BD07DCC6938701C6FCDAFD579CC613067B
:100990000048B7D7004090D7B047B70500F9FD151C
:1009A0003376E6013366F601B0C7B0473705000479
:1009B000B70E00806D8E498EB0C7B0473705F9FF7E
:1009C0007D15419A13669600B0C7B047B702000282
:1009D000457E698EB0C7B047370500FF7D15336689
:1009E000D601B0C7F0471168FD1F619A1366360043
:1009F000F0C7F04713070710D14A1376F6F81366CD
:100A00000603F0C7F047138941C5C11C1376F68F62
:100A100013660630F0C7F047698EF0C7F04713053C
:100A2000FEFF33665600F0C7B04B698E3366060191
:100A3000B0CB03A84705137808FF1368C80023AAA2
:100A40000705F04B7D787D1813660608F0CBF04B58
:100A500033760601F0CB03AEC7032166337EAE00CA
:100A6000336ECE0023AEC70303A3C703370600408F
:100A70003373B3003363530023AE6702C85F370399
:100A800070003375F501518DC8DFD05775757D1530
:100A900033666600D0D7D057F18DCCD7CC570966D6
:100AA000E98DD18DCCD7CC573705FDFF7D15E98D6C
:100AB00037050200C98DCCD78C5BC1998CDB8C5B70
:100AC00093F5F5F08CDB8C5B93F5F58F8CDB905B0D
:100AD000B70500503366660090DB905B3376E60125
:100AE0004D8E90DB905FB70508FFFD156D8EB70545
:100AF00088004D8E90DF905FB7058000B36ED60101
:100B000023ACD70310434D8E10C31043B70500101C
:100B10004D8E10C31306001D50DB371601A41306BB
:100B200086E750D75057B7050082FD156D8EB70583
:100B300000244D8E50D7370609001306360810D30F
:100B4000A389580510431376F6E71366061010C301
:100B5000984737063300518F98C71307D00DB8CA8E
:100B6000D8431377F7EFD8C398573378070123A4F6
:100B70000703D457BD9AD4D79847498F98C7D8430D
:100B80001305500213670701D8C3EFF0EFE22A8480
:100B9000135A850113057002EFF00FE22A8B135CE4
:100BA00085014945EFF04FE1937BF50393598501AA
:100BB00013064002AA841374F403814568083304C1
:100BC000744102CCE93633075403137BFB03137AD9
:100BD000FA07137CFC0793F9F907338B6B418147C4
:100BE000514634083385F600B355C7028507018F97
:100BF00093964500B3F69601CD8E2300D500E3927F
:100C0000C7FE05668146D148411613058002B3D55B
:100C1000160338083308F7008507DA96139745005E
:100C2000718F4D8F2300E800E393A7FE3C088146B7
:100C300037D5004029468C43138786020A072A9736
:100C40000CC385069107E398C6FE330A3A419546E0
:100C5000B306DA020567B389894102C602C802CA2F
:100C6000854799454117700033D5B6023308F60021
:100C70008507B386464113164500798E498E2300B9
:100C8000C800E392B7FE056601471943930806FFC3
:100C90002D45B355670274003388F60085074E97DB
:100CA00093964500B3F61601CD8E2300D800E3924B
:100CB000A7FEB246B7D700401387070834C7C2461D
:100CC0003705007FE98C74C7D24634CBD843B706CA
:100CD0000081FD163D9BD8C3D843799BD8C3985754
:100CE000518F98D7D85713670701D8D7985F1377D4
:100CF00007FC3367770198DF985F758FD98C84DFA5
:100D0000D843C176FD1613670710D8C3B84B758F4B
:100D1000B8CB9847B7062000558F98C7D847B7C6B5
:100D2000004013670701D8C7D843518FD8C3B7C74E
:100D300000401307400693870720F8D337D70040B9
:100D400093870620FC5391C78327C70993F70710A1
:100D5000E5FBB7D7004013870708544F138781C5B9
:100D6000FD8A14C3B44B4166D18EB4CBB44B10434F
:100D7000819AD18EB4CB94473706E0FF7D16F18E71
:100D800094C714437946FD4789066364D6001C4323
:100D9000890723AEF1C4B7D70040B84FC176FD161E
:100DA000758FB8CF9847C1663706CEFF558F98C765
:100DB000D847B706EFFFFD1613670710D8C7D8430B
:100DC0007D161144758FB7061000558FD8C337C7ED
:100DD00000408326071013070720B714004093F63E
:100DE000F6E793E606082320D7F09447FD59F18EE5
:100DF00094C7930700083CCB37E700E0834757418F
:100E000093E707F893F7F70FA30AF740B707200017
:100E10002320F71083A7C40A93E7071023A6F40A38
:100E2000EFF08FDA83A7840A93E7071023A4F40A6C
:100E300019C0EFF06FD97D14E31E34FD056513056D
:100E4000450FAD3AB717004093870708D85BF17696
:100E5000FD16758FD8DB98539166558F98D3938480
:100E6000010AB74700405147A381E700C204094780
:100E70002380E700C180130740042380E700138725
:100E8000040642074183239EE70003C7170013842B
:100E900001101377F70F13670702A380E700B7E786
:100EA00000E03707080023A0E710938741C003271D
:100EB000090083C6970023AA070098CB2385D70093
:100EC000938781C298CB15472395E7001307F00F4E
:100ED000A38407002386070098C3130A0408AA897D
:100EE000856A0C4013858A101104EFF0FF87E31A1E
:100EF0008AFE2945D538130600088145138501105F
:100F000079306146814513850118EFF05F88054C03
:100F100037440040194B795A93090006832709008A
:100F2000138741C41C43FDFBF327003093F777F789
:100F300073900730232087018347240093F7770FAE
:100F40002301F4008347140093F7E70FA300F40094
:100F500023160400F327003093E7870873900730C7
:100F60009387C1C423A067010145938781C423A04F
:100F70004701EFF00FAD23163401231C9400A54761
:100F80002303F400A1472301F4008347140093F7DF
:100F9000F70F93E71700A300F40049B741113EC0D3
:100FA000B7C700409387072036C494473AC21167F9
:100FB00032C6F98EB9CED447F98EA1CEFD56B4D73C
:100FC00098C7B7C7004093860710984237D60040AD
:100FD000938707201377F7E71367070898C2184627
:100FE000B706CEFFFD16758F18C613070008B8CBDD
:100FF000B84B3246A246619BB8CB98431367870033
:1010000098C3054723A8E1C41247824741017300F2
:101010002030B7C7004013870720504714479387F5
:101020000710F18E14C7D857719B13671700D8D7D4
:1010300049BF01113AC637F700E042C20328070151
:101040003EC4BD6746C0938707A683284701C29761
:101050002ACE36C82ECC32CA33B507011CCBB30614
:10106000150154CB23220700938741C5984372454D
:10107000E245050798C35246C2463247A247124886
:1010800082480561730020305D7122DE86C696C4F9
:101090009AC29EC02ADC2EDA32D836D63AD43ED254
:1010A00042D046CE72CC76CA7AC87EC6374400405B
:1010B00083476400A18B81CB0545EFF08F989307A0
:1010C00000062316F4007254B640A6421643864327
:1010D0006255D2554256B256225792570258F2489C
:1010E000624ED24E424FB24F616173002030000019
:1010F0000A0000002E7E206368333266756E206918
:10110000534C4552207E2E0025752000111111717F
:10111000111711777111717171177177171117719B
:10112000171717777711777177177777010203040D
:1011300005060708090A0C0D0E0F101112131415DD
:10114000161718191A1B1C1D1E1F202122232425C7
:0411500026000B2743
:10115400A0000000320000000001000000000000B8
:10116400000000000000000077000000007700008D
:1011740000007700FF0000002800000001000000CC
:101184000000000000000000180000200300000020
:00000001FF
