:100000006F00804200000000AC040000AC0400005F
:10001000A9BDF9F3AC0400000000000000000000DE
:10002000AC040000AC040000000000000000000070
:10003000AC04000000000000AC0400000000000060
:10004000AC040000AC040000AC040000AC040000F0
:10005000AC0400004E0E0000AC04000000000000E4
:10006000AC040000AC040000AC040000AC040000D0
:10007000AC040000AC040000AC040000AC040000C0
:10008000AC040000AC040000AC040000AC040000B0
:10009000011126CA4AC84EC606CE22CCAE84AA8911
:1000A000B2850149BDC663D49600B6840549338440
:1000B00096406353040001443A852286E5232A874B
:1000C000B306850081473386F4406346C00463D39A
:1000D00004008144338696003305E6406304090238
:1000E0006372C7029307A002A30FF6FE9306F6FF02
:1000F000637AD700230FF6FE9306E6FF6374D700FA
:10010000A30EF6FEF2406244D2444249B249056170
:100110008280A68669BF3386F90083450600338650
:10012000F60085072300B60079BFB7F700E09847CF
:10013000DC4737F800E0B305E50033B5A5003E9590
:10014000032688008326C800B307B6403337F6007D
:10015000B387A640998FE3C507FE82808148635626
:10016000050081E63305A04085489307100619C2B3
:10017000930710043A88254E138667FFB377B502BC
:100180002A8393F6F70F6364FE049386060393F6BF
:10019000F60F2300D800930718003355B502637695
:1001A000B302638808009306D0022380D700930728
:1001B00028003385E74009462380070081463346FF
:1001C000C502FD1763C7C60082803E8845BFB29650
:1001D0007DBFB305D70083C8070003C805008506A7
:1001E0002380150123800701E9BF37C7004083271B
:1001F000071093F7F7E715C193E707102320F710CF
:1002000037D700401C47B7063300D58F1CC7B7C788
:10021000004093870720A8CB828093E7070823201C
:10022000F710B7D600409C463707CEFF7D17F98FF1
:100230009CC613050008E1BF37D700405C438566C4
:100240009386C6F4F99BAA965CC383C70600B16681
:10025000105F938606F0A207B69781769386F60F15
:10026000758ED18F1CDF5C4337060002B706000491
:1002700093E717005CC3B7C700400967130707F48B
:1002800093870720F8D3B7C5004037D700408327AE
:100290000709F18F89C783270709F58F89E79387B6
:1002A0000520FC53EDF7B7D7004003A5070983A746
:1002B00047091375F503A98393F7F707E2075D8DE7
:1002C000828001114AC837C9030022CC26CA4EC613
:1002D00006CE1304F5FFB71400401309C96CFD598D
:1002E00083A7C40A4A8593E7071023A6F40A353D7D
:1002F00083A7840A93E7071023A4F40A19C04A8548
:100300002D357D14E31E34FDF2406244D24442494F
:10031000B24905618280B70700E083A70738828071
:10032000370700E083270738397106DE22DC26DA3A
:100330004AD84ED652D456D25AD05ECE62CC66CA75
:1003400093F7070C9306000C638AD70A02C62E8423
:10035000C5E98327073889C793F7070891E3653F05
:10036000F25022856254D2544259B259225A925ABA
:10037000025BF24B624CD24C21618280B30C944000
:10038000668963D39A011D4993071B0003270A3826
:1003900093060A381376070821EE11C3AD3F0146D4
:1003A00063D49B011306D9FF93853400CE95680072
:1003B0001926B247338799002322FA38814703462A
:1003C000070085077400BE962380C6006305F90008
:1003D0000507E39687FF9307490093E707F823068D
:1003E000F100B247CA942320FA38E3C984F88DBFDC
:1003F000FD17C9FF9C4293E7070C9CC201448DB7CF
:10040000AA8981449D4A370B1000370A00E0894BC6
:100410000D4CE1BF411122C406C62E841137B240F3
:10042000228522444101828097010020938141FD71
:1004300017810020130101BD138581C093854105FB
:100440006377B500232005001105E36DB5FE171590
:100450000000130565B2938541C0138681C0638A8D
:10046000C5008322050023A0550011059105E3EA8C
:10047000C5FE93070000FD42739002BC896293821F
:10048000828873A00230970200009382A2B793E2A1
:10049000320073905230B7F700E0054798C3856784
:1004A00093878797739017347300203001A0AA8731
:1004B00003C7070001E73385A74082808507CDBFCA
:1004C0005971A2D4A6D2CAD0CECED2CCD6CADEC65C
:1004D00086D6DAC8E2C4E6C2EAC0AA842E8932848B
:1004E000B68B8149130A5002A94A83470400130CB2
:1004F0001400A307F10085E3B6502654965406591C
:10050000664AD64A464BB64B264C964C064D4E850F
:10051000F64965618280638C47014A8685451305EB
:10052000F10082945E8B6284AA99DA8B7DBF834747
:1005300014009306000313072400A307F100130C13
:100540000003639FD7063A84014D0147254601A861
:10055000330D5D038347040005040547369D9386EC
:1005600007FD93F5F60FE375B6FE19C3A307F10077
:100570006147EA8C6353A701E14C9306C00601472B
:100580006398D7008347040005470504A307F100DB
:100590008346F100930740066381F60663E5D702C0
:1005A00093078005638CF608930730066389F60A83
:1005B000A1D64A8685451305F10082945E8BADB7BE
:1005C000130C000249B7930750076388F60293079C
:1005D00080076385F60693073007E39CF6FC138BD0
:1005E0004B0083AB0B005E85D935AA8563060D08E9
:1005F0003810E68662865E851DA0138B4B0015C7FA
:100600009386B6F8180893B6160003A50B000146AA
:10061000A945A9363810E6866286AA8508088D3C69
:10062000AA854A862810829401B7930750071808B4
:100630006394F6008546D1BF8146C1BF03A50B0078
:10064000138686FA1808854613361600C1453936D2
:10065000138B4B00AA853810E6866286C1B783A744
:100660000B00138B4B003810A307F100E68662865F
:1006700085451305F10065B74A865E856DB739710A
:1006800032D42A862ED236D68145541013054041E5
:1006900006CE3AD83EDA42DC46DE36C61535F240A2
:1006A000216182802A96AA876393C7008280238073
:1006B000B7008507D5BF81476313F6008280338773
:1006C000F500834607003307F50085072300D700B0
:1006D000E5B70D71232E1114232C8114232A9114B4
:1006E000801223263115232441152322511523205E
:1006F0006115232E7113232C8113232A9113232692
:10070000B113232821152328A113AA840545553E9A
:1007100085652D46938585F0130544EB693F2D468D
:10072000930544EB130504EC793785652D469385D5
:1007300045F11305B4EC4137930750F1A685231B0F
:10074000F4EC49469307707D1305A4ED231CF4ECEB
:100750009D3705659305C002130585EF37CA898E5D
:10076000B75A55000D6BC57B017C996C093F814DD3
:10077000938941C0B7C40040130A6AED938A5A5561
:10078000130B2BC0FD1B7D1C938C0C8003A7C41284
:10079000232624EAB387B901719B1367170003C6A8
:1007A000070023A6E41237D700405C577971130580
:1007B000A00DF59B5CD783A704101377F6070A8D6D
:1007C00093F707F8D98F23A0F410053423A444111C
:1007D00023A254111306C00223106D01930504ECEB
:1007E00013052D00C93D9387042023A8A70785671B
:1007F0009387A7BBB7D6004037060001B856718F64
:1008000019E3FD17E5FF83A704100567938604101D
:10081000B3F77701D98F23A0F41093870420984B66
:100820003377870198CB096798C723A2970783A7D7
:10083000041037078000D98F23A0F410DC56F19BF9
:10084000DCD6894723A0F42083A74426F5FF014581
:10085000693A83A704208D8B81CF83A70425E19B70
:1008600023A8F42483A7042093E7870023A0F4207F
:10087000850D8D470321C4EAE39AFDF0130104EAD4
:100880008320C115032481158324411503290115F3
:100890008329C114032A8114832A4114032B0114D0
:1008A000832BC113032C8113832C4113032D0113BC
:1008B000832DC11235618280411106C622C426C231
:1008C000AA84F5362A84AA852685993C056585453E
:1008D000130505F2B134B2401305140022449244CA
:1008E00041018280B7170040930670052380D7042A
:1008F000130780FA2380E7040100010003C6B70450
:100900001376F60DA385C7042380070401000100B8
:100910002380D7042380E704010001003706140078
:100920001306860490C7238007040100010001001C
:100930000100010001003726004093052005A303B4
:10094000B6802380D7042380E7040100010003C799
:10095000B704136707F81377F70FA385E70423801D
:10096000070401000100B70700E023A207381307BE
:10097000000823A0E7388280597186D6A2D4A6D277
:10098000CAD0CECED2CCD6CADAC8DEC6A13FB717FF
:10099000004093870708D85B9306C00813066007DA
:1009A0001377F7EFD8DB985337D400403703009024
:1009B0001367071098D3B7C700401387072054CB9D
:1009C00050CF54D354DB74C370C79306C00354D7BD
:1009D00054DFBD66BD0654C7938641C174DBFD5626
:1009E00014C71307004818D438447D13370E00206D
:1009F000337767003367C70138C43844B70600F956
:100A0000FD16758F37060004518F38C438443706F9
:100A1000F9FF7D16419B1367970038C43844B70827
:100A20000080B70E0002718F38C43844370600FFCB
:100A30007D163367170138C478444575FD74619B92
:100A40001367370078C47844FD147D1E1377F7F8D8
:100A50001367070378C478443709020093870710A7
:100A60001377F78F1367073078C47844D149718FB3
:100A700078C4784411663367D70178C40328040525
:100A80001307F5FF3378E8003368C800232804050E
:100A900003284405137808FF1368C800232A0405B7
:100AA00070481366060870C87048658E70C8485C48
:100AB000798D2167598D48DC4C5C37070040130560
:100AC000D00DF58DB3E5D5014CDC505CB705700059
:100AD0003376C601598E50DC505409674D8E50D480
:100AE0005054F18E54D4545475767D16F18ED98EAF
:100AF00054D454543706FDFF7D16F18EB3E626011B
:100B000054D41458C19A14D8145893F6F6F014D843
:100B1000145893F6F68F14D81858B70600504D8F16
:100B200018D8185833776700558F18D8185CB7064F
:100B300008FFFD16758FB7068800558F18DC185C06
:100B4000B7068000B3681701232C14039843558F10
:100B500098C39843B7060010558F98C31307001D1C
:100B6000D8DB371701A4130787E7D8D7D857B706BC
:100B70000082FD16758FB7060024558FD8D737072A
:100B800009001307370898D3B7E700E0A3893705B2
:100B9000EFF0AFE55840130550021377F7EF58C058
:100BA0001854F98C04D458543D9B58D41C44B3E7D2
:100BB00027011CC45C4093E707015CC0EFF0CFE75E
:100BC000135785012A8413057002137BF707EFF092
:100BD000AFE6135985012A8A4945EFF0EFE5937A8C
:100BE000F503130640028145937BF907AA84135944
:100BF00085011374F40368083304544102CC5D3456
:100C000033073403137AFA0305661379F907338A35
:100C10004A418147D145411634083388F60033559F
:100C2000B7028507018F93164500F18EC98E230008
:100C3000D800E393B7FE05668146D14841161305F7
:100C40008002B3D5160338083308F7008507D2961B
:100C500013974500718F4D8F2300E800E393A7FEA3
:100C60003408014737D5004029468C429307870254
:100C70008A07AA978CC305079106E318C7FE3307B6
:100C80002B419546B306D70285653309794102C6E3
:100C900002C802CA85471945C115700033D8A6029B
:100CA000B308F6008507998E131648006D8E3366DB
:100CB00006012380C800E392A7FE05660147194399
:100CC000930806FF2D45B355670274003388F6007C
:100CD00085074A9793964500B3F61601CD8E2300FB
:100CE000D800E392A7FEB246B7D7004013870708A3
:100CF00034C7C2463705007FE98C74C7D24634CB6F
:100D0000D843B7060081FD163D9BD8C3D843799BD5
:100D1000D8C39857518F98D7D85713670701D8D79A
:100D2000985F137707FC3367570198DF985F758FDB
:100D3000D98C84DFD843C176FD1613670710D8C35A
:100D4000B84B758FB8CB9847B7062000558F98C71A
:100D5000D847B7C6004013670701D8C7D843518F9B
:100D6000D8C3B7C700401307400693870720F8D3BE
:100D700037D7004093870620FC5391C78327C709C4
:100D800093F70710E5FBB7D7004013870708544FC8
:100D90001387C1C0FD8A14C3B44B4166D18EB4CB56
:100DA000B44B1043819AD18EB4CB94473706E0FF01
:100DB0007D16F18E94C714437946FD478906636416
:100DC000D6001C43890723A8F1C0B7D70040B84F0D
:100DD000C176FD16758FB8CF9847C1660145558F0E
:100DE00098C7D847B706EFFFFD1613670710D8C797
:100DF000D843377472008564758FB7061000558F1D
:100E0000D8C3EFF08FBE37E700E083475741154561
:100E10001304040E93E707F893F7F70FA30AF740BC
:100E2000B70720002320F710EFF0AFC905651305C1
:100E300045F259344946938584F32808EFF0BF877B
:100E40002808EFF01F892285EFF02FAEE5B7397142
:100E50003ECCB7C700409387072036D094473ACEA0
:100E6000116706DE16DC1ADA1ED82AD62ED432D244
:100E700042CA46C872C676C47AC27EC0F98EA9CE6E
:100E8000D447F98EB1CAFD56B4D798C70145EFF0E3
:100E9000CFB5B7C7004093860720B84AF250E25258
:100EA000619BB8CA03A707205253C2531367870038
:100EB00023A0E720054723A4E1C03255A2551256CE
:100EC00082567247E2475248C248324EA24E124FF3
:100ED000824F216173002030B7C70040138707207D
:100EE0005047144793870710F18E14C7D857719B4A
:100EF00013671700D8D759BF616476206C656E3AC6
:100F00002025640A000000006655443322110201C6
:100F1000060C09006368333266756E383838000095
:100F20000A0000002E7E206368333266756E2069E9
:100F3000534C4552207E2E0049206C696B6520621F
:100F40006C6520373737373737000000010203045C
:100F500005060708090A0C0D0E0F101112131415BF
:100F6000161718191A1B1C1D1E1F202122232425A9
:040F700026000B2725
:040F74002526270007
:00000001FF
