:100000006F00900F000000007C0900007C090000D8
:10001000A9BDF9F37C090000000000000000000009
:100020007C0900007C0900000000000000000000C6
:1000300054180000000000007C09000000000000CF
:100040007C0900007C0900007C090000AA1800005F
:100050007C090000121900007C090000000000006B
:100060007C0900007C0900007C0900007C0900007C
:100070007C0900007C0900007C0900007C0900006C
:100080007C0900007C0900007C0900007C0900005C
:10009000011126CA4EC606CE22CC4AC8AE84AA8911
:1000A000B28599C6014963D79600B684054919A05F
:1000B0000149A68633849640635304000144228696
:1000C0003A85EF00F02B2A87330685008147B386F7
:1000D000F4406343D00463D304008144269633057F
:1000E000E640630409026372C7029307A002A30FEC
:1000F000F6FE9306F6FF637AD700230FF6FE93060B
:10010000E6FF6374D700A30EF6FEF2406244D244C9
:100110004249B24905618280B386F90083C5060071
:10012000B306F60085072380B60055B781486356AD
:10013000050081E63305A0408548058A930710062F
:1001400019C2930710043A88254E138667FFB377C8
:10015000B5022A8393F6F70F6364FE0493860603C1
:1001600093F6F60F2300D800930718003355B50215
:100170006376B302638808009306D0022380D70019
:10018000930728003385E74009462380070081460E
:100190003346C502FD1763C7C60082803E8845BF4F
:1001A000B2967DBFB305D70083C8070003C805001A
:1001B00085062380150123800701E9BFB7C70040EA
:1001C0009387071098431377F7E70DC1136707105C
:1001D00098C337D700401C47B7063300D58F1CC7DC
:1001E000B7C7004093870720A8CB82801367070812
:1001F00098C3B7D600409C463707CEFF7D17F98FCE
:100200009CC613050008E9BF37D700405C43316640
:10021000130606F0F99B5CC38967938707BAAA9710
:1002200083C70700145FA207B29701761306F60F83
:10023000F18ED58F1CDF5C4393E717005CC3B7C713
:1002400000400967130707F493870720F8D337D7CF
:10025000004083260709139666006358060083262C
:1002600007091396560063440600F453FDF2B7D70E
:10027000004003A5070983A747091375F503A98360
:1002800093F7F707E2075D8D828003A681CE938600
:1002900001C1984ACC423307E640138FC11263FB79
:1002A000E50C938701C103C7970090CB138641CB20
:1002B000834E5600104205071377F70F13982E0050
:1002C0004296A384E70010424111930F4006135356
:1002D000860093580601137EF60F32C01306F00F06
:1002E0003306C7020968130808A81373F30F93F8BD
:1002F000F80F9386C11293028F01938541CB334649
:10030000F6031376F60F429603460600B30FCE02AD
:100310003308C30293DF8F003386C8021358880066
:1003200021822300C101A300610023011101824346
:100330001EC22302F101A30201012303C100924363
:1003400023A076009106E39ED2FC9306300663FC60
:10035000E60003C74500A384070093871E00B3E7A8
:10036000E702A382F500931725003305FF0008413B
:1003700041018280931725003305FF0008418280E8
:100380005971DAC8DEC66EDE83AB41CD83AD01CDD7
:10039000A6D286D6A2D4CAD0CECED2CCD6CAE2C4F9
:1003A000E6C2EAC02AC693878D009384011563D400
:1003B0000D006394FD029387C11213992D00896A81
:1003C000096D3E999389C112138A011B138401C1DF
:1003D000938A0A9D130D0DB809A22390040023915E
:1003E0000400239204002393040023940400850D49
:1003F000B104239F04FE65BF930760045CC083C7FC
:10040000C1CB1147938C1D00FD1793F7F70F636C59
:10041000F7348A07D6979C43828703A781CE1C486E
:1004200093066004B307F74063F5F604938741CB66
:1004300018C888430347E40003C847004E86814636
:1004400095489945B307D70093F7F70FB3D717032C
:100450008506B3F707038A07AA979C431CC23ECAC6
:100460003ED21106E390B6FE834784003E972307F1
:10047000E400032509009357B500F98BEA9783D769
:100480000700B1041109239AF4FE93577500F98B04
:10049000EA9783D70700E68D239BF4FE9357350038
:1004A000F98BEA9783D70700239CF4FE9377F50036
:1004B0008607EA9783D70700239DF4FE93573501FB
:1004C000F98BEA9783D707003D8179896A95239E46
:1004D000F4FE83570500239FF4FE63884403E3CDB5
:1004E0007DF133069A4081452685592DB24791CF3B
:1004F000639CBB01B747004003C727001377770F02
:100500002381E70023AC01CC850DB650265423A8E7
:10051000B1CD96540659F649664AD64A464BB64B73
:10052000264C964C064DF25D6561828003A781CE14
:100530001C4893066004B307F740E3FCF6F28347D8
:10054000D40018C8138741CB8346570010438A074D
:10055000CE9723A00700939526008347E4002E96AC
:100560000C42139627004E960CC203468400A30645
:10057000F4002ECCB29793F7F70F194633F6C70263
:100580002ED22307C4001546E375F6EE83474700D5
:100590008506B3E6F602A302D700E1BD03A781CE2C
:1005A0001C4893066004B307F740E3F4F6EC938726
:1005B00041CB03C8570083AE07000346E40018C8C8
:1005C00013172800BA9E4E8E8146138341CB130F1A
:1005D0001003930FC0F9994303A70E00B307D64049
:1005E00093F7F70F13558700935507013ACE13770A
:1005F000F70FB308F7021375F50F93F5F50F814266
:10060000B388E803B3C8F803B30D170163C40D0042
:1006100093F2FD0FB388A7020147B388E803B3C87C
:10062000F803B30D150163C40D0013F7FD0FB38775
:10063000B7020145B387E703B3C7F703B388F500F3
:1006400063C4080013F5F80F93972600CE9723A0F4
:10065000070023005E00A300EE002301AE00850624
:10066000110EE39B76F6834784003E961376F60FD1
:10067000B376D60295472307D400E3FCC7DE834751
:10068000430005083368F802A3020301DDB303A7A2
:1006900081CE1C48A94654C0B307F740E3FBF6DC03
:1006A00018C8938541CB0347940003C555009C416E
:1006B0000D071377F70F93162500B697A304E400F0
:1006C00094439307F00FB307F7021303400636D2A3
:1006D00013D8860013D6060193F8F60F36D636D017
:1006E0008966938606A8B3C767021378F80F137656
:1006F000F60F93F7F70FB69703C30700B306680228
:10070000B3876802A186A302D102B3066602A1875D
:100710002302F1028347E400A1862303D10212568B
:1007200093962700CE9690C232D493063006E3F219
:10073000E6D403478400A3040400BA9793F7F70FA5
:10074000194733F7E7022307E4001547E373F7D2AD
:1007500003C7450093071500B3E7E702A382F5003E
:1007600009BBA9475CC06E850D3631B3B7F700E011
:100770009447D847B7C703009387C76CB69733B67B
:10078000D7003A9637F800E0032588008325C80093
:10079000B306F540B336D5003387C540158FE34522
:1007A00007FE8280411126C24AC0B71400403719A3
:1007B000004022C406C61304F5FF9384C40A13093B
:1007C000890A9C4093E707109CC04D378327090096
:1007D00093E707102320F90001C4493F7D14D5B7E2
:1007E000B24022449244024941018280B70700E0AE
:1007F000938707389C438280397122DC370400E0FC
:10080000130404381C4006DE26DA4AD84ED652D4E9
:1008100056D25AD05ECE62CC93F7070C1307000C69
:10082000638BE70002C6AE84CDE51C4089C793F711
:10083000070891E3653F8144F25062544259B2592E
:10084000225A925A025BF24B624C2685D2542161A5
:100850008280338A2441D28963D34B019D49B707F3
:1008600010008507184093760708A9EE11C3BD3F15
:10087000132A3A00014663140A001386D9FF930530
:100880003900D69568003126B24733872A012320E4
:10089000FB0081470346070085077400BE9623804E
:1008A000C6006385F9000507E39687FF9387490033
:1008B00093E707F82306F100B2474E991CC0E34ABC
:1008C00099F89DBFFD17D9FF1C4093E7070C1CC08A
:1008D0009DB7370B00E0AA8A01499D4B130B4B389B
:1008E0000D4CF1BF411122C406C62E843137B240EF
:1008F000228522444101828097010020938141B0EA
:100900001771002013010170138581CC9385011BA1
:100910006377B500232005001105E36DB5FE1715BB
:1009200000001305A52A938541C0138681CC638AF4
:10093000C5008322050023A0550011059105E3EAB7
:10094000C5FE93070000FD42739002BC896293824A
:10095000828873A0023097F2FFFF9382A26A93E22B
:10096000320073905230B7F700E0054798C38567AF
:10097000938707E5739017347300203001A0AA878E
:1009800003C7070001E73385A74082808507CDBFF5
:100990001971A2DCA6DACAD8CED6D2D4D6D2DAD091
:1009A000E2CC86DEDECEE6CAEAC8EEC6AA842E898E
:1009B0003284368C8149130A5002930A0003294B72
:1009C00083470400930C1400A307F1008DE3F65055
:1009D0006654D6544659265A965A065BF64B664CD0
:1009E000D64C464DB64D4E85B65909618280638C12
:1009F00047014A8685451305F1008294E28B66849F
:100A0000AA995E8C75BF8347140013072400930CCA
:100A10000003A307F100639F57073A84814D014704
:100A2000254601A8B38D6D038347040005040547DF
:100A3000B69D938607FD93F5F60FE375B6FE19C3D1
:100A4000A307F10061476E8D6353B701614D9306B3
:100A5000C00601476398D700834704000547050493
:100A6000A307F1008346F100930740066381F60671
:100A700063E5D70293078005638EF6089307300677
:100A8000638CF60AA9D64A8685451305F10082943F
:100A9000E28BBDB7930C000249B7930750076388F8
:100AA000F602930780076387F60693073007E39CF7
:100AB000F6FC930B4C00032C0C006285C935AA850B
:100AC0006359B0093810EA866686628525A0930BC3
:100AD0004C0005CB9386B6F8180893B6160003258C
:100AE0000C000146A945EFF06FE43810EA866686EF
:100AF000AA850808EFF0CFD9AA854A8628108294E3
:100B000001B79307500718086394F6008546C1BFE4
:100B10008146F1B703250C00138686FA180885462E
:100B200013361600C145EFF06FE0930B4C00AA8519
:100B30003810EA86668675BF83270C00930B4C003D
:100B40003810A307F100EA86668685451305F10093
:100B500055B74A86628565B7397132D42A860565EC
:100B60002ED236D6814554101305458E06CE3AD87E
:100B70003EDA42DC46DE36C6213DF240216182800B
:100B80002A96AA876393C70082802380B7008507CF
:100B9000D5BF81476313F60082803387F500834613
:100BA00007003307F50085072300D700E5B711716B
:100BB00086DFA2DDA6DB0002CAD9CED7D2D5D6D336
:100BC000DAD1E2CDE6CBEAC9DECFEEC789652546AC
:100BD0009385459E1305C4F06D3F89652146938535
:100BE000C59B130574F17537314681451305F4F142
:100BF000413FF5779387F77F2316F4F21306E00859
:100C00009D47938541C21305F4F2B7C4004037CA2B
:100C1000898EB75A55006D7B37C90040457D230743
:100C2000F4F2014CBD37938941CC93840410B7DCB6
:100C30000040130A6AED938A5A55130B2B101309BF
:100C400009207D1DB3073C0103C70700DC541305D1
:100C5000A00D1377F707F19B93E71700DCD483A768
:100C6000CC028A8D3171F59B23A6FC029C408A8BB5
:100C700093F707F8D98F9CC0EFF04FD423A4440119
:100C800023A25401D547A30AF4F0A547230BF4F09F
:100C900023906B01930710F91306100B9305C4F012
:100CA00013852B00A305F4F2ED358567232879071A
:100CB0009387A7BB03A78C069316770063C406002F
:100CC000FD17EDFB9C400567B3F7A701D98F9CC0CA
:100CD0008327090101777D17F98F2328F900896798
:100CE0002324F900D967938707202322F9069C4023
:100CF00037078000D98F9CC0DC54F19BDCD4894736
:100D00002320F90083274906F5FF0145EFF00FCBBB
:100D1000832709008D8B81CF83270905E19B232839
:100D2000F9048327090093E787002320F900050CC5
:100D30008D476E81E318FCF0130104F0FE506E54F1
:100D4000DE544E59BE592E5A9E5A0E5BFE4B6E4CC7
:100D5000DE4C4E4DBE4D1161828011CE83470500A1
:100D600003C705006385E7003385E74082807D1671
:100D700005058505DDB701458280411106C622C4FF
:100D800026C2AA84ED3E2A84AA852685B534096543
:100D900085451305059F8D34B24013051400224488
:100DA000924441018280B7170040938707041306DD
:100DB00070052380C700930680FA2380D7000100C6
:100DC0000100371700408345B7041307B70493F5B4
:100DD000F50D2300B70023800700010001002380E8
:100DE000C7002380D7000100010037051400B715A4
:100DF00000401305850488C5238007000100010019
:100E00000100010001000100B72500401305200585
:100E1000A383A5802380C7002380D70001000100A1
:100E20008346070093E606082300D70023800700C7
:100E300001000100B70700E09387473823A00700AF
:100E4000B70700E0938707381307000898C382802C
:100E5000757106C722C526C34AC1CEDED2DCD6DAFA
:100E6000DAD8DED6E2D4E6D2EAD0EECE2D3FB7F71E
:100E700000E03D6623A007001306F6A590CB81464F
:100E8000D4CB814694C70147D8C723A401CE984349
:100E9000B7E600E01367770098C38567371700400F
:100EA00023A0F6101307470B1C4337D40040B705A7
:100EB000009093F7F7EF1CC3B71700409387070A1A
:100EC0009043FD15370500201366061090C31043AC
:100ED000370800FF7D181376F6BF10C337170040A0
:100EE0001307070B1043B70800021163136606408F
:100EF00010C39843130660077D791377F7BF98C333
:100F0000B7C70040938707201307C008D8CBD0CFBE
:100F1000D8D3D8DBF8C3F0C71307C003D8D7D8DFBE
:100F20003D673D07D8C71387C1CEF8DB7D5798C70B
:100F3000930700481CD43C44370600047D19ED8F0C
:100F4000C98F3CC43844B70700F9FD177D8F518F16
:100F500038C438443706F9FF7D16419B1367970064
:100F600038C438447D15B7090200718F38C438443D
:100F700037060080514B518F38C47844138AC1CE54
:100F8000619B1367370078C478441377F7F81367C9
:100F9000070378C478441377F78F1367073078C452
:100FA00078443377070178C4784445787D183367EF
:100FB000170178C43848337707013367670038C8AA
:100FC0007848419B1367C70078C8784813670708BB
:100FD00078C878483377270178C8585C3377070199
:100FE00021683367070158DC585C7D8F3367170130
:100FF00058DC585C698F37050040498F58DC5854DD
:1010000037057000498F58D45854F98F5CD45C541C
:1010100075777D17F98F0967D98F5CD45C543707D2
:10102000FDFF7D17F98FB3E737015CD41C583707F4
:101030000050C19B1CD81C5893F7F7F01CD81C58C3
:1010400093F7F78F1CD81C58C98F1CD81C58130550
:10105000D00DED8FD98F1CD81C5C370708FF7D178A
:10106000F98F37078800D98F1CDC1C5CD18F1CDC02
:10107000B7C7004093870710984337068000518F09
:1010800098C3984337060010518F98C31307001D6B
:10109000D8DB371701A4130787E7D8D7D857370607
:1010A00000827D16718F37060024518FD8D73707FD
:1010B00009001307370898D3A3896605EFF00F904E
:1010C0005C401305500293F7F7EF5CC01C54B3F774
:1010D00027011CD45C54BD9B5CD41C44B3E737018E
:1010E0001CC45C4093E707015CC0EFF0EF912A84D9
:1010F000935A850113057002EFF00F912A8C935CCF
:1011000085014945EFF04F90937BF5039359850195
:10111000130680022A891374F403814528108D3444
:101120003304744133076403137CFC0393FAFA0716
:1011300093FCFC0793F9F907338C8B4181475146A7
:101140002C10BE95B356C7028507018FE206E186D3
:1011500013954600C98E2380D500E393C7FE8146D0
:1011600051481306800233D706032C10BE9585071D
:10117000E2966207618713154700498F2380E500D7
:10118000E393C7FE3410014737D5004029468C420F
:10119000930787028A07AA978CC305079106E3186D
:1011A000C7FEB38A3A419546B386DA02B3899941BC
:1011B00002CE02D002D2854719466C08BE9585073B
:1011C00033D7C602B38656416207618713154700BD
:1011D000498F2380E500E392C7FE814619482D46DA
:1011E00033D706036C08BE958507CE9662076187E4
:1011F00013154700498F2380E500E393C7FEF246AD
:1012000037D700401307070834C78256B7D70040C6
:10121000056674C7925634CBD843B7060081FD16D5
:101220003D9BD8C3D843799BD8C39857518F98D743
:10123000D85713670701D8D7985F137707FC336730
:10124000770198DF985F758FB706007F3379D900F3
:101250003367270198DFD843C176FD16136707105F
:10126000D8C3B84B758FB8CB9847B7062000558FB9
:1012700098C7D847B7D6004013670701D8C7D843E7
:10128000518FD8C3B7C70040938707201307400684
:10129000F8D3F85311C703A7C6091377071075FBD6
:1012A00037D7004013070708584FB7D700407D8B4A
:1012B00023A6E1CCB84B4166518FB8CBB84B03A6FF
:1012C000C1CC019B518FB8CB98473706E0FF7D1604
:1012D000718F98C703A7C1CC7946FD47090763659D
:1012E000E60083A7C1CC890723A4F1CCB7D700407F
:1012F000B84FC176FD16758FB8CF9847C1660145C6
:10130000558F98C7D847B706EFFFFD16136707102C
:10131000D8C7D84337E400E0758FB7061000558F63
:10132000D8C3EFE0BFE98347544109651305459FE2
:1013300093E70708A30AF440B70720002320F4101E
:101340002D3C1545EFF00FC6371700401307470B2C
:101350001C43F176FD16F58F1CC3B7170040938729
:10136000070A94431166D145D18E94C3938B01151E
:10137000B7460040A381B600374600408946C20BFD
:101380002300D60093DB0B01930640042300D60014
:1013900013860B0642064182B7460040239EC600D4
:1013A000B746004003C61600B71A0040136606028F
:1013B000A380C600B70608002320D4101443BD9AAA
:1013C00014C3371700401307070B14438D49814D91
:1013D00093E6060114C3984313844114138941C250
:1013E0003D9B98C383AC81CE03AB81CE02C0938A70
:1013F0004A0A138C01C1034704009307200F631BA3
:10140000F70603A701CE83A781CE998F1307800C1F
:101410006372F7060545EFF0EFB85C4003478400C0
:101420000C4013D687006207E207A1810965598E37
:10143000DD8D130585A0EFF02FF2A547A306F90077
:101440002546A285138521C3EFF0AFF4EFF02FF608
:1014500023000400A300040023010400A3010400EE
:1014600023020400A302040023030400A3030400D6
:101470002304040083A70A0093F70740B5EB03ADEC
:1014800081CE8547A305FC008567B306BD419387E0
:1014900087BB63FFD7040545EFF0CFB083A7C1CD6D
:1014A000A309A901EA8D1386170023AEC1CCA54676
:1014B000A306D900C5562307D90093D68700A307F2
:1014C000F9002308D90093D60701E1832309F90025
:1014D00093578D00230AF90093570D01A30AF900D1
:1014E00093578D01A308D900230BF900EFF02FECDF
:1014F00083A781CE01453E8DEFE05FCCB7C70040AA
:101500009387072098430D8B01CBB84B619BB8CBD9
:1015100098431367870098C3B7C600409386062098
:1015200023A2060637D700405C5736C41305900D3A
:10153000F59B5CD7B7C70040938707109843137794
:1015400007F81367570298C33EC2EFE03FC79247C0
:1015500045767D169843A246718F0566518F98C3D4
:10156000372737001307072D98CB372710081307A5
:101570001790D8CB371703001307476298CF370768
:1015800009001307370898D337670001130707319D
:10159000D8D30D671307E78B98D737C7898E130702
:1015A00067ED98C73757550013075755D8C3854778
:1015B0009CC223A201CE03A741CE75DFB7273344D7
:1015C000938717213ED499679387576519462C1046
:1015D0001385E1CE2316F102EFF02FF86311051009
:1015E0000545EFF02F9C83473A031307100F6383E1
:1015F000E7121307200F638AE7161307B00B6390F7
:10160000E70E83A70A0093F70740F1CB83274A032D
:101610000965130585A293F5F70F3EC2EFF0CFD30E
:101620009247238EF1CA83A781CE054761462328BE
:10163000FC0081451385C112A305EC0023070C00B3
:10164000A38C01CAEFF0CFD3F327003093F777F7DD
:1016500073900730054723ACE1CC37470040834700
:101660002700090793F7770F2300F7003AC6B7471B
:10167000004083C61700850793F6E60F2380D70046
:101680003EC4B746004023960600B10636C2732614
:1016900000301366860873100630994523AAB1CC32
:1016A0000145F95523A8B1CCEFE09FCD9246130632
:1016B00000062390C600B7460040239C76012546CD
:1016C000B74600402383C6003247A1462300D70017
:1016D000A24703C70700136717002380E70083A70B
:1016E00081CE03A70A00CD463386974163F1C60237
:1016F0008946418B6382D91463E836096392090CE9
:1017000045C383A781CE854903AB81CE11A0E6876F
:10171000BE8CD5B183A70A0093F70740E9D3C95718
:101720002300F40083274A0313D78700A300F400A3
:101730002301E40013D70701E1832302F400832788
:101740008A03A301E40013D787002303E40013D71F
:101750000701A303E40003A781CEA302F400E18301
:101760002304F40023A0E1CE9DBF83A70A0093F7D2
:101770000740B5F783258A030965130545A4B3051A
:10178000BD40EFF06FBDA1BF8D46E393D9F849F39B
:1017900003A781CE03AB81CE3EC0BA8781498DBFFE
:1017A0000247B386E7400567130707FAE378D7FED9
:1017B0000965130545A53EC2EFF02FDC9247F9BF3E
:1017C000B386674119EB1307F0096368D70083A755
:1017D00081CE894903AB81CE25BF1307000A854915
:1017E000E378D7F20965A306010223070102A307E4
:1017F000010223080102130505A6EFF00FD8A54743
:10180000A306F9009307A0FA2304F102138521C36C
:1018100025462C10A304310323050102A305010270
:1018200023060102EFF0EFB6EFF06FB883A781CE89
:101830008D4903AB81CEE9BDE30C07EC0965A30636
:10184000010223070102A307010223080102130575
:1018500005A765B701113AC637F700E042C2032871
:1018600007013EC4BD6746C0938707A6832847018A
:10187000C2972ACE36C82ECC32CA33B507011CCB4C
:10188000B306150154CB2322070083A781CE7245EE
:10189000E245850723A4F1CE5246C2463247A2470D
:1018A0001248824805617300203039713ECCB74739
:1018B000004006DE16DC1ADA1ED82AD62ED432D222
:1018C00036D03ACE42CA46C872C676C47AC27EC004
:1018D000990783C70700A18B91CB0545EFE05FAA6D
:1018E000B7470040130700062396E700F250E25284
:1018F0005253C2533255A255125682567247E2478E
:101900005248C248324EA24E124F824F216173009C
:10191000203039713ECCB7C70040938707203ACEBC
:10192000984736D006DE16DC1ADA1ED82AD62ED410
:1019300032D242CA46C872C676C47AC27EC09316F4
:10194000170163DF0604D8479316170163DA06040C
:101950007D57B8D7116798C70145EFE03F86B7C7F5
:10196000004093870720B84BF250E252619BB8CBFE
:1019700098435253C2531367870098C3054723A265
:10198000E1CE3255A255125682567247E24752486E
:10199000C248324EA24E124F824F21617300203056
:1019A000D4479847758F98C737C70040130707106B
:1019B0005C57F19B93E717005CD779BF6265652D93
:1019C0003535350000000000000000000000000078
:1019D0001A0400002C0500009C0500008E06000083
:1019E0006207000011223344556602010600000020
:1019F0000A0000002E7E206368333266756E20690F
:101A0000534C4552207E2E0053656E64696E6720EC
:101A100076616C7565313A2025752C2076616C7580
:101A200065323A2025750A004E656F5F6C6F616400
:101A3000436F6D6D616E643A20253032580A0000A4
:101A40000000000074696D655F646966663A202570
:101A5000640A00004C6F6E6720507265737300005B
:101A600053696E676C6520436C69636B000000000E
:101A7000446F75626C6520436C69636B0000000005
:101A8000000101010101020203040405060708091F
:101A90000A0B0D0E1011131416181A1B1D1F2124EA
:101AA00026282A2D2F313436393C3E414447494CB3
:101AB0004F5255585B5E6164676A6D707376797DCD
:101AC000808386898C8F9295999C9FA2A5A8ABADA7
:101AD000B0B3B6B9BCBEC1C4C6C9CBCED0D3D5D7BE
:101AE000DADCDEE0E2E4E6E8E9EBEDEEF0F1F3F477
:101AF000F5F6F7F8F9FAFBFCFCFDFEFEFEFFFFFF32
:101B0000FFFFFFFFFEFEFEFDFCFCFBFAF9F8F7F617
:101B1000F5F4F3F1F0EEEDEBE9E8E6E4E2E0DEDC2B
:101B2000DAD7D5D3D0CECBC9C6C4C1BEBCB9B6B343
:101B3000B0ADABA8A5A29F9C9995928F8C89868306
:101B4000807D797673706D6A6764615E5B5855520B
:101B50004F4C494744413E3C393634312F2D2A28D9
:101B60002624211F1D1B1A1816141311100E0D0BFD
:101B70000A09080706050404030202010101010124
:101B8000111111711117117771117171711771772D
:101B900017111771171717777711777177177777ED
:101BA0000102030405060708090A0C0D0E0F1011A7
:101BB00012131415161718191A1B1C1D1E1F20218D
:081BC0002223242526000B2737
:101BC8003300000000330000000033000000000074
:101BD80046000000010000000000000000000000B6
:101BE800A2A1B2B1C2C1D1D2D3D4D5D6550000007A
:101BF80000000000000000000000000000000000DD
:101C080000000000000000000000000000000000CC
:101C180000000000000000000000000000000000BC
:101C280000000000000000000000000000000000AC
:101C3800000000000000000000000000000000009C
:101C4800000000000000000000000000000000008C
:101C5800000000000000000000000000000000007C
:101C6800000000000000000000000000000000006C
:101C780000000020030000006100000000000000D8
:041C880025262700E6
:00000001FF
