:100000006F0050780000000052100000FA0F00004E
:1000100000000000000000000000000000000000E0
:1000200000000000000000000000000000000000D0
:10003000C029000000000000FA0F000000000000CE
:10004000FA0F0000FA0F0000FA0F0000FA0F00008C
:10005000FA0F0000FA0F0000FA0F0000FA0F00007C
:10006000462900005C000020FA0F0000FA0F000093
:10007000FA0F0000FA0F0000F2290000922B000096
:10008000FA0F0000FA0F0000FA0F0000FA0F00004C
:10009000FA0F0000FA0F0000FA0F00000000000045
:1000A0002A86014593F6150091C232958581060690
:1000B000F5F9828000000000634E050263C3050469
:1000C0002E86AA857D5515C285466378B60063568F
:1000D000C00006068606E36CB6FE014563E4C50073
:1000E000918D558D85820582F5FA82808682C93F81
:1000F0002E8582823305A0406347B000B305B0402F
:10010000C1B7B305B0408682653F3305A040828207
:10011000868263C70500634905005D372E858282AC
:10012000B305B040E35B05FE3305A040513F330506
:10013000B04082820000311126C406C822C6AE84B7
:10014000AA87B2850143B5CA63D49600B684054335
:100150003384964063530400014422863A853EC2AC
:100160001AC0EF10E014024392472A87B3068500B5
:100170000146B385C4406344B00463D304008144A2
:10018000338696003305E640630403026372C702B8
:100190009307A002A30FF6FE9306F6FF637AD7003B
:1001A000230FF6FE9306E6FF6374D700A30EF6FE58
:1001B000C2403244A24451018280A68651BFB38519
:1001C000C70003C50500B385C60005062380A5004A
:1001D0004DB72A832E8501CE8322060001475C425B
:1001E0006348A700238007004842330555408280BA
:1001F00014469385F6FF1442AE96E385D7FE9386A8
:10020000170054C2B306E30083C606000507238027
:10021000D700F1B7370700E08327470F9306470F52
:1002200093F70708F5FBB7273078938787089CC2B8
:100230007147370600E02543F1558327460F93F7B2
:100240000708E5FFB357E50093F6F70093070003AF
:100250006354D30093077005B697A20793E7570836
:10026000232AF60E7117E31AB7FC8280B7F700E075
:100270009C4737F700E03E951C47898FE3CE07FE89
:100280008280011106CE22CC26CA02C02A8363577F
:10029000050089E685473303A0403EC013041006DD
:1002A00019C213041004BA8459141A853AC81AC220
:1002B0002EC61AC4253DA5472243B2454247937630
:1002C000F50F63E1A7069386060393F6F60F93876F
:1002D00014002380D4001A853AC83EC62EC4CD33FC
:1002E0009246A245B24742472A8363FBB602824642
:1002F00099C69306D0022380D700938724003385C4
:10030000E7409356F501AA962380070085860146AB
:10031000FD17634BD600F2406244D24405618280EF
:10032000BE8461B7A29655B7B305C70083C2070064
:1003300003C3050005062380550023806700C9BF5D
:10034000B73701402396A70037370140835787000E
:10035000898BEDDF8280B717014093870780416763
:1003600098CBF9BFB717014093870780054798CB13
:100370008280511106C422C22A84ED3713558400AD
:10038000C1371375F40F1244A240310155BF31112A
:100390002AC21305A00206C822C626C43684AE842B
:1003A00032C0553F92473E85E93702463285D13704
:1003B0001305B0024D3726856D3F22855D3F3244DF
:1003C000C240A2441305C002510171B75111050585
:1003D000E90522C293960501328413160501418274
:1003E000C1823285B68506C45D3722851244A2409B
:1003F000310141B7411122C426C22AC0AE843284E1
:1004000006C68D370245B7070240B7060240C8DF6F
:10041000C4DB985B130600201367170098DBC167E5
:10042000FD177D1442044180631CF400370702402D
:100430001C5BB2402244F99B1CDB92444101828048
:10044000D0C29842137707206DDFE1BF311122C679
:1004500006C826C42A848347040091E7C240324478
:10046000A2445101828013972700BA9705043EC029
:10047000014381461385C1E5FD538547B397670066
:100480003EC23686814582428D6093800006AE92E0
:10049000869283C2020092409307160032870906B3
:1004A000C2074206B3F21200C18341822A976381D8
:1004B000020623007700AA972380770085059547D9
:1004C000E393F5FCA906C206C18293076004050305
:1004D000E395F6FA138741CA8357070083D561CAAB
:1004E0001386470093866500C20642063E85C18298
:1004F00041823EC0693D0546930560041385C1E510
:10050000D53D8247138741CA99072310F700A1B749
:1005100023000700AA97238007004DB7511122C27C
:10052000E90532841306150026C04206C20506C43A
:100530004182C18113D586001387C1D1814763C829
:1005400087029306F4FFAE96C206C18232858135DA
:10055000A2856353040081451244A2408605138599
:10056000C1D18244C205C1810546310161B585070B
:10057000C2072300A700A300D700C1870907C1B79E
:100580005111E905050522C226C03284420536868E
:100590009396050106C44181C18293558600138755
:1005A000C1D1814763C887021306F4FF2A96420629
:1005B000B6854182E93BA28563530400814512441C
:1005C000A24086051385C1D18244C205C18105467A
:1005D00031010DB58507C2072300B700A300C7008E
:1005E000C1870907C1B7B2822A833686BA86631DDE
:1005F00055006355B600AE87B2853E8605060D8E62
:10060000420641861A8519BF639EC50063D4A200C5
:100610001683AA821386120033066640420641867C
:100620001A85B9BF130141FC06DC22DA26D83E85C3
:10063000B387C54063D4C500B307B64063575306BC
:1006400033876240634DF706AE839A851E83B3837A
:10065000B24013940301418022C6C2031314030164
:100660009314060193D303414180C1806355C306AF
:10067000338484404204418422C2054422C493D37B
:1006800013406344C3007D5632C41356150032C074
:100690003306C0404206418632C863D0B204E250FD
:1006A0005254C2541301C10382803307534063483C
:1006B000F700B28316869E82AE839A851E836358A6
:1006C000B600AE83B2851A8616839E8249B796839A
:1006D000B2821E86ADBF058C71BFC2441394050162
:1006E000418013160301C2044182C1803305960084
:1006F00032CA420516D61AD41ED23ED03ACE36CCD5
:1007000041813686635DF704A285C931E2467247AE
:10071000825792532253B25285040246C204C184C6
:10072000E35196FC1246B383C34013960301C20300
:1007300093D30341418263DF0300B245B383C50015
:100740005246A245C20393D303413303B60042038A
:1007500013530341050493150401C1853DBFAA85C8
:100760002285AD31B2522253925382577247E246EC
:1007700065B71301C1FD22CE1394050126CCB287C3
:100780004184AA844206420536C04185BA862ECAF3
:100790004186A28506D03AC23EC832C62AC4CD33AD
:1007A0008247524392469385F7FF324622459A95F7
:1007B000C205C185F1330316010092462245A28588
:1007C00032C0A93BC247A28572441385F7FF924607
:1007D000024682502695E2444205418513014102BA
:1007E00035BB03A5C1C3A1461387C1C31356550129
:1007F0009357F501B18FA98F13561500B18F858BD3
:1008000006055D8D9387F6FF93F6F70FE5F208C3B3
:100810001375F50F82808347150003470500A20773
:100820005D8F8347250003453500C207D98F6205D8
:100830005D8D8280511122C203A441C99305E5FF59
:1008400006C41C440145F91763F8F500034524006C
:10085000EFF01F855C483E95A24012443101828032
:1008600083A741C903C707008D476311F702834778
:10087000550103474501A207D98FC2070347A501C8
:100880000345B5012205598D5D8D82808147FDB7F5
:10089000511122C206C42A842310050008450547C9
:1008A00083A741C96305E50298476376E50219E924
:1008B00083C607000D47884B6386E60023260400A5
:1008C000884B21A048C46DDDB53708C80145A2405A
:1008D0001244310182800545DDBF3737014083571F
:1008E00007000E05C207C18393F777FCC207C183D7
:1008F0002310F70083570700C207C1835D8D2310C3
:10090000A7008280B73701402396A7003737014000
:1009100083578700898BEDDF01003737014083570C
:100920008700858BEDDF0355C7001375F50F8280B7
:100930001305F00FC1BF511122C206C42A8413054A
:10094000F00F7D14C13765FCA24012443101828052
:1009500051119317850122C226C006C4E187AA84DB
:100960002E8463DB0700814513057007D537854763
:1009700063E9A70693F4F407B7170140054798CB3E
:10098000453FB7170140416798CB5D3726859D3FAE
:1009900013558401853F135504011375F50F9D37D9
:1009A000135584001375F50FB13F1375F40F993F7C
:1009B00093070004130550096389F400930780042A
:1009C00005456394F400130570082D3F29448D37C5
:1009D00093178501E18763D607007D141374F40F24
:1009E0007DF4A240124482443101828083C701C950
:1009F000311122C626C406C8A18BAA84368491E38D
:100A0000A6051305100532C0A137024609CD0544DD
:100A1000B7170140054798CB213FC2402285324499
:100A2000A2445101828005679307803E1307072C7B
:100A30003A8532C23EC0EFF07F83DD3D9306F00F72
:100A400012466319D500824705671307072CFD1767
:100A5000E5F375BF9307E00FE31BF5FA930720203A
:100A6000818F918F3EC019C23285F13581CC269499
:100A700085047D3DA38FA4FEE39C84FE02450144D2
:100A80005D3D79B77D146D3575FCCDBF854763E459
:100A9000A7000545828083A741C99847E37BE5FE0F
:100AA000411106C603C7070089466309D7008D4672
:100AB0006303D7020545B24041018280CC471376DB
:100AC000F50F2181AA95894606060A8505377DF12D
:100AD00003550100CDB7CC471376F5071D81AA95C4
:100AE00091460A060A85193771F50A852D331205D4
:100AF0001181D1B7511189461306E01F22C226C0C9
:100B000006C4AA842E84DD358D4725E503C714006D
:100B100083C70400AD6622075D8F938656A589477B
:100B20006319D704894613066003A28526857D3D97
:100B300009ED03C7140083C70400916622075D8F87
:100B40009386661481476306D702894613062005FB
:100B5000A2852685613D854709ED83C7140003C53D
:100B60000400A207C98F71751305A5EBAA97B337C7
:100B7000F000A240124482443E8531018280B75782
:100B8000004003D74741938707401377071009CFE9
:100B900003D747010545420741831377F7EF420723
:100BA0004183239AE700828003D7470113770740E8
:100BB00009CF03D747010945420741831377F7BFA0
:100BC00042074183239AE700828003D747011377C6
:100BD000072009CF03D747010D454207418313770B
:100BE000F7DF42074183239AE700828003D747015A
:100BF00001452D83058B01CF03D74701FD769386F1
:100C0000F67F42074183758F239AE7001145828062
:100C10005C41B1E78357850037570040860793F75B
:100C2000E70F2318F7408967938707713706070096
:100C300023A4F1CA0145938681CA375300401306A5
:100C40002608035743419315070103578341C18188
:100C500042074D8F718F6316C70011C19CC20145B9
:100C60008280FD170545F1FF511106C423A006003F
:100C7000393711E11545A240310182802111896780
:100C800002C49387077123A4F1CA06CA02C002C234
:100C90002314A1000146138781CAB755004083D6AB
:100CA0008541898A89E611C21CC3014509A8FD173F
:100CB0000546F5F723200700D93511E115453757CB
:100CC000004083570740B7550040C207C18393E7F0
:100CD00007102310F74037070300050783D7454166
:100CE0009396070183D78541C182C207D58FF98FBB
:100CF000E396E7FE19E10A85213F37570040835705
:100D00000740D240C207C18393E707202310F74072
:100D100061018280896721119387077126C62EC2DF
:100D200006CA22C82AC023A4F1CA0146938481CAF4
:100D3000B755004083D68541898ABDE611C29CC063
:100D4000B756004083D70640B7550040C207C1835D
:100D500093E707102390F640B7060300850683D774
:100D600045411396070183D785414182C207D18F40
:100D7000F58FE396D7FE138501C1593D2A840146BC
:100D80001DE992476379F60289669386067194C0DD
:100D90000145375300408355434193F50508B9C5D4
:100DA00011C194C00145A9A8FD170546C1F7C13B73
:100DB0002A8411E11544896693860671B7050700F8
:100DC00094C00143B75200409385450803D6424181
:100DD0001315060103D6824141814206498E6D8E6C
:100DE0006313B604630A030494C0B9A0FD16054555
:100DF000DDF232C423A004005933224611E1154527
:100E00008247B386C70083C506000506B756004073
:100E10002398B6401376F60F32C401E58D3322468F
:100E20002DD12A8449BFFD160543CDF223A004002D
:100E3000B9332A8411E11544B756004003D7064060
:100E4000D240228542074244418313670720239002
:100E5000E640B244610182804111A300A1008945AE
:100E60000A8506C6230001007535B2401375F50FDB
:100E700041018280B70700E083A7470F82803707D0
:100E800000E08327470F111106CC22CA26C82AC0CA
:100E900093F7070C9306000C6388D70C02C62E84C8
:100EA000F1E58327470F89C793F7070891E3D937FF
:100EB000E24022855244C24471018280B3059440CD
:100EC0009D462E8763D3B6001D47B70610008506E2
:100ED000370500E00326450F1303450F93720608FC
:100EE000639C020611C63AC42EC269372247924556
:100EF0008946014663D4B6001306D7FF824793851F
:100F000034006800BE953AC2F9263246824712473D
:100F1000B70600E023ACC60E8D45338697008146A8
:100F20000343060085067C003385D7002300650057
:100F30006305D7000506E395B6FE9306470093E6E2
:100F400006F82306D1003246B70600E0BA9423AA79
:100F5000C60EE3C584F6A9BFFD16ADFE83270300C8
:100F600093E7070C2320F300014499B78144D5B7D8
:100F7000511122C206C42E841937A2402285124480
:100F80003101828097F1FF1F938181471381414096
:100F9000096513050588731005308D4617F5FFFFA9
:100FA00013054506558D73105530138501C993857A
:100FB000813E01466356B50010C11105E34EB5FEF2
:100FC000172500001305C55B938541C017F6FF1F69
:100FD0001306060C6388C500144194C111059105E0
:100FE000E39AC5FEB7F700E0154798C38567938776
:100FF000274F739017347300203073251034EFF0AF
:101000006FA173250030EFF0EFA073253034EFF0BF
:101010006FA073252034EFF0EF9F370700E08327A0
:10102000470F9306470F93F70708F5FB85679387EC
:1010300057A89CC2370700E08327470F9306470F46
:1010400093F70708F5FBB7B7AAAA938737A89CC2FE
:1010500001A0371702401C47B7068000D58F1CC778
:10106000AA8703C7070001E73385A7408280850769
:10107000CDBF130141FAA6C886CCA2CA2AC02EC28F
:10108000B284B68702C803C7040013841400A30FF8
:10109000E10001EBE64056444245C6441301C10558
:1010A000828093065002630FD7003EC412468247E7
:1010B00085451305F1018297A284C247AA973EC8CD
:1010C000A247D1B783C61400130600031387240078
:1010D000A30FD100130400036390C608BA8401462D
:1010E0000147254511A8931627008504369783C626
:1010F000F4FF06072E970546938506FD13F3F50FBB
:10110000E37365FE19C2A30FD1003AC6614663536B
:10111000E60032C69305C00601466398B60083C652
:10112000040005468504A30FD1008346F101930511
:1011300040066383B60663E4D50213078005638225
:10114000E60A130730066380E60CA9D612463EC4B1
:1011500085451305F1018DA81304000241B79305DD
:101160005007638BB60213068007638CC60613060E
:101170003007E39DC6FC3ACC138747009C433AC432
:101180003E853ECAF13D6247D247AA8551CBB24661
:10119000381822863E8525A0138747003AC405CA21
:1011A0009386B6F8181093B6160088430146A945F1
:1011B000EFF02F8DB24638182286AA850810EFE08E
:1011C0009FF71246AA85281882478297FDB5130714
:1011D00050076395E60018108546C1BF1810814678
:1011E000E9B7884313874700138686FA3AC48546D1
:1011F000181013361600C145EFF0AF88B246AA8525
:101200003818228665BF138747009C433AC4B2460C
:10121000A30FF1003818228685451305F10145B763
:1012200012463E8555B71301C1FD32CA2A860565AF
:101230002EC836CC81451408130505F706C63ACEEC
:101240003ED036C03D35B2401301410282800D656B
:10125000130505C1C9BF0D65130505C2E9B7211105
:1012600006CA22C82AC02AC22EC485C12A848A85F9
:1012700011E181451305201DED3B01C41245824754
:101280001D8DD2404244610182800144DDB70111CD
:1012900032C82E86B705008036CA93C5F5FF1408FC
:1012A00006C63ACC3ECE36C05D3FB2400561828074
:1012B0002A96AA876393C70082802380B700850798
:1012C000D5BFAA8703C705002380E70011E382800A
:1012D00085058507C5BF81476313F6008280338784
:1012E000F500834607003307F50085072300D70084
:1012F000E5B7797122D4930700042E842E86AA853F
:101300001305110006D62300F100F13793051400F0
:101310000A85EFF03FA0B2502254456182805111FE
:1013200022C22A841305100206C426C035360145A0
:1013300025361305F0070D3613052002313E2285B0
:10134000213E2285113E65449384413D83C70400BC
:101350008DC7811793F7F70F0D6793962700130535
:10136000C7DBB69795453E95693785047D1479FCB2
:10137000A24012448244310182808D6795451385D5
:10138000C7DB853FE5B72A868D655111938545C337
:101390001385413D06C4E53D1305C003EFF01F8EE4
:1013A00009E5A2401D4531019DBFA2403101828067
:1013B000511106C422C226C0AA845D312A84AA859E
:1013C0002685753C0D658545130505C44D3CA24039
:1013D00013051400124482443101828039C59307F9
:1013E000F0072A866303F504511122C28D659385A7
:1013F00045C41385413D06C4593D1385413D4D3FCC
:10140000938701C480431305C0031307140098C3D6
:10141000EFF0DF8619E51375F40F1244A240310195
:10142000FDBDA2401244310182808280B70700E0F6
:1014300083A7470F1307000C93F7070C638DE7048E
:101440005111B707100022C206C42A848507B706C7
:1014500000E003A7460F1386460F937507088DE13A
:1014600019C3EFF03FA141657D1593178400E98F03
:1014700093E75708370700E0232AF70E054501A830
:10148000FD17E1FB1C42014593E7070C1CC2A2407B
:1014900012443101828001458280B727024005470E
:1014A00098C3B71702403707080123A207001307A4
:1014B000170898C337079F0098C7B7060002371769
:1014C00002401C43F58FF5DF5C43B7160240F19BE9
:1014D00093E727005CC32147DC42B18BE39EE7FE24
:1014E000B70700E023AC070E1307000823AAE70E96
:1014F0008280157186CFA2CDA6CB8011793FB7F738
:1015000000E0316723A007001307F7B798CB23A4A7
:101510000700938441CB23A004009843374549003A
:10152000130505E01367770098C3B7E700E0056788
:1015300023A0E710371702401C4F93E757031CCF37
:10154000EFE0DFD2371701408327074093060740BB
:10155000C19B93E787002320F74085479CCA9840AA
:10156000138641CB2322E4F698402320C4F6232C93
:10157000E4F4138741C00347A700938641C001E705
:101580002385F60021A09147E3ECE7FEB717024060
:10159000904B37052000B705E0FF498E90CB904B6C
:1015A000FD1585646D8E90CBD84F3706C0FB751640
:1015B000498FD8CF984F1367170198CFB7070140CD
:1015C000D843718FD8C3D8437D761306F60FD8C39E
:1015D000B717014098431377F7F098C39843136700
:1015E000070D98C39843718F98C39843138604D00E
:1015F000518F98C33757004083574740C207C18374
:1016000093F707FC93E787012312F7409C42616739
:101610001307076A93951700636BF7363775DC027B
:10162000130505C0EFE0DFA9FD14658D420541817A
:1016300037570040231EA74083570740C207C18386
:1016400093E717002310F740EFF06FD3630F0534D3
:101650000D65130505C6A93BB717014093870740E1
:101660009C47858B2320F4F4639007100D651305C8
:10167000C5CB3D3B9387C13905472390E7001387CE
:10168000C1C1D8C305671307E724D8CB0567130684
:1016900000021307672523A6070023880700238E6F
:1016A000070098CF238107002384C70023A00702E7
:1016B00023A2070223840702B7170240D44FB705BD
:1016C0002000CD8ED4CF984BB706E0FFFD164D8F8E
:1016D00098CB984BA165758F98CBB757004083D6B0
:1016E0000740C206C182CD8E2390D74083D60740E3
:1016F000B7050040C606C5822390D74083D6474031
:10170000C206C18293E686012392D74083D6474022
:10171000C206C18293E606702392D740B7E600E086
:1017200023A0B610238FC640B705008023A0B610B3
:10173000A38FC640E176C106239ED7409306E00EF4
:101740002394D7402396074003D70740420741839D
:10175000136717002390E74003D7074042074183F0
:10176000136707402390E740B71602409C4E056779
:101770004107D98F9CCEB737014023900700014520
:10178000EFF0AF95B737014003D70700B71401401A
:10179000B70610FF420741832390E70003D70700F5
:1017A000FD16374549004207418313670720239000
:1017B000E7009840130505E0758F98C09840B7067C
:1017C000B000558F98C003D70700B70600F1FD168B
:1017D00042074183136747102390E70003D70700B0
:1017E000420741832390E7009840758F98C0984046
:1017F000B706000B558F98C09840B70600401207F7
:10180000118398C09840558F98C003D70700FD7684
:101810009386F67F42074183758F2390E70003D7B5
:10182000070042074183136707042390E700EFE0B6
:10183000FFA30D651305C5CCEFF0FF9E1D4523AA40
:1018400001C8EFF08F8985479CC82945EFF0AF8E1E
:10185000814513050004EFF0AF8F938741C923241E
:10186000F4F48547AA84630AF5268144238891C845
:101870000547B717014098CBEFF08F8B0145EFF08C
:10188000CF858947232EF4F49DC48145130544FB7D
:10189000EFF04FA6054781446314E530C1461306B7
:1018A000E01B8145130544FBEFF04F94630B052CBF
:1018B0008547232EF4F48325C4F50D65130505CE65
:1018C000EFF07F968327C4F5639907448D670D6514
:1018D000938507C5130585CEEFF0FF94832784F425
:1018E0008443638C04428D67A3800400130784F64D
:1018F000938707C5232CE4F6232E04F6232EF4F455
:10190000032384F7930500022D461A85EFF05F9AB2
:101910008D672A838146814521471305E002A14254
:10192000938307FE8327C4F5138615001376F60FFD
:10193000BE9583C705009305000263F8F53493054F
:10194000F0026384B7346394A7006F00505F63FEB6
:10195000E63293958701E18563D505009E9783C79D
:1019600007F89385F7F993F5F50FE54063E5B000C7
:10197000811793F7F70F938516009A962380F60048
:10198000BA8713F7F50FBA86B2853E8761BF377500
:10199000DC02BE95130505C0EFE08FF2FD14658DE6
:1019A00042054181A1675D8D61B11305C003EFF070
:1019B000EFAC6318050E8D67238801CA938707561D
:1019C00003C507001307F00F631EE502130510029D
:1019D000EFF08FC80145EFF02FC81305F007EFF0C7
:1019E000AFC713052002EFF02FC70145EFF0CFC6B8
:1019F0001D45EFF06FC693050002138501CBEFF094
:101A00005F8F09A88507232EF4F4EFF0EFC4832736
:101A1000C4F55DD51385C1F9130600408145EFF08B
:101A20003F8913051002EFF02FC30145EFF0CFC23D
:101A30001305F007EFF04FC213052002EFF0CFC1FE
:101A40000145EFF06FC11D45EFF00FC18144938751
:101A5000C1F90145A6971307050293150701C18136
:101A6000898D3E95232AE4F4232EF4F4EFF07F8849
:101A7000032744F58327C4F53A8513070008E31CC0
:101A8000E5FC9384040893070040E392F4FC8D6521
:101A9000938545C71385413DEFF0BF820145EFF0C7
:101AA0001F880D65130505C8EFF09F9081442685BA
:101AB000EFF0CF9C01E52685EFF05F92850493F46B
:101AC000F40F9307F007E394F4FE0D65130545CA80
:101AD000EFF01F8EEFF03F8B41B69305A01A130570
:101AE0008004EFE0FFE6631B95048144EFE05FE4D0
:101AF000930744FBA6972380A70085049147E397AB
:101B0000F4FE034764FB8547E311F7D6034774FBF4
:101B10009307A00AE31BF7D49304803EB705004067
:101B20001305900EEFE0DFE2E301053C316513059C
:101B300005B8FD14EFE08FF3F5F005BB8145130503
:101B4000900EEFE0FFE09307100463E5A4008944E2
:101B50009307900E232EF4F49307803E0325C4F5DB
:101B60008145232AF4F4EFE0BFDEE30F053A316547
:101B7000130505B8EFE08FEF832744F5FD17F9FF54
:101B8000EDB1834784FB99E3994725B31305C4FB63
:101B9000EFE07FC8AA84AA85130544FBEFE09FF518
:101BA0008D47E307F5D06DF1930640023546A685D3
:101BB000130544FBEFE09FE3232EA4F4E31A05CEC4
:101BC0008345E4FB0345D4FBA205C98D91E51305CC
:101BD000B4FCEFE05FC4AA85034574FBEFE04FCC93
:101BE000834764FB232AA4F4034554FBA2078345DF
:101BF00044FBC98F3387F400835484FB0355A4FB53
:101C00002328E4F4232AE4F82305B4F8231694F8EF
:101C100009ED130574FC2322B4F42326F4F4EFE059
:101C20009FBF832544F48327C4F4032744F59180A0
:101C3000A697BA971D8DEFE0AFC8FD771307250073
:101C4000A907BD663E952328E4F8C167F916D917A0
:101C5000E3FFA626E3FAE7F28D47130534FD2304DC
:101C6000F4F8EFE05FBB232CA4F8832704F50327E7
:101C700084F4A30404F8BE94832744F5BE94930728
:101C800084F8232E94F81CC33DB10327C4F593B701
:101C90001702A305F3003297130544F7232EE4F44B
:101CA000EFE01FBF3DE9035644F7832544F8930650
:101CB00000023D8A1606130544FBEFE03FD331EDE9
:101CC000834744FBB9CB8347F4FB13F7870005E355
:101CD000832684F72D45130644FB3A960507B38502
:101CE000E6000346060083C5F5FF6382C50A8357F5
:101CF00044F78507C207C1838DC3032744F811CF7A
:101D000093F6F700E1EE032504F805072322E4F833
:101D100049ED03D7440063E3E70C8D47232C04F21D
:101D2000232EF4F48144232204F4832704F60327AA
:101D300044F69C43232EF4F2832704F69C4323228B
:101D4000F4F6832644F6B7170140938707409C4773
:101D50003386E640CD4663FFC6628326C4F5094755
:101D6000858B6383E6620D476388E6206390065C9B
:101D7000638D0758032704F618432322E4F603274C
:101D800004F61843232CE4F4232EF4F439A4E314CA
:101D9000A7F403C7B600C18B29E7C1D3130544FBE1
:101DA000EFE01FAC232EA4F6A1BE03C7240093D6F8
:101DB00047007D17758F1DE3232AF4F4EFE01FCD54
:101DC0008546E3FCA6F49444E379D5F42320A4F8F3
:101DD000EFE05FA6832744F52322A4F8231AF4F644
:101DE000D9B513F7F70F2328E4F485FB130544FB5B
:101DF000EFE01FA788D0130504FDEFE0DFA18547C2
:101E0000C8CC0D65A380F40023AC04001305C5CF36
:101E1000EFF06FC1B7375C7C9387F7D2232AF4F6D3
:101E2000230C04F6232E04F4832784F49C43E386D6
:101E300007EE03C71700058BE30107EED44F984F59
:101E40003387E6409306000463F4E60013070004BA
:101E5000232A04F4930644FB2326D4F42DEB832792
:101E600044F5E38B0704BE858D67138587D1EFF0BA
:101E70008FBB0D65930544FB130585D2EFF0AFBA18
:101E80008327C4F5032744F5BA97232EF4F4CA0731
:101E9000C1FF832704F50D65130585D3850793F7E7
:101EA000F70F2328F4F48327C4F593D5A700EFF0A8
:101EB0008FB7832704F5130744FF8D8BBA9703C5AB
:101EC00007F8EFF0AFD63545EFF04FD6B1BF944FDE
:101ED00013F6F61F29EE83C4270013D69600FD14CF
:101EE000F18C93F4F40F95E481EA8853854663E11D
:101EF000A602A380070015B5C853232EE4F22322BF
:101F0000F4F4EFE0BFB80327C4F3832744F4F9BF28
:101F1000C8D3C853232EE4F22322F4F4EFE09F91B8
:101F2000832744F40327C4F369D5AA9484D7904F38
:101F3000930400201376F61F918C63739700BA8484
:101F40008C570325C4F4A686232EE4F22322F4F44E
:101F5000EFE0DFA9832744F40327C4F359F9944F32
:101F6000058FA69694CF832644F5A696232AD4F40B
:101F70008326C4F4A696CDB58DE3832704F6032704
:101F800004F6232E04F49C431843232CE4F4032783
:101F900044F62322F4F6232CE4F28327C4F3130738
:101FA000803E858FE373F7D8832704F491CB832792
:101FB00044F4938417003E85EFF0EFBC232294F4A1
:101FC000B7F700E0884793050003B7D45B07EFE05D
:101FD0002F8F232AA4F205470D652392E1CA13052A
:101FE00085D769472393E1CAEFE04FC61387813C49
:101FF000A30507009386813C2D47938454D17D1718
:102000001377F70FA94526852328E4F4232AD4F46F
:10201000EFE00F90832644F513050503A9452385BA
:10202000A6002685EFE04F89832644F5032704F5B3
:102030000946AA84FD169387813CE312C7FC1385E9
:102040002700EFE0AFC0EFE0CFF92326A4F4EFE0E4
:102050004FF9232AA4F4EFE0CFF88D63CD459384A4
:1020600083FBEFE0AF889377F50F8607832644F56F
:10207000A69703D607003685930500052328C4F4E8
:10208000EFE0CF860327C4F49377F50F9305000A9A
:102090003A85232AF4F4EFE06F85832744F503267D
:1020A00004F51375F50FBE85EFE04FB2938281CB37
:1020B00003C30200131603014186232864F4232A74
:1020C000C4F4EFE00FF2CD45EFE04F821375F50F4A
:1020D0000605032644F52695035705008547930614
:1020E000000581453285EFE00FD0032304F58D63B1
:1020F000138783FB05032328E4F41373F30F93077B
:10210000F009938281CB63EA6728238062001383FE
:1021100091CB8344030093960401C186232AD4F40F
:10212000EFE02FECCD45EFD07FFC832704F513754E
:10213000F50F06053E95832644F5035705008547B0
:102140001306400BB6850145EFE0EFC9850493F413
:10215000F40F9307F004138391CB63E397242300D8
:1021600093004167130660049547130707809306A1
:10217000600481450145EFE00FC7EFE08FE62326BD
:10218000A4F2EFE00FE6AA84EFE0AFE52328A4F283
:10219000EFE02FE5232AA4F4EFE0AFE4CD45EFD044
:1021A000FFF4032704F59377F50F8607BA97832684
:1021B00044F503D707009305000536852324E4F48E
:1021C000EFD0DFF2032604F39376F50F9305000AB0
:1021D00032852326D4F4EFD07FF11376F50F9305E3
:1021E00000052685232AC4F4EFD05FF00323C4F250
:1021F0009374F50F9305000A1A85EFD03FEF03277C
:1022000084F48326C4F4032644F58547A685137514
:10221000F50FEFE04FBDB7071400A9072324F4F82A
:10222000B7073C00938787022326F4F8B7074600D8
:10223000938707052328F4F8930784F8232824F2CA
:10224000232AF4F41301C1FDBE848547232624F418
:102250002324F4F40143032584F48D45232664F2FA
:10226000EFD01FEB93152500930784F8BE95839656
:102270002400039725000323C4F26388E606039530
:102280000400839505009317130063DEE610032610
:10229000C4F49A978A07B297131605013385A540AF
:1022A00090C7B305D7404205232064F22322F4F2FD
:1022B0002324D4F22326E4F2EFD01FE0832744F254
:1022C0000327C4F2832684F2032304F2C8C39317BE
:1022D00013000326C4F49A978A07B2970503239044
:1022E000D7002391E7001373F30F832784F411477A
:1022F000910485072324F4F4E39FE7F4D146832770
:10230000C4F401478144A16505A2832744F603274D
:1023100084F33387E7408567938707FAE3FFE7C6CF
:102320000D651305C5D4EFF0AF8885B9032744F6D2
:10233000832684F5158F8DE39307F00963EEE7009C
:10234000832704F69C432322F4F6832704F69C4358
:10235000232CF4F489470DBC85469307000A232EED
:10236000D4F4E3FCE7C20D65130585D5EFF04F8487
:10237000832704F69C432322F4F6832704F69C4328
:10238000232CF4F48D4709B4E38907C08D671385C6
:1023900087D6E9BF2322E4F609B12380020085BB7A
:1023A000230003007DBB0326C4F49A978A07B297E3
:1023B000939205010D8D23A45700B385E640420595
:1023C0002320D4F2232264F22324F4F22326E4F21D
:1023D000EFD09FCE0327C4F2832784F2032604F2B2
:1023E000BA86032344F2C8C33287D5B503960700E3
:1023F00063C8C6020396270063D4C60283A287007F
:1024000013851400130644FF8604B2943386B20089
:1024100041862390C4FCD0439374F50F169690C761
:1024200005071377F70FB107E31267FC930244FB2C
:1024300016860547FD50636C971E93831400860330
:10244000858093F3C31F8A049693969463925322D4
:102450008506139706014183C20693077004C1865F
:10246000E31FF7E885448D452685EFD07FCA9307A3
:1024700084F80A053E95831625000316050083257A
:1024800044F5032544F541678395250003150500B0
:1024900089477D17EFE02F95832744F58504910741
:1024A000232AF4F49147E390F4FC9387C1CA83C4D0
:1024B0000700032104F3139304011397140013532B
:1024C0000301232664F4232AE4F4EFE08FB1CD4521
:1024D000EFD0DFC1832704F5032744F51375F50F0B
:1024E00006053E950323C4F4930600051306000A6F
:1024F000998E198E03570500C2064206C182418299
:102500009A851A85EFE0EFA6850493F4F40F13077C
:1025100070029387C1CA636E971823809700EFE01B
:102520004FAC2326A4F4EFE0CFABAA84EFE06FAB6F
:10253000CD45EFD0BFBB032704F59377F50F860792
:10254000BA9703D707009305C0032685232AE4F42E
:10255000EFD0DFB98326C4F49374F50F9305C00858
:102560003685EFD0BFB8032744F55146D146A6853E
:102570001375F50FEFE0EF9FEFE0AFA69305C008EE
:10258000EFD0DFB69374F50FEFE0AFA59305C0036E
:10259000EFD0DFB59376F50F232AD4F4EFE06FA4E4
:1025A000CD45EFD0BFB4032704F59377F50F860729
:1025B000BA97832644F503D6070013851400938544
:1025C000A6019387C1D11375F50F93F5F50F9352BB
:1025D00086001383870223805700A380C7008907E2
:1025E000E31BF3FE138644019386D60293F6F60F9F
:1025F0001376F60FEFD0BFD91385C1D1514693059D
:102600008002EFD03FDFB7F700E088479305000373
:10261000EFD01FAB832744F3B305F5400D651305D9
:1026200085D8EFE05FC08324C4F36FF00FF0930709
:10263000F7FF03152600E207E187B28583930500C3
:10264000635A7500FD17E20723917500E187F915BC
:10265000E39617FE8507E207E1878607930544FFA7
:10266000AE9705072390A7FC1377F70F0906E1B390
:10267000E38054DE03950200039622006359C502ED
:102680004167B685854713070780232274F2232408
:1026900064F2232654F22324D4F4EFD0DFF483230E
:1026A00044F2032384F28322C4F2832684F4910249
:1026B00071BB23800700A5B58327C4F50D651305FD
:1026C00005DA93D5A700EFE01FB66FF00FE563E5DD
:1026D000E7D88947032704F52304F4F8832744F552
:1026E000BA97232CF4F86FF04FD881451305A00753
:1026F000EFE00FA619C16FF04F978144EFE04FA3B1
:10270000930744FBA6972380A70085049147E3978E
:10271000F4FE834744FBB14493F7070499C36FF079
:10272000EF9491446FF08F949305002013050005FA
:10273000EFE00FA219C16FF04F936FF02F93631664
:1027400057D4AD476FF02FA41301C1FD22CE06D0A0
:1027500026CC2A84635FC00A9307E00FAE8463C16E
:10276000C70C9302F00FB382C24096851375F50F24
:1027700016C232C097E0FF1FE780408D02462ACA8A
:1027800013F5F40FB28597E0FF1FE780208C92428B
:102790002AC81355840096851375F50F16C697E061
:1027A000FF1FE780A08A02462AC413D58400B285A1
:1027B0001375F50F32C297E0FF1FE7802089B24200
:1027C0002AC01355040196851375F50F97E0FF1F76
:1027D000E780C08712462A8413D50401B285137599
:1027E000F50F97E0FF1FE78060864243D24782469D
:1027F00022479A972A943697938707081307070862
:1028000013040408A183137707F02180D98F4204B1
:102810005D8C825022857244E24413014102828021
:102820002E84C5BF111126C883A401CA1387C1C94C
:1028300018431386C1C922CA06CCAA872E849306E0
:10284000050332C0634A0704638AF604634F9704A2
:102850003386F64081453E853AC2EFE07FA51247B8
:1028600015CC639AE400B70602409C5A93F7F7FD33
:102870009CDA23AC01C8050715A02390070023911B
:1028800007002392070023930700239407000507FE
:10289000B107239F07FE7DB7E391F6FE8247E24032
:1028A000524498C3C24471018280138641C41042CD
:1028B0009302170032971306F00F6343E0000146BE
:1028C000B7457F000D65938505041305F50F16C602
:1028D0003EC436C2953D1356B5000D67130787F900
:1028E000798A3A96A24703560600B242924623904E
:1028F000C70013567500798A3A9603560600B10749
:10290000239BC7FE13563500798A3A960356060074
:10291000239CC7FE1376F50006063A96035606007A
:10292000239DC7FE135635013D81798A79893A96F0
:102930003A950357050003560600239FE7FE239EA2
:10294000C7FE168711B71301C1FC3EC2B70702408C
:102950009C4322D026CE06D816D61AD41ED22ACC14
:102960002ECA32C836C63AC43EC037040240930469
:10297000001044C0824793F7074089C785451385F7
:10298000C1CB4D35824793F7072089C78145138511
:10299000C1CE493D1C403EC0824793F70710F1FB72
:1029A0000254C250B25222539253F2446245D2456D
:1029B0004246B2462247924713014103730020303A
:1029C00051113EC0B7F700E03AC2984B36C4B16629
:1029D000938606B8369798CB23A20700938741CBFE
:1029E0009843A246050798C31247824731017300F6
:1029F000203079713EC0B75700403AC203D74741F3
:102A00009387074083D7870126CC06D69314070106
:102A100016D41AD21ED022CE2ACA2EC832C636C426
:102A2000098BC18005C31387C1398546C207C1839D
:102A30002300D700834617009D83858B2301D70091
:102A40002305F70293F7040495C79387C13903C799
:102A5000070079C3375700401307074003570701A2
:102A600023800700A38407021377F70FA380E700F2
:102A70002381E70093F70408A1C79387C13903C7EF
:102A8000A70203C52700A3840702B7570040938716
:102A900007401384C13979CB034704016376E50EFF
:102AA00058442A97034707001377F70F2398E70046
:102AB0005C5091C382978347240085072301F4006B
:102AC000C18885CC3757004083570740C207C18370
:102AD00093F7F7DFC207C1832310F7409387C1390B
:102AE00003C7A7024DC7985309CB03C5170083C579
:102AF0002700898D93F5F50F02977244B250A252C8
:102B000012538253E2445245C2453246A24612470E
:102B1000824745617300203083C6A7020547A3841E
:102B2000E70203C7270095C683C60701E374D7F4FD
:102B300083C68702A1F2B756004003D60641D447A8
:102B4000BA961376F60F2380C60005072381E700A7
:102B500015B783C68700E37FD7F083C6C70199FA0C
:102B6000B756004003D60641D443D9BF034784007B
:102B7000637CE50058402A97034707001377F70F57
:102B80002398E7001C4C35B72398070015BFD84B96
:102B9000A1BF51113AC2375700403EC08357474149
:102BA00036C49396070193F70710C18289CF8357E4
:102BB000474113070740C207C18393F7F7EFC207E6
:102BC000C183231AF70093F7062089CF37570040B7
:102BD00083574741C207C18393F7F7DFC207C18319
:102BE000231AF74093F6064089CE375700408357A3
:102BF0004741C207C18393F7F7BFC207C183231AB6
:102C0000F740A2461247824731017300203000008E
:102C1000494D205752495445454E20544F0A0D0006
:102C2000494D2052454144454E2046524F4D2E0AB3
:102C30000D000000636F756E74657220256C750061
:102C40000A0000004932433A2030782530325800DB
:102C50007465737466696C652E7478740000000086
:102C60004661696C656420746F20696E69742049DF
:102C70003243000048656C6C6F204265652100009E
:102C80002D2D2D2D5363616E6E696E672049324381
:102C90002042757320666F722044657669636573A0
:102CA0002D2D2D002D2D2D2D446F6E65205363612C
:102CB0006E6E696E672D2D2D2D0A0000493243205E
:102CC000536C617665206D6F646500004D6F756EA5
:102CD00074696E6720766F6C756D652E0A0D000045
:102CE00072633D25750A0D004F70656E696E672031
:102CF00066696C6520222573220A0D004C6F6164A1
:102D0000696E6720696D61676520696E746F205216
:102D1000414D0A0D000000005265616420257520B8
:102D200062797465730A0D00737472696E673A2074
:102D300025730A0D000000002564206B6220736F6C
:102D4000206661722E2E2E20200000004C6F6E67D0
:102D5000205072657373000053696E676C65204381
:102D60006C69636B00000000446F75626C65204302
:102D70006C69636B0000000048656C6C6F20576FD6
:102D8000726C6421000000005354373733352072D1
:102D9000756E74696D653A20256C752075730A002F
:102DA0000A0D4C6F61646564202564206B696C6F4B
:102DB00062797465732E0A0D0000000000000000A7
:102DC0000000005F00000007000700147F147F145C
:102DD000242A7F2A122313086462364955225000A0
:102DE00005030000001C2241000041221C00082AAB
:102DF0001C2A0808083E080800503000000808088F
:102E00000808006060000020100804023E51494597
:102E10003E00427F400042615149462141454B31CD
:102E20001814127F1027454545393C4A494930015D
:102E3000710905033649494936064949291E0036B4
:102E40003600000056360000000814224114141405
:102E50001414412214080002015109063249794133
:102E60003E7E1111117E7F494949363E4141412242
:102E70007F4141221C7F494949417F090901013EA7
:102E8000414151327F0808087F00417F41002040C6
:102E9000413F017F081422417F404040407F0204AF
:102EA000027F7F0408107F3E4141413E7F090909AE
:102EB000063E4151215E7F0919294646494949315B
:102EC00001017F01013F4040403F1F2040201F7F04
:102ED0002018207F631408146303047804036151ED
:102EE00049454300007F4141020408102041417FD1
:102EF000000004020102044040404040000102047E
:102F00000020545454787F48444438384444442082
:102F1000384444487F3854545418087E0901020844
:102F20001454543C7F0804047800447D4000204041
:102F3000443D00007F10284400417F40007C04187D
:102F400004787C0804047838444444387C1414140D
:102F500008081414187C7C080404084854545420AD
:102F6000043F4440203C4040207C1C2040201C3C2E
:102F70004030403C44281028440C5050503C44649D
:102F8000544C44000836410000007F0000004136E8
:102F9000080008082A1C080088888E88E888EE88BF
:102FA000888E8E8EE88EEE8E88E88EE8E8E8EEE871
:102FB00088EE8EEEE8EEEEEE00000F00E003EF0389
:102FC00000780F78E07B18C6EF7B1F00E007FF0753
:102FD00000F81FF8E0FFFFFF20FDE5AF18FC000040
:102FE000809A45418E418F804545454949498E8F9C
:102FF0009092924F994F555559999A9B9C9D9E9F9F
:1030000041494F55A5A5A6A7A8A9AAABACADAEAF9F
:10301000B0B1B2B3B4B5B6B7B8B9BABBBCBDBEBF38
:10302000C0C1C2C3C4C5C6C7C8C9CACBCCCDCECF28
:10303000D0D1D2D3D4D5D6D7D8D9DADBDCDDDEDF18
:10304000E0E1E2E3E4E5E6E7E8E9EAEBECEDEEEF08
:10305000F0F1F2F3F4F5F6F7F8F9FAFBFCFDFEFFF8
:1030600000000000003E5B4F5B3E3E6B4F6B3E1C22
:103070003E7C3E1C183C7E3C181C577D571C1C5E39
:103080007F5E1C00183C1800FFE7C3E7FF00182410
:103090001800FFE7DBE7FF30483A060E26297929BA
:1030A00026407F050507407F05253F5A3CE73C5AEF
:1030B0007F3E1C1C08081C1C3E7F14227F22145FCC
:1030C0005F005F5F06097F017F006689956A606027
:1030D00060606094A2FFA29408047E040810207E21
:1030E000201008082A1C08081C2A08081E101010A6
:1030F000100C1E0C1E0C30383E3830060E3E0E06EC
:10310000000000000000005F00000007000700143E
:103110007F147F14242A7F2A1223130864623649FD
:103120005620500008070300001C224100004122E5
:103130001C002A1C7F1C2A08083E080800807030EA
:103140000008080808080000606000201008040259
:103150003E5149453E00427F40007249494946215F
:1031600041494D331814127F1027454545393C4AD3
:1031700049493141211109073649494936464949EA
:10318000291E000014000000403400000008142232
:1031900041141414141400412214080201590906A0
:1031A0003E415D594E7C1211127C7F494949363EA1
:1031B000414141227F4141413E7F494949417F0987
:1031C0000909013E414151737F0808087F00417F92
:1031D00041002040413F017F081422417F40404090
:1031E000407F021C027F7F0408107F3E4141413E28
:1031F0007F090909063E4151215E7F0919294626AA
:103200004949493203017F01033F4040403F1F20AD
:1032100040201F3F4038403F631408146303047884
:1032200004036159494D43007F41414102040810A4
:1032300020004141417F04020102044040404040DF
:10324000000307080020545478407F28444438384D
:1032500044444428384444287F38545454180008BF
:103260007E090218A4A49C787F0804047800447D99
:1032700040002040403D007F1028440000417F4036
:10328000007C047804787C0804047838444444388A
:10329000FC1824241818242418FC7C08040408486A
:1032A0005454542404043F44243C4040207C1C20BB
:1032B00040201C3C4030403C44281028444C909016
:1032C000907C4464544C4400083641000000770070
:1032D00000004136080002010204023C2623263C7D
:1032E0001EA1A161123A4040207A38545455592108
:1032F00055557941225454784221555478402054F0
:103300005579400C1E52721239555555593954543D
:10331000545939555454580000457C410002457DAC
:10332000420001457C407D1211127DF0282528F0D5
:103330007C545545002054547C547C0A097F493202
:10334000494949323A4444443A324A4848303A4179
:1033500041217A3A42402078009DA0A07D3D424222
:10336000423D3D4040403D3C24FF2424487E4943AB
:10337000662B2FFC2F2BFF0929F620C0887E09031E
:1033800020545479410000447D413048484A323845
:103390004040227A007A0A0A727D0D19317D262971
:1033A000292F28262929292630484D402038080869
:1033B000080808080808382F10C8ACBA2F1028349D
:1033C000FA00007B000008142A142222142A140890
:1033D0005500550055AA55AA55AAFF55FF55FF009F
:1033E0000000FF00101010FF00141414FF00101054
:1033F000FF00FF1010F010F0141414FC001414F768
:1034000000FF0000FF00FF1414F404FC1414171054
:103410001F10101F101F1414141F00101010F000A4
:103420000000001F101010101F10101010F01000DE
:103430000000FF101010101010101010FF100000EE
:1034400000FF140000FF00FF00001F10170000FC29
:1034500004F414141710171414F404F40000FF00FB
:10346000F714141414141414F700F7141414171484
:1034700010101F101F141414F4141010F010F0008A
:10348000001F101F0000001F14000000FC140000AB
:10349000F010F01010FF10FF141414FF141010108F
:1034A0001F00000000F010FFFFFFFFFFF0F0F0F042
:1034B000F0FFFFFF0000000000FFFF0F0F0F0F0FD6
:1034C0003844443844FC4A4A4A347E020206060222
:1034D0007E027E0263554941633844443C04407E89
:1034E000201E2006027E020299A5E7A5991C2A4902
:1034F0002A1C4C7201724C304A4D4D30304878488D
:1035000030BC625A463D3E494949007E0101017E78
:103510002A2A2A2A2A44445F444440514A444040CB
:10352000444A51400000FF0103E080FF000008080A
:103530006B6B08361236243600060909060000189F
:10354000180000001010003040FF0101001F0101B1
:103550001E00191D1712003C3C3C3C0000000000FE
:10356000AED580A83FD300408D142000A1C8DA1248
:0C357000818FD9F1DB40A4A6AFFF000062
:10357C00801A06000000000038000100A08601003F
:10358C00000000003C000100AA0000000000000048
:10359C00000000000000000000000000000000001F
:1035AC00000000000000000001000000010000000D
:1035BC0042FFFFFF00000000AA87014513F715002A
:1035CC0011C33E9585818607F5F9828051113AC267
:1035DC00370702403EC05C4336C48966D58F5CC356
:1035EC00B717014093870740D847A24613470704F3
:0C35FC00D8C7124782473101730020300D
:00000001FF
