:100000006F00903D00000000A60C00004E0C0000A8
:1000100000000000000000000000000000000000E0
:1000200000000000000000000000000000000000D0
:10003000E0220000000000004E0C00000000000064
:100040004E0C00004E0C00004E0C00004E0C000048
:100050004E0C00004E0C00004E0C00004E0C000038
:1000600066220000540000204E0C00004E0C0000E0
:100070004E0C00004E0C000012230000B2240000C1
:100080004E0C00004E0C00004E0C00004E0C000008
:100090004E0C00004E0C00004E0C00000000000052
:1000A0002A86014593F6150091C232958581060690
:1000B000F5F9828000000000634E050263C3050469
:1000C0002E86AA857D5515C285466378B60063568F
:1000D000C00006068606E36CB6FE014563E4C50073
:1000E000918D558D85820582F5FA82808682C93F81
:1000F0002E8582823305A0406347B000B305B0402F
:10010000C1B7B305B0408682653F3305A040828207
:10011000868263C70500634905005D372E858282AC
:10012000B305B040E35B05FE3305A040513F330506
:10013000B04082820000311126C406C822C6AE84B7
:10014000AA87B2850143B5CA63D49600B684054335
:100150003384964063530400014422863A853EC2AC
:100160001AC0EF001066024392472A87B306850043
:100170000146B385C4406344B00463D304008144A2
:10018000338696003305E640630403026372C702B8
:100190009307A002A30FF6FE9306F6FF637AD7003B
:1001A000230FF6FE9306E6FF6374D700A30EF6FE58
:1001B000C2403244A24451018280A68651BFB38519
:1001C000C70003C50500B385C60005062380A5004A
:1001D0004DB72A832E8501CE8322060001475C425B
:1001E0006348A700238007004842330555408280BA
:1001F00014469385F6FF1442AE96E385D7FE9386A8
:10020000170054C2B306E30083C606000507238027
:10021000D700F1B7370700E08327470F9306470F52
:1002200093F70708F5FBB7273078938787089CC2B8
:100230007147370600E02543F1558327460F93F7B2
:100240000708E5FFB357E50093F6F70093070003AF
:100250006354D30093077005B697A20793E7570836
:10026000232AF60E7117E31AB7FC8280B7F700E075
:100270009C4737F700E03E951C47898FE3CE07FE89
:100280008280011106CE22CC26CA02C02A8363577F
:10029000050089E685473303A0403EC013041006DD
:1002A00019C213041004BA8459141A853AC81AC220
:1002B0002EC61AC4253DA5472243B2454247937630
:1002C000F50F63E1A7069386060393F6F60F93876F
:1002D00014002380D4001A853AC83EC62EC4CD33FC
:1002E0009246A245B24742472A8363FBB602824642
:1002F00099C69306D0022380D700938724003385C4
:10030000E7409356F501AA962380070085860146AB
:10031000FD17634BD600F2406244D24405618280EF
:10032000BE8461B7A29655B7B305C70083C2070064
:1003300003C3050005062380550023806700C9BF5D
:100340008347150003470500A2075D8F83472500FB
:1003500003453500C207D98F62055D8D828051113A
:1003600022C203A4C1C89305E5FF06C41C4401458D
:10037000F91763F7F500034524001D335C483E95EB
:10038000A24012443101828083A7C1C803C707007D
:100390008D476311F7028347550103474501A207C3
:1003A000D98FC2070347A5010345B5012205598D21
:1003B0005D8D82808147FDB7511122C206C42A8417
:1003C000231005000845054783A7C1C86305E5025A
:1003D00098476376E50219E983C607000D47884B05
:1003E0006386E60023260400884B21A048C46DDD07
:1003F000BD3708C80145A24012443101828005453D
:10040000DDBF37370140835707000E05C207C183A0
:1004100093F777FCC207C1832310F70083570700C7
:10042000C207C1835D8D2310A7008280B7370140CA
:100430002396A7003737014083578700898BEDDF6C
:1004400001003737014083578700858BEDDF035567
:10045000C7001375F50F82801305F00FC1BF51114E
:1004600022C206C42A841305F00F7D14C13765FC2F
:10047000A24012443101828051119317850122C29A
:1004800026C006C4E187AA842E8463DB0700814569
:1004900013057007D537854763E1A70693F4F40782
:1004A000653F5D3F26855937135584014137135504
:1004B00004011375F50F9D3F135584001375F50F57
:1004C000B5371375F40F9D379307000413055009D2
:1004D0006389F4009307800405456394F4001305D1
:1004E0007008A93729448D3F93178501E18763D6AA
:1004F00007007D141374F40F7DF4A240124482446B
:100500003101828083C781C8311122C626C406C842
:10051000A18BAA84368491E3A6051305100532C089
:10052000A13F024609C90544053FC2402285324425
:10053000A2445101828005679307803E1307072C70
:100540003A8532C23EC01D33013F9306F00F12467A
:100550006319D500824705671307072CFD17EDF3D4
:10056000D9B79307E00FE310F5FC93072020818FA4
:10057000918F3EC019C23285DD3581CC2694850429
:10058000E13DA38FA4FEE39C84FE02450144C13DEE
:1005900061BF7D14D13575FCCDBF854763E4A700ED
:1005A0000545828083A7C1C89847E37BE5FE4111DA
:1005B00006C603C7070089466309D7008D46630353
:1005C000D7020545B24041018280CC471376F50F32
:1005D0002181AA95894606060A852D377DF10355A6
:1005E0000100CDB7CC471376F5071D81AA9591463A
:1005F0000A060A85013F71F50A85993312051181B2
:10060000D1B7511106C422C20DCD83C781C8AA85B6
:10061000A18B99E39315950013058005B13D054421
:1006200001ED1305F00F19351305E00F0135130720
:10063000002023AAE1CA0144A240228512443101CC
:10064000828003A441CB090409E839357D899547A7
:100650006305F50205440935C5B70145C13B7D1465
:10066000E5B705651305052C11317D14F5339307A6
:10067000F00F6308F50075F4F1BF09641304047109
:10068000F5B713341400C1BFB757004003D7474133
:10069000938707401377071009CF03D74701054514
:1006A000420741831377F7EF42074183239AE7001C
:1006B000828003D747011377074009CF03D747014B
:1006C0000945420741831377F7BF42074183239AC5
:1006D000E700828003D747011377072009CF03D7AC
:1006E00047010D45420741831377F7DF42074183F6
:1006F000239AE700828003D7470101452D83058BAC
:1007000001CF03D74701FD769386F67F42074183E9
:10071000758F239AE700114582805C41B1E78357CA
:10072000850037570040860793F7E70F2318F740F7
:100730008967938707713706070023AEF1C8014523
:100740009386C1C937530040130626080357434117
:100750009315070103578341C18142074D8F718F64
:100760006316C70011C19CC201458280FD17054573
:10077000F1FF511106C423A00600393711E11545D8
:10078000A240310182802111896702C493870771D9
:1007900023AEF1C806CA02C002C22314A10001465A
:1007A0001387C1C9B755004083D68541898A89E638
:1007B00011C21CC3014509A8FD170546F5F7232002
:1007C0000700D93511E115453757004083570740D9
:1007D000B7550040C207C18393E707102310F740C5
:1007E00037070300050783D745419396070183D751
:1007F0008541C182C207D58FF98FE396E7FE19E1E3
:100800000A85213F3757004083570740D240C2072F
:10081000C18393E707202310F74061018280130111
:10082000C1FD26CC83A4C1C823A201CA938741CAB3
:1008300022CE06D02AC03EC415448DC803C714007A
:100840001144937617009DC22E841377070495E513
:1008500001CB01457D3309C5A3800400054439A0BF
:1008600003C714001377F7FBA380E40082502285AE
:100870007244E24413014102828009E7984C1377E5
:1008800007E098CCD84C944C158F637387003A845A
:1008900071DC984C9376F71F9DEE03C524009356A8
:1008A00097007D15758D9377F50F3EC299E745E763
:1008B00088500547E372A7FAC8D0C8504D3449DDC7
:1008C00092473E9588D4353B41F903C7140013671E
:1008D0000704A380E400984C930600201377F71FC9
:1008E0003387E6406373E40022878247A5CBB38257
:1008F000E7003E86138341CB8326030085C603456C
:100900000600050616CA36C83AC632C20536C246C1
:100910001246D242FD16138341CB2320D300324727
:10092000E31A56FC8247944C198CBA973EC0A247F2
:10093000BA9694CC904393F6F61F329798C3A9FACF
:100940000145C131E31A05F003C714001377F7FB23
:10095000A380E40035BFC8508931A1BF3A853AC2AF
:100960004D31124761D1CDBD896721119387077140
:1009700026C62EC206CA22C82AC023AEF1C8014626
:100980009384C1C9B755004083D68541898ABDE6A5
:1009900011C29CC0B756004083D70640B7550040EF
:1009A000C207C18393E707102390F640B706030000
:1009B000850683D745411396070183D78541418238
:1009C000C207D18FF58FE396D7FE138501C1B133EE
:1009D0002A8401461DE992476379F6028966938667
:1009E000067194C00145375300408355434193F548
:1009F0000508B9C511C194C00145A9A8FD17054650
:100A0000C1F759312A8411E115448966938606712C
:100A1000B705070094C00143B752004093854508CD
:100A200003D642411315060103D682414181420695
:100A3000498E6D8E6313B604630A030494C0B9A093
:100A4000FD160545DDF232C423A0040035392246E7
:100A500011E115458247B386C70083C50600050628
:100A6000B75600402398B6401376F60F32C401E51E
:100A7000213922462DD12A8449BFFD160543CDF2E6
:100A800023A0040011312A8411E11544B756004017
:100A900003D70640D2402285420742444183136770
:100AA00007202390E640B244610182804111A300F7
:100AB000A10089450A8506C6230001007535B240AC
:100AC0001375F50F41018280B70700E083A7470F38
:100AD0008280370700E08327470F111106CC22CA16
:100AE00026C82AC093F7070C9306000C6388D70C1E
:100AF00002C62E84F1E58327470F89C793F70708BD
:100B000091E3D937E24022855244C2447101828088
:100B1000B30594409D462E8763D3B6001D47B706A4
:100B200010008506370500E00326450F1303450F27
:100B300093720608639C020611C63AC42EC2693736
:100B4000224792458946014663D4B6001306D7FF73
:100B50008247938534006800BE953AC271213246BF
:100B600082471247B70600E023ACC60E8D45338698
:100B7000970081460343060085067C003385D70035
:100B8000230065006305D7000506E395B6FE9306CE
:100B9000470093E606F82306D1003246B70600E088
:100BA000BA9423AAC60EE3C584F6A9BFFD16ADFE0E
:100BB0008327030093E7070C2320F300014499B730
:100BC0008144D5B7511122C206C42E841937A240E0
:100BD0002285124431018280970100209381418255
:100BE00013814140096513050588731005308D4652
:100BF00017F5FFFF13050541558D7310553013850B
:100C000081C89385411801466356B50010C111058E
:100C1000E34EB5FE172500001305C5DB938541C0E3
:100C200017F6FF1F130646466388C500144194C19A
:100C300011059105E39AC5FEB7F700E0154798C383
:100C4000856793878720739017347300203073254E
:100C50001034EFF02FDC73250030EFF0AFDB73259D
:100C60003034EFF02FDB73252034EFF0AFDA3707A5
:100C700000E08327470F9306470F93F70708F5FB1C
:100C80008567938757A89CC2370700E08327470FE3
:100C90009306470F93F70708F5FBB7B7AAAA938700
:100CA00037A89CC201A0371702401C47B706800036
:100CB000D58F1CC7AA8703C7070001E73385A74064
:100CC00082808507CDBF130141FAA6C886CCA2CA8F
:100CD0002AC02EC2B284B68702C803C70400138498
:100CE0001400A30FE10001EBE64056444245C64420
:100CF0001301C105828093065002630FD7003EC4E2
:100D00001246824785451305F1018297A284C247A6
:100D1000AA973EC8A247D1B783C6140013060003A2
:100D200013872400A30FD100130400036390C608A7
:100D3000BA8401460147254511A89316270085046A
:100D4000369783C6F4FF06072E970546938506FD62
:100D500013F3F50FE37365FE19C2A30FD1003AC672
:100D600061466353E60032C69305C00601466398A8
:100D7000B60083C6040005468504A30FD100834650
:100D8000F101930540066383B60663E4D5021307B9
:100D900080056382E60A130730066380E60CA9D655
:100DA00012463EC485451305F1018DA813040002C7
:100DB00041B793055007638BB60213068007638C17
:100DC000C60613063007E39DC6FC3ACC13874700DE
:100DD0009C433AC43E853ECAF13D6247D247AA854C
:100DE00051CBB246381822863E8525A0138747008E
:100DF0003AC405CA9386B6F8181093B6160088430D
:100E00000146A945EFF0EFC7B24638182286AA85F9
:100E10000810EFF04FB21246AA8528188247829731
:100E2000FDB5130750076395E60018108546C1BF4E
:100E300018108146E9B7884313874700138686FA5E
:100E40003AC48546181013361600C145EFF06FC33B
:100E5000B246AA853818228665BF138747009C438F
:100E60003AC4B246A30FF10038182286854513050F
:100E7000F10145B712463E8555B71301C1FD32CA8F
:100E80002A8605652EC836CC81451408130545BC55
:100E900006C63ACE3ED036C03D35B24013014102BF
:100EA0008280411122C426C206C62A842EC08544EF
:100EB000824589461306E01F2285EFF0AFE401C5A5
:100EC0000D476387E4082285EFF08FC77D777D1794
:100ED000698F4207AD664183938656A56301D702A9
:100EE000931505018967C1811385075379370D472C
:100EF0006386E4069387140093F4F70F55BF824589
:100F00008946130660032285EFF0CFDF09ED034722
:100F1000140083470400916622075D8F9386661450
:100F200081446307D702824589461306200522853E
:100F3000EFF04FDD854409ED8347140003470400BB
:100F4000A207D98F71771307A7EBBA97B334F000D4
:100F5000B240224426859244410182808944CDBF1B
:100F600009651305455511BF09651305455631B788
:100F7000211106CA22C82AC02AC22EC485C12A84C9
:100F80008A8511E181451305201D353B01C41245B9
:100F900082471D8DD2404244610182800144DDB709
:100FA000011132C82E86B705008036CA93C5F5FFF9
:100FB000140806C63ACC3ECE36C05D3FB24005614D
:100FC00082802A96AA876393C70082802380B70015
:100FD0008507D5BFAA8703C705002380E70011E373
:100FE000828085058507C5BF81476313F60082802F
:100FF0003387F500834607003307F5008507230094
:10100000D700E5B7797122D4930700042E842E8689
:10101000AA851305110006D62300F100F1379305C8
:1010200014000A85EFF05F94B2502254456182802B
:10103000511122C22A841305100206C426C0BD34F1
:101040000145AD341305F007953413052002B93C72
:101050002285A93C2285993C65449384011783C766
:1010600004008DC7811793F7F70F09679396270040
:1010700013058772B69795453E95693785047D14AB
:1010800079FCA240124482443101828089679545EF
:1010900013858772853FE5B72A8689655111938547
:1010A00085571385011706C4E53D1305C003EFF00E
:1010B0008FED09E5A2401D4531019DBFA2403101E0
:1010C0008280511106C422C226C0AA84E5362A8431
:1010D000AA852685EFF0FF9F0965854513054558CC
:1010E000EFF03F9FA24013051400124482443101E7
:1010F000828039C59307F0072A866303F5045111EE
:1011000022C28965938585581385011706C4493D18
:10111000138501177D379387C1C380431305C0032F
:101120001307140098C3EFF00FE619E51375F40FD9
:101130001244A2403101EDBDA2401244310182802F
:101140008280B70700E083A7470F1307000C93F7CF
:10115000070C638DE7045111B707100022C206C4C3
:101160002A848507B70600E003A7460F1386460FBB
:10117000937507088DE119C3EFF01F9541657D1543
:1011800093178400E98F93E75708370700E0232A75
:10119000F70E054501A8FD17E1FB1C42014593E749
:1011A000070C1CC2A240124431018280014582809A
:1011B000B7270240054798C3B71702403707080111
:1011C00023A207001307170898C337079F0098C783
:1011D000B7060002371702401C43F58FF5DF5C436A
:1011E000B7160240F19B93E727005CC32147DC421E
:1011F000B18BE39EE7FEB70700E023AC070E1307B1
:10120000000823AAE70E8280130181F606CB22C9CB
:1012100026C7793FB7F700E0316723A0070013071F
:10122000F7B798CB23A40700138401CB2320040035
:10123000984337454900130505E01367770098C3C5
:10124000B7E700E0056723A0E710371702401C4FFF
:1012500093E757031CCFEFF06F81371701401C4312
:10126000138601CBC19B93E787001CC385471CCB2A
:10127000184032C43AC018403AC6138741C00347E9
:10128000A700938641C001E72385F60021A091477E
:10129000E3ECE7FEB7170240904B37052000B70597
:1012A000E0FF498E90CB904BFD1505646D8E90CB81
:1012B000D84F3706C0FB7516498FD8CF984F1367A4
:1012C000170198CFB7070140D843718FD8C3D843CF
:1012D0007D761306F60FD8C3B717014098431377EE
:1012E000F7F098C398431367070D98C39843718F1D
:1012F00098C39843130604D0518F98C337570040C2
:1013000083574740C207C18393F707FC93E78701E0
:101310002312F7409C4261671307076A93951700F1
:101320006367F72C3775DC02130505C0EFE05FD962
:101330007D14618D4205418137570040231EA7402F
:1013400083570740C207C18393E717002310F74074
:10135000EFF08FB3630B052A09651305455A9533E2
:10136000B71701409C47858B3ECE639007100965F7
:1013700013050560B9339387411405472390E700AF
:101380001387C1C1D8C30567130707F6D8CB056714
:1013900013060002130787F623A607002388070019
:1013A000238E070098CF238107002384C70023A042
:1013B000070223A2070223840702B7170240D44F73
:1013C000B7052000CD8ED4CF984BB706E0FFFD16B1
:1013D0004D8F98CB984BA165758F98CBB757004030
:1013E00083D60740C206C182CD8E2390D74083D6D4
:1013F0000740B7050040C606C5822390D74083D674
:101400004740C206C18293E686012392D74083D625
:101410004740C206C18293E606702392D740B7E6E2
:1014200000E023A0B610238FC640B705008023A09C
:10143000B610A38FC640E176C106239ED74093061F
:10144000E00E2394D7402396074003D70740420776
:101450004183136717002390E74003D707404207F3
:101460004183136707402390E740371602401C4E24
:10147000116713070702D98F1CCE37140140832749
:101480000440370710FF7D17F98FB7069000D58FFE
:10149000B74601402320F440A14593870680CCC77E
:1014A00023A8070093050008CCCB9305101A8CC71E
:1014B000CC47096593864680C98DCCC795475CCAE1
:1014C000B7070240EC43B73401400145F999ECC33A
:1014D000F4C793062009F4C3B7E700E0B70600029B
:1014E00023A0D7101C4E8566C106D58F1CCE239035
:1014F0000400EFE01FF183D70400370710FF7D17CA
:10150000C207C1832390F40083D704000965130543
:101510000561C207C18393E707202390F4001C40B4
:101520007D8F18C01C403707B000D98F1CC083D7EF
:101530000400370700F17D17C207C18393E7471006
:101540002390F40083D70400C207C1832390F400E2
:101550001C40F98F1CC01C403707000BD98F1CC0E2
:101560001C4037070040920791831CC01C40D98F54
:101570001CC083D704007D771307F77FC207C183A0
:10158000F98F2390F40083D70400C207C18393E747
:1015900007042390F400EFF05F8E1D4523A601C8D9
:1015A000EFE03FE62945EFE09FEB8145130500049E
:1015B000EFE09FEC1387C1C885473AC82A846305CA
:1015C000F5160144238481C8EFE01FE90145EFE0EF
:1015D0005FE3938781CA3EC26315041E12478947A1
:1015E00089441CC30965A6851305856D05AB377550
:1015F000DC02BE95130505C0EFE09FAC7D14618D44
:1016000042054181A1675D8D05BB1305C003EFF065
:101610008F97631F050C8D64238601CA9384449BB6
:1016200003C504009307F00F631EF50213051002B3
:10163000EFF0CFC70145EFF06FC71305F007EFF0EC
:10164000EFC613052002EFF06FC60145EFF00FC69D
:101650001D45EFF0AFC5930500021385C1CAEFF039
:101660007F9A29A08504EFF06FC45DD9130600406E
:101670008145138541D4EFF0DF9413051002EFF09C
:10168000EFC20145EFF08FC21305F007EFF00FC274
:1016900013052002EFF08FC10145EFF02FC11D456A
:1016A000EFF0CFC001442687938441D40145A29432
:1016B0009307050293950701C181898D26953EC246
:1016C000EFF05F9492473E8593070008E312F5FE22
:1016D0001304040893070040E318F4FC896593851C
:1016E000855B13850117EFF0FF8E0145EFF05F94E6
:1016F00009651305455CEFF0DF9C01442285EFF09E
:101700008F8801E52285EFF0DF9E05041374F40F46
:101710009307F007E314F4FE09651305855EEFF007
:101720005F9AEFF07F972DB99305A01A13058004F7
:10173000EFE09FD4631A85040144EFE0FFD1FC0081
:10174000A2972380A70005049147E318F4FE0347FE
:10175000E1048547E317F7E60347F1049307A00A7E
:10176000E311F7E61304803EB70500401305900E21
:10177000EFE09FD0E300050A3165130505B87D143D
:10178000EFE0DFAE75F035BD81451305900EEFE05B
:10179000BFCE930710046365A40009449307900E1D
:1017A0003EC29304803E12458145EFE0FFCCE30F3B
:1017B00005083165130505B8FD14EFE03FABE5F40E
:1017C00009B58145E800EFF0CFED85470144631F7F
:1017D000F502C1461306E01B8145E800EFE09FD209
:1017E00011C51247854785441CC3EDBB83470105DE
:1017F00091E71247994799441CC3EDB3C808EFE03D
:101800003FB42A84AA85E800EFF0AFE98D47E30AE8
:10181000F5FC65F1930640023546A285E800EFE04D
:101820007FCE61F18345610503455105A205C98D50
:1018300091E513053106EFE0BFB0AA850345F10439
:10184000EFE01F860347E1042ACA0345D10483451C
:10185000C104835401052207498F0355210593864E
:1018600081D13A94C0C62381B6002392960009E93B
:101870001305F1052ED03ACCEFE09FAC82556247BC
:10188000D247918026973E97198DEFE07F837D7731
:10189000930625002907938781D13D663A9594C721
:1018A000416779165917637EA674E374D7F40D4720
:1018B0001305B1062380E700EFE09FA8938781D14D
:1018C00088CB52472694A38007003305E4004247A3
:1018D000C8CB89641CC39247096593854459130595
:1018E000456223A00700EFF04FD9C2478043630E43
:1018F000044AA30004007C103EDE9387445982C052
:101900003ECA7253930500022D461A85EFF06FEB25
:101910008D672A838146814521471305E002A14254
:1019200093834792D247138615001376F60FBE9520
:1019300083C705009305000263F8F5049305F002E0
:101940006384B704638EA77063F0E6049395870100
:10195000E18563D505009E9783C707F89385F7F95E
:1019600093F5F50FE54063E5B000811793F7F70FA6
:10197000938516009A962380F600BA8713F7F50F21
:10198000BA86B2853E8779BF524793B71702A3053F
:10199000F300329728183ACAEFE01FA2AA8409ED93
:1019A00003568103A645930600023D8A1606E80009
:1019B000EFE05FB509C58544924784C325B18347ED
:1019C000C10499E38D44CDBF8347710513F78700A8
:1019D00011EF7257AD45F400AA9605053306A7002E
:1019E00083C606000346F6FF6309D60283578103C8
:1019F000850793940701C180F1D4264761D793F6F8
:101A0000F40089EA16450507BAC405E50357440002
:101A1000E3FAE4FA231C910261B7E31EB5FA034727
:101A2000B700C18B1DEBD9DFE800EFE0FF95AAC03E
:101A3000C9BD0347240093D644007D17758F79FBF9
:101A4000EFE0BFB58546E3F8A6F61444E37CD5F68F
:101A5000AAC2EFE0DF90AAC475BF13F7F70F3ACA26
:101A6000639F0732E800EFE03F9208D0A810EFE054
:101A70003F8D854748CC0965A300F400232C040062
:101A80009305300213058563EFE07FD99247AA845E
:101A900088C3E31905B48145EFE07FD89247AA8453
:101AA00088C3E31105B437859200130505C0EFE044
:101AB000EFFB096581451305C565EFF00FBCC24713
:101AC0009545984309CB834617009145858A81C681
:101AD000232C07008145924709651305C5668CC311
:101AE000EFF0AFB937375C7C1307F7D23ADC230E3F
:101AF0000102C247984323A201CA631E072A154761
:101B0000924798C3096593D5A4001305856AEFF041
:101B1000CFB6924709651305456C8C43EFF0EFB5DE
:101B2000370501405C410567130707805CC1B717A3
:101B30000240944F37360140A165D98E94CFD447E7
:101B4000558FD8C7D847FD769386F67F758FD8C74F
:101B5000035746C4930606C0420741834D8F2312A4
:101B6000E6C4231406C29305F00F2316B6C203572A
:101B700046C14207418313671700231AE6C0035783
:101B800006C042074183136717002310E6C03716CB
:101B900001401307064003230700137303FF136379
:101BA000930023206700CCDA8CDECCDEACC283D578
:101BB0008601C205C18193E50506239CB60083D545
:101BC0000602C205C18193E5C5002390B602944F79
:101BD000C575FD1593E6160394CFD44F93E6160012
:101BE000D4CF544154C11443ED8E14C31443A165A2
:101BF000CD8E14C35447B705F1FFFD1593E646009B
:101C000054C71443ED8E14C31443B7050800CD8E9A
:101C100014C35447C1759385F57F93E6060154C7F5
:101C2000984B1367170098CB984B799B98CB370745
:101C3000004083568700C206C18293E63600231413
:101C4000D700E576FD162312D70283564701C20658
:101C5000C18293E61600231AD70083560700C206F6
:101C6000C18293E616002310D7008356470203571C
:101C70004702D4434207ED8ED4C3944F418393E689
:101C8000462094CF930606809042419A90C290429B
:101C90001376F6F090C2D4473726014093E606202B
:101CA000D4C7D44793F6F6DFD4C7B727014093874C
:101CB0000740B7061000D4D723A8070293060002F6
:101CC000D4DB9306F00394CB944793E6160094C7B5
:101CD000944793E6860094C7930706409447A18AE9
:101CE000E5FE94473726014093E6460094C79307E4
:101CF00006409447918A36C2FDFAB7150240D4498E
:101D00001306C6440D4493E61600D4C9B706024034
:101D100090CA138601CAD0CA0946D0C60D661306FA
:101D2000065A90C690461366160090C6D4433706EE
:101D30000E001306261093E60610D4C39447D18EE6
:101D400094C7944737064000D18E94C78D66938719
:101D5000469A02D002CC02CA02C83ED2A2478246AC
:101D6000BA8584439C433717014018473EC03385EA
:101D7000D7404D466375A6288946058B630AD4264D
:101D80008D466303D41663110422630E071EA24717
:101D90003A849C433EC0A2479C433EC685A212475C
:101DA0008D478D441CC36FF0FF83124795479544C0
:101DB0001CC36FF03F8383461700858A99E2114761
:101DC00081B3144F0323C7013303D34093060004A8
:101DD00063F4660013030004FC003ECC63160306A4
:101DE000938741CA8C4323A401CAE38D05D00965BA
:101DF00013054567EFF06F880965EC00130545682A
:101E0000EFF0AF87938741CA9843BA9413972401A0
:101E1000E31107CED247096593D5A40013871700B5
:101E20009377F70F130545693ECAEFF00F85D24748
:101E300013F737007C013E970345C7FAEFF06FB008
:101E40003545EFF00FB075B1144F13F6F61F39EAB0
:101E50000344270013D696007D14718C1374F40F7D
:101E600005E491EA0853854663EFA600A300070046
:101E700023A4D1CA41B948531AD23AD0EFE0EFF1C6
:101E800012530257CDB748D348531AD23AD0EFE095
:101E90000FCD0257125309E5A30007008546C9BFBD
:101EA0002A9400D7104F130400201376F61F118CCC
:101EB000637383001A840C576245A2861AD23AD003
:101EC000EFE04FE40257125361F9144F330383409C
:101ED000A29614CF938641CA9442938741CAA29690
:101EE00094C3E247A297D5BD11EBA2472247014414
:101EF0009C4318433AC602473EC03AD037070040D9
:101F000003574702420741836309B7000965130578
:101F100085713AD4EFE07FF62257E2471146B38647
:101F2000F440637FD6009247B7360140938606C0DF
:101F3000DCDA924726CC9386170093F7F60F3EC261
:101F4000D2471306803EB386F440E379D6E0F247E9
:101F500081CFC2473AD4938617003E8536CAEFF048
:101F6000AF93D246225736C8B7060240F042925786
:101F7000799AF0C23946B0C6BCCAF0421366160060
:101F8000F0C226CAE1BB02578247B386E740056725
:101F9000130707FAE374D7F609651305C56E2ED447
:101FA000EFF02F92A25599BF8247B246B386D74031
:101FB00009EF9307F00963EAD700A24709449C435D
:101FC0003EC0A2479C433EC615BF1307000A054406
:101FD000E376D7F209652ED41305856FEFF06F8E87
:101FE000A2470D449C433EC0A2479C433EC65DBFF2
:101FF000E30607F089672ED413858770C5B736C00E
:10200000F5BDE366D78A09472380E7005247229748
:1020100098CB45B881451305A007EFE0EFC56312E3
:1020200005DA0144EFE04FC3FC00A2972380A7002C
:1020300005049147E318F4FE8347C104314493F744
:102040000704639107D811446FF0CFD793050020A0
:1020500013050005EFE04FC2631505D66FF08FD66C
:10206000E3145792AD4729BA1301C1FD22CE06D021
:1020700026CC2A84635FC00A9307E00FAE8463C155
:10208000C70C9302F00FB382C24096851375F50F0B
:1020900016C232C097E0FF1FE780C0FA02462ACA84
:1020A00013F5F40FB28597E0FF1FE780A0F9924285
:1020B0002AC81355840096851375F50F16C697E048
:1020C000FF1FE78020F802462AC413D58400B2859A
:1020D0001375F50F32C297E0FF1FE780A0F6B242FA
:1020E0002AC01355040196851375F50F97E0FF1F5D
:1020F000E78040F512462A8413D50401B285137592
:10210000F50F97E0FF1FE780E0F34243D247824696
:1021100022479A972A943697938707081307070848
:1021200013040408A183137707F02180D98F420498
:102130005D8C825022857244E24413014102828008
:102140002E84C5BF111126C883A481C9138741C934
:102150001843138641C922CA06CCAA872E84930647
:10216000050332C0634A0704638AF604634F970489
:102170003386F64081453E853AC2EFE09FE4124740
:1021800015CC639AE400B70602409C5A93F7F7FD1A
:102190009CDA23A801C8050715A023900700239106
:1021A00007002392070023930700239407000507E5
:1021B000B107239F07FE7DB7E391F6FE8247E24019
:1021C000524498C3C24471018280138601C41042F4
:1021D0009302170032971306F00F6343E0000146A5
:1021E000B7457F000D65938505041305F50F16C6E9
:1021F0003EC436C2953D1356B5000D671307479090
:10220000798A3A96A24703560600B2429246239034
:10221000C70013567500798A3A9603560600B1072F
:10222000239BC7FE13563500798A3A96035606005B
:10223000239CC7FE1376F50006063A960356060061
:10224000239DC7FE135635013D81798A79893A96D7
:102250003A950357050003560600239FE7FE239E89
:10226000C7FE168711B71301C1FC3EC2B707024073
:102270009C4322D026CE06D816D61AD41ED22ACCFB
:102280002ECA32C836C63AC43EC037040240930450
:10229000001044C0824793F7074089C785451385DE
:1022A00081CB4D35824793F7072089C78145138538
:1022B00081CE493D1C403EC0824793F70710F1FB99
:1022C0000254C250B25222539253F2446245D24554
:1022D0004246B24622479247130141037300203021
:1022E00051113EC0B7F700E03AC2984B36C4B16610
:1022F000938606B8369798CB23A20700938701CB25
:102300009843A246050798C31247824731017300DC
:10231000203079713EC0B75700403AC203D74741D9
:102320009387074083D7870126CC06D693140701ED
:1023300016D41AD21ED022CE2ACA2EC832C636C40D
:10234000098BC18005C3138741148546C207C18329
:102350002300D700834617009D83858B2301D70078
:102360002305F70293F7040495C79387411403C725
:10237000070079C337570040130707400357070189
:1023800023800700A38407021377F70FA380E700D9
:102390002381E70093F70408A1C79387411403C77B
:1023A000A70203C52700A3840702B75700409387FD
:1023B00007401384411479CB034704016376E50E8B
:1023C00058442A97034707001377F70F2398E7002D
:1023D0005C5091C382978347240085072301F40052
:1023E000C18885CC3757004083570740C207C18357
:1023F00093F7F7DFC207C1832310F7409387411497
:1024000003C7A7024DC7985309CB03C5170083C55F
:102410002700898D93F5F50F02977244B250A252AE
:1024200012538253E2445245C2453246A2461247F5
:10243000824745617300203083C6A7020547A38405
:10244000E70203C7270095C683C60701E374D7F4E4
:1024500083C68702A1F2B756004003D60641D4478F
:10246000BA961376F60F2380C60005072381E7008E
:1024700015B783C68700E37FD7F083C6C70199FAF3
:10248000B756004003D60641D443D9BF0347840062
:10249000637CE50058402A97034707001377F70F3E
:1024A0002398E7001C4C35B72398070015BFD84B7D
:1024B000A1BF51113AC2375700403EC08357474130
:1024C00036C49396070193F70710C18289CF8357CB
:1024D000474113070740C207C18393F7F7EFC207CD
:1024E000C183231AF70093F7062089CF375700409E
:1024F00083574741C207C18393F7F7DFC207C18300
:10250000231AF74093F6064089CE37570040835789
:102510004741C207C18393F7F7BFC207C183231A9C
:10252000F740A24612478247310173002030000075
:10253000636865636B5F66735F6572723A206261A0
:1025400064207369676E6174757265202530385830
:102550000A0D0000494D205752495445454E20541C
:102560004F0A0D00494D2052454144454E204652E8
:102570004F4D2E0A0D000000636F756E746572205A
:10258000256C75000A0000004932433A2030782556
:10259000303258007465737466696C652E74787493
:1025A000000000004661696C656420746F20696EEC
:1025B000697420493243000048656C6C6F204265A5
:1025C000652100002D2D2D2D5363616E6E696E67A0
:1025D000204932432042757320666F72204465762D
:1025E000696365732D2D2D002D2D2D2D446F6E6586
:1025F000205363616E6E696E672D2D2D2D0A0000CC
:1026000049324320536C617665206D6F646500002C
:102610000A4D6F756E74696E6720766F6C756D65A7
:102620002E0A0D004F70656E696E672066696C65D5
:1026300020222573220A0D0068656C6C6F20776F6D
:10264000726C64203939393939393939393939397C
:102650003939393939393939210A0D000A6C73652C
:10266000656B20746F2025750A0D000072633D258F
:10267000750A0D00526561642025752062797465C4
:10268000730A0D00737472696E673A2025730A0D20
:10269000000000002564206B6220736F2066617269
:1026A0002E2E2E20200000000A0D4C6F6164656400
:1026B000202564206B696C6F62797465732E0A0D36
:1026C000000000007265616420726573756C743A75
:1026D0002025750A0D000000777269746520657207
:1026E000726F723A2025750A0D0000004C6F6E67FC
:1026F000205072657373000053696E676C652043E8
:102700006C69636B00000000446F75626C65204368
:102710006C69636B00000000456E636F6465723A1C
:102720002025640A00000000000000000000005F97
:1027300000000007000700147F147F14242A7F2A5A
:102740001223130864623649552250000503000025
:10275000001C2241000041221C00082A1C2A0808F3
:10276000083E08080050300000080808080800600B
:1027700060000020100804023E5149453E00427F9F
:10278000400042615149462141454B311814127FA6
:102790001027454545393C4A49493001710905032F
:1027A0003649494936064949291E00363600000097
:1027B0005636000000081422411414141414412247
:1027C0001408000201510906324979413E7E111177
:1027D000117E7F494949363E414141227F41412294
:1027E0001C7F494949417F090901013E414151325C
:1027F0007F0808087F00417F41002040413F017F62
:10280000081422417F404040407F0204027F7F0441
:1028100008107F3E4141413E7F090909063E415172
:10282000215E7F09192946464949493101017F0145
:10283000013F4040403F1F2040201F7F2018207F45
:102840006314081463030478040361514945430089
:10285000007F4141020408102041417F0000040232
:102860000102044040404040000102040020545452
:1028700054787F48444438384444442038444448D9
:102880007F3854545418087E090102081454543CEB
:102890007F0804047800447D40002040443D00004F
:1028A0007F10284400417F40007C041804787C0895
:1028B00004047838444444387C141414080814146C
:1028C000187C7C080404084854545420043F4440B5
:1028D000203C4040207C1C2040201C3C4030403CA0
:1028E00044281028440C5050503C4464544C44003C
:1028F0000836410000007F0000004136080008084B
:102900002A1C080088888E88E888EE88888E8E8E3B
:10291000E88EEE8E88E88EE8E8E8EEE888EE8EEE47
:10292000E8EEEEEE809A45418E418F80454545495F
:1029300049498E8F9092924F994F555559999A9B2C
:102940009C9D9E9F41494F55A5A5A6A7A8A9AAABA6
:10295000ACADAEAFB0B1B2B3B4B5B6B7B8B9BABB3F
:10296000BCBDBEBFC0C1C2C3C4C5C6C7C8C9CACB2F
:10297000CCCDCECFD0D1D2D3D4D5D6D7D8D9DADB1F
:10298000DCDDDEDFE0E1E2E3E4E5E6E7E8E9EAEB0F
:10299000ECEDEEEFF0F1F2F3F4F5F6F7F8F9FAFBFF
:1029A000FCFDFEFF48656C6C6F20576F726C6421F4
:1029B0000D0A0000AED580A83FD300408D14200042
:1029C000A1C8DA12818FD9F1DB40A4A6AFFF0000C5
:1029D000801A06000000000038000100A0860100F7
:1029E000000000003C000100AA0000000000000000
:1029F00000000000000000000000000000000000D7
:102A000000000000000000000100000042FFFFFF86
:102A1000AA87014513F7150011C33E9585818607E6
:102A2000F5F9828051113AC2370702403EC05C433B
:102A300036C48966D58F5CC3B717014093870740BA
:102A4000D847A24613470704D8C712478247310127
:042A500073002030BF
:00000001FF
