:100000006F00503200000000F20B00009A0B00005D
:1000100000000000000000000000000000000000E0
:1000200000000000000000000000000000000000D0
:10003000281B0000000000009A0B000000000000D8
:100040009A0B00009A0B00009A0B00009A0B00001C
:100050009A0B00009A0B00009A0B00009A0B00000C
:10006000741F00003C0000209A0B00009A0B000057
:100070009A0B00009A0B00005A1B0000FA1C0000AB
:100080009A0B00009A0B00009A0B00009A0B0000DC
:100090009A0B00009A0B00009A0B00000000000071
:1000A000634E050263C305042E86AA857D5515C2DD
:1000B00085466378B6006356C00006068606E36C84
:1000C000B6FE014563E4C500918D558D858205829C
:1000D000F5FA82808682C93F2E8582823305A04050
:1000E0006347B000B305B040C1B7B305B0408682E6
:1000F000653F3305A0408282868263C7050063495D
:1001000005005D372E858282B305B040E35B05FEB6
:100110003305A040513F3305B040828200003111C9
:1001200026C406C822C6AE84AA87B2850143B5CAD2
:1001300063D49600B6840543338496406353040029
:10014000014422863A853EC21AC0EF00306A02435B
:1001500092472A87B30685000146B385C4406344AD
:10016000B00463D304008144338696003305E6402F
:10017000630403026372C7029307A002A30FF6FE93
:100180009306F6FF637AD700230FF6FE9306E6FF89
:100190006374D700A30EF6FEC2403244A24451015C
:1001A0008280A68651BFB385C70003C50500B3850D
:1001B000C60005062380A5004DB72A832E8501CEF3
:1001C0008322060001475C426348A70023800700A2
:1001D000484233055540828014469385F6FF144209
:1001E000AE96E385D7FE9386170054C2B306E300AC
:1001F00083C6060005072380D700F1B7370700E064
:100200008327470F9306470F93F70708F5FBB72798
:100210003078938787089CC27147370600E02543F2
:10022000F1558327460F93F70708E5FFB357E5001D
:1002300093F6F700930700036354D3009307700508
:10024000B697A20793E75708232AF60E7117E31A09
:10025000B7FC8280011106CE22CC26CA02C02A83B6
:100260006357050089E685473303A0403EC0130469
:10027000100619C213041004BA8459141A853AC816
:100280001AC22EC61AC4B935A5472243B245424701
:100290009376F50F63E1A7069386060393F6F60FB0
:1002A000938714002380D4001A853AC83EC62EC412
:1002B000E53B9246A245B24742472A8363FBB6021A
:1002C000824699C69306D0022380D70093872400E4
:1002D0003385E7409356F501AA962380070085866B
:1002E0000146FD17634BD600F2406244D2440561DB
:1002F0008280BE8461B7A29655B7B305C70083C29A
:10030000070003C30500050623805500238067000E
:10031000C9BF93178501E18763CA07029307F003FA
:1003200063E6B7029397150093854111BE9583C785
:10033000050013977700938781CEBA973E950347C0
:10034000050083C71500D98F2300F500828093072D
:10035000F00363E1A70493978501E18763D4070065
:100360009305F00793178601E18763D4070013060E
:10037000F00793171500138541113E95834705003B
:10038000834615009E073387B700938781CEBA97BF
:100390006373B600828003C70700850593F5F50FE8
:1003A000558F2380E7008507E5B7B757004003D78F
:1003B0004741938707401377071009CF03D74701B9
:1003C0000545420741831377F7EF42074183239A9C
:1003D000E700828003D747011377074009CF03D78F
:1003E00047010945420741831377F7BF420741831D
:1003F000239AE700828003D747011377072009CFAC
:1004000003D747010D45420741831377F7DF4207C2
:100410004183239AE700828003D7470101452D835A
:10042000058B01CF03D74701FD769386F67F420700
:100430004183758F239AE7001145828051118967A6
:1004400022C29387077126C023AEF1C606C4AA84D0
:1004500081461384C1C73756004003578641098B34
:1004600009E791C21CC0014509A8FD178546F5F7AB
:10047000232004001D3F11E11545375700408357E5
:100480000740B7550040C207C18393E70710231008
:10049000F74037070300050783D745411396070147
:1004A00083D785414182C207D18FF98FE396E7FE5A
:1004B00031E5860489672398954093870771B706CD
:1004C00007001CC081453753004093862608035718
:1004D0004341131607010357834141824207518F5D
:1004E000758F6315D70099C91CC009A8FD178545EC
:1004F000F9FF23200400553D11E115453757004011
:1005000083570740A2401244C207C18393E70720E4
:100510002310F7408244310182801301C1FD9356BC
:1005200085001373F50F620513D7850022D026CE00
:10053000618593F6F60F93F2F50F1377F70F635477
:1005400005001303F0071306F00393F7F60F637427
:10055000D6009307F00393968201E18663D40600E8
:100560009302F0079306F0039375F70F63F4E60028
:100570009305F003B386624013D7F641B98E998E86
:100580001397060141873AC23387F5401355F74167
:100590003346E500098E420641823307C0404207D8
:1005A00041873AC40544636353007D54854463E343
:1005B000B700FD54139706014183138541113AC0DA
:1005C0002AC6118F4207138581CE41872AC8131589
:1005D000830161856351050213151700A24342058B
:1005E0004185635975048246A69793F7F70F3697AE
:1005F00042074187E9BF1305F0036364F502324502
:1006000093931700C246AA9303C5030083C3130044
:100610001E0536951A9583460500B3E3D3002300E3
:100620007500E39B62FAE399F5FA0254F244130170
:10063000410282809246118F4207229341871373B1
:10064000F30FE3C6A6F845B7311126C4C16422C62C
:1006500006C8AA872E840147FD1493161700BE967C
:1006600083C5360003C6260003C51600A205D18D3A
:1006700003C606002205E58D518D658D3AC23EC048
:10068000693D12479306F4FF824705071377F70F7A
:10069000E345D7FC060479143E9483C5170003454F
:1006A000140003C7070083470400A2052205324453
:1006B000D98D5D8DC240E58D658DA2445101B1BDDE
:1006C00061119317850122C22310B100E18763C332
:1006D0000706834601009305F0030347110093F7D3
:1006E000F60F63F4D5009307F0039305F0039376B8
:1006F000F70F63F4E5009306F00363F5F6003E8719
:10070000B687BA867D162A961377F60F620661863B
:10071000634506026360A702B305A74085051396EB
:1007200017001387411193F5F50F3A96138381CE85
:1007300063F8F6001244210182801307F007E9BF35
:1007400003470600834216001E072A971A97338430
:10075000E50063178700850793F7F70F0906C9BF00
:10076000834307000507B3E37200A30F77FED5B7F5
:1007700071112310B1009307F00363E8A7048347C6
:100780000100139787016187635407009307F007FF
:1007900083461100139786016187634A070263F558
:1007A000F6003E87B687BA861317150013854111E8
:1007B0003A9503470500834515001E073306F700E9
:1007C000138781CE329763F7F6001101828093067A
:1007D000F007D9BF03460700850793F7F70F4D8E43
:1007E0002300C7000507C5B7B70700E083A7470F79
:1007F0008280370700E08327470F111106CC22CAF9
:1008000026C82AC093F7070C9306000C6389D70CFF
:1008100002C62E84F9E58327470F89C793F7070897
:1008200091E3D937E24022855244C244710182806B
:10083000B30594409D462E8763D3B6001D47B70687
:1008400010008506370500E00326450F1303450F0A
:1008500093720608639D020611C63AC42EC2693718
:10086000224792458946014663D4B6001306D7FF56
:100870008247938534006800BE953AC2EF006079E4
:10088000324682471247B70600E023ACC60E8D45BC
:100890003386970081460343060085067C00338536
:1008A000D700230065006305D7000506E395B6FE73
:1008B0009306470093E606F82306D1003246B706B2
:1008C00000E0BA9423AAC60EE3C484F6A1BFFD16C5
:1008D000A5FE8327030093E7070C2320F3000144C0
:1008E00091B78144D5B7511122C206C42E84113765
:1008F000A2402285124431018280139715002E9761
:1009000006070D07130181FC098322D826D620187B
:1009100006DA0A071386F5FF3301E140232CA4FC15
:10092000AE87232024FE1376F60FAA86232204FE28
:10093000232404FE01439304F00F832584FD06065F
:1009400003C716002E9683451600630EB7080346AC
:10095000060083C30600232EC4FC637CB70A939071
:10096000030193D000412E85BA82168663F35400AA
:1009700026869374F60F032684FE230AA4FC637470
:10098000C500230AC4FC2324F4FC834744FD13065A
:100990001300A2002324F4FE9377F60F232AF4FC1D
:1009A00013161300832704FE329306033E93832716
:1009B000C4FDA300A3002300530033857740231117
:1009C0001300998D22052326D4FC232864FCEFF024
:1009D0002FED032304FD832784FC8326C4FC23120C
:1009E000A300032344FD032744FE032644FE890697
:1009F00005071377F70F639BE700832784FE63EBFC
:100A00009710832704FE81460147B1A02322E4FE0C
:100A10002DB78310C4FD3A85AE8281BF03C607009F
:100A200063E7C40203C6170063F3C40203962700FA
:100A3000130544FFAA9513558640238CA5FE83D544
:100A4000470005071377F70F2E962391C7008506F9
:100A500093F6F60F9907BA85E312D3FC1306C4FE8A
:100A60008546FD5363EBE60081479386170063C616
:100A7000E604850493F4F40F49B79387F6FF034522
:100A80001600E207E187B28583C20500637A55004C
:100A9000FD17E207A3805500E187FD15E39677FE79
:100AA0008507E207E187930544FFAE978506238C0F
:100AB000A7FE93F6F60F050675B7130644FF3E969C
:100AC000834586FF1396850161866354060093056E
:100AD000F007130644FFB29603C686FF93168601FD
:100AE000E18663D406001306F00763F1C50226858C
:100AF000232CF4FC232EE4FC232264FEEFF03F853C
:100B0000832784FD0327C4FD032344FE890793F74D
:100B1000F70FA1BF130184FCD2504254B254130109
:100B200081038280970100209381818D1381414050
:100B3000096513050588731005308D4617F5FFFF0D
:100B40001305454C558D73105530138501C793859A
:100B5000811A01466356B50010C11105E34EB5FE7A
:100B6000171500001305457E938541C017F6FF1F3A
:100B7000130606506388C500144194C11105910500
:100B8000E39AC5FEB7F700E0154798C385679387DA
:100B9000A728739017347300203073251034EFF0BA
:100BA000EFE573250030EFF06FE573253034EFF09B
:100BB000EFE473252034EFF06FE4370700E083277C
:100BC000470F9306470F93F70708F5FB8567938751
:100BD00057A89CC2370700E08327470F9306470FAB
:100BE00093F70708F5FBB7B7AAAA938737A89CC263
:100BF00001A0371702401C47B7068000D58F1CC7DD
:100C0000AA8703C7070001E73385A74082808507CD
:100C1000CDBF130141FAA6C886CCA2CA2AC02EC2F3
:100C2000B284B68702C803C7040013841400A30F5C
:100C3000E10001EBE64056444245C6441301C105BC
:100C4000828093065002630FD7003EC4124682474B
:100C500085451305F1018297A284C247AA973EC831
:100C6000A247D1B783C614001306000313872400DC
:100C7000A30FD100130400036390C608BA84014691
:100C80000147254511A8931627008504369783C68A
:100C9000F4FF06072E970546938506FD13F3F50F1F
:100CA000E37365FE19C2A30FD1003AC661466353D0
:100CB000E60032C69305C00601466398B60083C6B7
:100CC000040005468504A30FD1008346F101930576
:100CD00040066383B60663E4D5021307800563828A
:100CE000E60A130730066380E60CA9D612463EC416
:100CF00085451305F1018DA81304000241B7930542
:100D00005007638BB60213068007638CC606130672
:100D10003007E39DC6FC3ACC138747009C433AC496
:100D20003E853ECAF13D6247D247AA8551CBB246C5
:100D3000381822863E8525A0138747003AC405CA85
:100D40009386B6F8181093B6160088430146A94555
:100D5000EFF04FD0B24638182286AA850810EFF07F
:100D60000FBC1246AA85281882478297FDB5130743
:100D700050076395E60018108546C1BF18108146DC
:100D8000E9B7884313874700138686FA3AC4854635
:100D9000181013361600C145EFF0CFCBB246AA8526
:100DA0003818228665BF138747009C433AC4B24671
:100DB000A30FF1003818228685451305F10145B7C8
:100DC00012463E8555B71301C1FD32CA2A86056514
:100DD0002EC836CC814514081305658E06C63ACE5A
:100DE0003ED036C03D35B240130141028280931798
:100DF00025000965130545303E950C4109655111E3
:100E00001305450006C4C137B7170240984BB70613
:100E10002000A240558F98CB984BB706E0FFFD16F7
:100E2000758F98CB37570040835747400545C20719
:100E3000C18393F707FC93E787012312F740F1770B
:100E40008507231EF74083570740C207C18393E7F6
:100E500017002310F74083570740C207C18393E769
:100E600007402310F74031018280E1679387176ABA
:100E7000375600408356864113070640898AC5C607
:100E8000FD17EDFB014505A07D1731E3094521A8BC
:100E90003E87835643411306034093F6060889E6CE
:100EA0007D1765FB0D45A1B7034705000505231810
:100EB000E60081A0930780076167B7060700231843
:100EC000F6001307176A37530040938626088357A6
:100ED000434113960701835783414182C207D18F53
:100EE000F58FE393D7FAE167AA959387176A37538B
:100EF0000040E31FB5F837060700375500401306DA
:100F0000460803574541930605409315070103D74B
:100F10008601C18142074D8F718F630AC704FD1797
:100F2000EDF3114549B783570700B7060300B752E1
:100F30000040C207C18393E707102310F7006167E1
:100F40001307176A850683D742411386024013931D
:100F500007018357860113530301C207B3E76700F4
:100F6000F58FE389D7F47D1779FF05452DBF83D72A
:100F700006000145C207C18393E707202390F600CE
:100F800082807971A300A10089450A8506D62300D5
:100F90000100E13DB25045618280211106CA22C89C
:100FA0002AC02AC22EC485C12A848A8511E18145BE
:100FB0001305A01BB93901C4124582471D8DD240CB
:100FC0004244610182800144DDB7011132C82E869E
:100FD000B705008036CA93C5F5FF140806C63ACC9B
:100FE0003ECE36C05D3FB240056182802A96AA8718
:100FF0006393C70082802380B7008507D5BFAA8787
:1010000003C705002380E70011E38280850585077B
:10101000C5BF81476313F60082803387F50083469E
:1010200007003307F50085072300D700E5B779717E
:1010300022D4930700042E842E86AA85130511005E
:1010400006D62300F100F137930514000A85313DDF
:10105000B25022544561828031111305100206C836
:1010600022C626C4393F0145293F1305F007113F29
:10107000130520023937014529371D451937014429
:10108000938481CE014533878400930705029395AD
:101090000701C181898D3A953EC23AC0493F9247C6
:1010A00002473E8593070008E311F5FE1304040888
:1010B00093070040E318F4FCC2403244A2445101BB
:1010C0008280511122C22A841305100206C426C050
:1010D0004D3D01457D351305F007653513052002AB
:1010E0004D352285793D2285693D654493844119BA
:1010F00083C704008DC7811793F7F70F096793968D
:10110000270013058710B69795453E950D37850442
:101110007D1479FCA24012448244310182808967A7
:101120009545138587102137E5B7511106C422C2B2
:1011300026C0AA84F1342A84AA852685EFF06FEBB5
:101140000965854513054503EFF0AFEAA240130595
:1011500014001244824431018280B70700E083A763
:10116000470F1307000C93F7070C638DE704511129
:10117000B707100022C206C42A848507B70600E01C
:1011800003A7460F1386460F937507088DE119C311
:10119000EFF08FE541657D1593178400E98F93E7A4
:1011A0005708370700E0232AF70E054501A8FD1769
:1011B000E1FB1C42014593E7070C1CC2A24012440C
:1011C000310182800145828025C59307F0072A8678
:1011D0006300F506511126C0896593858503138543
:1011E000411906C422C2D533138541193D3F938767
:1011F000C1C180431307140098C31377F40F9D47B0
:101200006307F700138541197D3E2945B93713055A
:10121000C003EFF0AFA201E91375F40F1244A2402E
:101220008244310179BDA24012448244310182805E
:101230008280B7270240054798C3B7170240370797
:10124000080123A207001307170898C337079F0058
:1012500098C7B7060002371702401C43F58FF5DF29
:101260005C43B7160240F19B93E727005CC321471C
:10127000DC42B18BE39EE7FEB70700E023AC070E2C
:101280001307000823AAE70E82801301C1F706C1E5
:10129000A2DEA6DC793FB7F700E0316723A00700A4
:1012A0001307F7B798CB23A40700138741C823205F
:1012B0000700984305661367770098C337E700E097
:1012C0002320C7109847B7474900938707E03E9708
:1012D000938741C83EDEB7F600E09C46998FE3CE87
:1012E00007FE371702401C4F45767D1693E717031C
:1012F0001CCF5C4F93E717005CCFB7070140D44386
:10130000D4C3B7170140938707409443F18E94C329
:1013100094432166D18E94C3D4473706F1FF7D16DE
:1013200093E64600D4C79443F18E94C394433706A2
:101330000800D18E94C3D44793E60601D4C71C4B52
:1013400093E717001CCB1C4BF99B1CCBB707004045
:1013500003D7870042074183136737002394E700D0
:1013600065777D172392E70203D747014207418340
:1013700013671700239AE70003D70700420741834A
:10138000136717002390E70003D7470283D747026C
:10139000938741C083C6A700138741C0854781C694
:1013A000914763F4D7002305F700B7170240904B2D
:1013B00037052000B705E0FF498E90CB904BFD1517
:1013C00005646D8E90CBD44F3706C0FB7516C98E61
:1013D000D4CF944F93E6160194CFB7070140D4437E
:1013E000F18ED4C3D4437D761306F60FD4C3B7175A
:1013F0000140944393F6F6F094C3944393E6060DAC
:1014000094C39443F18E94C39443130604D0D18EB5
:1014100094C3B756004083D74640C207C18393F7B1
:1014200007FC93E787012392F6401C43616713078B
:10143000076A939517006364F7343775DC02130568
:1014400005C0EFE07FC67D14618D420541813757AD
:101450000040231EA74083570740C207C18393E77C
:1014600017002310F740EFE05FF4630805320965C9
:10147000130545045D39814701461307007DF25687
:10148000944236C69D8EE37CD7FE930716003ED865
:1014900089659385050A13854119053E1305C00327
:1014A000EFE0DFF919E11D452939B7F700E088477A
:1014B000930500031964EFE03FBF2ADA95448147A2
:1014C000130444351385B4FF231C810405471375A9
:1014D000F50F6356F73AE6453EC22AC0EFF04FA932
:1014E0000245924705051375F50FE3F6A4FE85073F
:1014F0009D04E20793F4F40F13071002E187E393CE
:10150000E4FCB717320F9387C783BECCB7174600EA
:1015100093870785BECEA008856793876744954566
:1015200022852310F106EFF04FBD2946A2858800E1
:10153000CD349C009306A10403C7170089076107F7
:10154000A38FE7FEE39AF6FE95458800EFF0CF8F74
:1015500089655146938505FFC810653CA945C810AB
:10156000EFF0AFB9DC1003C7070089076507238FC9
:10157000E7FEB818E319F7FEA945C810EFF0CF8CC5
:10158000938401C29145138501C2EFF00FB79C40CF
:10159000BEC4DC408408BEC6BC003E8503C707004D
:1015A00089076507238FE7FEE39AF4FE9145EFF084
:1015B000AF899145138541C1EFF02FB4938741C1A5
:1015C0009843DC43BAC8BECAA68703C70700890789
:1015D0006507238FE7FEE31AF4FE91452685EFF0B9
:1015E000AF86B1473EC002C48247E156014713832C
:1015F00047FF1373F30FED5713F4F70F1306E406C9
:10160000A2441376F60F1375F70F9305E00632C266
:10161000B302A34033868540B3036500854013764B
:10162000F60F93F2F20F93F3F30F63DA90289245DB
:1016300016851AD23AD036CE3ECA1ECC32C8EFE05A
:101640001FD1E243424692451E85EFE05FD0D2476C
:10165000F246025712536346D72E050742074187C9
:1016600013161700050636964206B305F04041866C
:101670006315B70063C5D700814663D0D7248507BB
:10168000C207C1879396170085063696420685469F
:1016900041866394D722224763DDE73A13874111DD
:1016A000C1673AD4938597FF138781CEF1173AD655
:1016B0003EDC13871500060793920501420793D27B
:1016C0000241418701441395020141819307A50519
:1016D00093960701C207C1873EC89307A005C18240
:1016E000898F1306950536C293960701C207C187F5
:1016F00013130601C182135303013ECC824736CA3D
:101700009314040182461ACE1303B005C18033033B
:10171000A34093130301858F420313530341C20770
:10172000A69693D30301C20642061AD2C1831ED0E5
:101730001303F003C18241866367F32422538607B3
:10174000B2539A9703C3170083C70700F2409E075E
:101750009E979303F00763EA131EB380C70083C309
:101760000000B363730023807000C243B38077002E
:1017700083C30000B363730023807000D1AA377560
:10178000DC02BE95130505C0EFE01F927D14618D4C
:1017900042054181A1675D8D5DB909651305850528
:1017A000693201442285EFE07FC919E12285293C95
:1017B00005041374F40F9307F007E315F4FE0965AD
:1017C0001305C507EFF07F961305C003EFE01FC7B1
:1017D000E31305CA138741118147854513060004A9
:1017E00093D637002300D70093F67700B396D50041
:1017F0008507A300D70093F7F70F0907E392C7FE09
:101800008964238001C89384843203C5040093074C
:10181000F00F631EF50213051002EFF08FF601457D
:10182000EFF02FF61305F007EFF0AFF513052002E8
:10183000EFF02FF50145EFF0CFF41D45EFF06FF419
:1018400093050002138501C8EFF06FFE29A08504FF
:10185000EFF02FF35DD9130600408145138581CE4B
:10186000EFF0CFF8EFF04FFF8965938545091385B9
:101870004119EFF0CFF80145EFF0BF84EDBEE6452A
:101880001387C4FF2302E1061387F4FF3EC0A302BF
:10189000E106EFE0FFEDE6452685EFE07FED9655AA
:1018A000054613054005EFE0BFE1965505461305D3
:1018B0003006EFE0FFE082471DB9B28635BB9300EA
:1018C000E506898D3ED293F7F00F32853EC893F737
:1018D000F50F9E85B30464003ADC3304834036D6AA
:1018E0003ECA1AD032CE16D41ECCEFE09FA2E243FD
:1018F000124593F4F40F9E85EFE0BFA1A25212456A
:101900001374F40F968516CCEFE0BFA0E242724646
:1019100096853285EFE0FF9F5245A685EFE07F9FD9
:101920004245A685EFE0FF9E4245A285EFE07F9EFF
:101930005245A285EFE0FF9D6257B256925702537F
:1019400019BB36861DBB3E87BDBB9240E3FF13E04B
:10195000D2409303F00763EB1300E243B3807700B8
:1019600083C30000B363730023807000825093032D
:10197000F00763EA130092539E9783C30700336313
:101980007300238067009307F00363E0D708A25732
:101990008606F243BE9683C7060003C31600B256FE
:1019A0009E07B6979306F00763E376023E9683465A
:1019B0000600B366D3002300D600C2463386D700A4
:1019C00083460600B366D3002300D60021A012464A
:1019D000E3F5C6FE52469306F00763EBC600E24607
:1019E0003386D70083460600B366D3002300D600B3
:1019F00002569306F00763EAC6009256B69783C66E
:101A00000700B366D3002380D700BA87634DE40094
:101A100093871400139407014184931714008507DA
:101A2000BA97C207C187E3D0E2F205059312050118
:101A300093D20241139712000507BA97C2070547D0
:101A4000C187E392E2F08505E257C205C181E392C6
:101A5000F5C6A2478507E207E1873EC48247B9077A
:101A6000C207C1833EC0024793074004E31EF7B696
:101A70000144896413152400C1471375F50F6316DB
:101A8000F408130400049377F40F13971700130757
:101A900007F82304E104130700F82308E104A3086E
:101AA000F104A30401043307F040C64526450607A8
:101AB000230CE10413070004B307F740A302F10667
:101AC000A30CE10423020106EFE03FA5965566450D
:101AD0002104EFE09FA493070008E316F4FAEFF067
:101AE000AFD7B7F700E0884793050003EFE0CFDBFF
:101AF000D25789659385C50A3306F5401385411988
:101B0000EFF0AFCCB24742568DBA93878431A2979B
:101B100083C70700230201060D46A302F10696556E
:101B20000504EFE0FFB9B9B751113EC0B7F700E0C7
:101B30003AC2984B36C4B166938606B8369798CBAE
:101B400023A20700938741C89843A246050798C37C
:101B50001247824731017300203079713EC0B75778
:101B600000403AC203D747419387074083D7870194
:101B700026CC06D69314070116D41AD21ED022CE34
:101B80002ACA2EC832C636C4098BC18005C3138742
:101B9000810E8546C207C1832300D7008346170004
:101BA0009D83858B2301D7002305F70293F7040457
:101BB00095C79387810E03C7070079C33757004045
:101BC000130707400357070123800700A384070278
:101BD0001377F70FA380E7002381E70093F704084A
:101BE000A1C79387810E03C7A70203C52700A3845B
:101BF0000702B7570040938707401384810E79CBC3
:101C0000034704016376E50E58442A97034707000B
:101C10001377F70F2398E7005C5091C382978347AF
:101C2000240085072301F400C18885CC3757004084
:101C300083570740C207C18393F7F7DFC207C18309
:101C40002310F7409387810E03C7A7024DC798530F
:101C500009CB03C5170083C52700898D93F5F50FC0
:101C600002977244B250A25212538253E244524538
:101C7000C2453246A2461247824745617300203072
:101C800083C6A7020547A384E70203C7270095C6BA
:101C900083C60701E374D7F483C68702A1F2B7565F
:101CA000004003D60641D447BA961376F60F238038
:101CB000C60005072381E70015B783C68700E37FC9
:101CC000D7F083C6C70199FAB756004003D606413C
:101CD000D443D9BF03478400637CE50058402A976A
:101CE000034707001377F70F2398E7001C4C35B71D
:101CF0002398070015BFD84BA1BF51113AC23757DF
:101D000000403EC08357474136C49396070193F77E
:101D10000710C18289CF8357474113070740C20785
:101D2000C18393F7F7EFC207C183231AF70093F734
:101D3000062089CF3757004083574741C207C183E8
:101D400093F7F7DFC207C183231AF74093F60640E3
:101D500089CE3757004083574741C207C18393F765
:101D6000F7BFC207C183231AF740A2461247824732
:101D70003101730020301301C1FD22CE06D026CCE4
:101D80002A84635FC00A9307E00FAE8463C1C70C67
:101D90009302F00FB382C24096851375F50F16C2F9
:101DA00032C097E0FF1FE780602802462ACA13F579
:101DB000F40FB28597E0FF1FE780402792422AC8C0
:101DC0001355840096851375F50F16C697E0FF1F0F
:101DD000E780C02502462AC413D58400B285137556
:101DE000F50F32C297E0FF1FE7804024B2422AC0BD
:101DF0001355040196851375F50F97E0FF1FE780D3
:101E0000E02212462A8413D50401B2851375F50F1A
:101E100097E0FF1FE78080214243D2478246224756
:101E20009A972A943697938707081307070813048D
:101E30000408A183137707F02180D98F42045D8CB9
:101E4000825022857244E2441301410282802E8432
:101E5000C5BF111126C883A481C7138741C7184382
:101E6000138641C722CA06CCAA872E84930605038F
:101E700032C0634A0704638AF604634F97043386CB
:101E8000F64081453E853AC2EFF04F96124715CC99
:101E9000639AE400B70602409C5A93F7F7FD9CDA78
:101EA00023A801C6050715A023900700239107006A
:101EB0002392070023930700239407000507B10727
:101EC000239F07FE7DB7E391F6FE8247E24052442E
:101ED00098C3C24471018280138681C2104293026A
:101EE000170032971306F00F6343E0000146B74531
:101EF0007F000D65938505041305F50F16C63EC4D6
:101F000036C2953D1356B50009671307472E798AE7
:101F10003A96A24703560600B24292462390C70063
:101F200013567500798A3A9603560600B107239B2B
:101F3000C7FE13563500798A3A9603560600239C4D
:101F4000C7FE1376F50006063A9603560600239D53
:101F5000C7FE135635013D81798A79893A963A95BB
:101F60000357050003560600239FE7FE239EC7FE86
:101F7000168711B71301C1FC3EC2B70702409C434C
:101F800022D026CE06D816D61AD41ED22ACC2ECAD5
:101F900032C836C63AC43EC037040240930400102B
:101FA00044C0824793F7074089C78545138581C898
:101FB0004D35824793F7072089C78145138581CB2B
:101FC000493D1C403EC0824793F70710F1FB025485
:101FD000C250B25222539253F2446245D245424615
:101FE000B24622479247130141037300203000009C
:101FF0000C0010081808120E16160C100216060E09
:1020000000080808737364313330365F6932635FE8
:102010006572726F72202D2074696D656F75742002
:1020200077616974696E6720666F722025730A0D87
:10203000000000000A0000004932433A20307825B1
:10204000303258004661696C656420746F20696E97
:1020500069742049324300002D2D2D2D5363616E8C
:102060006E696E67204932432042757320666F7235
:1020700020446576696365732D2D2D002D2D2D2D42
:10208000446F6E65205363616E6E696E672D2D2DF2
:102090002D0A000048656C6C6F20426565210000C8
:1020A000636F756E74657220256C7500493243202C
:1020B00072756E74696D653A20256C7520757300B4
:1020C0006E6F742062757379000000006D61737427
:1020D0006572206D6F6465007472616E736D6974F2
:1020E000206D6F6465000000747820656D707479F0
:1020F000000000007472616E736D697420636F6D0F
:10210000706C657465000000000000000000005F56
:1021100000000007000700147F147F14242A7F2A80
:10212000122313086462364955225000050300004B
:10213000001C2241000041221C00082A1C2A080819
:10214000083E080800503000000808080808006031
:1021500060000020100804023E5149453E00427FC5
:10216000400042615149462141454B311814127FCC
:102170001027454545393C4A494930017109050355
:102180003649494936064949291E003636000000BD
:10219000563600000008142241141414141441226D
:1021A0001408000201510906324979413E7E11119D
:1021B000117E7F494949363E414141227F414122BA
:1021C0001C7F494949417F090901013E4141513282
:1021D0007F0808087F00417F41002040413F017F88
:1021E000081422417F404040407F0204027F7F0468
:1021F00008107F3E4141413E7F090909063E415199
:10220000215E7F09192946464949493101017F016B
:10221000013F4040403F1F2040201F7F2018207F6B
:1022200063140814630304780403615149454300AF
:10223000007F4141020408102041417F0000040258
:102240000102044040404040000102040020545478
:1022500054787F48444438384444442038444448FF
:102260007F3854545418087E090102081454543C11
:102270007F0804047800447D40002040443D000075
:102280007F10284400417F40007C041804787C08BB
:1022900004047838444444387C1414140808141492
:1022A000187C7C080404084854545420043F4440DB
:1022B000203C4040207C1C2040201C3C4030403CC6
:1022C00044281028440C5050503C4464544C440062
:1022D0000836410000007F00000041360800080871
:1022E0002A1C080088888E88E888EE88888E8E8E62
:1022F000E88EEE8E88E88EE8E8E8EEE888EE8EEE6E
:10230000E8EEEEEEC0200000CC200000D820000057
:10231000E8200000F42000001E323C2814321E0A7F
:10232000230A141E28323C14AED580A83FD30040A7
:102330008D142000A1C8DA12818FD9F1DB40A4A648
:04234000AFFF0000EB
:10234400801A0600000000003800010000000000B0
:10235400062612260634123401000000061812184C
:102364001622022242FFFFFFAA87014513F7150038
:1023740011C33E9585818607F5F9828051113AC2D1
:10238400370702403EC05C4336C48966D58F5CC3C0
:10239400B717014093870740D847A246134707045D
:0C23A400D8C71247824731017300203077
:00000001FF
