:100000006F00903D00000000A60C00004E0C0000A8
:1000100000000000000000000000000000000000E0
:1000200000000000000000000000000000000000D0
:100030006C200000000000004E0C000000000000DA
:100040004E0C00004E0C00004E0C00004E0C000048
:100050004E0C00004E0C00004E0C00004E0C000038
:10006000F21F0000540000204E0C00004E0C000057
:100070004E0C00004E0C00009E2000003E220000AE
:100080004E0C00004E0C00004E0C00004E0C000008
:100090004E0C00004E0C00004E0C00000000000052
:1000A0002A86014593F6150091C232958581060690
:1000B000F5F9828000000000634E050263C3050469
:1000C0002E86AA857D5515C285466378B60063568F
:1000D000C00006068606E36CB6FE014563E4C50073
:1000E000918D558D85820582F5FA82808682C93F81
:1000F0002E8582823305A0406347B000B305B0402F
:10010000C1B7B305B0408682653F3305A040828207
:10011000868263C70500634905005D372E858282AC
:10012000B305B040E35B05FE3305A040513F330506
:10013000B04082820000311126C406C822C6AE84B7
:10014000AA87B2850143B5CA63D49600B684054335
:100150003384964063530400014422863A853EC2AC
:100160001AC0EF001066024392472A87B306850043
:100170000146B385C4406344B00463D304008144A2
:10018000338696003305E640630403026372C702B8
:100190009307A002A30FF6FE9306F6FF637AD7003B
:1001A000230FF6FE9306E6FF6374D700A30EF6FE58
:1001B000C2403244A24451018280A68651BFB38519
:1001C000C70003C50500B385C60005062380A5004A
:1001D0004DB72A832E8501CE8322060001475C425B
:1001E0006348A700238007004842330555408280BA
:1001F00014469385F6FF1442AE96E385D7FE9386A8
:10020000170054C2B306E30083C606000507238027
:10021000D700F1B7370700E08327470F9306470F52
:1002200093F70708F5FBB7273078938787089CC2B8
:100230007147370600E02543F1558327460F93F7B2
:100240000708E5FFB357E50093F6F70093070003AF
:100250006354D30093077005B697A20793E7570836
:10026000232AF60E7117E31AB7FC8280B7F700E075
:100270009C4737F700E03E951C47898FE3CE07FE89
:100280008280011106CE22CC26CA02C02A8363577F
:10029000050089E685473303A0403EC013041006DD
:1002A00019C213041004BA8459141A853AC81AC220
:1002B0002EC61AC4253DA5472243B2454247937630
:1002C000F50F63E1A7069386060393F6F60F93876F
:1002D00014002380D4001A853AC83EC62EC4CD33FC
:1002E0009246A245B24742472A8363FBB602824642
:1002F00099C69306D0022380D700938724003385C4
:10030000E7409356F501AA962380070085860146AB
:10031000FD17634BD600F2406244D24405618280EF
:10032000BE8461B7A29655B7B305C70083C2070064
:1003300003C3050005062380550023806700C9BF5D
:100340008347150003470500A2075D8F83472500FB
:1003500003453500C207D98F62055D8D828051113A
:1003600022C203A4C1C89305E5FF06C41C4401458D
:10037000F91763F7F500034524001D335C483E95EB
:10038000A24012443101828083A7C1C803C707007D
:100390008D476311F7028347550103474501A207C3
:1003A000D98FC2070347A5010345B5012205598D21
:1003B0005D8D82808147FDB7511122C206C42A8417
:1003C000231005000845054783A7C1C86305E5025A
:1003D00098476376E50219E983C607000D47884B05
:1003E0006386E60023260400884B21A048C46DDD07
:1003F000BD3708C80145A24012443101828005453D
:10040000DDBF37370140835707000E05C207C183A0
:1004100093F777FCC207C1832310F70083570700C7
:10042000C207C1835D8D2310A7008280B7370140CA
:100430002396A7003737014083578700898BEDDF6C
:1004400001003737014083578700858BEDDF035567
:10045000C7001375F50F82801305F00FC1BF51114E
:1004600022C206C42A841305F00F7D14C13765FC2F
:10047000A24012443101828051119317850122C29A
:1004800026C006C4E187AA842E8463DB0700814569
:1004900013057007D537854763E1A70693F4F40782
:1004A000653F5D3F26855937135584014137135504
:1004B00004011375F50F9D3F135584001375F50F57
:1004C000B5371375F40F9D379307000413055009D2
:1004D0006389F4009307800405456394F4001305D1
:1004E0007008A93729448D3F93178501E18763D6AA
:1004F00007007D141374F40F7DF4A240124482446B
:100500003101828083C781C8311122C626C406C842
:10051000A18BAA84368491E3A6051305100532C089
:10052000A13F024609C90544053FC2402285324425
:10053000A2445101828005679307803E1307072C70
:100540003A8532C23EC01D33013F9306F00F12467A
:100550006319D500824705671307072CFD17EDF3D4
:10056000D9B79307E00FE310F5FC93072020818FA4
:10057000918F3EC019C23285DD3581CC2694850429
:10058000E13DA38FA4FEE39C84FE02450144C13DEE
:1005900061BF7D14D13575FCCDBF854763E4A700ED
:1005A0000545828083A7C1C89847E37BE5FE4111DA
:1005B00006C603C7070089466309D7008D46630353
:1005C000D7020545B24041018280CC471376F50F32
:1005D0002181AA95894606060A852D377DF10355A6
:1005E0000100CDB7CC471376F5071D81AA9591463A
:1005F0000A060A85013F71F50A85993312051181B2
:10060000D1B7511106C422C20DCD83C781C8AA85B6
:10061000A18B99E39315950013058005B13D054421
:1006200001ED1305F00F19351305E00F0135130720
:10063000002023A8E1CA0144A240228512443101CE
:10064000828003A401CB090409E839357D899547E7
:100650006305F50205440935C5B70145C13B7D1465
:10066000E5B705651305052C11317D14F5339307A6
:10067000F00F6308F50075F4F1BF09641304047109
:10068000F5B713341400C1BFB757004003D7474133
:10069000938707401377071009CF03D74701054514
:1006A000420741831377F7EF42074183239AE7001C
:1006B000828003D747011377074009CF03D747014B
:1006C0000945420741831377F7BF42074183239AC5
:1006D000E700828003D747011377072009CF03D7AC
:1006E00047010D45420741831377F7DF42074183F6
:1006F000239AE700828003D7470101452D83058BAC
:1007000001CF03D74701FD769386F67F42074183E9
:10071000758F239AE700114582805C41B1E78357CA
:10072000850037570040860793F7E70F2318F740F7
:100730008967938707713706070023AEF1C8014523
:100740009386C1C937530040130626080357434117
:100750009315070103578341C18142074D8F718F64
:100760006316C70011C19CC201458280FD17054573
:10077000F1FF511106C423A00600393711E11545D8
:10078000A240310182802111896702C493870771D9
:1007900023AEF1C806CA02C002C22314A10001465A
:1007A0001387C1C9B755004083D68541898A89E638
:1007B00011C21CC3014509A8FD170546F5F7232002
:1007C0000700D93511E115453757004083570740D9
:1007D000B7550040C207C18393E707102310F740C5
:1007E00037070300050783D745419396070183D751
:1007F0008541C182C207D58FF98FE396E7FE19E1E3
:100800000A85213F3757004083570740D240C2072F
:10081000C18393E707202310F74061018280130111
:10082000C1FD26CC83A4C1C823A001CA938701CAF5
:1008300022CE06D02AC03EC415448DC803C714007A
:100840001144937617009DC22E841377070495E513
:1008500001CB01457D3309C5A3800400054439A0BF
:1008600003C714001377F7FBA380E40082502285AE
:100870007244E24413014102828009E7984C1377E5
:1008800007E098CCD84C944C158F637387003A845A
:1008900071DC984C9376F71F9DEE03C524009356A8
:1008A00097007D15758D9377F50F3EC299E745E763
:1008B00088500547E372A7FAC8D0C8504D3449DDC7
:1008C00092473E9588D4353B41F903C7140013671E
:1008D0000704A380E400984C930600201377F71FC9
:1008E0003387E6406373E40022878247A5CBB38257
:1008F000E7003E86138301CB8326030085C60345AC
:100900000600050616CA36C83AC632C20536C246C1
:100910001246D242FD16138301CB2320D300324767
:10092000E31A56FC8247944C198CBA973EC0A247F2
:10093000BA9694CC904393F6F61F329798C3A9FACF
:100940000145C131E31A05F003C714001377F7FB23
:10095000A380E40035BFC8508931A1BF3A853AC2AF
:100960004D31124761D1CDBD896721119387077140
:1009700026C62EC206CA22C82AC023AEF1C8014626
:100980009384C1C9B755004083D68541898ABDE6A5
:1009900011C29CC0B756004083D70640B7550040EF
:1009A000C207C18393E707102390F640B706030000
:1009B000850683D745411396070183D78541418238
:1009C000C207D18FF58FE396D7FE138501C1B133EE
:1009D0002A8401461DE992476379F6028966938667
:1009E000067194C00145375300408355434193F548
:1009F0000508B9C511C194C00145A9A8FD17054650
:100A0000C1F759312A8411E115448966938606712C
:100A1000B705070094C00143B752004093854508CD
:100A200003D642411315060103D682414181420695
:100A3000498E6D8E6313B604630A030494C0B9A093
:100A4000FD160545DDF232C423A0040035392246E7
:100A500011E115458247B386C70083C50600050628
:100A6000B75600402398B6401376F60F32C401E51E
:100A7000213922462DD12A8449BFFD160543CDF2E6
:100A800023A0040011312A8411E11544B756004017
:100A900003D70640D2402285420742444183136770
:100AA00007202390E640B244610182804111A300F7
:100AB000A10089450A8506C6230001007535B240AC
:100AC0001375F50F41018280B70700E083A7470F38
:100AD0008280370700E08327470F111106CC22CA16
:100AE00026C82AC093F7070C9306000C6388D70C1E
:100AF00002C62E84F1E58327470F89C793F70708BD
:100B000091E3D937E24022855244C2447101828088
:100B1000B30594409D462E8763D3B6001D47B706A4
:100B200010008506370500E00326450F1303450F27
:100B300093720608639C020611C63AC42EC2693736
:100B4000224792458946014663D4B6001306D7FF73
:100B50008247938534006800BE953AC271213246BF
:100B600082471247B70600E023ACC60E8D45338698
:100B7000970081460343060085067C003385D70035
:100B8000230065006305D7000506E395B6FE9306CE
:100B9000470093E606F82306D1003246B70600E088
:100BA000BA9423AAC60EE3C584F6A9BFFD16ADFE0E
:100BB0008327030093E7070C2320F300014499B730
:100BC0008144D5B7511122C206C42E841937A240E0
:100BD0002285124431018280970100209381418255
:100BE00013814140096513050588731005308D4652
:100BF00017F5FFFF13050541558D7310553013850B
:100C000081C89385011801466356B50010C11105CE
:100C1000E34EB5FE17250000130585B3938541C04B
:100C200017F6FF1F130646466388C500144194C19A
:100C300011059105E39AC5FEB7F700E0154798C383
:100C4000856793878720739017347300203073254E
:100C50001034EFF02FDC73250030EFF0AFDB73259D
:100C60003034EFF02FDB73252034EFF0AFDA3707A5
:100C700000E08327470F9306470F93F70708F5FB1C
:100C80008567938757A89CC2370700E08327470FE3
:100C90009306470F93F70708F5FBB7B7AAAA938700
:100CA00037A89CC201A0371702401C47B706800036
:100CB000D58F1CC7AA8703C7070001E73385A74064
:100CC00082808507CDBF130141FAA6C886CCA2CA8F
:100CD0002AC02EC2B284B68702C803C70400138498
:100CE0001400A30FE10001EBE64056444245C64420
:100CF0001301C105828093065002630FD7003EC4E2
:100D00001246824785451305F1018297A284C247A6
:100D1000AA973EC8A247D1B783C6140013060003A2
:100D200013872400A30FD100130400036390C608A7
:100D3000BA8401460147254511A89316270085046A
:100D4000369783C6F4FF06072E970546938506FD62
:100D500013F3F50FE37365FE19C2A30FD1003AC672
:100D600061466353E60032C69305C00601466398A8
:100D7000B60083C6040005468504A30FD100834650
:100D8000F101930540066383B60663E4D5021307B9
:100D900080056382E60A130730066380E60CA9D655
:100DA00012463EC485451305F1018DA813040002C7
:100DB00041B793055007638BB60213068007638C17
:100DC000C60613063007E39DC6FC3ACC13874700DE
:100DD0009C433AC43E853ECAF13D6247D247AA854C
:100DE00051CBB246381822863E8525A0138747008E
:100DF0003AC405CA9386B6F8181093B6160088430D
:100E00000146A945EFF0EFC7B24638182286AA85F9
:100E10000810EFF04FB21246AA8528188247829731
:100E2000FDB5130750076395E60018108546C1BF4E
:100E300018108146E9B7884313874700138686FA5E
:100E40003AC48546181013361600C145EFF06FC33B
:100E5000B246AA853818228665BF138747009C438F
:100E60003AC4B246A30FF10038182286854513050F
:100E7000F10145B712463E8555B71301C1FD32CA8F
:100E80002A8605652EC836CC81451408130545BC55
:100E900006C63ACE3ED036C03D35B24013014102BF
:100EA0008280411122C426C206C62A842EC08544EF
:100EB000824589461306E01F2285EFF0AFE401C5A5
:100EC0000D476387E4082285EFF08FC77D777D1794
:100ED000698F4207AD664183938656A56301D702A9
:100EE000931505018967C1811385C72B79370D4794
:100EF0006386E4069387140093F4F70F55BF824589
:100F00008946130660032285EFF0CFDF09ED034722
:100F1000140083470400916622075D8F9386661450
:100F200081446307D702824589461306200522853E
:100F3000EFF04FDD854409ED8347140003470400BB
:100F4000A207D98F71771307A7EBBA97B334F000D4
:100F5000B240224426859244410182808944CDBF1B
:100F600009651305052E11BF09651305052F31B756
:100F7000211106CA22C82AC02AC22EC485C12A84C9
:100F80008A8511E181451305201D353B01C41245B9
:100F900082471D8DD2404244610182800144DDB709
:100FA000011132C82E86B705008036CA93C5F5FFF9
:100FB000140806C63ACC3ECE36C05D3FB24005614D
:100FC00082802A96AA876393C70082802380B70015
:100FD0008507D5BFAA8703C705002380E70011E373
:100FE000828085058507C5BF81476313F60082802F
:100FF0003387F500834607003307F5008507230094
:10100000D700E5B7797122D4930700042E842E8689
:10101000AA851305110006D62300F100F1379305C8
:1010200014000A85EFF05F94B2502254456182802B
:10103000511122C22A841305100206C426C0BD34F1
:101040000145AD341305F007953413052002B93C72
:101050002285A93C2285993C65449384C11683C7A7
:1010600004008DC7811793F7F70F09679396270040
:101070001305474AB69795453E95693785047D1413
:1010800079FCA240124482443101828089679545EF
:101090001385474A853FE5B72A86896551119385AF
:1010A00045301385C11606C4E53D1305C003EFF0B6
:1010B0008FED09E5A2401D4531019DBFA2403101E0
:1010C0008280511106C422C226C0AA84E5362A8431
:1010D000AA852685EFF0FF9F096585451305053133
:1010E000EFF03F9FA24013051400124482443101E7
:1010F000828039C59307F0072A866303F5045111EE
:1011000022C28965938545311385C11606C4493DC0
:101110001385C1167D379387C1C380431305C00370
:101120001307140098C3EFF00FE619E51375F40FD9
:101130001244A2403101EDBDA2401244310182802F
:101140008280B70700E083A7470F1307000C93F7CF
:10115000070C638DE7045111B707100022C206C4C3
:101160002A848507B70600E003A7460F1386460FBB
:10117000937507088DE119C3EFF01F9541657D1543
:1011800093178400E98F93E75708370700E0232A75
:10119000F70E054501A8FD17E1FB1C42014593E749
:1011A000070C1CC2A240124431018280014582809A
:1011B000B7270240054798C3B71702403707080111
:1011C00023A207001307170898C337079F0098C783
:1011D000B7060002371702401C43F58FF5DF5C436A
:1011E000B7160240F19B93E727005CC32147DC421E
:1011F000B18BE39EE7FEB70700E023AC070E1307B1
:10120000000823AAE70E82801301C1F606C922C78F
:1012100026C5793FB7F700E0316723A00700130721
:10122000F7B798CB23A407001384C1CA2320040076
:10123000984337454900130505E01367770098C3C5
:10124000B7E700E0056723A0E710371702401C4FFF
:1012500093E757031CCFEFF06F81371701408327C7
:101260000740930607401386C1CAC19B93E78700D6
:101270002320F74085479CCA184032C43AC0184022
:101280003AC6138741C00347A700938641C001E7D0
:101290002385F60021A09147E3ECE7FEB717024053
:1012A000904B37052000B705E0FF498E90CB904B5F
:1012B000FD1505646D8E90CBD84F3706C0FB7516B3
:1012C000498FD8CF984F1367170198CFB7070140C0
:1012D000D843718FD8C3D8437D761306F60FD8C391
:1012E000B717014098431377F7F098C398431367F3
:1012F000070D98C39843718F98C39843130604D081
:10130000518F98C33757004083574740C207C18366
:1013100093F707FC93E787012312F7409C4261672C
:101320001307076A939517006368F72C3775DC027B
:10133000130505C0EFE0DFD87D14618D42054181C2
:1013400037570040231EA74083570740C207C18379
:1013500093E717002310F740EFF00FB3630C052A53
:10136000096513050533B13BB71701409387074063
:101370009C47858B3ECE6390071009651305C538E1
:1013800089339387011405472390E7001387C1C170
:10139000D8C30567130707F6D8CB05671306000205
:1013A000130787F623A6070023880700238E07006C
:1013B00098CF238107002384C70023A0070223A21C
:1013C000070223840702B7170240D44FB705200055
:1013D000CD8ED4CF984BB706E0FFFD164D8F98CB3E
:1013E000984BA165758F98CBB757004083D60740BF
:1013F000C206C182CD8E2390D74083D60740B70561
:101400000040C606C5822390D74083D64740C20617
:10141000C18293E686012392D74083D64740C20615
:10142000C18293E606702392D740B7E600E023A07E
:10143000B610238FC640B705008023A0B610A38F37
:10144000C640E176C106239ED7409306E00E239462
:10145000D7402396074003D70740420741831367CD
:1014600017002390E74003D70740420741831367E3
:1014700007402390E740B71402409C4C05674107A2
:10148000D98F373401409CCC231004000145EFE094
:101490005FF783570400370710FF1306F7FFC207F3
:1014A000C1832310F4008357040009651305C5396F
:1014B000C207C18393E707202310F400B717014048
:1014C000944333F7C60098C39843B706B000558FCE
:1014D00098C303570400B70600F1FD164207418385
:1014E000136747102310E4000357040042074183A9
:1014F0002310E4009843758F98C39843B706000BF8
:10150000558F98C39843B70600401207118398C3BC
:101510009843558F98C3835604007D771307F77F50
:10152000C206C182F98E2310D40083560400C2067D
:10153000C18293E606042310D400984C91669386EA
:101540000602558F98CC03A70740B7069000718F0D
:10155000558F23A0E7403747014093070780A146F6
:10156000D4C723A8070093060008D4CB9306101A0B
:1015700094C7D447096613074780D18ED4C79547CF
:10158000DCC8B7070240F443F99AF4C3F8C713075D
:101590002009F8C3B7E700E03707000223A0E710EF
:1015A000EFF0BF8D1D4523A601C8EFE09FE529455B
:1015B000EFE0FFEA814513050004EFE0FFEB13873E
:1015C000C1C885473AC82A846305F51601442384B7
:1015D00081C8EFE07FE80145EFE0BFE2938741CAB1
:1015E0003EC26315041E1247894789441CC309651E
:1015F000A685130545463DA33775DC02BE95130548
:1016000005C0EFE0FFAB7D14618D42054181A1670C
:101610005D8D3DB31305C003EFF0EF96631F050C1E
:101620008964238401CA9384047303C50400930767
:10163000F00F631EF50213051002EFF02FC70145EE
:10164000EFF0CFC61305F007EFF04FC613052002E9
:10165000EFF0CFC50145EFF06FC51D45EFF00FC5A9
:1016600093050002138581CAEFF0DF9929A0850454
:10167000EFF0CFC35DD9130600408145138501D437
:10168000EFF03F9413051002EFF04FC20145EFF069
:10169000EFC11305F007EFF06FC113052002EFF063
:1016A000EFC00145EFF08FC01D45EFF02FC00144A2
:1016B0002687938401D40145A2949307050293954C
:1016C0000701C181898D26953EC2EFF0BF939247F5
:1016D0003E8593070008E312F5FE13040408930700
:1016E0000040E318F4FC8965938545341385C116E1
:1016F000EFF05F8E0145EFF0BF93096513050535E7
:10170000EFF03F9C01442285EFF0EF8701E5228551
:10171000EFF03F9E05041374F40F9307F007E314F2
:10172000F4FE096513054537EFF0BF99EFF0DF963A
:1017300025B99305A01A13058004EFE0FFD3631ABF
:1017400085040144EFE05FD1BC00A2972380A7008D
:1017500005049147E318F4FE0347A1048547E31706
:10176000F7E60347B1049307A00AE311F7E6130471
:10177000803EB70500401305900EEFE0FFCF6301F8
:1017800005623165130505B87D14EFE03FAE75F0D5
:1017900035BD81451305900EEFE01FCE9307100471
:1017A0006365A40009449307900E3EC29304803EF3
:1017B00012458145EFE05FCC63000562316513059A
:1017C00005B8FD14EFE09FAAE5F409B58145A8002E
:1017D000EFF02FED85470144631FF502C146130664
:1017E000E01B8145A800EFE0FFD111C512478547F6
:1017F00085441CC3EDBB8347C10491E71247994759
:1018000099441CC3EDB38808EFE09FB32A84AA85EE
:10181000A800EFF00FE98D47E30AF5FC65F19306A8
:1018200040023546A285A800EFE0DFCD61F1834597
:10183000210503451105A205C98D91E51305F105A3
:10184000EFE01FB0AA850345B104EFE07F850347B1
:10185000A1042ACA03459104834581048354C10429
:101860002207498F0355E104938641D13A94C0C6BB
:101870002381B6002392960009E91305B1052ED005
:101880003ACCEFE0FFAB82556247D2479180269772
:101890003E97198DEFE0DF827D77930625002907BB
:1018A000938741D13D663A9594C741677916591798
:1018B000637FA64CE374D7F40D47130571062380AC
:1018C000E700EFE0FFA7938741D188CB52472694EA
:1018D000A38007003305E4004247C8CB89641CC3DA
:1018E00092470965938504321305053B23A0070041
:1018F000EFF0AFD8C247804363090428A300040077
:101900003C103EDC9387043202DE3ECA62539305EC
:1019100000022D461A85EFF0CFEA89672A838146B7
:10192000814521471305E002A1429383076AD2470C
:10193000138615001376F60FBE9583C70500930531
:10194000000263F8F5049305F0026384B704638F23
:10195000A74863F0E60493958701E18563D5050008
:101960009E9783C707F89385F7F993F5F50FE54040
:1019700063E5B000811793F7F70F938516009A96E9
:101980002380F600BA8713F7F50FBA86B2853E8733
:1019900079BF524793B71702A305F300329748184F
:1019A0003ACAEFE07FA1AA8409ED035641039645A8
:1019B000930600023D8A1606A800EFE0BFB409C5F1
:1019C0008544924784C325B18347810499E38D44BC
:1019D000CDBF8347310513F7870011EF6257AD453F
:1019E000B400AA9605053306A70083C60600034681
:1019F000F6FF6309D60283574103850793940701D5
:101A0000C180F1D4164761D793F6F40089EA064500
:101A10000507BAC205E503574400E3FAE4FA231ABE
:101A2000910261B7E31EB5FA0347B700C18B1DEB06
:101A3000D9DFA800EFE05F952ADEC9BD0347240087
:101A400093D644007D17758F79FBEFE01FB585466F
:101A5000E3F8A6F61444E37CD5F6AAC0EFE03F9085
:101A6000AAC275BF13F7F70F3ACA639B0710A80005
:101A7000EFE09F9108D0C810EFE09F8C854748CCDD
:101A80000965A300F400232C04009305300213051C
:101A9000453CEFE0DFD89247AA8488C3E31905B438
:101AA0008145EFE0DFD79247AA8488C3E31105B4EC
:101AB00037859200130505C0EFE04FFB09658145AE
:101AC0001305853EEFF06FBBC2479545984309CBA0
:101AD000834617009145858A81C6232C07008145DE
:101AE000924709651305853F8CC3EFF00FB937376F
:101AF0005C7C1307F7D23ADA230C0102C247984301
:101B000023A001CA41EB1547924798C3096593D5B5
:101B1000A40013054543EFF04FB69247096513053E
:101B200005458C43EFF06FB509679307077202CA4A
:101B30008D4402C801443ECCA2478246371701407B
:101B40009C43130707404D463EC2A2479C4318479B
:101B50003EC0B385D740637AB6228946058B638140
:101B6000D4228D466380D4166399041C6308071A37
:101B7000A247BA849C433EC0A2479C433EC6A9AA42
:101B800012478D478D441CC39DB412479547954419
:101B90001CC3B1BC83461700858A99E21147ADB7D3
:101BA000144F0323C7013303D3409306000463F4A7
:101BB000660013030004BC003ECC63150306938744
:101BC00001CA8C4323A201CAB1D10965130505409E
:101BD000EFF0AFAA0965AC0013050541EFF0EFA9DE
:101BE000938701CA9843BA9413972401E31807F026
:101BF000D247096593D5A400138717009377F70F91
:101C0000130505423ECAEFF04FA7D24713F737003E
:101C10003C013E970345C7FAEFF0AFD23545EFF0F0
:101C20004FD2E9BD144F13F6F61F39EA03442700DB
:101C300013D696007D14718C1374F40F05E491EAA9
:101C40000853854663EFA600A300070023A2D1CA6C
:101C500075BD48531AD23AD0EFE03F941253025761
:101C6000CDB748D348531AD23AD0EFE04FEF0257DE
:101C7000125309E5A30007008546C9BF2A9400D77F
:101C8000104F130400201376F61F118C637383002A
:101C90001A840C576245A2861AD23AD0EFE09F868A
:101CA0000257125361F9144F33038340A29614CFA5
:101CB000938601CA9442938701CAA29694C3E247CD
:101CC000A297DDBD11EBA247224781449C431843F4
:101CD0003AC602473EC03ACA924742479306803E00
:101CE0003387E740E3FAE6E4F24789CB13071400B1
:101CF00022853AC8EFF04FBA42473A84370702408C
:101D00007443E247F99A74C3B94634C73CCB744371
:101D1000924793E6160074C33EC839BD52478247C6
:101D2000B386E7400567130707FAE377D7FA096533
:101D300013058547EFF0EFB845B78247B246B38643
:101D4000D74009EF9307F00963EAD700A247894417
:101D50009C433EC0A2479C433EC6BDBF1307000A3A
:101D60008544E37BD7F6096513054548EFF06FB569
:101D7000A2478D449C433EC0A2479C433EC6A9BF98
:101D800021DF896713854749D5B736C0B1B7E36509
:101D9000D7B209472380E7005247229798CB3DB638
:101DA00081451305A007EFE02FEDE3110582014403
:101DB000EFE08FEABC00A2972380A70005049147BB
:101DC000E318F4FE83478104314493F70704E3905A
:101DD000078011446FF0AFFF930500201305000545
:101DE000EFE08FE9631405FE6FF06FFEE31357BA5F
:101DF000AD4761BE1301C1FD22CE06D026CC2A8498
:101E0000635FC00A9307E00FAE8463C1C70C9302FF
:101E1000F00FB382C24096851375F50F16C232C01B
:101E200097E0FF1FE780002202462ACA13F5F40F4D
:101E3000B28597E0FF1FE780E02092422AC8135541
:101E4000840096851375F50F16C697E0FF1FE7808F
:101E5000601F02462AC413D58400B2851375F50F9E
:101E600032C297E0FF1FE780E01DB2422AC013553F
:101E7000040196851375F50F97E0FF1FE780801C1E
:101E800012462A8413D50401B2851375F50F97E025
:101E9000FF1FE780201B4243D247824622479A9782
:101EA0002A94369793870708130707081304040832
:101EB000A183137707F02180D98F42045D8C825073
:101EC00022857244E2441301410282802E84C5BF00
:101ED000111126C883A481C9138741C918431386E9
:101EE00041C922CA06CCAA872E849306050332C0B4
:101EF000634A0704638AF604634F97043386F64007
:101F000081453E853AC2EFF0CF8B124715CC639ADC
:101F1000E400B70602409C5A93F7F7FD9CDA23A829
:101F200001C8050715A023900700239107002392FD
:101F3000070023930700239407000507B107239F99
:101F400007FE7DB7E391F6FE8247E240524498C314
:101F5000C24471018280138601C4104293021700AB
:101F600032971306F00F6343E0000146B7457F0048
:101F70000D65938505041305F50F16C63EC436C2DC
:101F8000953D1356B500096713070768798A3A9695
:101F9000A24703560600B24292462390C70013564A
:101FA0007500798A3A9603560600B107239BC7FE4F
:101FB00013563500798A3A9603560600239CC7FECD
:101FC0001376F50006063A9603560600239DC7FED3
:101FD000135635013D81798A79893A963A950357A6
:101FE000050003560600239FE7FE239EC7FE1687C3
:101FF00011B71301C1FC3EC2B70702409C4322D077
:1020000026CE06D816D61AD41ED22ACC2ECA32C84C
:1020100036C63AC43EC0370402409304001044C0A0
:10202000824793F7074089C78545138541CB4D35D6
:10203000824793F7072089C78145138541CE493DE3
:102040001C403EC0824793F70710F1FB0254C25078
:10205000B25222539253F2446245D2454246B246AE
:1020600022479247130141037300203051113EC0B3
:10207000B7F700E03AC2984B36C4B166938606B80B
:10208000369798CB23A207009387C1CA9843A246EC
:10209000050798C3124782473101730020307971D8
:1020A0003EC0B75700403AC203D747419387074025
:1020B00083D7870126CC06D69314070116D41AD2EB
:1020C0001ED022CE2ACA2EC832C636C4098BC18081
:1020D00005C3138701148546C207C1832300D700B7
:1020E000834617009D83858B2301D7002305F702C4
:1020F00093F7040495C79387011403C7070079C3B6
:102100003757004013070740035707012380070094
:10211000A38407021377F70FA380E7002381E7006A
:1021200093F70408A1C79387011403C7A70203C547
:102130002700A3840702B757004093870740138402
:10214000011479CB034704016376E50E58442A97BE
:10215000034707001377F70F2398E7005C5091C3FC
:1021600082978347240085072301F400C18885CC2A
:102170003757004083570740C207C18393F7F7DF03
:10218000C207C1832310F7409387011403C7A70236
:102190004DC7985309CB03C5170083C52700898D08
:1021A00093F5F50F02977244B250A2521253825324
:1021B000E2445245C2453246A24612478247456133
:1021C0007300203083C6A7020547A384E70203C734
:1021D000270095C683C60701E374D7F483C6870238
:1021E000A1F2B756004003D60641D447BA961376FB
:1021F000F60F2380C60005072381E70015B783C6C5
:102200008700E37FD7F083C6C70199FAB75600402D
:1022100003D60641D443D9BF03478400637CE5005D
:1022200058402A97034707001377F70F2398E700D2
:102230001C4C35B72398070015BFD84BA1BF5111CF
:102240003AC2375700403EC08357474136C4939641
:10225000070193F70710C18289CF835747411307BE
:102260000740C207C18393F7F7EFC207C183231A60
:10227000F70093F7062089CF37570040835747412F
:10228000C207C18393F7F7DFC207C183231AF74060
:1022900093F6064089CE3757004083574741C2071F
:1022A000C18393F7F7BFC207C183231AF740A24641
:1022B0001247824731017300203000006368656374
:1022C0006B5F66735F6572723A2062616420736946
:1022D000676E617475726520253038580A0D0000EC
:1022E000494D205752495445454E20544F0A0D0040
:1022F000494D2052454144454E2046524F4D2E0AED
:102300000D000000636F756E74657220256C75009A
:102310000A0000004932433A203078253032580014
:102320007465737466696C652E74787400000000BF
:102330004661696C656420746F20696E6974204918
:102340003243000048656C6C6F20426565210000D7
:102350002D2D2D2D5363616E6E696E6720493243BA
:102360002042757320666F722044657669636573D9
:102370002D2D2D002D2D2D2D446F6E652053636165
:102380006E6E696E672D2D2D2D0A00004932432097
:10239000536C617665206D6F646500000A4D6F7542
:1023A0006E74696E6720766F6C756D652E0A0D0010
:1023B0004F70656E696E672066696C6520222573B3
:1023C000220A0D0068656C6C6F20776F726C642058
:1023D000393939393939393939393939393939396D
:1023E00039393939210A0D000A6C7365656B20741F
:1023F0006F2025750A0D000072633D25750A0D00DA
:10240000526561642025752062797465730A0D0038
:10241000737472696E673A2025730A0D000000001C
:102420002564206B6220736F206661722E2E2E2031
:10243000200000000A0D4C6F616465642025642053
:102440006B696C6F62797465732E0A0D0000000071
:102450007265616420726573756C743A2025750A23
:102460000D0000007772697465206572726F723AB0
:102470002025750A0D0000004C6F6E6720507265B4
:102480007373000053696E676C6520436C69636BFE
:1024900000000000446F75626C6520436C69636BDB
:1024A00000000000000000000000005F00000007C6
:1024B000000700147F147F14242A7F2A1223130894
:1024C000646236495522500005030000001C224179
:1024D000000041221C00082A1C2A0808083E08089F
:1024E0000050300000080808080800606000002064
:1024F000100804023E5149453E00427F40004261BF
:102500005149462141454B311814127F102745454A
:1025100045393C4A49493001710905033649494961
:1025200036064949291E003636000000563600009E
:102530000008142241141414141441221408000237
:1025400001510906324979413E7E1111117E7F49C0
:102550004949363E414141227F4141221C7F494940
:1025600049417F090901013E414151327F08080874
:102570007F00417F41002040413F017F08142241FC
:102580007F404040407F0204027F7F0408107F3E6E
:102590004141413E7F090909063E4151215E7F09C3
:1025A000192946464949493101017F01013F40400F
:1025B000403F1F2040201F7F2018207F63140814F5
:1025C000630304780403615149454300007F41419E
:1025D000020408102041417F00000402010204406F
:1025E00040404040000102040020545454787F4889
:1025F0004444383844444420384444487F38545490
:102600005418087E090102081454543C7F0804043D
:102610007800447D40002040443D00007F10284465
:1026200000417F40007C041804787C08040478385A
:10263000444444387C14141408081414187C7C088E
:102640000404084854545420043F4440203C404073
:10265000207C1C2040201C3C4030403C442810285A
:10266000440C5050503C4464544C440008364100E3
:1026700000007F0000004136080008082A1C0800FE
:1026800088888E88E888EE88888E8E8EE88EEE8E1A
:1026900088E88EE8E8E8EEE888EE8EEEE8EEEEEE0A
:1026A000809A45418E418F804545454949498E8FE5
:1026B0009092924F994F555559999A9B9C9D9E9FE8
:1026C00041494F55A5A5A6A7A8A9AAABACADAEAFE9
:1026D000B0B1B2B3B4B5B6B7B8B9BABBBCBDBEBF82
:1026E000C0C1C2C3C4C5C6C7C8C9CACBCCCDCECF72
:1026F000D0D1D2D3D4D5D6D7D8D9DADBDCDDDEDF62
:10270000E0E1E2E3E4E5E6E7E8E9EAEBECEDEEEF51
:10271000F0F1F2F3F4F5F6F7F8F9FAFBFCFDFEFF41
:1027200048656C6C6F20576F726C64210D0A000055
:10273000AED580A83FD300408D142000A1C8DA1286
:0C274000818FD9F1DB40A4A6AFFF0000A0
:10274C00801A06000000000038000100A08601007D
:10275C00000000003C000100AA0000000000000086
:10276C00000000000000000000000000000000005D
:10277C0000000000000000000100000042FFFFFF0D
:10278C00AA87014513F7150011C33E95858186076D
:10279C00F5F9828051113AC2370702403EC05C43C2
:1027AC0036C48966D58F5CC3B71701409387074041
:1027BC00D847A24613470704D8C7124782473101AE
:0427CC007300203046
:00000001FF
