:100000006F00100A000000006E09000016090000D1
:1000100000000000000000000000000000000000E0
:1000200000000000000000000000000000000000D0
:10003000E81B00000000000016090000000000009E
:100040001609000016090000160900001609000034
:100050001609000016090000160900001609000024
:100060006E1B00003C00002016090000160900006D
:1000700016090000160900001A1C0000BA1D000035
:1000800016090000160900001609000016090000F4
:100090001609000016090000160900000000000003
:1000A0002A86014593F6150091C232958581060690
:1000B000F5F9828000000000634E050263C3050469
:1000C0002E86AA857D5515C285466378B60063568F
:1000D000C00006068606E36CB6FE014563E4C50073
:1000E000918D558D85820582F5FA82808682C93F81
:1000F0002E8582823305A0406347B000B305B0402F
:10010000C1B7B305B0408682653F3305A040828207
:10011000868263C70500634905005D372E858282AC
:10012000B305B040E35B05FE3305A040513F330506
:10013000B04082820000311126C406C822C6AE84B7
:10014000AA87B2850143B5CA63D49600B684054335
:100150003384964063530400014422863A853EC2AC
:100160001AC0EF00702D024392472A87B30685001C
:100170000146B385C4406344B00463D304008144A2
:10018000338696003305E640630403026372C702B8
:100190009307A002A30FF6FE9306F6FF637AD7003B
:1001A000230FF6FE9306E6FF6374D700A30EF6FE58
:1001B000C2403244A24451018280A68651BFB38519
:1001C000C70003C50500B385C60005062380A5004A
:1001D0004DB7370700E08327470F9306470F93F784
:1001E0000708F5FBB7273078938787089CC27147CB
:1001F000370600E02543F1558327460F93F707089C
:10020000E5FFB357E50093F6F70093070003635447
:10021000D30093077005B697A20793E75708232AE0
:10022000F60E7117E31AB7FC8280B7F700E09C471F
:1002300037F700E03E951C47898FE3CE07FE8280AA
:10024000011106CE22CC26CA02C02A8363570500BC
:1002500089E685473303A0403EC01304100619C247
:1002600013041004BA8459141A853AC81AC22EC647
:100270001AC4AD3DA5472243B24542479376F50FD8
:1002800063E1A7069386060393F6F60F938714009F
:100290002380D4001A853AC83EC62EC4153592462E
:1002A000A245B24742472A8363FBB602824699C6FB
:1002B0009306D0022380D700938724003385E7403C
:1002C0009356F501AA962380070085860146FD17FF
:1002D000634BD600F2406244D24405618280BE8402
:1002E00061B7A29655B7B305C70083C2070003C321
:1002F000050005062380550023806700C9BF83479A
:10030000150003470500A2075D8F834725000345BD
:100310003500C207D98F62055D8D8280511122C2DE
:1003200003A441C79305E5FF06C41C440145F91722
:1003300063F7F50003452400A5335C483E95A240D1
:1003400012443101828083A741C703C707008D474C
:100350006311F7028347550103474501A207D98F6F
:10036000C2070347A5010345B5012205598D5D8DDF
:1003700082808147FDB7511122C206C42A8423100E
:1003800005000845054783A741C76305E50298476F
:100390006376E50219E983C607000D47884B63863B
:1003A000E60023260400884B21A048C46DDDBD373C
:1003B00008C80145A2401244310182800545DDBFD5
:1003C00037370140835707000E05C207C18393F7F3
:1003D00077FCC207C1832310F70083570700C207C9
:1003E000C1835D8D2310A7008280B737014023961B
:1003F000A7003737014083578700898BEDDF010065
:100400003737014083578700858BEDDF0355C700E1
:100410001375F50F82801305F00FC1BF511122C271
:1004200006C42A841305F00F7D14C13765FCA24071
:1004300012443101828051119317850122C226C0D6
:1004400006C4E187AA842E8463DB07008145130577
:100450007007D537854763E1A70693F4F407653F36
:100460005D3F2685593713558401413713550401E3
:100470001375F50F9D3F135584001375F50FB537B0
:100480001375F40F9D379307000413055009638912
:10049000F4009307800405456394F4001305700885
:1004A000A93729448D3F93178501E18763D607005B
:1004B0007D141374F40F7DF4A24012448244310180
:1004C000828083C701C7311122C626C406C8A18B0A
:1004D000AA84368491E3A6051305100532C0A13F16
:1004E000024609C90544053FC24022853244A24460
:1004F0005101828005679307803E1307072C3A85D8
:1005000032C23EC01D33013F9306F00F12466319FD
:10051000D500824705671307072CFD17EDF3D9B700
:100520009307E00FE310F5FC93072020818F918F54
:100530003EC019C23285DD3581CC26948504E13D6B
:10054000A38FA4FEE39C84FE02450144C13D61BF2C
:100550007D14D13575FCCDBF854763E4A700054503
:10056000828083A741C79847E37BE5FE411106C619
:1005700003C7070089466309D7008D466303D70286
:100580000545B24041018280CC471376F50F2181A9
:10059000AA95894606060A852D377DF10355010087
:1005A000CDB7CC471376F5071D81AA9591460A066B
:1005B0000A85013F71F50A85993312051181D1B77A
:1005C000511106C422C20DCD83C701C7AA85A18BD4
:1005D00099E39315950013058005B13D054401EDA0
:1005E0001305F00F19351305E00F0135130700202F
:1005F00023AAE1C80144A24022851244310182802D
:1006000003A441C9090409E839357D899547630583
:10061000F50205440935C5B70145C13B7D14E5B771
:1006200005651305052C11317D14F5339307F00F83
:100630006308F50075F4F1BF096413040471F5B79C
:1006400013341400C1BF1301C1FD26CC83A441C7DC
:1006500023A401C8938781C822CE06D02AC03EC4F5
:1006600015448DC803C714001144937617009DC22A
:100670002E841377070495E501CB0145913709C511
:10068000A3800400054439A003C714001377F7FBC7
:10069000A380E400825022857244E24413014102A7
:1006A000828009E7984C137707E098CCD84C944C9B
:1006B000158F637387003A8471DC984C9376F71F2B
:1006C0009DEE03C52400935697007D15758D937795
:1006D000F50F3EC299E745E788500547E372A7FA50
:1006E000C8D0C850253949DD92473E9588D4C93DC8
:1006F00041F903C7140013670704A380E400984C72
:10070000930600201377F71F3387E6406373E400F6
:1007100022878247A5CBB382E7003E86138341C977
:100720008326030085C603450600050616CA36C89B
:100730003AC632C25D39C2461246D242FD16138312
:1007400041C92320D3003247E31A56FC8247944C18
:10075000198CBA973EC0A247BA9694CC904393F6B0
:10076000F61F329798C3A9FA0145993DE31A05F09F
:1007700003C714001377F7FBA380E40035BFC8500C
:10078000E13BA1BF3A853AC2253D124761D1CDBDBB
:10079000B70700E083A7470F8280370700E0832771
:1007A000470F111106CC22CA26C82AC093F7070C9E
:1007B0009306000C6388D70C02C62E84F1E58327CC
:1007C000470F89C793F7070891E3D937E24022859D
:1007D0005244C24471018280B30594409D462E87E5
:1007E00063D3B6001D47B70610008506370500E045
:1007F0000326450F1303450F93720608639C0206F8
:1008000011C63AC42EC2693722479245894601462D
:1008100063D4B6001306D7FF82479385340068007F
:10082000BE953AC21D21324682471247B70600E004
:1008300023ACC60E8D4533869700814603430600E0
:1008400085067C003385D700230065006305D7004B
:100850000506E395B6FE9306470093E606F82306E1
:10086000D1003246B70600E0BA9423AAC60EE3C50B
:1008700084F6A9BFFD16ADFE8327030093E7070C9E
:100880002320F300014499B78144D5B7511122C206
:1008900006C42E841937A240228512443101828079
:1008A000970100209381C1B513814140096513056B
:1008B0000588731005308D4617F5FFFF1305857405
:1008C000558D73105530138501C7938501D50146A9
:1008D0006356B50010C11105E34EB5FE17150000B3
:1008E0001305C579938541C017F6FF1F1306467897
:1008F0006388C500144194C111059105E39AC5FEB2
:10090000B7F700E0154798C38567938767D573905D
:1009100017347300203073251034EFF09F8B73254C
:100920000030EFF01F8B73253034EFF09F8A732572
:100930002034EFF01F8A370700E08327470F930624
:10094000470F93F70708F5FB8567938757A89CC265
:10095000370700E08327470F9306470F93F70708F1
:10096000F5FBB7B7AAAA938737A89CC201A037178F
:1009700002401C47B7068000D58F1CC7AA8703C753
:10098000070001E73385A74082808507CDBF1301AB
:1009900041FAA6C886CCA2CA2AC02EC2B284B687A3
:1009A00002C803C7040013841400A30FE10001EB85
:1009B000E64056444245C6441301C1058280930671
:1009C0005002630FD7003EC4124682478545130587
:1009D000F1018297A284C247AA973EC8A247D1B725
:1009E00083C614001306000313872400A30FD1004D
:1009F000130400036390C608BA84014601472545E5
:100A000011A8931627008504369783C6F4FF0607BE
:100A10002E970546938506FD13F3F50FE37365FEE8
:100A200019C2A30FD1003AC661466353E60032C62D
:100A30009305C00601466398B60083C604000546C8
:100A40008504A30FD1008346F1019305400663831B
:100A5000B60663E4D502130780056382E60A13072E
:100A600030066380E60CA9D612463EC485451305C0
:100A7000F1018DA81304000241B793055007638B61
:100A8000B60213068007638CC60613063007E39D83
:100A9000C6FC3ACC138747009C433AC43E853ECA05
:100AA000F13D6247D247AA8551CBB246381822861B
:100AB0003E8525A0138747003AC405CA9386B6F839
:100AC000181093B6160088430146A945EFF04FF77A
:100AD000B24638182286AA850810EFF0CFE51246F4
:100AE000AA85281882478297FDB51307500763959A
:100AF000E60018108546C1BF18108146E9B7884343
:100B000013874700138686FA3AC4854618101336B1
:100B10001600C145EFF0CFF2B246AA8538182286FA
:100B200065BF138747009C433AC4B246A30FF10048
:100B30003818228685451305F10145B712463E85D2
:100B400055B71301C1FD32CA2A8605652EC836CCB9
:100B5000814514081305C58806C63ACE3ED036C076
:100B60003D35B240130141028280411122C426C2A8
:100B700006C62A842EC08544824589461306E01F96
:100B80002285EFF01F9401C50D476387E408228595
:100B9000EFF0EFF67D777D17698F4207AD664183F1
:100BA000938656A56301D702931505018967C18114
:100BB000138587E379370D476386E406938714002E
:100BC00093F4F70F55BF82458946130660032285CB
:100BD000EFF03F8F09ED034714008347040091664F
:100BE00022075D8F9386661481446307D70282458E
:100BF0008946130620052285EFF0BF8C854409ED58
:100C00008347140003470400A207D98F71771307A5
:100C1000A7EBBA97B334F000B24022442685924441
:100C2000410182808944CDBF09651305C5E511BF27
:100C300009651305C5E631B72A96AA876393C700ED
:100C400082802380B7008507D5BF81476313F600F4
:100C500082803387F500834607003307F500850758
:100C60002300D700E5B7511106C422C226C0AA84CA
:100C700031332A84AA8526850D36096585451305F5
:100C800005E8213EA24013051400124482443101BC
:100C90008280B70700E083A7470F1307000C93F784
:100CA000070C638CE7045111B707100022C206C479
:100CB0002A848507B70600E003A7460F1386460F70
:100CC0009375070885E111C3E13441657D159317DC
:100CD0008400E98F93E75708370700E0232AF70ECF
:100CE000054501A8FD17E9FB1C42014593E7070CE8
:100CF0001CC2A24012443101828001458280B72784
:100D00000240054798C3B71702403707080123A2DE
:100D100007001307170898C337079F0098C7B7063F
:100D20000002371702401C43F58FF5DF5C43B7160E
:100D30000240F19B93E727005CC32147DC42B18B63
:100D4000E39EE7FEB70700E023AC070E1307000899
:100D500023AAE70E8280757106C722C526C34537D0
:100D6000B7F700E0316723A007001307F7B798CB68
:100D700023A40700138601C923200600984337E403
:100D800000E0B71402401367770098C385672320FB
:100D9000F4109C4C37454900130505E093E75703D1
:100DA0009CCCEFF08FC8371701401C438545C19B91
:100DB00093E787001CC30CCB138601C91C423EC0BD
:100DC0001C423EC61C47138701C93AC4858B639CED
:100DD000070E0965130545E97935938741D21387D5
:100DE00041C0D8C30567130787C2D8CB13060002DA
:100DF0008545056723A607002390B70023810700D8
:100E00002384C70023880700130707C398CFD84C53
:100E1000B7062000238E070023A0070223A20702A3
:100E200023840702558FD8CC9C483707E0FF7D17F5
:100E3000D58F9CC89C48A165F98F9CC8B7570040C6
:100E400083D60740C206C182CD8E2390D74083D679
:100E50000740C606C5822390D74083D64740C206C6
:100E6000C18293E686012392D74083D64740C206CB
:100E7000C18293E606702392D740B7060040232034
:100E8000D410230FC440B70600802320D410E1768D
:100E9000A30FC440C106239ED7409306E00E2394BF
:100EA000D7402396074003D7074042074183136783
:100EB00017002390E74003D7074042074183136799
:100EC00007402390E740371602401C4E1167130776
:100ED0000702D98F1CCE37140140832704403707FF
:100EE00010FF7D17F98FB7069000D58FB7460140E8
:100EF0002320F440A14593870680CCC723A8070090
:100F000093050008CCCB9305101A8CC7CC47096514
:100F100093864680C98DCCC795475CCAB707024007
:100F2000EC43B73401400145F999ECC3F4C793068B
:100F30002009F4C3B7E700E0B706000223A0D710EA
:100F40001C4E8566C106D58F1CCE23900400EFF0A1
:100F50002FC783D70400370710FF7D17C207C1834F
:100F60002390F40083D704000965130545EAC207FE
:100F7000C18393E707202390F4001C407D8F18C0A5
:100F80001C403707B000D98F1CC083D70400370737
:100F900000F17D17C207C18393E747102390F40047
:100FA00083D70400C207C1832390F4001C40F98F4B
:100FB0001CC01C403707000BD98F1CC01C403707D2
:100FC0000040920791831CC01C40D98F1CC083D75E
:100FD00004007D771307F77FC207C183F98F239041
:100FE000F40083D70400C207C18393E7070423906A
:100FF000F400813E1D4523AA01C6EFF06FBC2945D0
:10100000EFF0CFC1814513050004EFF0CFC2138785
:1010100041C785473AC82A846307F50201442388FB
:1010200081C6EFF04FBF0145EFF08FB99387C1C87C
:101030003EC25DE41247894789441CC30965A68501
:101040001305C5F6C5AE9305A01A13058004EFF08D
:101050008FBE631A85040144EFF0EFBBDC00A2975A
:101060002380A70005049147E318F4FE03476104B9
:101070008547E315F7FA034771049307A00AE31FB6
:10108000F7F81304803EB70500401305900EEFF00B
:101090008FBAE30505083165130505B87D14EFF037
:1010A000CF9875F0A5BF81451305900EEFF0AFB84E
:1010B000930710046365A40009449307900E3EC291
:1010C0009304803E12458145EFF0EFB6E304050836
:1010D0003165130505B8FD14EFF02F95E5F43DBF1C
:1010E0008145C800593485470144631EF502C14655
:1010F0001306E01B8145C800EFF0AFBC11C51247D5
:10110000854785441CC31DBF8347810491E712476F
:10111000994799441CC31DB7E800EFF04F9E2A84FD
:10112000AA85C80099348D47E30BF5FC6DF1930651
:1011300040023546A285C800EFF0AFB869F183459B
:10114000E1040345D104A205C98D91E51305B1055C
:10115000EFF0EF9AAA8503457104EFE07FF40347AF
:1011600061042ACA03455104834541048354810420
:101170002207498F0355A104938681CF3A94C0C6B4
:101180002381B6002392960009E9130571052ECE3E
:101190003ACCEFF0CF96F2456247D247918026973E
:1011A0003E97198DEFE0DFF17D7793062500290743
:1011B000938781CF3D663A9594C741677916591751
:1011C0006375A674E375D7F40D47130531062380C4
:1011D000E700EFF0CF92938781CF88CB52472694D8
:1011E000A38007003305E4004247C8CB89641CC3D1
:1011F00092470965938544E8130585EB23A0070012
:10120000EFF03F94C2478043630D044AA3000400FB
:101210005C103EDA938744E802DC3ECA52539305E1
:1012200000022D461A85093C89672A83814681453B
:1012300021471305E002A142938387FED24713861C
:1012400015001376F60FBE9583C7050093050002BF
:1012500063F8F5049305F0026384B7046386A7700E
:1012600063F0E60493958701E18563D505009E97B9
:1012700083C707F89385F7F993F5F50FE54063E524
:10128000B000811793F7F70F938516009A96238085
:10129000F600BA8713F7F50FBA86B2853E8779BF95
:1012A000524793B71702A305F300329708183ACABA
:1012B000EFF06F8CAA8409ED03560103864593066F
:1012C00000023D8A1606C800EFF0AF9F09C58544AD
:1012D000924784C3A5B38347410499E38D44CDBFAE
:1012E0008347F10413F7870011EF5257AD45D4003F
:1012F000AA9605053306A70083C606000346F6FF37
:101300006309D60283570103850793940701C180BF
:10131000F1D4064761D793F6F40089EA72550507C0
:10132000BAC005E503574400E3FAE4FA2318910232
:1013300061B7E31EB5FA0347B700C18B1DEBD9DFD8
:10134000C800EFF04F802ADCD1BD0347240093D6BC
:1013500044007D17758F79FBEFF00FA08546E3F809
:10136000A6F61444E37CD5F62ADEEFE03FFBAAC0E4
:1013700075BF13F7F70F3ACA63900734C800EFE060
:101380009FFC08D08810EFE09FF7854748CC09659F
:10139000A300F400232C0400930530021305C5ECD0
:1013A000EFF06FAA9247AA8488C3E31905C8814564
:1013B000EFF06FA99247AA8488C3E31105C8378567
:1013C0009200130505C0EFE05FE60965814513054E
:1013D00005EFEFF00FF7C2479545984309CB8346D9
:1013E00017009145858A81C6232C070081459247C5
:1013F0000965130505F08CC3EFF0AFF437375C7C5B
:101400001307F7D23AD8230A0102C247984323A40C
:1014100001C8631D072A1547924798C3096593D5EC
:10142000A4001305C5F3EFF0CFF19247096513054A
:1014300085F58C43EFF0EFF0370501405C4105671F
:10144000130707805CC1B7170240944F373601403D
:101450009305F00FD98E94CFD4472163558FD8C709
:10146000D847FD769386F67F758FD8C7231406C2BA
:101470002316B6C2035746C4930606C042074183EB
:10148000336767002312E6C4035746C1420741830E
:1014900013671700231AE6C0035706C042074183AB
:1014A000136717002310E6C03716014013070640E4
:1014B00003230700137303FF1363930023206700C4
:1014C000CCDA8CDECCDEACC283D58601C205C1810C
:1014D00093E50506239CB60083D50602C205C181AB
:1014E00093E5C5002390B602944FC575FD1593E6AC
:1014F000160394CFD44F93E61600D4CF544154C171
:101500001443ED8E14C31443A165CD8E14C3544708
:10151000B705F1FFFD1593E6460054C71443ED8E61
:1015200014C31443B7050800CD8E14C35447C175C6
:101530009385F57F93E6060154C7984B1367170010
:1015400098CB984B799B98CB370700408356870000
:10155000C206C18293E636002314D700E576FD1655
:101560002312D70283564701C206C18293E61600B2
:10157000231AD70083560700C206C18293E61600DD
:101580002310D7008356470203574702D44342072C
:10159000ED8ED4C3944F418393E6462094CF9306B7
:1015A00006809042419A90C290421376F6F090C223
:1015B000D4473726014093E60620D4C7D44793F694
:1015C000F6DFD4C7B727014093870740B70610005E
:1015D000D4D723A8070293060002D4DB9306F003B6
:1015E00094CB944793E6160094C7944793E68600FD
:1015F00094C7930706409447A18AE5FE944737268F
:10160000014093E6460094C793070640804711883F
:1016100065FCB7150240D4491306C6448D4493E6D1
:101620001600D4C9B706024090CA138641C8D0CA72
:101630000946D0C60D661306065A90C69046136634
:10164000160090C6D44337060E001306261093E604
:101650000610D4C39447D18E94C7944737064000F0
:10166000D18E94C789669387860602CC02CA02C8C7
:101670003ECEA2478246BA859C43371701404D466D
:101680003EC2A2479C4318473EC03385D740637C87
:10169000A6268946058B6382D4268D466381D4169F
:1016A000639904206306071EA247BA849C433EC088
:1016B000A2479C433EC6B1AA12478D478D441CC326
:1016C000B5BA1247954795441CC38DBA8346170097
:1016D000858A99E2114789B3144F0323C701330365
:1016E000D3409306000463F4660013030004DC0097
:1016F0003ECC63160306938781C88C4323A601C89A
:10170000E38E05D00965130585F0EFF08FC30965F9
:10171000CC00130585F1EFF0CFC2938781C89843C1
:10172000BA9413972401E31207CED247096593D5E3
:10173000A400138717009377F70F130585F23ECAAD
:10174000EFF02FC0D24713F737005C013E970345F7
:10175000C7FAEFF00FD43545EFF0AFD37DB1144F9A
:1017600013F6F61F39EA0344270013D696007D14BA
:10177000718C1374F40F05E491EA0853854663EF06
:10178000A600A300070023A6D1C849B948531AD020
:101790003ACEEFE07FDC02537247CDB748D34853CF
:1017A0001AD03ACEEFE09FB77247025309E5A30083
:1017B00007008546C9BF2A9400D7104F13040020A4
:1017C0001376F61F118C637383001A840C576245DD
:1017D000A2861AD03ACEEFE0DFCE7247025361F90B
:1017E000144F33038340A29614CF938681C894424A
:1017F000938781C8A29694C3E247A297D5BD11EB07
:10180000A247224781449C4318433AC602473EC040
:101810003ACC370700400357470242074183630928
:10182000B70009651305C5FA3AD0EFF08FB102573A
:101830009247D2461146B386D740637CD600924782
:10184000B7360140938606C0C0DA05041374F40F5E
:101850003ECA9247C2461306803EB386D740E37A1B
:10186000D6E009651305C5FB3AD0EFF08FADB7069A
:101870000240F042F2470257799AF0C23946B0C6A8
:10188000BCCAF042924713661600F0C23EC8D5B3F8
:1018900062478247B386E7400567130707FAE37A92
:1018A000D7F60965130505F82ED0EFF0CFBB8255AA
:1018B0008DB78247B246B386D74009EF9307F00948
:1018C00063EAD700A24789449C433EC0A2479C4399
:1018D0003EC681B71307000A8544E37CD7F2096549
:1018E0002ED01305C5F8EFF00FB8A2478D449C43E6
:1018F0003EC0A2479C433EC65DBF01DF89672ED034
:101900001385C7F9CDB736C029B7E36FD78A094722
:101910002380E7005247229798CBC9B08145130531
:10192000A007EFE05FB1631B05EE0144EFE0BFAE3F
:10193000DC00A2972380A70005049147E318F4FE7A
:1019400083474104314493F70704639A07EC114439
:101950006FF0EFEC9305002013050005EFE0BFAD3D
:10196000631E05EA6FF0AFEBE31C5792AD472DB253
:101970001301C1FD22CE06D026CC2A84635FC00AA3
:101980009307E00FAE8463C1C70C9302F00FB382DC
:10199000C24096851375F50F16C232C097E0FF1F3F
:1019A000E780C06802462ACA13F5F40FB28597E0B3
:1019B000FF1FE780A06792422AC8135584009685CE
:1019C0001375F50F16C697E0FF1FE78020660246E5
:1019D0002AC413D58400B2851375F50F32C297E07F
:1019E000FF1FE780A064B2422AC013550401968508
:1019F0001375F50F97E0FF1FE780406312462A84B6
:101A000013D50401B2851375F50F97E0FF1FE7802A
:101A1000E0614243D247824622479A972A943697FA
:101A2000938707081307070813040408A183137793
:101A300007F02180D98F42045D8C82502285724448
:101A4000E2441301410282802E84C5BF111126C8D1
:101A500083A401C81387C1C718431386C1C722CA0C
:101A600006CCAA872E849306050332C0634A070476
:101A7000638AF604634F97043386F64081453E85BA
:101A80003AC2EFF06F9B124715CC639AE400B70699
:101A900002409C5A93F7F7FD9CDA23AC01C6050778
:101AA00015A023900700239107002392070023939A
:101AB0000700239407000507B107239F07FE7DB7A2
:101AC000E391F6FE8247E240524498C3C24471015A
:101AD0008280138641C21042930217003297130688
:101AE000F00F6343E0000146B7457F000D65938525
:101AF00005041305F50F16C63EC436C2953D1356B0
:101B0000B5000967130787FC798A3A96A2470356FE
:101B10000600B24292462390C70013567500798A98
:101B20003A9603560600B107239BC7FE13563500AD
:101B3000798A3A9603560600239CC7FE1376F50071
:101B400006063A9603560600239DC7FE1356350136
:101B50003D81798A79893A963A950357050003566B
:101B60000600239FE7FE239EC7FE168711B71301C9
:101B7000C1FC3EC2B70702409C4322D026CE06D805
:101B800016D61AD41ED22ACC2ECA32C836C63AC4A9
:101B90003EC0370402409304001044C0824793F7CC
:101BA000074089C78545138581C94D35824793F71D
:101BB000072089C78145138581CC493D1C403EC023
:101BC000824793F70710F1FB0254C250B2522253DE
:101BD0009253F2446245D2454246B246224792476A
:101BE000130141037300203051113EC0B7F700E0EC
:101BF0003AC2984B36C4B166938606B8369798CBEE
:101C000023A20700938701C99843A246050798C3FA
:101C10001247824731017300203079713EC0B757B7
:101C200000403AC203D747419387074083D78701D3
:101C300026CC06D69314070116D41AD21ED022CE73
:101C40002ACA2EC832C636C4098BC18005C3138781
:101C500041D28546C207C1832300D70083461700BF
:101C60009D83858B2301D7002305F70293F7040496
:101C700095C7938741D203C7070079C33757004000
:101C8000130707400357070123800700A3840702B7
:101C90001377F70FA380E7002381E70093F7040889
:101CA000A1C7938741D203C7A70203C52700A38416
:101CB0000702B757004093870740138441D279CB7E
:101CC000034704016376E50E58442A97034707004B
:101CD0001377F70F2398E7005C5091C382978347EF
:101CE000240085072301F400C18885CC37570040C4
:101CF00083570740C207C18393F7F7DFC207C18349
:101D00002310F740938741D203C7A7024DC79853CA
:101D100009CB03C5170083C52700898D93F5F50FFF
:101D200002977244B250A25212538253E244524577
:101D3000C2453246A24612478247456173002030B1
:101D400083C6A7020547A384E70203C7270095C6F9
:101D500083C60701E374D7F483C68702A1F2B7569E
:101D6000004003D60641D447BA961376F60F238077
:101D7000C60005072381E70015B783C68700E37F08
:101D8000D7F083C6C70199FAB756004003D606417B
:101D9000D443D9BF03478400637CE50058402A97A9
:101DA000034707001377F70F2398E7001C4C35B75C
:101DB0002398070015BFD84BA1BF51113AC237571E
:101DC00000403EC08357474136C49396070193F7BE
:101DD0000710C18289CF8357474113070740C207C5
:101DE000C18393F7F7EFC207C183231AF70093F774
:101DF000062089CF3757004083574741C207C18328
:101E000093F7F7DFC207C183231AF74093F6064022
:101E100089CE3757004083574741C207C18393F7A4
:101E2000F7BFC207C183231AF740A2461247824771
:101E30003101730020300000636865636B5F667377
:101E40005F6572723A20626164207369676E6174C3
:101E500075726520253038580A0D0000494D20570D
:101E600052495445454E20544F0A0D00494D2052C9
:101E7000454144454E2046524F4D2E0A0D0000006C
:101E80000A0000007465737466696C652E7478745A
:101E90000000000049324320536C617665206D6F6D
:101EA000646500000A4D6F756E74696E6720766F09
:101EB0006C756D652E0A0D004F70656E696E67203A
:101EC00066696C6520222573220A0D0068656C6CBA
:101ED0006F20776F726C6420393939393939393963
:101EE000393939393939393939393939210A0D000E
:101EF0000A6C7365656B20746F2025750A0D0000F0
:101F000072633D25750A0D005265616420257520B8
:101F100062797465730A0D00737472696E673A2092
:101F200025730A0D000000002564206B6220736F8A
:101F3000206661722E2E2E20200000000A0D4C6FAC
:101F400061646564202564206B696C6F62797465D7
:101F5000732E0A0D000000007265616420726573C3
:101F6000756C743A2025750A0D000000777269744B
:101F700065206572726F723A2025750A0D000000A7
:101F80004C6F6E67205072657373000053696E6703
:101F90006C6520436C69636B00000000446F7562E0
:101FA0006C6520436C69636B00000000456E636FD5
:101FB0006465723A2025640A00000000494D2048FB
:101FC0004552450A0D00000088888E88E888EE8812
:101FD000888E8E8EE88EEE8E88E88EE8E8E8EEE851
:101FE00088EE8EEEE8EEEEEE809A45418E418F80CF
:101FF0004545454949498E8F9092924F994F555585
:1020000059999A9B9C9D9E9F41494F55A5A5A6A76E
:10201000A8A9AAABACADAEAFB0B1B2B3B4B5B6B7C8
:10202000B8B9BABBBCBDBEBFC0C1C2C3C4C5C6C7B8
:10203000C8C9CACBCCCDCECFD0D1D2D3D4D5D6D7A8
:10204000D8D9DADBDCDDDEDFE0E1E2E3E4E5E6E798
:10205000E8E9EAEBECEDEEEFF0F1F2F3F4F5F6F788
:10206000F8F9FAFBFCFDFEFF48656C6C6F20576FBA
:08207000726C64210D0A0000EE
:10207800AA000000000000000000000000000000AE
:102088000000000000000000000000000000000048
:1020980042FFFFFF00000000AA87014513F7150063
:1020A80011C33E9585818607F5F9828051113AC2A0
:1020B800370702403EC05C4336C48966D58F5CC38F
:1020C800B717014093870740D847A246134707042C
:0C20D800D8C71247824731017300203046
:00000001FF
