:100000006F00903D00000000A60C00004E0C0000A8
:1000100000000000000000000000000000000000E0
:1000200000000000000000000000000000000000D0
:1000300008250000000000004E0C00000000000039
:100040004E0C00004E0C00004E0C00004E0C000048
:100050004E0C00004E0C00004E0C00004E0C000038
:100060008E2400005C0000204E0C00004E0C0000AE
:100070004E0C00004E0C00003A250000DA2600006D
:100080004E0C00004E0C00004E0C00004E0C000008
:100090004E0C00004E0C00004E0C00000000000052
:1000A0002A86014593F6150091C232958581060690
:1000B000F5F9828000000000634E050263C3050469
:1000C0002E86AA857D5515C285466378B60063568F
:1000D000C00006068606E36CB6FE014563E4C50073
:1000E000918D558D85820582F5FA82808682C93F81
:1000F0002E8582823305A0406347B000B305B0402F
:10010000C1B7B305B0408682653F3305A040828207
:10011000868263C70500634905005D372E858282AC
:10012000B305B040E35B05FE3305A040513F330506
:10013000B04082820000311126C406C822C6AE84B7
:10014000AA87B2850143B5CA63D49600B684054335
:100150003384964063530400014422863A853EC2AC
:100160001AC0EF001066024392472A87B306850043
:100170000146B385C4406344B00463D304008144A2
:10018000338696003305E640630403026372C702B8
:100190009307A002A30FF6FE9306F6FF637AD7003B
:1001A000230FF6FE9306E6FF6374D700A30EF6FE58
:1001B000C2403244A24451018280A68651BFB38519
:1001C000C70003C50500B385C60005062380A5004A
:1001D0004DB72A832E8501CE8322060001475C425B
:1001E0006348A700238007004842330555408280BA
:1001F00014469385F6FF1442AE96E385D7FE9386A8
:10020000170054C2B306E30083C606000507238027
:10021000D700F1B7370700E08327470F9306470F52
:1002200093F70708F5FBB7273078938787089CC2B8
:100230007147370600E02543F1558327460F93F7B2
:100240000708E5FFB357E50093F6F70093070003AF
:100250006354D30093077005B697A20793E7570836
:10026000232AF60E7117E31AB7FC8280B7F700E075
:100270009C4737F700E03E951C47898FE3CE07FE89
:100280008280011106CE22CC26CA02C02A8363577F
:10029000050089E685473303A0403EC013041006DD
:1002A00019C213041004BA8459141A853AC81AC220
:1002B0002EC61AC4253DA5472243B2454247937630
:1002C000F50F63E1A7069386060393F6F60F93876F
:1002D00014002380D4001A853AC83EC62EC4CD33FC
:1002E0009246A245B24742472A8363FBB602824642
:1002F00099C69306D0022380D700938724003385C4
:10030000E7409356F501AA962380070085860146AB
:10031000FD17634BD600F2406244D24405618280EF
:10032000BE8461B7A29655B7B305C70083C2070064
:1003300003C3050005062380550023806700C9BF5D
:100340008347150003470500A2075D8F83472500FB
:1003500003453500C207D98F62055D8D828051113A
:1003600022C203A441C99305E5FF06C41C4401450C
:10037000F91763F7F500034524001D335C483E95EB
:10038000A24012443101828083A741C903C70700FC
:100390008D476311F7028347550103474501A207C3
:1003A000D98FC2070347A5010345B5012205598D21
:1003B0005D8D82808147FDB7511122C206C42A8417
:1003C000231005000845054783A741C96305E502D9
:1003D00098476376E50219E983C607000D47884B05
:1003E0006386E60023260400884B21A048C46DDD07
:1003F000BD3708C80145A24012443101828005453D
:10040000DDBF37370140835707000E05C207C183A0
:1004100093F777FCC207C1832310F70083570700C7
:10042000C207C1835D8D2310A7008280B7370140CA
:100430002396A7003737014083578700898BEDDF6C
:1004400001003737014083578700858BEDDF035567
:10045000C7001375F50F82801305F00FC1BF51114E
:1004600022C206C42A841305F00F7D14C13765FC2F
:10047000A24012443101828051119317850122C29A
:1004800026C006C4E187AA842E8463DB0700814569
:1004900013057007D537854763E1A70693F4F40782
:1004A000653F5D3F26855937135584014137135504
:1004B00004011375F50F9D3F135584001375F50F57
:1004C000B5371375F40F9D379307000413055009D2
:1004D0006389F4009307800405456394F4001305D1
:1004E0007008A93729448D3F93178501E18763D6AA
:1004F00007007D141374F40F7DF4A240124482446B
:100500003101828083C701C9311122C626C406C8C1
:10051000A18BAA84368491E3A6051305100532C089
:10052000A13F024609C90544053FC2402285324425
:10053000A2445101828005679307803E1307072C70
:100540003A8532C23EC01D33013F9306F00F12467A
:100550006319D500824705671307072CFD17EDF3D4
:10056000D9B79307E00FE310F5FC93072020818FA4
:10057000918F3EC019C23285DD3581CC2694850429
:10058000E13DA38FA4FEE39C84FE02450144C13DEE
:1005900061BF7D14D13575FCCDBF854763E4A700ED
:1005A0000545828083A741C99847E37BE5FE411159
:1005B00006C603C7070089466309D7008D46630353
:1005C000D7020545B24041018280CC471376F50F32
:1005D0002181AA95894606060A852D377DF10355A6
:1005E0000100CDB7CC471376F5071D81AA9591463A
:1005F0000A060A85013F71F50A85993312051181B2
:10060000D1B7511106C422C20DCD83C701C9AA8535
:10061000A18B99E39315950013058005B13D054421
:1006200001ED1305F00F19351305E00F0135130720
:10063000002023A2E1CC0144A240228512443101D2
:10064000828003A441CC090409E839357D899547A6
:100650006305F50205440935C5B70145C13B7D1465
:10066000E5B705651305052C11317D14F5339307A6
:10067000F00F6308F50075F4F1BF09641304047109
:10068000F5B713341400C1BFB757004003D7474133
:10069000938707401377071009CF03D74701054514
:1006A000420741831377F7EF42074183239AE7001C
:1006B000828003D747011377074009CF03D747014B
:1006C0000945420741831377F7BF42074183239AC5
:1006D000E700828003D747011377072009CF03D7AC
:1006E00047010D45420741831377F7DF42074183F6
:1006F000239AE700828003D7470101452D83058BAC
:1007000001CF03D74701FD769386F67F42074183E9
:10071000758F239AE700114582805C41B1E78357CA
:10072000850037570040860793F7E70F2318F740F7
:100730008967938707713706070023A2F1CA01452D
:10074000938641CA37530040130626080357434196
:100750009315070103578341C18142074D8F718F64
:100760006316C70011C19CC201458280FD17054573
:10077000F1FF511106C423A00600393711E11545D8
:10078000A240310182802111896702C493870771D9
:1007900023A2F1CA06CA02C002C22314A100014664
:1007A000138741CAB755004083D68541898A89E6B7
:1007B00011C21CC3014509A8FD170546F5F7232002
:1007C0000700D93511E115453757004083570740D9
:1007D000B7550040C207C18393E707102310F740C5
:1007E00037070300050783D745419396070183D751
:1007F0008541C182C207D58FF98FE396E7FE19E1E3
:100800000A85213F3757004083570740D240C2072F
:10081000C18393E707202310F74061018280130111
:10082000C1FD26CC83A441C923A601CA9387C1CAAE
:1008300022CE06D02AC03EC415448DC803C714007A
:100840001144937617009DC22E841377070495E513
:1008500001CB01457D3309C5A3800400054439A0BF
:1008600003C714001377F7FBA380E40082502285AE
:100870007244E24413014102828009E7984C1377E5
:1008800007E098CCD84C944C158F637387003A845A
:1008900071DC984C9376F71F9DEE03C524009356A8
:1008A00097007D15758D9377F50F3EC299E745E763
:1008B00088500547E372A7FAC8D0C8504D3449DDC7
:1008C00092473E9588D4353B41F903C7140013671E
:1008D0000704A380E400984C930600201377F71FC9
:1008E0003387E6406373E40022878247A5CBB38257
:1008F000E7003E86138341CC8326030085C603456B
:100900000600050616CA36C83AC632C20536C246C1
:100910001246D242FD16138341CC2320D300324726
:10092000E31A56FC8247944C198CBA973EC0A247F2
:10093000BA9694CC904393F6F61F329798C3A9FACF
:100940000145C131E31A05F003C714001377F7FB23
:10095000A380E40035BFC8508931A1BF3A853AC2AF
:100960004D31124761D1CDBD896721119387077140
:1009700026C62EC206CA22C82AC023A2F1CA014630
:10098000938441CAB755004083D68541898ABDE624
:1009900011C29CC0B756004083D70640B7550040EF
:1009A000C207C18393E707102390F640B706030000
:1009B000850683D745411396070183D78541418238
:1009C000C207D18FF58FE396D7FE138501C1B133EE
:1009D0002A8401461DE992476379F6028966938667
:1009E000067194C00145375300408355434193F548
:1009F0000508B9C511C194C00145A9A8FD17054650
:100A0000C1F759312A8411E115448966938606712C
:100A1000B705070094C00143B752004093854508CD
:100A200003D642411315060103D682414181420695
:100A3000498E6D8E6313B604630A030494C0B9A093
:100A4000FD160545DDF232C423A0040035392246E7
:100A500011E115458247B386C70083C50600050628
:100A6000B75600402398B6401376F60F32C401E51E
:100A7000213922462DD12A8449BFFD160543CDF2E6
:100A800023A0040011312A8411E11544B756004017
:100A900003D70640D2402285420742444183136770
:100AA00007202390E640B244610182804111A300F7
:100AB000A10089450A8506C6230001007535B240AC
:100AC0001375F50F41018280B70700E083A7470F38
:100AD0008280370700E08327470F111106CC22CA16
:100AE00026C82AC093F7070C9306000C6388D70C1E
:100AF00002C62E84F1E58327470F89C793F70708BD
:100B000091E3D937E24022855244C2447101828088
:100B1000B30594409D462E8763D3B6001D47B706A4
:100B200010008506370500E00326450F1303450F27
:100B300093720608639C020611C63AC42EC2693736
:100B4000224792458946014663D4B6001306D7FF73
:100B50008247938534006800BE953AC2DD2932464B
:100B600082471247B70600E023ACC60E8D45338698
:100B7000970081460343060085067C003385D70035
:100B8000230065006305D7000506E395B6FE9306CE
:100B9000470093E606F82306D1003246B70600E088
:100BA000BA9423AAC60EE3C584F6A9BFFD16ADFE0E
:100BB0008327030093E7070C2320F300014499B730
:100BC0008144D5B7511122C206C42E841937A240E0
:100BD0002285124431018280970100209381418255
:100BE00013814140096513050588731005308D4652
:100BF00017F5FFFF13050541558D7310553013850B
:100C000001C99385012A01466356B50010C111053B
:100C1000E34EB5FE1725000013050501938541C07D
:100C200017F6FF1F1306C6466388C500144194C11A
:100C300011059105E39AC5FEB7F700E0154798C383
:100C400085679387C7257390173473002030732509
:100C50001034EFF02FDC73250030EFF0AFDB73259D
:100C60003034EFF02FDB73252034EFF0AFDA3707A5
:100C700000E08327470F9306470F93F70708F5FB1C
:100C80008567938757A89CC2370700E08327470FE3
:100C90009306470F93F70708F5FBB7B7AAAA938700
:100CA00037A89CC201A0371702401C47B706800036
:100CB000D58F1CC7AA8703C7070001E73385A74064
:100CC00082808507CDBF130141FAA6C886CCA2CA8F
:100CD0002AC02EC2B284B68702C803C70400138498
:100CE0001400A30FE10001EBE64056444245C64420
:100CF0001301C105828093065002630FD7003EC4E2
:100D00001246824785451305F1018297A284C247A6
:100D1000AA973EC8A247D1B783C6140013060003A2
:100D200013872400A30FD100130400036390C608A7
:100D3000BA8401460147254511A89316270085046A
:100D4000369783C6F4FF06072E970546938506FD62
:100D500013F3F50FE37365FE19C2A30FD1003AC672
:100D600061466353E60032C69305C00601466398A8
:100D7000B60083C6040005468504A30FD100834650
:100D8000F101930540066383B60663E4D5021307B9
:100D900080056382E60A130730066380E60CA9D655
:100DA00012463EC485451305F1018DA813040002C7
:100DB00041B793055007638BB60213068007638C17
:100DC000C60613063007E39DC6FC3ACC13874700DE
:100DD0009C433AC43E853ECAF13D6247D247AA854C
:100DE00051CBB246381822863E8525A0138747008E
:100DF0003AC405CA9386B6F8181093B6160088430D
:100E00000146A945EFF0EFC7B24638182286AA85F9
:100E10000810EFF04FB21246AA8528188247829731
:100E2000FDB5130750076395E60018108546C1BF4E
:100E300018108146E9B7884313874700138686FA5E
:100E40003AC48546181013361600C145EFF06FC33B
:100E5000B246AA853818228665BF138747009C438F
:100E60003AC4B246A30FF10038182286854513050F
:100E7000F10145B712463E8555B71301C1FD32CA8F
:100E80002A8605652EC836CC81451408130545BC55
:100E900006C63ACE3ED036C03D35B24013014102BF
:100EA0008280411122C426C206C62A842EC08544EF
:100EB000824589461306E01F2285EFF0AFE401C5A5
:100EC0000D476387E4082285EFF08FC77D777D1794
:100ED000698F4207AD664183938656A56301D702A9
:100EE000931505018967C1811385877579370D478A
:100EF0006386E4069387140093F4F70F55BF824589
:100F00008946130660032285EFF0CFDF09ED034722
:100F1000140083470400916622075D8F9386661450
:100F200081446307D702824589461306200522853E
:100F3000EFF04FDD854409ED8347140003470400BB
:100F4000A207D98F71771307A7EBBA97B334F000D4
:100F5000B240224426859244410182808944CDBF1B
:100F600009651305C57711BF09651305C57831B744
:100F7000211106CA22C82AC02AC22EC485C12A84C9
:100F80008A8511E181451305201D353B01C41245B9
:100F900082471D8DD2404244610182800144DDB709
:100FA000011132C82E86B705008036CA93C5F5FFF9
:100FB000140806C63ACC3ECE36C05D3FB24005614D
:100FC00082802A96AA876393C70082802380B70015
:100FD0008507D5BFAA8703C705002380E70011E373
:100FE000828085058507C5BF8147630CF60033877E
:100FF000F50003470700B306F50085072380E600E8
:101000006DF78280511122C2138451CB26C08344D4
:1010100004000547238AE1CA93971400A6978A071C
:10102000A69713870118860706C4BA978505A38C6F
:10103000B7006546AA853E85453F13851400A9453E
:10104000EFF00F8DA2402300A4001244824431012E
:10105000828081476313F60082803387F5008346E0
:1010600007003307F50085072300D700E5B779713E
:1010700022D4930700042E842E86AA85130511001E
:1010800006D62300F100F137930514000A85EFF02E
:10109000BF8DB250225445618280511122C22A84F0
:1010A0001305100206C426C0AE84EFF03FA0014530
:1010B000EFF0DF9F1305F007EFF05F9F13052002AD
:1010C000EFF0DF9E2685EFF07F9E2685EFF01F9ED6
:1010D000E544834704008DC7811793F7F70F0D6729
:1010E000939627001305C797B69795453E954137C8
:1010F0000504FD14F9FCA2401244824431018280AF
:101100008D6795451385C7979D37E5B7511106C47F
:1011100022C226C0AA84793E2A84AA852685EFF0B9
:101120005F9B0D65854513050594EFF09F9AA240DE
:1011300013051400124482443101828021CD9307AB
:10114000F0072A866308F504511122C28965938548
:10115000057A1385412806C426C099351385412890
:1011600075379387C1C384431305C00313871400E5
:1011700098C3EFF04FE111E9138541281244A240D2
:1011800093F5F40F8244310109BFA2401244824416
:10119000310182808280B70700E083A7470F1307E1
:1011A000000C93F7070C638DE7045111B70710008B
:1011B00022C206C42A848507B70600E003A7460FAB
:1011C0001386460F937507088DE119C3EFF0DF8F83
:1011D00041657D1593178400E98F93E7570837071A
:1011E00000E0232AF70E054501A8FD17E1FB1C428C
:1011F000014593E7070C1CC2A240124431018280D2
:1012000001458280B7270240054798C3B7170240BF
:101210003707080123A207001307170898C33707E9
:101220009F0098C7B7060002371702401C43F58F8E
:10123000F5DF5C43B7160240F19B93E727005CC3E0
:101240002147DC42B18BE39EE7FEB70700E023AC09
:10125000070E1307000823AAE70E8280130181F40A
:1012600006DB22D926D7793FB706002083D54680F2
:1012700083D766801387068093F5F50FC207C18375
:10128000A207DD8D850583A70680C205C181BEC08A
:10129000AEC21C47B706674593863612BEC4379761
:1012A000EFCDB7270240D4C31307B79AD8C394C76A
:1012B00098C7984B1367070298CB984B136707049E
:1012C00098CBD847058B75FF984B370300201946FC
:1012D0001377F7FD98CB984B1367070198CB01471D
:1012E000B72702409316170068113695035545F944
:1012F0009A962390A680C047058875FC0507E313DE
:10130000C7FE984B09651305C57B3D9B98CB984B51
:101310001367070898CB9536B7F700E0316723A02D
:1013200007001307F7B798CB23A40700938401CCD9
:1013300023A00400984337550700130505301367B1
:10134000770098C3B7E700E0056723A0E7103717D9
:1013500002401C4F93E757031CCFEFE03FF13717D4
:1013600001401C43C19B93E787001CC385471CCBEE
:101370009840138601CC32C03AC498403AC61387CD
:1013800041C00347A700938641C001E72385F600CB
:1013900021A09147E3ECE7FEB7170240904B3705D9
:1013A0002000B705E0FF498E90CB904BFD1585647A
:1013B0006D8E90CBD84F3706C0FB7516498FD8CFAE
:1013C000984F1367170198CFB7070140D843718F23
:1013D000D8C3D8437D761306F60FD8C3B71701409C
:1013E00098431377F7F098C398431367070D98C392
:1013F0009843718F98C39843138604D0518F98C334
:101400003757004083574740C207C18393F707FC13
:1014100093E787012312F7409C4261671307076A2D
:10142000939517006369F72C3775DC02130505C027
:10143000EFE01FC9FD14658D42054181375700401B
:10144000231EA74083570740C207C18393E71700B5
:101450002310F740EFF04FA3630D052A096513052C
:10146000C57C6D31B71701409C47858B3ED2639098
:1014700007100D651305858251399387411505477E
:101480002390E7001387C1C1D8C30567130707F688
:10149000D8CB056713060002130787F623A60700BB
:1014A00023880700238E070098CF23810700238419
:1014B000C70023A0070223A2070223840702B7174D
:1014C0000240D44FB7052000CD8ED4CF984BB7063D
:1014D000E0FFFD164D8F98CB984BA165758F98CB8B
:1014E000B757004083D60740C206C182CD8E2390F5
:1014F000D74083D60740B7050040C606C582239073
:10150000D74083D64740C206C18293E68601239224
:10151000D74083D64740C206C18293E60670239225
:10152000D740B7E600E023A0B610238FC640B7052A
:10153000008023A0B610A38FC640E176C106239E8B
:10154000D7409306E00E2394D7402396074003D755
:10155000074042074183136717002390E74003D7F2
:10156000074042074183136707402390E74037163F
:1015700002401C4E116713070702D98F1CCEB71407
:10158000014083A70440B70610FFFD16F58F37070B
:101590009000D98F3747014023A0F440A14593071D
:1015A0000780CCC723A8070093050008CCCB930580
:1015B000101A8CC7CC47096513074780C98DCCC763
:1015C00095475CCAB7070240EC430145F999ECC363
:1015D000F8C713072009F8C3B7E700E03707000290
:1015E00023A0E7101C4E05674107D98F1CCEB737E3
:1015F000014023900700EFE0DFE0B737014003D759
:101600000700B70610FFFD16420741832390E7004D
:1016100003D707000D6513058583420741831367D0
:1016200007202390E7009840F98E94C09840B706B1
:10163000B000558F98C003D70700B70600F1FD161C
:1016400042074183136747102390E70003D7070041
:10165000420741832390E7009840758F98C09840D7
:10166000B706000B558F98C09840B7060040120788
:10167000118398C09840558F98C003D70700FD7616
:101680009386F67F42074183758F2390E70003D747
:10169000070042074183136707042390E700EFF038
:1016A000CFFD1D4523AA01C8EFE0BFD52945EFE0D6
:1016B0001FDB814513050004EFE01FDC938741C960
:1016C00005473EC8AA846306E5168144238891C86D
:1016D000EFE09FD80145EFE0DFD2938781CB3EC298
:1016E0006398041E1247894789441CC30D65A6856B
:1016F0001305058F05AB3775DC02BE95130505C0D4
:10170000EFE01F9CFD14658D42054181A1675D8D51
:1017100035B31305C003EFF00F876314050E8D6713
:10172000238E01CA938787C003C507001307F00FF4
:10173000631EE50213051002EFF04FB70145EFF00D
:10174000EFB61305F007EFF06FB613052002EFF0C8
:10175000EFB50145EFF08FB51D45EFF02FB59305BF
:1017600000021385C1CBEFF09F9039A085073EC2E0
:10177000EFF0CFB392474DD9138541D51306004002
:101780008145EFF01F8413051002EFF02FB20145E1
:10179000EFF0CFB11305F007EFF04FB113052002C2
:1017A000EFF0CFB00145EFF06FB01D45EFF00FB097
:1017B0008144938741D50145A697130705029315E8
:1017C0000701C181898D3E953AC83EC2EFF03F8A3C
:1017D000424792473A8513070008E310E5FE9384D9
:1017E000040893070040E396F4FC89659385057E21
:1017F00013854128EFF00FFE814513854128EFF056
:10180000DF8909651305C57EEFF05F908144268569
:10181000EFE07FF701E52685EFF05F92850493F412
:10182000F40F9307F007E394F4FE0D6513050581AB
:101830000DB99305A01A13058004EFE0FFC3631AE6
:1018400095048144EFE05FC1FC10A6972380A700B8
:1018500085049147E398F4FE0347E1068547E316C4
:10186000F7E60347F1069307A00AE310F7E69304AF
:10187000803EB70500401305900EEFE0FFBFE30E7A
:10188000051A3165130505B8FD14EFE03F9EF5F02C
:101890002DBD81451305900EEFE01FBE9307100488
:1018A00063E5A40089449307900E3EC29307803EEF
:1018B000124581453ECAEFE03FBCE30C051A316595
:1018C000130505B8EFE09F9AD247FD17F5F3F5BB76
:1018D0008145E810EFF0EFDC8547631FF502C14654
:1018E0001306E01B8145E810EFE0DFC111C5124788
:1018F000854785441CC3DDBB8347010791E7124739
:10190000994799441CC3DDB3C818EFE07FA32A842C
:10191000AA85E810EFF0EFD88D47E30AF5FC65F1F2
:10192000930640023546A285E810EFE0BFBD61F1A5
:101930008345610703455107A205C98D91E513054C
:101940003108EFE0FF9FAA850345F106EFE04FF570
:101950000347E1062ACA0345D1068345C1068354DD
:1019600001072207498F03552107938681D23A94B4
:10197000C0C62381B6002392960009E91305F1073A
:101980002ECE3ACCEFE0DF9BF2456247D247918002
:1019900026973E97198DEFE0AFF27D7793062500ED
:1019A0002907938781D23D663A9594C74167791696
:1019B0005917E37AA606E374D7F40D471305B10867
:1019C0002380E700EFE0DF97938781D288CB5247EF
:1019D0002694A38007003A944247C0CB89641CC375
:1019E00092470D659385C47A1305C58423A007002B
:1019F000EFF0AFC8C24780436308044AA300040065
:101A0000FC00BECE9387C47A82D03ECA764393054B
:101A100000022D461A85EFF0CFDA8D672A838146C2
:101A2000814521471305E002A142938387B7D2473E
:101A3000138615001376F60FBE9583C70500930530
:101A4000000263F8F5049305F0026384B704E38CA5
:101A5000A70263F0E60493958701E18563D505004D
:101A60009E9783C707F89385F7F993F5F50FE5403F
:101A700063E5B000811793F7F70F938516009A96E8
:101A80002380F600BA8713F7F50FBA86B2853E8732
:101A900079BF524793B71702A305F3003297A808FE
:101AA0003ACAEFE07F91AA8409ED03568105A65555
:101AB000930600023D8A1606E810EFE0BFA409C5B0
:101AC0008544924784C31DB18347C10699E38D4481
:101AD000CDBF8347710713F7870011EF7647AD45F8
:101AE000F410AA9605053306A70083C60600034630
:101AF000F6FF6309D6028357810585079394070192
:101B0000C180F1D4265761D793F6F40089EA1655BF
:101B10000507BAD405E503574400E3FAE4FA231CA9
:101B2000910461B7E31EB5FA0347B700C18B1DEB03
:101B3000D9DFE810EFE05F85AAD0C9BD03472400D4
:101B400093D644007D17758F79FBEFE01FA585467E
:101B5000E3F8A6F61444E37CD5F6AAD2EFE03F8082
:101B6000AAD475BF13F7F70F3ACA63990732E81082
:101B7000EFE09F8108D02801EFE08FFC854748CC3B
:101B80000D65A300F400232C0400CD451305058644
:101B9000EFE0FFC89247AA8488C3E31905B48145E2
:101BA000EFE0FFC79247AA8488C3E31105B43785E5
:101BB0009200130505C0EFE06FEB0D65814513053D
:101BC0004587EFF08FABC2479545984309CB8346D5
:101BD00017009145858A81C6232C070081459247CD
:101BE0000D65130545888CC3EFF02FA937375C7C52
:101BF0001307F7D2BACC230E0104C247984323A699
:101C000001CA6319072A1547924798C30D6593D5F2
:101C1000A4001305058CEFF04FA692470D65130540
:101C2000C58D8C43EFF06FA5370501405C4105671A
:101C3000130707805CC1B7170240944F3736014045
:101C4000A165D98E94CFD447558FD8C7D847FD7694
:101C50009386F67F758FD8C7835646C4130706C090
:101C6000C206C182CD8E2312D6C4231406C29305A8
:101C7000F00F2316B6C2835646C1C206C18293E650
:101C80001600231AD6C0835606C0C206C18293E648
:101C900016002310D6C0371601409306064003A352
:101CA0000600137303FF1363930023A066004CDB4D
:101CB0000CDF4CDF2CC383558701C205C18193E53E
:101CC0000506231CB70083550702C205C18193E5B1
:101CD000C5002310B702D84FC575FD15136717004F
:101CE000D8CF584158C198426D8FA1654D8F98C289
:101CF0009842B705F1FFFD156D8FB70508004D8FB0
:101D000098C2214798CA414798CA984BB7060040E5
:101D10001367170098CB984B799B98CB03D7860015
:101D200042074183136737002394E60065777D17E8
:101D30002392E60203D74601420741831367170047
:101D4000239AE60003D70600420741831367170072
:101D50002390E60003D7460203D44602C176420729
:101D600041833ADAD8439386F67F4204758FD8C30D
:101D7000984F41801367072098CF130706801443BC
:101D8000C19A14C3144393F6F6F014C3D847B72688
:101D9000014013670720D8C7D8471377F7DFD8C7A4
:101DA000B72701409387074037071000D8D723A8EB
:101DB000070213070002D8DB1307F00398CB9847FC
:101DC0001367170098C798471367870098C79387CA
:101DD00006409847218B65FF9847B7260140136757
:101DE000470098C7938706409847118B65FF3716C1
:101DF0000240584A9386C6441367170058CA3707EB
:101E0000024014CB938681CA54CB894654C78D6651
:101E10009386065A14C7144793E6160014C7D8438E
:101E2000B7060E009386261013670710D8C398478D
:101E3000558F98C79847B7064000558F98C7824777
:101E400002D602D49C4302CA02C83ECE8D473EC28F
:101E5000938781CA02D03ED8824722478443C24733
:101E6000B386E44085073EC8B71701409C474D47FD
:101E70006375D71892460947858B6384E6360D470C
:101E80006383E616639E0630638D072E0247184370
:101E90003AC4024718433AC63EC285A212478D474C
:101EA0008D441CC36FF09F841247954795441CC313
:101EB0006FF0DF8383461700858A99E21147A9B343
:101EC000144F0323C7013303D3409306000463F484
:101ED000660013030004FC103ECC631603069387D0
:101EE000C1CA8C4323AC01CAE38205D20D65130538
:101EF000C588EFE09FF80D65EC101305C589EFE08C
:101F0000DFF79387C1CA9843BA9413972401E31665
:101F100007CED2470D6593D5A4001387170093779A
:101F2000F70F1305C58A3ECAEFE03FF5D24713F716
:101F300037007C113E970345C7FAEFF0CFA5354532
:101F4000EFF06FA55DB9144F13F6F61F39EA03449D
:101F5000270013D696007D14718C1374F40F05E4DA
:101F600091EA0853854663EFA600A300070023AC5F
:101F7000D1CA69B948531AD03ACEEFE00FE2025302
:101F80007247CDB748D348531AD03ACEEFE02FBDB1
:101F90007247025309E5A30007008546C9BF2A948A
:101FA00000D7104F130400201376F61F118C6373B3
:101FB00083001A840C576245A2861AD03ACEEFE00D
:101FC0006FD47247025361F9144F33038340A296D2
:101FD00014CF9386C1CA94429387C1CAA29694C370
:101FE000E247A297D5BD26C489EB824726D602C216
:101FF0009C433EC482479C433EC6B707004083D7FC
:102000004702C207C1833ECC630AF40052570D65F4
:1020100013050593B385E740EFE03FE6938701CBD7
:102020009843930630063387E44063FDE60484C397
:10203000C257A94503D4070003D52700420442052F
:1020400041811505EFE04F8793162500AA96860675
:102050004180C206C182A9451305540036DCEFE079
:10206000AF85131625002A96E256060642068D65B0
:10207000938545944182E810EFE09FF29945E8107E
:10208000EFE05FF8A2571147B387F440637EF70093
:102090005247B7370140938707C0D8DBD24726D4D1
:1020A000850793F7F70F3ECA9307100363F9970468
:1020B00083C741CB138741CB3ADCB1C313840118EA
:1020C000834594012EDE89CD1305C003EFE0AFEB0D
:1020D00001E9F2552285FD1593F5F50FEFE0FFFBC1
:1020E000690493874128E39D87FC130640108145CE
:1020F00013850118EFE0FFECE25723800700F24759
:102100001307803EB387F4406377F7069257B9C34D
:102110000257C2468D65138601C493854595138584
:102120004128EFE0FFE7138541289D45EFE09FED53
:10213000138301C4834703001307C0056385E70CBD
:10214000636BF70A1307D002638BE70C1307F002E7
:102150006383E70CB7070240F843799BF8C339471C
:10216000B8C70D67130787BFB8CBF84313671700CD
:10217000F8C326CE02C8824762449C43858F3ED076
:10218000E1B9B25726C43387F4408567938707FACD
:10219000E3F5E7E60D6513054590EFE03FF7B1BDC8
:1021A00032473387E44089EF9307F00963EAE70099
:1021B00082479C433EC482479C433EC68947E9B957
:1021C0009307000A63F6E7020D6513050591EFE03A
:1021D000FFF382479C433EC482479C433EC68D47E3
:1021E00065B926C4E38B07E08D6713850792C5B7F1
:1021F00026C4854755B11307C007E39DE7F48D65F5
:102200009385059721A08D659385C596138501C497
:10221000EFE05FDC81B78D6593854597C5BF8D6520
:1022200093858597E5B7636AD7F809472380E70068
:102230005247229798CB6FF08FF981451305A0077D
:10224000EFE08FA3631305C88144EFE0EFA0FC101B
:10225000A6972380A70085049147E398F4FE83475F
:10226000C106B14493F70704639207C691446FF027
:10227000EFC59305002013050005EFE0EF9F6316FF
:1022800005C46FF0AFC4E3165780AD476FF0EFFFA2
:102290001301C1FD22CE06D026CC2A84635FC00A7A
:1022A0009307E00FAE8463C1C70C9302F00FB382B3
:1022B000C24096851375F50F16C232C097E0FF1F16
:1022C000E780C0D802462ACA13F5F40FB28597E01A
:1022D000FF1FE780A0D792422AC813558400968535
:1022E0001375F50F16C697E0FF1FE78020D602464C
:1022F0002AC413D58400B2851375F50F32C297E056
:10230000FF1FE780A0D4B2422AC01355040196856E
:102310001375F50F97E0FF1FE78040D312462A841C
:1023200013D50401B2851375F50F97E0FF1FE78001
:10233000E0D14243D247824622479A972A94369761
:10234000938707081307070813040408A18313776A
:1023500007F02180D98F42045D8C8250228572441F
:10236000E2441301410282802E84C5BF111126C8A8
:1023700083A401CA1387C1C918431386C1C922CADD
:1023800006CCAA872E849306050332C0634A07044D
:10239000638AF604634F97043386F64081453E8591
:1023A0003AC2EFE01FC2124715CC639AE400B706A9
:1023B00002409C5A93F7F7FD9CDA23AC01C805074D
:1023C00015A0239007002391070023920700239371
:1023D0000700239407000507B107239F07FE7DB779
:1023E000E391F6FE8247E240524498C3C244710131
:1023F0008280138641C4104293021700329713065D
:10240000F00F6343E0000146B7457F000D659385FB
:1024100005041305F50F16C63EC436C2953D135686
:10242000B5000D67130787B5798A3A96A247035618
:102430000600B24292462390C70013567500798A6F
:102440003A9603560600B107239BC7FE1356350084
:10245000798A3A9603560600239CC7FE1376F50048
:1024600006063A9603560600239DC7FE135635010D
:102470003D81798A79893A963A9503570500035642
:102480000600239FE7FE239EC7FE168711B71301A0
:10249000C1FC3EC2B70702409C4322D026CE06D8DC
:1024A00016D61AD41ED22ACC2ECA32C836C63AC480
:1024B0003EC0370402409304001044C0824793F7A3
:1024C000074089C78545138581CC4D35824793F7F1
:1024D000072089C78145138581CF493D1C403EC0F7
:1024E000824793F70710F1FB0254C250B2522253B5
:1024F0009253F2446245D2454246B2462247924741
:10250000130141037300203051113EC0B7F700E0C2
:102510003AC2984B36C4B166938606B8369798CBC4
:1025200023A20700938701CC9843A246050798C3CE
:102530001247824731017300203079713EC0B7578E
:1025400000403AC203D747419387074083D78701AA
:1025500026CC06D69314070116D41AD21ED022CE4A
:102560002ACA2EC832C636C4098BC18005C3138758
:1025700041158546C207C1832300D7008346170053
:102580009D83858B2301D7002305F70293F704046D
:1025900095C79387411503C7070079C33757004094
:1025A000130707400357070123800700A38407028E
:1025B0001377F70FA380E7002381E70093F7040860
:1025C000A1C79387411503C7A70203C52700A384AA
:1025D0000702B7570040938707401384411579CB12
:1025E000034704016376E50E58442A970347070022
:1025F0001377F70F2398E7005C5091C382978347C6
:10260000240085072301F400C18885CC375700409A
:1026100083570740C207C18393F7F7DFC207C1831F
:102620002310F7409387411503C7A7024DC798535E
:1026300009CB03C5170083C52700898D93F5F50FD6
:1026400002977244B250A25212538253E24452454E
:10265000C2453246A2461247824745617300203088
:1026600083C6A7020547A384E70203C7270095C6D0
:1026700083C60701E374D7F483C68702A1F2B75675
:10268000004003D60641D447BA961376F60F23804E
:10269000C60005072381E70015B783C68700E37FDF
:1026A000D7F083C6C70199FAB756004003D6064152
:1026B000D443D9BF03478400637CE50058402A9780
:1026C000034707001377F70F2398E7001C4C35B733
:1026D0002398070015BFD84BA1BF51113AC23757F5
:1026E00000403EC08357474136C49396070193F795
:1026F0000710C18289CF8357474113070740C2079C
:10270000C18393F7F7EFC207C183231AF70093F74A
:10271000062089CF3757004083574741C207C183FE
:1027200093F7F7DFC207C183231AF74093F60640F9
:1027300089CE3757004083574741C207C18393F77B
:10274000F7BFC207C183231AF740A2461247824748
:102750003101730020300000636865636B5F66734E
:102760005F6572723A20626164207369676E61749A
:1027700075726520253038580A0D0000494D2057E4
:1027800052495445454E20544F0A0D00494D2052A0
:10279000454144454E2046524F4D2E0A0D00000043
:1027A0004932433A203078253032580074657374CA
:1027B00066696C652E74787400000000426F6F7457
:1027C00020436F756E743A2025640A004661696C77
:1027D000656420746F20696E69742049324300007B
:1027E00048656C6C6F204265652100002D2D2D2DF4
:1027F0005363616E6E696E67204932432042757380
:1028000020666F7220446576696365732D2D2D00F7
:102810002D2D2D2D446F6E65205363616E6E696E94
:10282000672D2D2D2D0A000049324320536C61760F
:1028300065206D6F646500000A4D6F756E74696E7A
:102840006720766F6C756D652E0A0D004F70656E92
:10285000696E672066696C6520222573220A0D0067
:1028600068656C6C6F20776F726C64203131313128
:10287000210A0D000A6C7365656B20746F20257545
:102880000A0D000072633D25750A0D0052656164F2
:102890002025752062797465730A0D00737472695E
:1028A0006E673A2025730A0D000000002564206B36
:1028B0006220736F206661722E2E2E202000000091
:1028C0000A0D4C6F61646564202564206B696C6F30
:1028D00062797465732E0A0D0000000072656164F0
:1028E00020726573756C743A2025750A0D0000001E
:1028F0007772697465206572726F723A2025750A65
:102900000D0000004C6F6E672050726573730000FD
:1029100053696E676C6520436C69636B000000004F
:10292000446F75626C6520436C69636B0000000046
:10293000706F732072656C61746976653A202564E6
:102940000A0000006A783A2025642C206A793A202F
:10295000256400002573206379632F7320256C752F
:10296000207E20256C756D73000000007C00000047
:102970002F0000002D0000005C000000000000009F
:102980000000005F00000007000700147F147F14A0
:10299000242A7F2A122313086462364955225000E4
:1029A00005030000001C2241000041221C00082AEF
:1029B0001C2A0808083E08080050300000080808D3
:1029C0000808006060000020100804023E514945DC
:1029D0003E00427F400042615149462141454B3112
:1029E0001814127F1027454545393C4A49493001A2
:1029F000710905033649494936064949291E0036F9
:102A00003600000056360000000814224114141449
:102A10001414412214080002015109063249794177
:102A20003E7E1111117E7F494949363E4141412286
:102A30007F4141221C7F494949417F090901013EEB
:102A4000414151327F0808087F00417F410020400A
:102A5000413F017F081422417F404040407F0204F3
:102A6000027F7F0408107F3E4141413E7F090909F2
:102A7000063E4151215E7F0919294646494949319F
:102A800001017F01013F4040403F1F2040201F7F48
:102A90002018207F63140814630304780403615131
:102AA00049454300007F4141020408102041417F15
:102AB00000000402010204404040404000010204C2
:102AC0000020545454787F484444383844444420C7
:102AD000384444487F3854545418087E0901020889
:102AE0001454543C7F0804047800447D4000204086
:102AF000443D00007F10284400417F40007C0418C2
:102B000004787C0804047838444444387C14141451
:102B100008081414187C7C080404084854545420F1
:102B2000043F4440203C4040207C1C2040201C3C72
:102B30004030403C44281028440C5050503C4464E1
:102B4000544C44000836410000007F00000041362C
:102B5000080008082A1C080088888E88E888EE8803
:102B6000888E8E8EE88EEE8E88E88EE8E8E8EEE8B5
:102B700088EE8EEEE8EEEEEE809A45418E418F8033
:102B80004545454949498E8F9092924F994F5555E9
:102B900059999A9B9C9D9E9F41494F55A5A5A6A7D3
:102BA000A8A9AAABACADAEAFB0B1B2B3B4B5B6B72D
:102BB000B8B9BABBBCBDBEBFC0C1C2C3C4C5C6C71D
:102BC000C8C9CACBCCCDCECFD0D1D2D3D4D5D6D70D
:102BD000D8D9DADBDCDDDEDFE0E1E2E3E4E5E6E7FD
:102BE000E8E9EAEBECEDEEEFF0F1F2F3F4F5F6F7ED
:102BF000F8F9FAFBFCFDFEFF48656C6C6F20576F1F
:102C0000726C64210D0A0000AED580A83FD300404D
:102C10008D142000A1C8DA12818FD9F1DB40A4A65F
:042C2000AFFF000002
:102C2400801A06000000000038000100A0860100A0
:102C3400000000003C000100AA00000000000000A9
:102C44000000000000000000000000000000000080
:102C54000000000000000000010000005C00000013
:102C640042FFFFFF00000000AA87014513F715008B
:102C740011C33E9585818607F5F9828051113AC2C8
:102C8400370702403EC05C4336C48966D58F5CC3B7
:102C9400B717014093870740D847A2461347070454
:0C2CA400D8C7124782473101730020306E
:00000001FF
