:100000006F00606F00000000B80700006C07000080
:1000100000000000000000000000000000000000E0
:1000200000000000000000000000000000000000D0
:100030006E0F0000000000006C07000000000000D0
:100040006C0700006C0700006C0700006C070000E4
:100050006C0700006C0700006C0700006C070000D4
:10006000A8130000340000206C0700006C0700009B
:100070006C0700006C070000A00F00003C1100009E
:100080006C0700006C0700006C0700006C070000A4
:100090006C0700006C0700006C0700000000000007
:1000A000634E050263C305042E86AA857D5515C2DD
:1000B00085466378B6006356C00006068606E36C84
:1000C000B6FE014563E4C500918D558D858205829C
:1000D000F5FA82808682C93F2E8582823305A04050
:1000E0006347B000B305B040C1B7B305B0408682E6
:1000F000653F3305A0408282868263C7050063495D
:1001000005005D372E858282B305B040E35B05FEB6
:100110003305A040513F3305B040828200003111C9
:1001200026C406C822C6AE84AA87B28599C60143F2
:1001300063D79600B684054319A00143A68633848D
:10014000964063530400014422863A853EC21AC099
:10015000EF00500B024392472A87B3068500014601
:10016000B385C4406342B00463D304008144B385C3
:1001700096003385E540630403026372B702930778
:10018000A002A38FF5FE9386F5FF637AD700238F35
:10019000F5FE9386E5FF6374D700A38EF5FEC2409B
:1001A0003244A24451018280B385C70003C50500D3
:1001B000B385C60005062380A5005DB72A832E857A
:1001C00001CE8322060001475C426348A7002380DA
:1001D000070048423305554082800C461442FD1505
:1001E000AE96E386D7FE9386170054C2B306E300AB
:1001F00083C6060005072380D700F9B7B70700E0DC
:100200009387470F9843137707086DFF3727307898
:1002100013078708B70600E098C39386460F714717
:100220002543F1559C4293F70708EDFF3356E5004F
:100230003D8A930770056364C30093070003B29778
:10024000A20793E757089CC27117E31DB7FC828091
:10025000011106CE22CC26CA02C02A8363570500AC
:1002600089E685473303A0403EC0058A1304100683
:1002700019C213041004BA8459141A853AC81AC250
:100280002EC61AC4813DA5472243B2454247937604
:10029000F50F63E1A7069386060393F6F60F93879F
:1002A00014002380D4001A853AC83EC62EC4ED3B04
:1002B0009246A245B24742472A8363FBB602824672
:1002C00099C69306D0022380D700938724003385F4
:1002D000E7409356F501AA962380070085860146DC
:1002E000FD17634BD600F2406244D2440561828020
:1002F000BE8461B7A29655B7B305C70083C2070095
:1003000003C3050005062380550023806700C9BF8D
:10031000B757004003D7474193870740137707102B
:1003200019CB03D74701C1669386F6EF758F239AE1
:10033000E7000545828003D747011377074019CBB3
:1003400003D74701C1669386F6BF758F239AE700EE
:100350000945828003D747011377072019CB03D7BC
:100360004701C1669386F6DF758F239AE7000D4536
:10037000828003D7470101459316470163DB0600DE
:1003800003D74701FD769386F67F758F239AE700A2
:10039000114582805C41B9E383578500B756004020
:1003A00093860640860793F7E70F2398F600896740
:1003B000938707713706070023AAF1C60145130684
:1003C000260803D3460103D7860142073367670037
:1003D000718F6317C70019C123AAF1C60145828036
:1003E000FD170545F9FF511106C423AA01C60D37B3
:1003F00011E11545A240310182802111896702C4B3
:10040000938707713756004006CA02C002C2231400
:10041000A10023AAF1C68145130606408356860132
:10042000898AA9EA99C123AAF1C601453757004034
:1004300083570740B70603001307074093E70710E9
:100440002310F70085060356470183578701C2072B
:10045000D18FF58FE399D7FE19E10A85253FB7576C
:10046000004003D70740D240136707202390E7409E
:1004700061018280FD178545D5F323AA01C6493D58
:1004800055F5154565B71111896726C8938707711A
:100490003757004006CC22CA2AC02EC223AAF1C672
:1004A0001307074003568701098A41EE8357070067
:1004B000375600401306064093E707102310F70055
:1004C0003707030005078355460183578601C20796
:1004D000CD8FF98FE399E7FE138501C1653D8965ED
:1004E0002A840147938505713DE192476371F706C0
:1004F00009663753004023AAB1C68142130606712C
:1005000013030340035543011375050859C9638458
:10051000020023AAC1C6014582472EC63386E700E2
:10052000034306000507375600402318664013773B
:10053000F70F3AC409E5E93B2247B2455DD52A8465
:1005400039A0FD17A5F3E9332A8411E115440967A1
:100550001307077137550040B705070023AAE1C606
:100560000143130505409385450883524501035611
:1005700085014206336656006D8E6311B60463042E
:10058000030023AAE1C63757004083560740E240E4
:100590002285524493E606202310D740C2447101BD
:1005A00082807D16854239FE2EC63AC423AA01C632
:1005B00085332247B2452DF11545B9BF7D17054357
:1005C0004DF723AA01C6A9332A8455FD154465BFFA
:1005D0004111A300A10089450A8506C62300010038
:1005E0005D35B2401375F50F41018280B70700E019
:1005F0009387470F9C438280011122CC370400E08F
:100600001304440F184006CE26CA2AC01377070CDD
:100610009306000C630BD70002C8AE84E9E11C40CE
:1006200089C793F7070891E3D1378144F2406244C8
:100630002685D244056182803386E4409D45B2869A
:1006400063D3C5009D46B7051000850508401373A8
:100650000508631F030601C936C632C43AC279379A
:10066000B2462246124793253600014699E1138689
:10067000D6FF8247930537000808BE9536C43AC2B4
:100680006D26C24582471247370600E0A246130690
:10069000860F0CC20D45B385E700014683C20500F5
:1006A0000506930706013383270023005300638563
:1006B000C6008505E314A6FE13864600136606F8F9
:1006C0002308C1004246369710C0E34797F6B9BFEA
:1006D000FD15ADFD1C4093E7070C1CC0B9B70147E1
:1006E000EDB7511122C206C42E843937A2402285AB
:1006F00012443101828097010020938161D01381DF
:100700004140096513050588731005308D461705AE
:1007100000001305258F558D73105530138581C644
:100720009385011201466356B50010C11105E34ED1
:10073000B5FE17150000130525F8938541C017066F
:100740000020130666926388C500144194C1110508
:100750009105E39AC5FEB7F700E0154798C3856792
:10076000938767C373901734730020307325103458
:100770007134732500305934732530344134732576
:100780002034AD3CB70700E09387470F98431377B9
:1007900007086DFF0567130757A898C3B70700E060
:1007A0009387470F9843137707086DFF37B7AAAAB7
:1007B000130737A898C301A0371702401C47B70694
:1007C0008000D58F1CC7AA8703C7070001E73385C0
:1007D000A74082808507CDBF130141FAA2CAA6C8EF
:1007E00086CC2AC02EC23284B68402CA8347040053
:1007F00093061400A30FF10081EBE64056445245E6
:10080000C6441301C105828036C6130750026380B7
:10081000E7021246824785451305F1018297B246E9
:1008200026C43684D247A244AA973ECAC1B703471A
:1008300014001306000393060003A30FE10032C661
:10084000930724006312D7083E8481468147A5455B
:1008500011A8139727000504BA970347F4FF8607EA
:10086000B2978546130607FD1375F60FE3F3A5FE51
:1008700099C2A30FE1003EC8E14663D3F60036C833
:100880001306C00681466318C70003470400854667
:100890000504A30FE1000346F101130740066305B9
:1008A000E6066367C702930780056301F60A9307AC
:1008B0003006630EF60A31D212468247854513058B
:1008C000F101829726C4B9BF9306000236C6ADBFB8
:1008D00013075007630AE602130780076308E6065A
:1008E00013073007E31AE6FC3ECC938744008440AC
:1008F0003EC42685C93DE247AA856357F008C24633
:100900003246381826851DA0938744003EC49DC6F4
:100910001306B6F818109336160088400146A9450C
:10092000053AC24632463818AA850810EFF02FFF64
:100930001246AA85281882478297EDB5930750077B
:1009400018108546E30BF6FC8146C1BF88401306AC
:1009500086FA938744001810854613361600C14561
:100960003EC4FD30C2463246AA8538187DBF938703
:1009700044003EC49C40C2463246A30FF1003818E2
:1009800085451305F1015DB7124626856DB7130144
:10099000C1FD32CA2A862EC836CC814514081305FB
:1009A000206E06C63ACE3ED036C03D35B240130169
:1009B00041028280211106CA22C82AC02AC22EC43E
:1009C00085C12A848A8511E181451305C01B29351B
:1009D00001C4124582471D8DD2404244610182808C
:1009E0000144DDB7011132C82E86B705008036CA32
:1009F000FD15140806C63ACC3ECE36C0653FB2405F
:100A0000056182802A96AA876393C700828023802B
:100A1000B7008507D5BFAA8703C705002380E70075
:100A200011E3828085058507C5BF81476313F60002
:100A300082803387F500834607003307F50085077A
:100A40002300D700E5B7797122D4930700042E84E0
:100A50002E86AA851305110006D62300F100F13772
:100A6000930514000A850534B250225445618280F2
:100A7000511122C22A841305100206C426C0893EE1
:100A80000145B9361305F007A13613052002893652
:100A900022853D3E22852D3E65449384010883C70F
:100AA00004008DC7811793F7F70F1395270005678B
:100AB000AA971305C74B95453E95713785047D145C
:100AC00079FCA240124482443101828085679545B9
:100AD0001385C74B8D3FE5B7511106C422C226C00E
:100AE000AA84D5312A84AA852685393605658545A7
:100AF000130545421136A2401305140012448244E6
:100B000031018280B70700E09387470F984393062F
:100B1000000C1377070C6309D70451113707100035
:100B200022C206C42A840507944313F6060815E278
:100B300091C26D3C4167130707F093178400F98F4A
:100B4000370700E093E757081307470F1CC3054515
:100B500001A87D1771FB984301451367070C98C3E3
:100B6000A240124431018280014582803DC1930739
:100B7000F0072A86630FF504511126C08565938519
:100B800085421385010806C422C2A93D13850108C8
:100B9000A13703A401C21307140023A0E1C21374F8
:100BA000F40F9D476307F40013850108CD332945F1
:100BB000913F1305C003EFF05F8419E522851244CD
:100BC000A240824431016DB5A240124482443101F9
:100BD00082808280B7270240054798C3B71702403A
:100BE0003707080123A207001307170898C3370720
:100BF0009F0098C7371702401C4393966700E3DDB8
:100C000006FE5C43B7160240F19B93E727005CC3E6
:100C10002147DC42B18BE39EE7FEB70700E09387F4
:100C2000870F23A00700B70700E09387470F13073C
:100C3000000898C38280211126C606CA22C8593FDF
:100C4000B7F700E0316723A007001307F7B798CB89
:100C500023A4070023AE01C6984385661367770077
:100C600098C337E700E02320D7109847B7474900DB
:100C7000938707E03E97B7F600E09C46998FE3CE56
:100C800007FE371702401C4F45767D1693E7170382
:100C90001CCF5C4F93E717005CCFB7070140D443EC
:100CA000D4C3B7170140938707409443F18E94C390
:100CB00094432166D18E94C3D4473706F1FF7D1645
:100CC00093E64600D4C79443F18E94C39443370609
:100CD0000800D18E94C3D44793E60601D4C71C4BB9
:100CE00093E717001CCB1C4BF99B1CCBB7070040AC
:100CF00003D78700136737002394E70065777D17D4
:100D00002392E70203D7470113671700239AE700EE
:100D100003D70700136717002390E70003D74702A4
:100D200083D74702938741C083C6A700138741C07A
:100D3000854781C6914763F4D7002305F700B717AD
:100D40000240944BB70520003706E0FFCD8E94CBD0
:100D5000944B7D160564F18E94CBD44F3706C0FBBF
:100D60007516CD8ED4CF944F93E6160194CFB70766
:100D70000140D443F18ED4C3D4437D761306F60FDD
:100D8000D4C3B7170140944393F6F6F094C3944349
:100D900093E6060D94C39443F18E94C39443056681
:100DA000130606D0D18E94C3B756004083D7464071
:100DB0004166130606FCF18F93E787012392F64004
:100DC0001C4361671307076A93951700636AF70668
:100DD0003775DC02130505C0EFF00FAD7D14618D92
:100DE00042054181B7570040239EA74003D70740E3
:100DF000136717002390E740EFF08FD125C10565F9
:100E000013054543D139814701461307007D03A4EB
:100E1000C1C7B306F440E37CD7FE930716003EC07B
:100E2000856793850749138501086D3E1305C00347
:100E3000EFF0AFDC19E11D4525390246A287F1B775
:100E40003775DC02BE95130505C0EFF0EFA57D14E4
:100E5000618D42054181A1675D8D69B70565130507
:100E600085449D3901442285EFF02FD919E122856F
:100E7000F53905041374F40F9307F007E315F4FE36
:100E800005651305C54689391305C003EFF0EFD694
:100E90003DF98567238C01C69387876903C50700E1
:100EA0001307F00F631DE50213051002EFF04FF278
:100EB0000145EFF0EFF11305F007EFF06FF11305C7
:100EC0002002EFF0EFF00145EFF08FF01D45EFF05D
:100ED0002FF093050002138581C7B53639A0850729
:100EE0003EC0EFF0EFEE824755D913060040814532
:100EF000138501C8013E13051002EFF06FED0145A7
:100F0000EFF00FED1305F007EFF08FEC1305200263
:100F1000EFF00FEC0145EFF0AFEB1D45EFF04FEBBD
:100F20008147138701C801453E97930605029395B3
:100F30000601C181898D3A953EC436C23AC0213638
:100F400092460247A247368593060008E31FD5FC68
:100F50009387070813070040E395E7FC85659385B1
:100F6000454813850108453C0145193669BD5111B5
:100F70003EC0B7F700E03AC2984B36C4B1669386DC
:100F800006B8369798CB23A2070083A7C1C7A2460D
:100F9000850723AEF1C61247824731017300203026
:100FA00079713EC0B75700403AC203D74741938793
:100FB000074083D7870126CC06D69314070116D4A1
:100FC0001AD21ED022CE2ACA2EC832C636C4098BE7
:100FD000C18005C31387410F8546C207C183230023
:100FE000D700834617009D83858B2301D7002305F7
:100FF000F70293F7040495C79387410F03C70700CF
:1010000069C3375700401307074003570701238080
:101010000700A38407021377F70FA380E70023815B
:10102000E70093F70408A1C79387410F03C7A702FE
:1010300003C52700A3840702B757004093870740E2
:101040001384410F69CB034704016374E50E5844D0
:101050002A97034707001377F70F2398E7005C50A0
:1010600091C382978347240085072301F400C18838
:1010700095C8B757004003D70740C1669386F6DF8F
:10108000758F2390E7409387410F03C7A7024DC791
:10109000985309CB03C5170083C52700898D93F5A5
:1010A000F50F02977244B250A25212538253E24497
:1010B0005245C2453246A2461247824745617300F7
:1010C000203083C6A7020547A384E70203C7270091
:1010D00095C683C60701E376D7F483C68702B1F2CB
:1010E000B756004003D60641D447BA961376F60F9A
:1010F0002380C60005072381E70025B783C6870044
:10110000E371D7F283C6C70189FEB756004003D604
:101110000641D443D9BF03478400637CE5005840AF
:101120002A97034707001377F70F2398E7001C4C13
:1011300005BF2398070025BFD84BA1BF41113EC072
:10114000B757004036C483D647413AC232C61397D8
:10115000060193F60610418399CA83D6474141663A
:101160001306F6EFF18E93870740239AD700937703
:10117000072099CBB757004083D6474141661306F5
:10118000F6DFF18E239AD7401377074019CBB75774
:10119000004003D74741C1669386F6BF758F239AF7
:1011A000E7403246A2461247824741017300203091
:1011B0001301C1FD26CC06D022CE32C0AA846358CA
:1011C000C00A1307E00F2E84634AC70A9307F00F83
:1011D000918FBE851375F50F3EC297F0FF1FE78014
:1011E00060E482452ACA1375F40F97F0FF1FE78069
:1011F00060E392452AC813D584001375F50F97F064
:10120000FF1FE78020E282452AC61355840013752C
:10121000F50F97F0FF1FE780E0E092452AC413D551
:1012200004011375F50F97F0FF1FE780A0DF8245DB
:10123000AA84135504011375F50F97F0FF1FE7807B
:1012400060DE424352472246B246B387A4001A9753
:10125000B296130707089386060893870708218329
:1012600093F606F0A183558FC207B364F70082504E
:1012700072442685E244130141028280AE84C5BFD8
:101280001301C1FD22CE26CC83A401C703A7C1C68A
:1012900006D0AA872EC01303050363420706B7458D
:1012A0007F008D62938505049382F20F630BF30434
:1012B000634197063306F3403E8581453AC2EFF01D
:1012C0006FF48247124795CF639AE400B707024054
:1012D000945B93F6F6FD94DB23A401C6050715A0E5
:1012E0002390070023910700239207002393070010
:1012F000239407000507B107239F07FE79BFE31179
:10130000F3FE825023A6E1C67244E2441301410277
:10131000828003A6C1C1930317003297014663542C
:10132000E0001306F00F16851ECA3EC81AC62EC46A
:1013300016C2BD3D1357B50085679386C749798BA3
:101340003697C24703570700D24332432390E70042
:1013500013577500798B369703570700A2459242C1
:101360002391E70013573500798B36970357070011
:10137000B107239CE7FE1377F5000607369703575E
:101380000700239DE7FE13573501798B36970357E6
:1013900007003D8179893695239EE7FE03570500B6
:1013A000239FE7FE1E8719B71301C1FC3EC2B70792
:1013B00002409C4322D026CE06D816D61AD41ED27E
:1013C0002ACC2ECA32C836C63AC43EC037040240C0
:1013D0009304001044C0824793F7074089C78545AE
:1013E00013854109713D824793F7072089C78145DD
:1013F0001385410C71351C403EC0824793F707109E
:10140000F1FB0254C250B25222539253F24462454D
:10141000D2454246B2462247924713014103730028
:10142000203000000A0000004932433A203078257D
:10143000303258004661696C656420746F20696EB3
:1014400069742049324300002D2D2D2D5363616EA8
:101450006E696E67204932432042757320666F7251
:1014600020446576696365732D2D2D002D2D2D2D5E
:10147000446F6E65205363616E6E696E672D2D2D0E
:101480002D0A000048656C6C6F20426565210000E4
:10149000636F756E74657220256C750088888E8800
:1014A000E888EE88888E8E8EE88EEE8E88E88EE84C
:1014B000E8E8EEE888EE8EEEE8EEEEEE00000000E2
:1014C0000000005F00000007000700147F147F1475
:1014D000242A7F2A122313086462364955225000B9
:1014E00005030000001C2241000041221C00082AC4
:1014F0001C2A0808083E08080050300000080808A8
:101500000808006060000020100804023E514945B0
:101510003E00427F400042615149462141454B31E6
:101520001814127F1027454545393C4A4949300176
:10153000710905033649494936064949291E0036CD
:10154000360000005636000000081422411414141E
:10155000141441221408000201510906324979414C
:101560003E7E1111117E7F494949363E414141225B
:101570007F4141221C7F494949417F090901013EC0
:10158000414151327F0808087F00417F41002040DF
:10159000413F017F081422417F404040407F0204C8
:1015A000027F7F0408107F3E4141413E7F090909C7
:1015B000063E4151215E7F09192946464949493174
:1015C00001017F01013F4040403F1F2040201F7F1D
:1015D0002018207F63140814630304780403615106
:1015E00049454300007F4141020408102041417FEA
:1015F0000000040201020440404040400001020497
:101600000020545454787F4844443838444444209B
:10161000384444487F3854545418087E090102085D
:101620001454543C7F0804047800447D400020405A
:10163000443D00007F10284400417F40007C041896
:1016400004787C0804047838444444387C14141426
:1016500008081414187C7C080404084854545420C6
:10166000043F4440203C4040207C1C2040201C3C47
:101670004030403C44281028440C5050503C4464B6
:10168000544C44000836410000007F000000413601
:10169000080008082A1C0800AED580A83FD30040E7
:1016A0008D142000A1C8DA12818FD9F1DB40A4A6E5
:0416B000AFFF000088
:1016B400801A06000000000038000100A086010026
:1016C400000000003C00010042FFFFFF0100000099
:1016D400AA87014513F7150011C33E958581860736
:1016E400F5F9828051113AC2370702403EC05C438B
:1016F40036C48966D58F5CC3B7170140938707400A
:10170400D847A24613470704D8C712478247310176
:04171400730020300E
:00000001FF
