:100000006F00807100000000DE0700008E07000016
:1000100000000000000000000000000000000000E0
:1000200000000000000000000000000000000000D0
:10003000BA120000000000008E070000000000005F
:100040008E0700008E0700008E0700008E0700005C
:100050008E0700008E0700008E0700008E0700004C
:1000600040120000540000208E0700008E070000A0
:100070008E0700008E070000EC1200008C140000B8
:100080008E0700008E0700008E0700008E0700001C
:100090008E0700008E0700008E07000000000000A1
:1000A000634E050263C305042E86AA857D5515C2DD
:1000B00085466378B6006356C00006068606E36C84
:1000C000B6FE014563E4C500918D558D858205829C
:1000D000F5FA82808682C93F2E8582823305A04050
:1000E0006347B000B305B040C1B7B305B0408682E6
:1000F000653F3305A0408282868263C7050063495D
:1001000005005D372E858282B305B040E35B05FEB6
:100110003305A040513F3305B040828200003111C9
:1001200026C406C822C6AE84AA87B2850143B5CAD2
:1001300063D49600B6840543338496406353040029
:10014000014422863A853EC21AC0EF00D00E024317
:1001500092472A87B30685000146B385C4406344AD
:10016000B00463D304008144338696003305E6402F
:10017000630403026372C7029307A002A30FF6FE93
:100180009306F6FF637AD700230FF6FE9306E6FF89
:100190006374D700A30EF6FEC2403244A24451015C
:1001A0008280A68651BFB385C70003C50500B3850D
:1001B000C60005062380A5004DB72A832E8501CEF3
:1001C0008322060001475C426348A70023800700A2
:1001D000484233055540828014469385F6FF144209
:1001E000AE96E385D7FE9386170054C2B306E300AC
:1001F00083C6060005072380D700F1B7370700E064
:100200008327470F9306470F93F70708F5FBB72798
:100210003078938787089CC27147370600E02543F2
:10022000F1558327460F93F70708E5FFB357E5001D
:1002300093F6F700930700036354D3009307700508
:10024000B697A20793E75708232AF60E7117E31A09
:10025000B7FC8280011106CE22CC26CA02C02A83B6
:100260006357050089E685473303A0403EC0130469
:10027000100619C213041004BA8459141A853AC816
:100280001AC22EC61AC4B935A5472243B245424701
:100290009376F50F63E1A7069386060393F6F60FB0
:1002A000938714002380D4001A853AC83EC62EC412
:1002B000E53B9246A245B24742472A8363FBB6021A
:1002C000824699C69306D0022380D70093872400E4
:1002D0003385E7409356F501AA962380070085866B
:1002E0000146FD17634BD600F2406244D2440561DB
:1002F0008280BE8461B7A29655B7B305C70083C29A
:10030000070003C30500050623805500238067000E
:10031000C9BFB757004003D74741938707401377BA
:10032000071009CF03D747010545420741831377DB
:10033000F7EF42074183239AE700828003D7470102
:100340001377074009CF03D7470109454207418387
:100350001377F7BF42074183239AE700828003D7D0
:1003600047011377072009CF03D747010D454207FF
:1003700041831377F7DF42074183239AE7008280A6
:1003800003D7470101452D83058B01CF03D74701D3
:10039000FD769386F67F42074183758F239AE700A7
:1003A000114582805C41B1E7835785003757004093
:1003B000860793F7E70F2318F7408967938707713C
:1003C0003706070023AAF1C80145938641C9375370
:1003D00000401306260803574341931507010357AE
:1003E0008341C18142074D8F718F6316C70011C1D0
:1003F0009CC201458280FD170545F1FF511106C4DD
:1004000023A00600393711E11545A2403101828051
:100410002111896702C49387077123AAF1C806CA0C
:1004200002C002C22314A1000146138741C9B75577
:10043000004083D68541898A89E611C21CC30145E3
:1004400009A8FD170546F5F723200700D93511E166
:1004500015453757004083570740B7550040C2073E
:10046000C18393E707102310F74037070300050700
:1004700083D745419396070183D78541C182C2073F
:10048000D58FF98FE396E7FE19E10A85213F3757AB
:10049000004083570740D240C207C18393E707203B
:1004A0002310F740610182808967211193870771CA
:1004B00026C62EC206CA22C82AC023AAF1C80146EF
:1004C000938441C9B755004083D68541898ABDE6EA
:1004D00011C29CC0B756004083D70640B7550040B4
:1004E000C207C18393E707102390F640B7060300C5
:1004F000850683D745411396070183D785414182FD
:10050000C207D18FF58FE396D7FE138501C1593D00
:100510002A8401461DE992476379F602896693862B
:10052000067194C00145375300408355434193F50C
:100530000508B9C511C194C00145A9A8FD17054614
:10054000C1F7C13B2A8411E115448966938606717F
:10055000B705070094C00143B75200409385450892
:1005600003D642411315060103D68241418142065A
:10057000498E6D8E6313B604630A030494C0B9A058
:10058000FD160545DDF232C423A00400593322468E
:1005900011E115458247B386C70083C506000506ED
:1005A000B75600402398B6401376F60F32C401E5E3
:1005B0008D3322462DD12A8449BFFD160543CDF245
:1005C00023A00400B9332A8411E11544B756004032
:1005D00003D70640D2402285420742444183136735
:1005E00007202390E640B244610182804111A300BC
:1005F000A10089450A8506C6230001007535B24071
:100600001375F50F41018280B70700E083A7470FFC
:100610008280370700E08327470F111106CC22CADA
:1006200026C82AC093F7070C9306000C6388D70CE2
:1006300002C62E84F1E58327470F89C793F7070881
:1006400091E3D937E24022855244C244710182804D
:10065000B30594409D462E8763D3B6001D47B70669
:1006600010008506370500E00326450F1303450FEC
:1006700093720608639C020611C63AC42EC26937FB
:10068000224792458946014663D4B6001306D7FF38
:100690008247938534006800BE953AC2C12632462F
:1006A00082471247B70600E023ACC60E8D4533865D
:1006B000970081460343060085067C003385D700FA
:1006C000230065006305D7000506E395B6FE930693
:1006D000470093E606F82306D1003246B70600E04D
:1006E000BA9423AAC60EE3C584F6A9BFFD16ADFED3
:1006F0008327030093E7070C2320F300014499B7F5
:100700008144D5B7511122C206C42E841937A240A4
:10071000228512443101828097010020938141CECD
:1007200013814140096513050588731005308D4616
:10073000170500001305058D558D73105530138571
:1007400081C89385011401466356B50010C1110597
:10075000E34EB5FE1715000013054509938541C00A
:1007600017060020130646926388C500144194C101
:1007700011059105E39AC5FEB7F700E0154798C348
:1007800085679387E7BD7390173473002030732516
:100790001034AD3473250030953473253034B93CB2
:1007A00073252034A13C370700E08327470F9306C9
:1007B000470F93F70708F5FB8567938757A89CC2F7
:1007C000370700E08327470F9306470F93F7070883
:1007D000F5FBB7B7AAAA938737A89CC201A0371721
:1007E00002401C47B7068000D58F1CC7AA8703C7E5
:1007F000070001E73385A74082808507CDBF13013D
:1008000041FAA6C886CCA2CA2AC02EC2B284B68734
:1008100002C803C7040013841400A30FE10001EB16
:10082000E64056444245C6441301C1058280930602
:100830005002630FD7003EC4124682478545130518
:10084000F1018297A284C247AA973EC8A247D1B7B6
:1008500083C614001306000313872400A30FD100DE
:10086000130400036390C608BA8401460147254576
:1008700011A8931627008504369783C6F4FF060750
:100880002E970546938506FD13F3F50FE37365FE7A
:1008900019C2A30FD1003AC661466353E60032C6BF
:1008A0009305C00601466398B60083C6040005465A
:1008B0008504A30FD1008346F101930540066383AD
:1008C000B60663E4D502130780056381E60A1307C1
:1008D0003006638EE60AA9D612463EC48545130546
:1008E000F10185A81304000241B793055007638BFB
:1008F000B60213068007638BC60613063007E39D16
:10090000C6FC3ACC138747009C433AC43E853ECA96
:10091000F13D6247D247AA8541CBB24638182286BC
:100920003E851DA0138747003AC41DC69386B6F8BE
:10093000181093B6160088430146A945213AB246DD
:1009400038182286AA850810EFF06FFD1246AA8596
:10095000281882478297C5BD130750076395E600A4
:1009600018108546C9BF18108146F1B78843138710
:100970004700138686FA3AC48546181013361600C7
:10098000C145C938B246AA85381822866DBF13877B
:1009900047009C433AC4B246A30FF10038182286A0
:1009A00085451305F1014DB712463E855DB713012C
:1009B000C1FD32CA2A862EC836CC814514081305DB
:1009C000407006C63ACE3ED036C0153DB240130147
:1009D00041028280056513058550D1BF0565130569
:1009E0008551F1B7211106CA22C82AC02AC22EC4D5
:1009F00085C12A848A8511E181451305A01B013533
:100A000001C4124582471D8DD2404244610182805B
:100A10000144DDB7011132C82E86B705008036CA01
:100A200093C5F5FF140806C63ACC3ECE36C05D3FEE
:100A3000B240056182802A96AA876393C7008280AC
:100A40002380B7008507D5BFAA8703C70500238089
:100A5000E70011E3828085058507C5BF81476313E1
:100A6000F60082803387F500834607003307F500E0
:100A700085072300D700E5B7797122D493070004D6
:100A80002E842E86AA851305110006D62300F100B8
:100A9000F137930514000A85013CB2502254456198
:100AA0008280511122C22A841305100206C426C076
:100AB000353E0145253E1305F0070D3E1305200286
:100AC0003536228525362285153665449384C11234
:100AD00083C704008DC7811793F7F70F05679396B7
:100AE00027001305075DB69795453E957137850438
:100AF0007D1479FCA24012448244310182808567D2
:100B000095451385075D8D3FE5B7511106C422C297
:100B100026C0AA84E1392A84AA852685DD3C05659C
:100B200085451305C552F534A2401305140012443F
:100B300082443101828039C59307F0072A86630316
:100B4000F504511122C28565938505531385C112A1
:100B500006C4C9351385C1124D3F9387C1C3804375
:100B60001305C0031307140098C3EFF07F8A19E53B
:100B70001375F40F1244A240310125B7A24012446C
:100B8000310182808280B7270240054798C3B7179A
:100B900002403707080123A207001307170898C36C
:100BA00037079F0098C7B7060002371702401C435B
:100BB000F58FF5DF5C43B7160240F19B93E7270002
:100BC0005CC32147DC42B18BE39EE7FEB70700E040
:100BD00023AC070E1307000823AAE70E8280111129
:100BE00022CA06CC26C84537B7F700E0316723A0F4
:100BF00007001307F7B798CB23A407001387C1C9D1
:100C000023200700984385661384C1C913677700C2
:100C100098C337E700E02320D710B7160240984E5C
:100C20001367570398CE9847B7474900938707E063
:100C30003E97B7F600E09C46998FE3CE07FE371744
:100C400001408327074093060740C19B93E7870035
:100C50002320F74085479CCA184004403AC01387B8
:100C600041C00347A700938641C001E72385F600F2
:100C700021A09147E3ECE7FEB7170240904B370500
:100C80002000B705E0FF498E90CB904BFD156D8E8F
:100C900090CBD84F3706C0FB7516498FD8CF984FE9
:100CA0001367170198CFB7070140D843718FD8C396
:100CB000D8437D761306F60FD8C3B7170140984383
:100CC0001377F7F098C398431367070D98C39843B9
:100CD000718F98C390430567930507D04D8E90C3DD
:100CE0003756004083574640C207C18393F707FC3D
:100CF00093E787012312F6409C42E1669386066AD9
:100D00009395170063E9F6163775DC02130505C0E5
:100D1000EFF08FB905677D17798D4205418137570F
:100D20000040231EA74083570740C207C18393E7B3
:100D300017002310F740EFF0CFDD630D05140565B4
:100D40001305C553D9339387011005472390E70056
:100D50001387C1C1D8C305671307479DD8CB056763
:100D6000130600021307C79D23A607002388070068
:100D7000238E070098CF238107002384C70023A078
:100D8000070223A2070223840702B7170240D44FA9
:100D9000B7052000CD8ED4CF984BB706E0FFFD16E7
:100DA0004D8F98CB984BA165758F98CBB757004066
:100DB00083D60740C206C182CD8E2390D74083D60A
:100DC0000740B7050040C606C5822390D74083D6AA
:100DD0004740C206C18293E686012392D74083D65C
:100DE0004740C206C18293E606702392D740B7E619
:100DF00000E023A0B610238FC640B705008023A0D3
:100E0000B610A38FC640E176C106239ED740930655
:100E1000E00E2394D7402396074003D707404207AC
:100E20004183136717002390E74003D70740420729
:100E30004183136707402390E74002C20D471C40DF
:100E40001C400246B7160140938606409446B3857F
:100E5000C7404D466375B61E0946858A630CC71C9C
:100E60000D466308C716631F0718638C06161C40DF
:100E700036870440ADA23775DC02BE95130505C068
:100E8000EFF08FA205677D17798D42054181A1673B
:100E90005D8D71B51305C003EFF08FD76312050E9A
:100EA0008567238C01C89387C77C3AC203C50700B6
:100EB0001307F00F631EE50213051002EFF00FF3A6
:100EC0000145EFF0AFF21305F007EFF02FF2130535
:100ED0002002EFF0AFF10145EFF04FF11D45EFF0CB
:100EE000EFF0924793050002138581C9713639A04E
:100EF00085073EC4EFF08FEFA2474DD9130600409F
:100F0000138501D08145053E13051002EFF00FEE69
:100F10000145EFF0AFED1305F007EFF02FED1305EE
:100F20002002EFF0AFEC0145EFF04FEC1D45EFF084
:100F3000EFEB81473A86138701D001453E97930630
:100F4000050293950601C181898D3A953EC636C446
:100F50003AC21D36A2461247B247368593060008AC
:100F6000E31FD5FC9387070813070040E395E7FCD0
:100F70008565938505551385C112F93401451536EC
:100F800005651305C555513681473E853EC2EFF0D4
:100F90002FC8924701E53E85793E9247850793F732
:100FA000F70F1307F007E392E7FE056513050558F1
:100FB000A93E85650146938585591385C112993CE3
:100FC0001305C003EFF0CFC4E31F05D61D45D13C88
:100FD0009DBB91E6184004403EC2BA8701473EC01F
:100FE000B9BD92463386D7408566938606FAE3F804
:100FF000C6FE05651305455A3EC43AC03936024758
:10100000A247F1BF3386974089EA1307F009636668
:10101000C7001C4009470440D9B79306000A05479A
:10102000E3FFC6FA05651305055BC5341C400D4793
:10103000044075B7CDD685671385075CFDB7824739
:1010400079BF1301C1FD22CE06D026CC2A84635F6E
:10105000C00A9307E00FAE8463C1C70C9302F00F80
:10106000B382C24096851375F50F16C232C097F051
:10107000FF1FE78020FD02462ACA13F5F40FB28550
:1010800097F0FF1FE78000FC92422AC813558400A6
:1010900096851375F50F16C697F0FF1FE78080FA47
:1010A00002462AC413D58400B2851375F50F32C2E7
:1010B00097F0FF1FE78000F9B2422AC013550401E0
:1010C00096851375F50F97F0FF1FE780A0F712467E
:1010D0002A8413D50401B2851375F50F97F0FF1F0D
:1010E000E78040F64243D247824622479A972A94A5
:1010F0003697938707081307070813040408A1838A
:10110000137707F02180D98F42045D8C82502285AD
:101110007244E2441301410282802E84C5BF111142
:1011200026C883A401C91387C1C818431386C1C840
:1011300022CA06CCAA872E849306050332C0634ACE
:101140000704638AF604634F97043386F6408145AB
:101150003E853AC2EFF03F8E124715CC639AE40009
:10116000B70602409C5A93F7F7FD9CDA23A401C806
:10117000050715A02390070023910700239207007D
:1011800023930700239407000507B107239F07FE59
:101190007DB7E391F6FE8247E240524498C3C244D1
:1011A00071018280138601C41042930217003297A6
:1011B0001306F00F6343E0000146B7457F000D655D
:1011C000938505041305F50F16C63EC436C2953D3A
:1011D0001356B50005671307C77A798A3A96A2476E
:1011E00003560600B24292462390C700135675007C
:1011F000798A3A9603560600B107239BC7FE135619
:101200003500798A3A9603560600239CC7FE13766A
:10121000F50006063A9603560600239DC7FE1356B0
:1012200035013D81798A79893A963A9503570500C7
:1012300003560600239FE7FE239EC7FE168711B7BD
:101240001301C1FC3EC2B70702409C4322D026CE08
:1012500006D816D61AD41ED22ACC2ECA32C836C602
:101260003AC43EC0370402409304001044C0824791
:1012700093F7074089C78545138501CA4D358247D5
:1012800093F7072089C78145138501CD493D1C404F
:101290003EC0824793F70710F1FB0254C250B2528E
:1012A00022539253F2446245D2454246B246224707
:1012B0009247130141037300203051113EC0B7F72C
:1012C00000E03AC2984B36C4B166938606B83697AA
:1012D00098CB23A207009387C1C99843A24605076C
:1012E00098C31247824731017300203079713EC0A4
:1012F000B75700403AC203D747419387074083D787
:10130000870126CC06D69314070116D41AD21ED014
:1013100022CE2ACA2EC832C636C4098BC18005C364
:10132000138701108546C207C1832300D700834677
:1013300017009D83858B2301D7002305F70293F7C0
:10134000040495C79387011003C7070079C3375773
:101350000040130707400357070123800700A384B9
:1013600007021377F70FA380E7002381E70093F7C5
:101370000408A1C79387011003C7A70203C527006C
:10138000A3840702B75700409387074013840110D6
:1013900079CB034704016376E50E58442A97034747
:1013A00007001377F70F2398E7005C5091C38297EB
:1013B0008347240085072301F400C18885CC375773
:1013C000004083570740C207C18393F7F7DFC20786
:1013D000C1832310F7409387011003C7A7024DC7AD
:1013E000985309CB03C5170083C52700898D93F552
:1013F000F50F02977244B250A25212538253E24444
:101400005245C2453246A2461247824745617300A3
:10141000203083C6A7020547A384E70203C727003D
:1014200095C683C60701E374D7F483C68702A1F289
:10143000B756004003D60641D447BA961376F60F46
:101440002380C60005072381E70015B783C6870000
:10145000E37FD7F083C6C70199FAB756004003D699
:101460000641D443D9BF03478400637CE50058405C
:101470002A97034707001377F70F2398E7001C4CC0
:1014800035B72398070015BFD84BA1BF51113AC2F9
:10149000375700403EC08357474136C493960701F3
:1014A00093F70710C18289CF83574741130707403D
:1014B000C207C18393F7F7EFC207C183231AF7006E
:1014C00093F7062089CF3757004083574741C2071B
:1014D000C18393F7F7DFC207C183231AF74093F65E
:1014E000064089CE3757004083574741C207C18322
:1014F00093F7F7BFC207C183231AF740A2461247EA
:101500008247310173002030494D205752495445DC
:10151000454E20544F0A0D00494D20524541444547
:101520004E2046524F4D2E0A0D0000000A000000CA
:101530004932433A20307825303258004661696C90
:10154000656420746F20696E69742049324300001D
:1015500048656C6C6F204265652100002D2D2D2D96
:101560005363616E6E696E67204932432042757322
:1015700020666F7220446576696365732D2D2D009A
:101580002D2D2D2D446F6E65205363616E6E696E37
:10159000672D2D2D2D0A0000636F756E7465722006
:1015A000256C75004C6F6E67205072657373000078
:1015B00053696E676C6520436C69636B00000000C3
:1015C000446F75626C6520436C69636B00000000BA
:1015D000000000000000005F00000007000700148A
:1015E0007F147F14242A7F2A122313086462364949
:1015F0005522500005030000001C2241000041223A
:101600001C00082A1C2A0808083E08080050300060
:1016100000080808080800606000002010080402A4
:101620003E5149453E00427F4000426151494621BA
:1016300041454B311814127F1027454545393C4A26
:101640004949300171090503364949493606494976
:10165000291E00363600000056360000000814220D
:1016600041141414141441221408000201510906F3
:10167000324979413E7E1111117E7F494949363EFA
:10168000414141227F4141221C7F494949417F0913
:101690000901013E414151327F0808087F00417F26
:1016A00041002040413F017F081422417F404040DB
:1016B000407F0204027F7F0408107F3E4141413E8B
:1016C0007F090909063E4151215E7F0919294646D5
:1016D0004949493101017F01013F4040403F1F20FE
:1016E00040201F7F2018207F6314081463030478B0
:1016F0000403615149454300007F41410204081041
:101700002041417F0000040201020440404040406B
:10171000000102040020545454787F48444438386F
:1017200044444420384444487F3854545418087E74
:10173000090102081454543C7F0804047800447DD5
:1017400040002040443D00007F10284400417F407D
:10175000007C041804787C08040478384444443835
:101760007C14141408081414187C7C080404084819
:1017700054545420043F4440203C4040207C1C20D2
:1017800040201C3C4030403C44281028440C505021
:10179000503C4464544C44000836410000007F0033
:1017A00000004136080008082A1C080088888E8836
:1017B000E888EE88888E8E8EE88EEE8E88E88EE839
:1017C000E8E8EEE888EE8EEEE8EEEEEEAED580A824
:1017D0003FD300408D142000A1C8DA12818FD9F1C7
:0817E000DB40A4A6AFFF0000EE
:1017E800801A06000000000038000100A0860100F1
:1017F800000000003C000100AA00000000000000FA
:1018080000000000000000000000000000000000D0
:1018180000000000000000000100000042FFFFFF80
:10182800AA87014513F7150011C33E9585818607E0
:10183800F5F9828051113AC2370702403EC05C4335
:1018480036C48966D58F5CC3B717014093870740B4
:10185800D847A24613470704D8C712478247310121
:0418680073002030B9
:00000001FF
