:100000006F00D048000000005A0D0000020D0000F3
:1000100000000000000000000000000000000000E0
:1000200000000000000000000000000000000000D0
:10003000E620000000000000020D000000000000AB
:10004000020D0000020D0000020D0000020D000074
:10005000020D0000020D0000020D0000020D000064
:100060006C2000005C000020020D0000020D00006A
:10007000020D0000020D000018210000B82200004F
:10008000020D0000020D0000020D0000020D000034
:10009000020D0000020D0000020D00000000000033
:1000A000634E050263C305042E86AA857D5515C2DD
:1000B00085466378B6006356C00006068606E36C84
:1000C000B6FE014563E4C500918D558D858205829C
:1000D000F5FA82808682C93F2E8582823305A04050
:1000E0006347B000B305B040C1B7B305B0408682E6
:1000F000653F3305A0408282868263C7050063495D
:1001000005005D372E858282B305B040E35B05FEB6
:100110003305A040513F3305B040828200003111C9
:1001200026C406C822C6AE84AA87B2850143B5CAD2
:1001300063D49600B6840543338496406353040029
:10014000014422863A853EC21AC0EF00F06602439F
:1001500092472A87B30685000146B385C4406344AD
:10016000B00463D304008144338696003305E6402F
:10017000630403026372C7029307A002A30FF6FE93
:100180009306F6FF637AD700230FF6FE9306E6FF89
:100190006374D700A30EF6FEC2403244A24451015C
:1001A0008280A68651BFB385C70003C50500B3850D
:1001B000C60005062380A5004DB72A832E8501CEF3
:1001C0008322060001475C426348A70023800700A2
:1001D000484233055540828014469385F6FF144209
:1001E000AE96E385D7FE9386170054C2B306E300AC
:1001F00083C6060005072380D700F1B7370700E064
:100200008327470F9306470F93F70708F5FBB72798
:100210003078938787089CC27147370600E02543F2
:10022000F1558327460F93F70708E5FFB357E5001D
:1002300093F6F700930700036354D3009307700508
:10024000B697A20793E75708232AF60E7117E31A09
:10025000B7FC8280B7F700E09C4737F700E03E9597
:100260001C47898FE3CE07FE8280011106CE22CC87
:1002700026CA02C02A836357050089E685473303EF
:10028000A0403EC01304100619C213041004BA841F
:1002900059141A853AC81AC22EC61AC4253DA54754
:1002A0002243B24542479376F50F63E1A706938652
:1002B000060393F6F60F938714002380D4001A8563
:1002C0003AC83EC62EC4CD339246A245B2474247F5
:1002D0002A8363FBB602824699C69306D002238026
:1002E000D700938724003385E7409356F501AA96FB
:1002F0002380070085860146FD17634BD600F24038
:100300006244D24405618280BE8461B7A29655B72B
:10031000B305C70083C2070003C305000506238099
:10032000550023806700C9BFB73701402396A70057
:100330003737014083578700898BEDDF828083C781
:1003400001C9B71601409386068013D747002A07D4
:10035000BD8B3697C1078546B397F6001CCBE9B72E
:1003600003C701C9B716014093860680935747001B
:10037000AA07B6973D8B85463397E60098CB8280D7
:10038000511106C422C22A84E13F13558400693FFB
:100390001375F40F1244A240310179B731112AC20A
:1003A0001305A00206C822C626C43684AE8432C015
:1003B000793792473E85E93702463285D1371305B2
:1003C000B002B53F26856D3F22855D3F3244C24075
:1003D000A2441305C00251019DB751110505E9055D
:1003E00022C2939605013284131605014182C1820F
:1003F0003285B68506C45D3722851244A24031019C
:1004000041B7411122C426C22AC0AE84328406C636
:10041000813F0245B7070240B7060240C8DFC4DB90
:10042000985B130600201367170098DBC167FD1760
:100430007D1442044180631CF400370702401C5BBA
:10044000B2402244F99B1CDB924441018280D0C21D
:100450009842137707206DDFE1BF311122C606C82D
:1004600026C42A848347040091E7C2403244A24450
:100470005101828013972700BA9705043EC00143BB
:100480008146138581E5FD538547B39767003EC2DA
:10049000368681458242896093800068AE9286925A
:1004A00083C2020092409307160032870906C207F2
:1004B0004206B3F21200C18341822A976381020689
:1004C00023007700AA972380770085059547E3935B
:1004D000F5FCA906C206C182930760040503E395F3
:1004E000F6FA138701CA8357070083D521CA1386FA
:1004F000470093866500C20642063E85C18241825E
:100500003EC0693D054693056004138581E5D53DF0
:100510008247138701CA99072310F700A1B7230068
:100520000700AA97238007004DB70505E90551117B
:100530004205C20522C226C006C4B6843284418167
:10054000C18193528700138381D181463686850607
:10055000C20623005300A300E300C1820903E3178E
:10056000D4FE9386F4FFAE962A96C20642064182D6
:10057000C1822D35931514001244A2402686824470
:10058000C205C181138581D13101A5BD511122C29E
:10059000E90532841306150026C04206C20506C4CA
:1005A0004182C18113D58600138781D1814763C8F9
:1005B00087029306F4FFAE96C206C1823285F93BEC
:1005C000A2856353040081451244A2408605138529
:1005D00081D18244C205C181054631011DB585071F
:1005E000C2072300A700A300D700C1870907C1B72E
:1005F0005111E905050522C226C03284420536861E
:100600009396050106C44181C182935586001387E4
:1006100081D1814763C887021306F4FF2A964206F8
:10062000B6854182A53BA2856353040081451244EF
:10063000A2408605138581D18244C205C181054649
:100640003101C1B38507C2072300B700A300C7006B
:10065000C1870907C1B7B2822A833686BA86631D6D
:1006600055006355B600AE87B2853E8605060D8EF1
:10067000420641861A8519BF639EC50063D4A20055
:100680001683AA821386120033066640420641860C
:100690001A85B9BF130141FC06DC22DA26D83E8553
:1006A000B387C54063D4C500B307B640635753064C
:1006B00033876240634DF706AE839A851E83B3830A
:1006C000B24013940301418022C6C20313140301F4
:1006D0009314060193D303414180C1806355C3063F
:1006E000338484404204418422C2054422C493D30B
:1006F00013406344C3007D5632C41356150032C004
:100700003306C0404206418632C863D0B204E2508C
:100710005254C2541301C1038280330753406348CB
:10072000F700B28316869E82AE839A851E83635835
:10073000B600AE83B2851A8616839E8249B7968329
:10074000B2821E86ADBF058C71BFC24413940501F1
:10075000418013160301C2044182C1803305960013
:1007600032CA420516D61AD41ED23ED03ACE36CC64
:1007700041813686635DF704A2858531E246724782
:10078000825792532253B25285040246C204C18456
:10079000E35196FC1246B383C34013960301C20390
:1007A00093D30341418263DF0300B245B383C500A5
:1007B0005246A245C20393D303413303B60042031A
:1007C00013530341050493150401C1853DBFAA8558
:1007D00022852131B2522253925382577247E24608
:1007E00065B71301C1FD22CE1394050126CCB28753
:1007F0004184AA844206420536C04185BA862ECA83
:100800004186A28506D03AC23EC832C62AC4CD333C
:100810008247524392469385F7FF324622459A9586
:10082000C205C185F1330316010092462245A28517
:1008300032C0A93BC247A28572441385F7FF924696
:10084000024682502695E244420541851301410249
:1008500035BB03A5C1C3A1461387C1C313565501B8
:100860009357F501B18FA98F13561500B18F858B62
:1008700006055D8D9387F6FF93F6F70FE5F208C343
:100880001375F50F8280B757004003D74741938710
:1008900007401377071009CF03D7470105454207E3
:1008A00041831377F7EF42074183239AE700828061
:1008B00003D747011377074009CF03D747010945FD
:1008C000420741831377F7BF42074183239AE7002A
:1008D000828003D747011377072009CF03D7470149
:1008E0000D45420741831377F7DF42074183239A7F
:1008F000E700828003D7470101452D83058B01CF97
:1009000003D74701FD769386F67F42074183758FB3
:10091000239AE700114582805C41B1E78357850047
:1009200037570040860793F7E70F2318F74089678A
:10093000938707713706070023A2F1CA0145938602
:1009400041CA375300401306260803574341931505
:10095000070103578341C18142074D8F718F631691
:10096000C70011C19CC201458280FD170545F1FFFA
:10097000511106C423A00600393711E11545A240E4
:10098000310182802111896702C49387077123A2F4
:10099000F1CA06CA02C002C22314A100014613878D
:1009A00041CAB755004083D68541898A89E611C27C
:1009B0001CC3014509A8FD170546F5F723200700CC
:1009C000D93511E115453757004083570740B755D2
:1009D0000040C207C18393E707102310F740370791
:1009E0000300050783D745419396070183D78541C7
:1009F000C182C207D58FF98FE396E7FE19E10A8518
:100A0000213F3757004083570740D240C207C18378
:100A100093E707202310F740610182808967211145
:100A20009387077126C62EC206CA22C82AC023A2EF
:100A3000F1CA0146938441CAB755004083D6854127
:100A4000898ABDE611C29CC0B756004083D70640D4
:100A5000B7550040C207C18393E707102390F640C3
:100A6000B7060300850683D745411396070183D750
:100A700085414182C207D18FF58FE396D7FE13855A
:100A800001C1593D2A8401461DE992476379F60266
:100A900089669386067194C001453753004083559B
:100AA000434193F50508B9C511C194C00145A9A8F2
:100AB000FD170546C1F7C13B2A8411E1154489663B
:100AC00093860671B705070094C00143B7520040F2
:100AD0009385450803D642411315060103D682418A
:100AE00041814206498E6D8E6313B604630A030486
:100AF00094C0B9A0FD160545DDF232C423A0040060
:100B00005933224611E115458247B386C70083C594
:100B100006000506B75600402398B6401376F60F38
:100B200032C401E58D3322462DD12A8449BFFD16FA
:100B30000543CDF223A00400B9332A8411E1154402
:100B4000B756004003D70640D240228542074244B0
:100B50004183136707202390E640B24461018280FD
:100B60004111A300A10089450A8506C623000100A2
:100B70007535B2401375F50F41018280B70700E06B
:100B800083A7470F8280370700E08327470F1111A3
:100B900006CC22CA26C82AC093F7070C9306000C7D
:100BA0006388D70C02C62E84F1E58327470F89C7D7
:100BB00093F7070891E3D937E24022855244C244B3
:100BC00071018280B30594409D462E8763D3B600A1
:100BD0001D47B70610008506370500E00326450FC0
:100BE0001303450F93720608639C020611C63AC4AC
:100BF0002EC26937224792458946014663D4B60022
:100C00001306D7FF8247938534006800BE953AC229
:100C1000F926324682471247B70600E023ACC60EDB
:100C20008D453386970081460343060085067C0088
:100C30003385D700230065006305D7000506E395DB
:100C4000B6FE9306470093E606F82306D100324627
:100C5000B70600E0BA9423AAC60EE3C584F6A9BF7E
:100C6000FD16ADFE8327030093E7070C2320F30056
:100C7000014499B78144D5B7511122C206C42E84CC
:100C80001937A240228512443101828097F1FF1F5B
:100C9000938101771381414009651305058873101D
:100CA00005308D4617F5FFFF1305C535558D7310BB
:100CB0005530138501C99385413E01466356B50001
:100CC00010C11105E34EB5FE17250000130545EDD3
:100CD000938541C017F6FF1F1306863B6388C50046
:100CE000144194C111059105E39AC5FEB7F700E0E0
:100CF000154798C385679387A718739017347300B7
:100D0000203073251034EFF06FCF73250030EFF0F3
:100D1000EFCE73253034EFF06FCE73252034EFF033
:100D2000EFCD370700E08327470F9306470F93F770
:100D30000708F5FB8567938757A89CC2370700E033
:100D40008327470F9306470F93F70708F5FBB7B7BD
:100D5000AAAA938737A89CC201A0371702401C4754
:100D6000B7068000D58F1CC7AA8703C7070001E715
:100D70003385A74082808507CDBF130141FAA6C8FD
:100D800086CCA2CA2AC02EC2B284B68702C803C7C4
:100D9000040013841400A30FE10001EBE640564465
:100DA0004245C6441301C105828093065002630F79
:100DB000D7003EC41246824785451305F10182974C
:100DC000A284C247AA973EC8A247D1B783C61400DF
:100DD0001306000313872400A30FD100130400039C
:100DE0006390C608BA8401460147254511A89316A9
:100DF00027008504369783C6F4FF06072E9705461D
:100E0000938506FD13F3F50FE37365FE19C2A30F77
:100E1000D1003AC661466353E60032C69305C00668
:100E200001466398B60083C6040005468504A30FF7
:100E3000D1008346F101930540066383B60663E45F
:100E4000D502130780056382E60A13073006638024
:100E5000E60CA9D612463EC485451305F1018DA8BE
:100E60001304000241B793055007638BB6021306C3
:100E70008007638CC60613063007E39DC6FC3ACC98
:100E8000138747009C433AC43E853ECAF13D624702
:100E9000D247AA8551CBB246381822863E8525A076
:100EA000138747003AC405CA9386B6F8181093B65C
:100EB000160088430146A945EFF02FBBB24638180B
:100EC0002286AA850810EFF08FA51246AA85281859
:100ED00082478297FDB5130750076395E600181007
:100EE0008546C1BF18108146E9B78843138747007C
:100EF000138686FA3AC48546181013361600C14583
:100F0000EFF0AFB6B246AA853818228665BF1387C0
:100F100047009C433AC4B246A30FF100381822861A
:100F200085451305F10145B712463E8555B71301B6
:100F3000C1FD32CA2A8605652EC836CC8145140803
:100F4000130585C706C63ACE3ED036C03D35B24001
:100F5000130141028280096513054533C9BF096544
:100F600013054534E9B7211106CA22C82AC02AC28E
:100F70002EC485C12A848A8511E181451305A01BF1
:100F8000ED3B01C4124582471D8DD24042446101B0
:100F900082800144DDB7011132C82E86B70500807A
:100FA00036CA93C5F5FF140806C63ACC3ECE36C005
:100FB0005D3FB240056182802A96AA876393C7008D
:100FC00082802380B7008507D5BFAA8703C70500A5
:100FD0002380E70011E3828085058507C5BF81472F
:100FE0006313F60082803387F500834607003307DA
:100FF000F50085072300D700E5B7797122D4930760
:1010000000042E842E86AA851305110006D623001F
:10101000F100F137930514000A850934B2502254C7
:1010200045618280511122C22A841305100206C430
:1010300026C03D3601452D361305F007153613053C
:101040002002393E2285293E2285193E654493843B
:10105000013D83C704008DC7811793F7F70F096718
:10106000939627001305C745B69795453E9571376A
:1010700085047D1479FCA2401244824431018280AF
:10108000896795451385C7458D3FE5B72A868965EC
:101090005111938585351385013D06C4ED3D13053A
:1010A000C003EFF03F8E09E5A2401D4531019DBF11
:1010B000A24031018280511106C422C226C0AA84F6
:1010C00065312A84AA8526857D3C096585451305F9
:1010D0004536553CA24013051400124482443101A8
:1010E000828039C59307F0072A866303F5045111FE
:1010F00022C28965938585361385013D06C4613D0D
:101100001385013D4D3F938701C480431305C00300
:101110001307140098C3EFF0FF8619E51375F40F59
:101120001244A2403101FDBDA2401244310182802F
:101130008280B7270240054798C3B7170240370798
:10114000080123A207001307170898C337079F0059
:1011500098C7B7060002371702401C43F58FF5DF2A
:101160005C43B7160240F19B93E727005CC321471D
:10117000DC42B18BE39EE7FEB70700E023AC070E2D
:101180001307000823AAE70E8280130141F706C562
:1011900022C326C16001713FB7F700E0316723A089
:1011A00007001307F7B798CB23A40700938401CB5C
:1011B00023A00400984337454900130505E0136751
:1011C000770098C3B7E700E0056723A0E71037175B
:1011D00002401C4F93E757031CCFEFF0AF87371740
:1011E00001408327074013060740C19B93E7870010
:1011F0002320F74085471CCA9840938601CB232AB9
:10120000D4FA232CE4FA98402326E4FA138641C04A
:101210000346A600138741C001E62305F70021A07D
:101220009147E3ECC7FEB7170240904B370520000B
:10123000B705E0FF498E90CB904BFD1585646D8E10
:1012400090CBD44F3706C0FB7516C98ED4CF944FC0
:1012500093E6160194CFB7070140D443F18ED4C36F
:10126000D4437D761306F60FD4C3B71701409443D9
:1012700093F6F6F094C3944393E6060D94C3944317
:10128000F18E94C39443138604D0D18E94C3B75681
:10129000004083D74640C207C18393F707FC93E71A
:1012A00087012392F6401C4361671307076A9395F1
:1012B00017006362F7363775DC02130505C0EFE0EF
:1012C000BFDEFD14658D4205418137570040231E66
:1012D000A74083570740C207C18393E71700231035
:1012E000F740EFF04FDA630605340965130545371B
:1012F000D933B7170140938707409C47858B232A32
:10130000F4F86390071009651305053D6D33938765
:10131000813905472390E7001387C1C1D8C305670A
:10132000130767F5D8CB0567130600021307E7F527
:1013300023A6070023880700238E070098CF238168
:1013400007002384C70023A0070223A207022384E7
:101350000702B7170240D44FB7052000CD8ED4CF77
:10136000984BB706E0FFFD164D8F98CB984BA165C3
:10137000758F98CBB757004083D60740C206C1820D
:10138000CD8E2390D74083D60740B7050040C606D0
:10139000C5822390D74083D64740C206C18293E6D8
:1013A00086012392D74083D64740C206C18293E686
:1013B00006702392D740B7E600E023A0B610238F33
:1013C000C640B705008023A0B610A38FC640E176C3
:1013D000C106239ED7409306E00E2394D740239660
:1013E000074003D707404207418313671700239044
:1013F000E74003D707404207418313670740239024
:10140000E740371602401C4E856613870601D98FC8
:101410001CCEB71401409C40370710FF7D17F98F91
:101420009CC09C403707B000D98F9CC09C403707B8
:1014300000F17D17F98F9CC09C403707000BD98FB6
:1014400071779CC013074730B73701402390E700FE
:101450001D472398E70003D74700B10742074183A0
:1014600013672700239CE7FE03D747FF420741830A
:1014700013670704239AE7FE584A1367170058CAF0
:101480000D67370602401307070B18DA1CDE130737
:1014900030022388E1C89840419B1367170098C029
:1014A0009C4045777D17F98FD58F9CC0C1679CC83C
:1014B000B7474900138507E0EFE0DFD90547B74795
:1014C000490098C8138507E0EFE0DFD80545EFE055
:1014D0001FE737859200130505C0EFE0BFD74545EC
:1014E000EFE0FFE5B7474900138507E0EFE09FD63F
:1014F00013056003EFE0BFE4EFE09FE61305800A09
:10150000EFE09FE21305A003EFE07FE3EFE05FE58C
:101510001545EFE07FE18965414693854543130515
:10152000C4FB753C1305000EEFE07FE10546C145A5
:101530001305C4FBEFE0FFEC8965414693858544C4
:101540001305C4FC693C1305100EEFE05FDF054690
:10155000C1451305C4FCEFE0DFEAB754070013856B
:101560000430EFE03FCF13051002EFE05FDD4D45A3
:10157000EFE0FFDC13850430EFE0DFCD13059002D0
:10158000EFE0FFDB13850430EFE0DFCC21671307CA
:10159000F780930600081306000A81450145EFE035
:1015A000DFF88D47232604F82328F4FA8144232CFE
:1015B00004F8832744FB032784FB9C432328F4F887
:1015C000832744FB9C43232CF4FA832684FBB71720
:1015D0000140938707409C473386E640CD4663F041
:1015E000C65A832604FB0947858B6384E6580D475A
:1015F0006389E61663910652638E074E032744FB08
:101600001843232CE4FA032744FB18432326E4FA67
:101610002328F4FA85AA3775DC02BE95130505C0A8
:10162000EFE09FA8FD14658D42054181A1675D8DA6
:1016300069B91305C003EFF0EFB46318050E8D67A9
:10164000238601CA938707B803C507001307F00F65
:10165000631EE50213051002EFF08FD00145EFF095
:101660002FD01305F007EFF0AFCF13052002EFF0F6
:101670002FCF0145EFF0CFCE1D45EFF06FCE930594
:1016800000021385C1CAEFF05F9709A885072328D8
:10169000F4FAEFF0EFCC832704FB5DD5138581F9D5
:1016A000130600408145EFF03F9113051002EFF063
:1016B0002FCB0145EFF0CFCA1305F007EFF04FCA6B
:1016C00013052002EFF0CFC90145EFF06FC91D45AA
:1016D000EFF00FC98144938781F90145A69713075D
:1016E000050293150701C181898D3E952324E4FAF3
:1016F0002328F4FAEFF07F90032784FA832704FB72
:101700003A8513070008E31CE5FC9384040893075B
:101710000040E392F4FC8965938585381385013D8B
:10172000EFF0BF8A0145EFF0FF8F096513054539DA
:10173000EFF07F9881442685EFF0CFA401E5268560
:10174000EFF03F9A850493F4F40F9307F007E394C6
:10175000F4FE09651305853BEFF0FF95EFF01F934D
:1017600049BE8DE3832744FB032744FB232804FA67
:101770009C4318432326E4FA032784FB232CF4FA22
:101780002326E4F8832704F91307803E858FE3724C
:10179000F7E2832744F991CB832784F993841700D8
:1017A0003E85EFF0BF8E232C94F8B7F700E0884712
:1017B00093050003B7D45B07EFE01F8F2324A4F841
:1017C000054709652390E1CA1305C5406947239180
:1017D000E1CAEFE09FC81387413CA3050700938649
:1017E000413C2D47938454D17D171377F70FA945BA
:1017F00026852322E4FA2324D4FAEFE0FF8F832600
:1018000084FA13050503A9452385A6002685EFE084
:101810003F89832684FA032744FA0946AA84FD16E1
:101820009387413CE312C7FC13852700EFE0FFC21A
:10183000EFF02F822320A4FAEFF0AF812324A4FA43
:10184000EFF02F818963CD4593848365EFE09F8816
:101850009377F50F8607832684FAA69703D60700A9
:101860003685930500052322C4FAEFE0BF860327DF
:1018700004FA9377F50F9305000A3A852324F4FAC6
:10188000EFE05F85832784FA032644FA1375F50F8A
:10189000BE85EFE09FB4938241CB03C302001316D1
:1018A00003014186232264FA2324C4FAEFE07FFA7D
:1018B000CD45EFE03F821375F50F0605032684FA48
:1018C0002695035705008547930600058145328517
:1018D000EFE07FD8032344FA896313878365050308
:1018E0002322E4FA1373F30F9307F009938241CB99
:1018F00063EA672823806200138351CB834403008B
:1019000093960401C1862324D4FAEFE09FF4CD45D9
:10191000EFE04FFC832744FA1375F50F06053E955B
:10192000832684FA0357050085471306400BB685C6
:101930000145EFE05FD2850493F4F40F9307F004C0
:10194000138351CB63E3972423009300416713066D
:10195000600495471307078093066004814501459D
:10196000EFE07FCFEFE0FFEE2320A4F8EFE07FEE83
:10197000AA84EFE01FEE2322A4F8EFE09FED2324DA
:10198000A4FAEFE01FEDCD45EFE0CFF4032744FAD2
:101990009377F50F8607BA97832684FA03D7070053
:1019A000930500053685232EE4F8EFE0AFF2032619
:1019B00044F89376F50F9305000A32852320D4FA74
:1019C000EFE04FF11376F50F9305000526852324EC
:1019D000C4FAEFE02FF0032304F89374F50F930596
:1019E000000A1A85EFE00FEF0327C4F9832604FAF3
:1019F000032684FA8547A6851375F50FEFE0BFC56A
:101A0000B7071400A907232EF4FAB7073C00938701
:101A100087022320F4FCB70746009387070523229B
:101A2000F4FC9307C4FB232224F82324F4FA1301C3
:101A3000C1FDBE848547232E24F82320F4FA0143F8
:101A4000032504FA8D45232064F8EFE0EFEA9315AF
:101A500025009307C4FBBE958396240003972500B9
:101A6000032304F86388E6060395040083950500C4
:101A70009317130063DEE6100326C4F99A978A07CA
:101A8000B297131605013385A54090C7B305D7401B
:101A90004205232A64F6232CF4F6232ED4F62320C1
:101AA000E4F8EFE0EFDF832784F7032704F88326C9
:101AB000C4F7032344F7C8C3931713000326C4F9DC
:101AC0009A978A07B29705032390D7002391E700DE
:101AD0001373F30F832704FA11479104850723201A
:101AE000F4FAE39FE7F4D1468327C4F90147814420
:101AF000A16505A2832784FB0327C4F83387E74049
:101B00008567938707FAE3FFE7C609651305053E76
:101B1000EFF06FDA85B9032784FB8326C4FA158FAB
:101B20008DE39307F00963EEE700832744FB9C43B2
:101B3000232CF4FA832744FB9C432326F4FA894799
:101B4000C1BC85469307000A2328D4FAE3FCE7C208
:101B500009651305C53EEFF00FD6832744FB9C4370
:101B6000232CF4FA832744FB9C432326F4FA8D4765
:101B700045B4E38907C089671385C73FE9BF232CB4
:101B8000E4FA09B12380020085BB230003007DBB7A
:101B90000326C4F99A978A07B297939205010D8D8F
:101BA00023A45700B385E6404205232AD4F6232C0C
:101BB00064F6232EF4F62320E4F8EFE06FCE03273B
:101BC00004F88327C4F7032644F7BA86032384F76F
:101BD000C8C33287D5B50396070063C8C60203960B
:101BE000270063D4C60283A287001385140013065E
:101BF00044FF8604B2943386B2004186239CC4FC21
:101C0000D0439374F50F169690C705071377F70F17
:101C1000B107E31267FC9302C4FC16860547FD502A
:101C20006362971C938314008603858093F3C31F1C
:101C30008A04969396946398531E8506139706011B
:101C40004183C20693077004C186E31FF7E8854409
:101C50008D452685EFE04FCA9307C4FB0A053E95E4
:101C60008316250003160500832584FA032584FACC
:101C70004167839525000315050089477D17EFE02F
:101C80009F9D832784FA850491072324F4FA9147C2
:101C9000E390F4FC938781CA83C40700032144F8CE
:101CA000139304011397140013530301232064FAC0
:101CB0002324E4FAEFE0FFB9CD45EFE0AFC183277D
:101CC00044FA032784FA1375F50F06053E9503239E
:101CD00004FA930600051306000A998E198E03571D
:101CE0000500C2064206C18241829A851A85EFE04C
:101CF0005FAF850493F4F40F13077002938781CAD2
:101D00006364971623809700EFE0BFB42320A4FA02
:101D1000EFE03FB4AA84EFE0DFB3CD45EFE08FBB47
:101D2000032744FA9377F50F8607BA9703D707007E
:101D30009305C00326852324E4FAEFE0AFB9832698
:101D400004FA9374F50F9305C0083685EFE08FB859
:101D5000032784FA5146D146A6851375F50FEFE0A7
:101D60005FA8EFE01FAF2320A4FAEFE09FAEAA84A4
:101D7000EFE03FAECD45EFE0EFB5032744FA9377B0
:101D8000F50F8607BA9703D707009305C00326858A
:101D90002324E4FAEFE00FB4832604FA9374F50FDA
:101DA0009305C0083685EFE0EFB2032784FAD146E9
:101DB0005146A6851375F50FEFE02FF7B7F700E052
:101DC000884793050003EFE02FAE832784F8B3051F
:101DD000F54009651305C541EFF06F95832404F9BB
:101DE0006FF02FFD9307F7FF03152600E207E18749
:101DF000B28583930500635A7500FD17E2072391AE
:101E00007500E187F915E39617FE8507E207E1877C
:101E10008607930544FFAE970507239CA7FC13771D
:101E2000F70F0906F5BBE38A54E003950200039619
:101E300022006359C5024167B685854713070780AD
:101E4000232C74F6232E64F6232054F82320D4FA8E
:101E5000EFE07F80832384F70323C4F7832204F811
:101E6000832604FA9102C1BB2380070071BD1301D0
:101E7000C1FD22CE06D026CC2A84635FC00A930718
:101E8000E00FAE8463C1C70C9302F00FB382C2406F
:101E900096851375F50F16C232C097E0FF1FE780D5
:101EA000E01A02462ACA13F5F40FB28597E0FF1F25
:101EB000E780C01992422AC813558400968513758D
:101EC000F50F16C697E0FF1FE780401802462AC4A8
:101ED00013D58400B2851375F50F32C297E0FF1F4A
:101EE000E780C016B2422AC01355040196851375C7
:101EF000F50F97E0FF1FE780601512462A8413D57F
:101F00000401B2851375F50F97E0FF1FE7800014F9
:101F10004243D247824622479A972A94369793871C
:101F200007081307070813040408A183137707F0B1
:101F30002180D98F42045D8C825022857244E24414
:101F40001301410282802E84C5BF111126C883A4CB
:101F5000C1C9138781C91843138681C922CA06CC17
:101F6000AA872E849306050332C0634A0704638A56
:101F7000F604634F97043386F64081453E853AC2A6
:101F8000EFF08F83124715CC639AE400B706024046
:101F90009C5A93F7F7FD9CDA23AA01C8050715A000
:101FA0002390070023910700239207002393070043
:101FB000239407000507B107239F07FE7DB7E39130
:101FC000F6FE8247E240524498C3C24471018280C7
:101FD000138641C410429302170032971306F00F84
:101FE0006343E0000146B7457F000D659385050416
:101FF0001305F50F16C63EC436C2953D1356B500FF
:10200000096713078763798A3A96A2470356060041
:10201000B24292462390C70013567500798A3A96C9
:1020200003560600B107239BC7FE13563500798A75
:102030003A9603560600239CC7FE1376F500060663
:102040003A9603560600239DC7FE135635013D817F
:10205000798A79893A963A9503570500035606001E
:10206000239FE7FE239EC7FE168711B71301C1FC0D
:102070003EC2B70702409C4322D026CE06D816D6D1
:102080001AD41ED22ACC2ECA32C836C63AC43EC092
:10209000370402409304001044C0824793F707407E
:1020A00089C78545138581CB4D35824793F7072036
:1020B00089C78145138581CE493D1C403EC082477A
:1020C00093F70710F1FB0254C250B25222539253BD
:1020D000F2446245D2454246B24622479247130136
:1020E00041037300203051113EC0B7F700E03AC2FF
:1020F000984B36C4B166938606B8369798CB23A220
:102100000700938701CB9843A246050798C312475F
:10211000824731017300203079713EC0B7570040CB
:102120003AC203D747419387074083D7870126CC1C
:1021300006D69314070116D41AD21ED022CE2ACA6C
:102140002EC832C636C4098BC18005C313878139B6
:102150008546C207C1832300D700834617009D83AD
:10216000858B2301D7002305F70293F7040495C755
:102170009387813903C7070079C337570040130796
:1021800007400357070123800700A3840702137742
:10219000F70FA380E7002381E70093F70408A1C7A6
:1021A0009387813903C7A70203C52700A3840702C9
:1021B000B7570040938707401384813979CB034791
:1021C00004016376E50E58442A9703470700137706
:1021D000F70F2398E7005C5091C382978347240050
:1021E00085072301F400C18885CC37570040835709
:1021F0000740C207C18393F7F7DFC207C1832310EB
:10220000F7409387813903C7A7024DC7985309CB7D
:1022100003C5170083C52700898D93F5F50F029735
:102220007244B250A25212538253E2445245C24504
:102230003246A2461247824745617300203083C66A
:10224000A7020547A384E70203C7270095C683C6F4
:102250000701E374D7F483C68702A1F2B7560040A2
:1022600003D60641D447BA961376F60F2380C600EC
:1022700005072381E70015B783C68700E37FD7F002
:1022800083C6C70199FAB756004003D60641D44326
:10229000D9BF03478400637CE50058402A97034771
:1022A00007001377F70F2398E7001C4C35B72398E6
:1022B000070015BFD84BA1BF51113AC23757004094
:1022C0003EC08357474136C49396070193F70710E2
:1022D000C18289CF8357474113070740C207C18393
:1022E00093F7F7EFC207C183231AF70093F706208D
:1022F00089CF3757004083574741C207C18393F7BF
:10230000F7DFC207C183231AF74093F6064089CE50
:102310003757004083574741C207C18393F7F7BF40
:10232000C207C183231AF740A246124782473101F0
:1023300073002030494D205752495445454E205492
:102340004F0A0D00494D2052454144454E2046520A
:102350004F4D2E0A0D000000636F756E746572207C
:10236000256C75000A0000004932433A2030782578
:10237000303258004661696C656420746F20696E64
:10238000697420493243000048656C6C6F204265D7
:10239000652100002D2D2D2D5363616E6E696E67D2
:1023A000204932432042757320666F72204465765F
:1023B000696365732D2D2D002D2D2D2D446F6E65B8
:1023C000205363616E6E696E672D2D2D2D0A0000FE
:1023D00049324320536C617665206D6F646500005F
:1023E0004C6F6E67205072657373000053696E679F
:1023F0006C6520436C69636B00000000446F75627C
:102400006C6520436C69636B0000000048656C6C70
:102410006F20576F726C64210000000053543737EF
:1024200033352072756E74696D653A20256C7520A0
:1024300075730A0009160920211B131917151E2B85
:102440000405020E000000000B14081E221D181EB9
:102450001B1A242B0606020F0000000000000000DB
:102460000000005F00000007000700147F147F14C5
:10247000242A7F2A12231308646236495522500009
:1024800005030000001C2241000041221C00082A14
:102490001C2A0808083E08080050300000080808F8
:1024A0000808006060000020100804023E51494501
:1024B0003E00427F400042615149462141454B3137
:1024C0001814127F1027454545393C4A49493001C7
:1024D000710905033649494936064949291E00361E
:1024E000360000005636000000081422411414146F
:1024F000141441221408000201510906324979419D
:102500003E7E1111117E7F494949363E41414122AB
:102510007F4141221C7F494949417F090901013E10
:10252000414151327F0808087F00417F410020402F
:10253000413F017F081422417F404040407F020418
:10254000027F7F0408107F3E4141413E7F09090917
:10255000063E4151215E7F091929464649494931C4
:1025600001017F01013F4040403F1F2040201F7F6D
:102570002018207F63140814630304780403615156
:1025800049454300007F4141020408102041417F3A
:1025900000000402010204404040404000010204E7
:1025A0000020545454787F484444383844444420EC
:1025B000384444487F3854545418087E09010208AE
:1025C0001454543C7F0804047800447D40002040AB
:1025D000443D00007F10284400417F40007C0418E7
:1025E00004787C0804047838444444387C14141477
:1025F00008081414187C7C08040408485454542017
:10260000043F4440203C4040207C1C2040201C3C97
:102610004030403C44281028440C5050503C446406
:10262000544C44000836410000007F000000413651
:10263000080008082A1C080088888E88E888EE8828
:10264000888E8E8EE88EEE8E88E88EE8E8E8EEE8DA
:1026500088EE8EEEE8EEEEEE00000F00E003EF03F2
:1026600000780F78E07B18C6EF7B1F00E007FF07BC
:1026700000F81FF8E0FFFFFF20FDE5AF18FC0000A9
:1026800000000000003E5B4F5B3E3E6B4F6B3E1C0C
:102690003E7C3E1C183C7E3C181C577D571C1C5E23
:1026A0007F5E1C00183C1800FFE7C3E7FF001824FA
:1026B0001800FFE7DBE7FF30483A060E26297929A4
:1026C00026407F050507407F05253F5A3CE73C5AD9
:1026D0007F3E1C1C08081C1C3E7F14227F22145FB6
:1026E0005F005F5F06097F017F006689956A606011
:1026F00060606094A2FFA29408047E040810207E0B
:10270000201008082A1C08081C2A08081E1010108F
:10271000100C1E0C1E0C30383E3830060E3E0E06D5
:10272000000000000000005F000000070007001428
:102730007F147F14242A7F2A1223130864623649E7
:102740005620500008070300001C224100004122CF
:102750001C002A1C7F1C2A08083E080800807030D4
:102760000008080808080000606000201008040243
:102770003E5149453E00427F400072494949462149
:1027800041494D331814127F1027454545393C4ABD
:1027900049493141211109073649494936464949D4
:1027A000291E00001400000040340000000814221C
:1027B000411414141414004122140802015909068A
:1027C0003E415D594E7C1211127C7F494949363E8B
:1027D000414141227F4141413E7F494949417F0971
:1027E0000909013E414151737F0808087F00417F7C
:1027F00041002040413F017F081422417F4040407A
:10280000407F021C027F7F0408107F3E4141413E11
:102810007F090909063E4151215E7F091929462693
:102820004949493203017F01033F4040403F1F2097
:1028300040201F3F4038403F63140814630304786E
:1028400004036159494D43007F414141020408108E
:1028500020004141417F04020102044040404040C9
:10286000000307080020545478407F284444383837
:1028700044444428384444287F38545454180008A9
:102880007E090218A4A49C787F0804047800447D83
:1028900040002040403D007F1028440000417F4020
:1028A000007C047804787C08040478384444443874
:1028B000FC1824241818242418FC7C080404084854
:1028C0005454542404043F44243C4040207C1C20A5
:1028D00040201C3C4030403C44281028444C909000
:1028E000907C4464544C440008364100000077005A
:1028F00000004136080002010204023C2623263C67
:102900001EA1A161123A4040207A385454555921F1
:1029100055557941225454784221555478402054D9
:102920005579400C1E527212395555555939545427
:10293000545939555454580000457C410002457D96
:10294000420001457C407D1211127DF0282528F0BF
:102950007C545545002054547C547C0A097F4932EC
:10296000494949323A4444443A324A4848303A4163
:1029700041217A3A42402078009DA0A07D3D42420C
:10298000423D3D4040403D3C24FF2424487E494395
:10299000662B2FFC2F2BFF0929F620C0887E090308
:1029A00020545479410000447D413048484A32382F
:1029B0004040227A007A0A0A727D0D19317D26295B
:1029C000292F28262929292630484D402038080853
:1029D000080808080808382F10C8ACBA2F10283487
:1029E000FA00007B000008142A142222142A14087A
:1029F0005500550055AA55AA55AAFF55FF55FF0089
:102A00000000FF00101010FF00141414FF0010103D
:102A1000FF00FF1010F010F0141414FC001414F751
:102A200000FF0000FF00FF1414F404FC141417103E
:102A30001F10101F101F1414141F00101010F0008E
:102A40000000001F101010101F10101010F01000C8
:102A50000000FF101010101010101010FF100000D8
:102A600000FF140000FF00FF00001F10170000FC13
:102A700004F414141710171414F404F40000FF00E5
:102A8000F714141414141414F700F714141417146E
:102A900010101F101F141414F4141010F010F00074
:102AA000001F101F0000001F14000000FC14000095
:102AB000F010F01010FF10FF141414FF1410101079
:102AC0001F00000000F010FFFFFFFFFFF0F0F0F02C
:102AD000F0FFFFFF0000000000FFFF0F0F0F0F0FC0
:102AE0003844443844FC4A4A4A347E02020606020C
:102AF0007E027E0263554941633844443C04407E73
:102B0000201E2006027E020299A5E7A5991C2A49EB
:102B10002A1C4C7201724C304A4D4D303048784876
:102B200030BC625A463D3E494949007E0101017E62
:102B30002A2A2A2A2A44445F444440514A444040B5
:102B4000444A51400000FF0103E080FF00000808F4
:102B50006B6B083612362436000609090600001889
:102B6000180000001010003040FF0101001F01019B
:102B70001E00191D1712003C3C3C3C0000000000E8
:102B8000AED580A83FD300408D142000A1C8DA1232
:0C2B9000818FD9F1DB40A4A6AFFF00004C
:102B9C00801A06000000000038000100A086010029
:102BAC00000000003C000100AA0000000000000032
:102BBC000000000000000000000000000000000009
:102BCC0000000000000000000100000001000000F7
:102BDC0042FFFFFF00000000AA87014513F7150014
:102BEC0011C33E9585818607F5F9828051113AC251
:102BFC00370702403EC05C4336C48966D58F5CC340
:102C0C00B717014093870740D847A24613470704DC
:0C2C1C00D8C712478247310173002030F6
:00000001FF
