:100000006F00802D000000009403000044030000F6
:1000100000000000000000000000000000000000E0
:1000200000000000000000000000000000000000D0
:10003000DA0500000000000044030000000000009A
:100040004403000044030000440300004403000094
:100050004403000044030000440300004403000084
:100060004403000044030000440300004403000074
:100070004403000044030000440300004403000064
:100080004403000044030000440300004403000054
:10009000440300004403000044030000000000008B
:1000A000370700E08327470F9306470F93F70708AA
:1000B000F5FBB7273078938787089CC271473706CE
:1000C00000E02543F1558327460F93F70708E5FF26
:1000D000B357E50093F6F700930700036354D3008A
:1000E00093077005B697A20793E75708232AF60EE1
:1000F0007117E31AB7FC828003470500B717014068
:100100009387078093564700AA06BE963D8B904280
:100110000A07BD47B397E70093C7F7FFF18F25465E
:100120003317E6002322050023240500D98F9CC243
:10013000B73701401307F00F938707C0D8DB98DF6C
:10014000D8DFB8C303572500930600046301D70A1C
:1001500063ECE60091466304D704C1466305D70605
:100160008546630BD700828093060010630BD70887
:100170008566630CD70A828083D60702C206C182D5
:1001800093E636002390D70283D68701C206C18248
:1001900093E60606239CD700A300E500828003D7E0
:1001A0000702420741831367C7002390E70203D782
:1001B00087014207418313670706239CE7008547B1
:1001C000A300F50082800947A300E50003D70702DA
:1001D00042074183136707032390E70203D7870190
:1001E000996642074183558F239CE7008280094727
:1001F000A300E50003D70702420741831367070CFA
:10020000E1BF0D47A300E50003D707024207418382
:10021000136707302390E70203D7C70142074183E2
:1002200013670706239EE70082801147A300E500BD
:1002300003D707028D6642074183558F2390E7025B
:1002400003D7C701996642074183558FE1BF9C459B
:100250009146B307F54063F5F60203C7150088C55C
:100260000D46DC41630CC704636DE60085466305FB
:10027000D7028946630BD702850793F7F70FDCC1D6
:100280008280E31BD7FE9396070137370140C18276
:10029000130707C034C3CDB7939607013737014022
:1002A000C182130707C054DBC1BF939607013737DC
:1002B0000140C182130707C014DF7DBF9396070179
:1002C00037370140C182130707C054DF75B7B7073E
:1002D00000E083A7470F828097010020938141129D
:1002E00013814140096513050588731005308D465B
:1002F00017050000130505D1558D73105530138572
:1003000041C0938581C001466356B50010C11105F7
:10031000E34EB5FE1305C060938541C0138641C00E
:100320006388C500144194C111059105E39AC5FE87
:10033000B7F700E0154798C39307604673901734EA
:100340007300203073251034A13B73250030893BA6
:1003500073253034B133732520349933370700E0E7
:100360008327470F9306470F93F70708F5FB856729
:10037000938757A89CC2370700E08327470F93064F
:10038000470F93F70708F5FBB7B7AAAA938737A8D3
:100390009CC201A0371702401C47B7068000D58FCA
:1003A0001CC7B70700E083A7470F1307000C93F79C
:1003B000070C638CE7045111B707100022C206C472
:1003C0002A848507B70600E003A7460F1386460F69
:1003D0009375070885E111C3DD3D41657D159317D0
:1003E0008400E98F93E75708370700E0232AF70EC8
:1003F000054501A8FD17E9FB1C42014593E7070CE1
:100400001CC2A24012443101828001458280B7277C
:100410000240054798C3B71702403707080123A2D7
:1004200007001307170898C337079F0098C7B70638
:100430000002371702401C43F58FF5DF5C43B71607
:100440000240F19B93E727005CC32147DC42B18B5C
:10045000E39EE7FEB70700E023AC070E1307000892
:1004600023AAE70E8280130181FAA6C686CAA2C813
:10047000793FB7F700E0316723A007001307F7B70C
:1004800098CB23A40700138741C02320070098437B
:100490008566938441C01367770098C337E700E00F
:1004A0002320D710B7160240984E1367570398CEF3
:1004B0009847B7474900938707E03E97B7F600E0B3
:1004C0009C46998FE3CE07FEC16793872703BEC082
:1004D000B7070400938707033EDAB70710008507C4
:1004E0003ED4B707400089073ECEB7070001938787
:1004F00037023EC8B7070010938747023EC282C248
:1005000082C402DC02DE02D602D802D002D202CAC3
:1005100002CC02C402C6B7170240944F0567130706
:100520000780D98E94CFB7060140D0428800D0C250
:10053000D4472166558FD8C7D847FD769386F67F76
:10054000758FD8C7B7360140239406C21307F00F42
:100550002396E6C203D746C14207418313671700BB
:10056000239AE6C003D746C442074183518F2392A2
:10057000E6C483D706C0C207C18393E71700239060
:10058000F6C09D3E48188D3E2810BD366808AD3631
:1005900008089D3648008D36814780408C003EC05B
:1005A000228575314C1822855D312C10228545310C
:1005B0006C08228569390C08228551394C00228546
:1005C000793182471307803EB306F440E377D7FCC6
:1005D0001305E002F933A287C9B751113EC0B7F73E
:1005E00000E03AC2984B36C4B166938606B8369797
:1005F00098CB23A20700938741C09843A2460507E2
:0C06000098C3124782473101730020307C
:00000001FF
