:100000006F00602C0000000082030000320300003B
:1000100000000000000000000000000000000000E0
:1000200000000000000000000000000000000000D0
:100030008A050000000000003203000000000000FC
:1000400032030000320300003203000032030000DC
:1000500032030000320300003203000032030000CC
:1000600032030000320300003203000032030000BC
:1000700032030000320300003203000032030000AC
:10008000320300003203000032030000320300009C
:1000900032030000320300003203000000000000C1
:1000A000370700E08327470F9306470F93F70708AA
:1000B000F5FBB7273078938787089CC271473706CE
:1000C00000E02543F1558327460F93F70708E5FF26
:1000D000B357E50093F6F700930700036354D3008A
:1000E00093077005B697A20793E75708232AF60EE1
:1000F0007117E31AB7FC828003470500B717014068
:100100009387078093564700AA06BE963D8B904280
:100110000A07BD47B397E70093C7F7FFF18F25465E
:100120003317E6002324050023260500D98F9CC23F
:100130005C411307F00F93060004D8DB98DFD8DF8B
:10014000B8C3035725006303D70A63ECE600914662
:100150006304D704C1466305D7068546630BD70001
:100160008280930600106302D70A85666301D70C6C
:10017000828083D68701C206C18293E68606239CCD
:10018000D70083D60702C206C18293E636002390C9
:10019000D702A300E500828003D78701420741838D
:1001A00013670706239CE70003D707024207418332
:1001B0001367C7002390E7028547A300F5008280FC
:1001C00003D787019D669386068042074183558F3A
:1001D00042074183239CE70003D70702420741837C
:1001E000136707032390E7028947C1BF03D787013D
:1001F000996642074183558F239CE70003D7070286
:10020000420741831367070CF1BF03D7C7014207B9
:10021000418313678706239EE70003D7070242073F
:100220004183136707302390E7028D4779B703D7DF
:10023000C7019D669386068042074183558F42071A
:100240004183239EE70003D707028D66420741835F
:10025000558F2390E70291478DB7DC451146B307D0
:10026000F5406376F60203C71500C8C50D459C45E9
:10027000D4416300A704636DE50005466301C7022E
:1002800009466303C702850793F7F70F9CC5828071
:10029000E31BC7FE139707014183B8C2EDB713975D
:1002A00007014183D8DAC5B713970701418398DE68
:1002B000D9BF139707014183D8DEF1B7B70700E034
:1002C00083A7470F828097010020938161131381D8
:1002D0004140096513050588731005308D461705E3
:1002E0000000130525D2558D73105530138541C07C
:1002F000938581C001466356B50010C11105E34ED8
:10030000B5FE1305C05B938541C0138641C0638869
:10031000C500144194C111059105E39AC5FEB7F7D4
:1003200000E0154798C39307404573901734730056
:10033000203073251034AD33732500309533732589
:100340003034B93B73252034A13B370700E08327C5
:10035000470F9306470F93F70708F5FB85679387C9
:1003600057A89CC2370700E08327470F9306470F23
:1003700093F70708F5FBB7B7AAAA938737A89CC2DB
:1003800001A0371702401C47B7068000D58F1CC755
:10039000B70700E083A7470F1307000C93F7070C7C
:1003A000638CE7045111B707100022C206C42A84E7
:1003B0008507B70600E003A7460F1386460F93751F
:1003C000070885E111C3DD3D41657D159317840064
:1003D000E98F93E75708370700E0232AF70E054512
:1003E00001A8FD17E9FB1C42014593E7070C1CC25D
:1003F000A24012443101828001458280B727024029
:10040000054798C3B71702403707080123A2070022
:100410001307170898C337079F0098C7B70600024D
:10042000371702401C43F58FF5DF5C43B7160240D7
:10043000F19B93E727005CC32147DC42B18BE39E2D
:10044000E7FEB70700E023AC070E1307000823AA56
:10045000E70E82805D71A2C486C6A6C24537B7F793
:1004600000E0316723A007001307F7B798CB23A458
:100470000700138741C02320070098438566138433
:1004800041C01367770098C337E700E02320D710F7
:10049000B7160240984E1367570398CE9847B74750
:1004A0004900938707E03E97B7F600E09C46998F96
:1004B000E3CE07FE37071000130737033AD237079A
:1004C0000001130707023ACAC16737070010938774
:1004D0004703130777033EDA3AC202DE82C002D630
:1004E00002D802CE02D002C602C8370701405443E8
:1004F000B70700403EDC3ED43ECC3EC454C3371761
:100500000240544F481893E6160054CF144B93E61C
:10051000160014CB144BF99A14CB2394070213073B
:10052000F00F2396E70203D7470142074183136781
:100530001700239AE70003D7070042074183136798
:1005400017002390E7004D3E48107D3648086D3671
:1005500048005D36814704404C183EC02685F53979
:100560004C102685DD394C082685C5394C0026857A
:10057000ED3182471307803EB386F440E37DD7FC1C
:100580001305E0023135A687F9B751113EC0B7F720
:1005900000E03AC2984B36C4B166938606B83697E7
:1005A00098CB23A20700938741C09843A246050732
:0C05B00098C312478247310173002030CD
:00000001FF
